S00F000070656E6775696E2E737265631F
S11300000C9466010C9487010C9487010C9487016D
S11300100C9487010C9487010C9487010C9487013C
S11300200C9487010C9487010C947B110C94A011FF
S11300300C9487010C9487010C9487010C9487011C
S11300400C9487010C9487010C9487010C9487010C
S11300500C9487010C9487010C9487010C948701FC
S11300600C9487010C94E5070C94F9070C94EF07A2
S11300700C9403080C9417080C940D080C94870135
S11300800C9487010C9487010C9487010C948701CC
S11300900C9487010C9487010C9487010C948701BC
S11300A00C9487010C9487010C9487010C948701AC
S11300B00C9487010C9487010C9487010C9487019C
S11300C00C9487010C9487010C9487010C9487018C
S11300D00C9487010C9487010C9487010C9487017C
S11300E00C9487010C9487010C943F080C945308DA
S11300F00C9449080C9487010C9487010C94870193
S11301000C9487010C9487010C9487010C9487014B
S11301100C9487010C9487010C9487010C9487013B
S11301200C9487010C9487010C9487010C9487012B
S11301300C9487010C9487010C9487010C9487011B
S11301400C9487010C9487010C9487010C9487010B
S11301500C9487010C9487010C9487010C948701FB
S11301600C9421080C9435080C942B080C948701EA
S11301700C9487010C9487010C9487010C948701DB
S11301800C9487010C9487010C9487010C948701CB
S11301900C9487010C9487010C9487010C948701BB
S11301A00C9487010C9487010C9487010C948701AB
S11301B00C9487010C9487010C9487010C9487019B
S11301C00C9487010C9487010C9487010C9487018B
S11301D00C9487010C9487010C9487010C9487017B
S11301E00C9487010C9487010C9487010C9487016B
S11301F00C9487010C94A6100C948701C50AF00A8C
S1130200C70BF00AC70B2B0B420BC70B990BA60BA2
S11302100C94990B0C942B0B0C94420B0C94F00A39
S11302200C94C70B0C94C50A0C94A60B2C034C001D
S11302305500460041002000470065006E0065003F
S11302407200690063002000480049004400200057
S1130250440065006D006F00000018034400650051
S113026061006E002000430061006D0065007200B3
S1130270610000000403090409022200010100C016
S113028032090400000103000000092111010001EA
S11302902220000705810308000512011001000057
S11302A00008EB034F200100010200010600FF09D2
S11302B001A1010902150025FF75089508810209AD
S11302C003150025FF750895089102C011241FBE6F
S11302D0CFEFCDBFDFE9DEBF00E00CBF12E2A0E04C
S11302E0B0E2E4E2F4E200E00BBF02C007900D923A
S11302F0A23BB107D9F726E2A2EBB2E201C01D92FC
S1130300A230B207E1F70E947D060C9410120C94FF
S113031000008093C308E0ECF8E082818823ECF7C6
S11303208091C3080895FC0180818093C308E0ECA8
S1130330F8E082818823ECF78091C3080895CF9375
S1130340C82F882329F080E090E20E94C50704C0EA
S113035080E090E20E94D507C093C124CF91089514
S1130360CF93C82F882329F083E090E20E94C50729
S113037004C083E090E20E94D507C093C024CF91CB
S11303800895EF92FF920F931F93CF93DF93C82F9B
S11303907B018A0180E00E94B0018C2F8F710E9442
S11303A089011016110694F4E7010E0D1F1D0F2E7E
S11303B0F0ECEF2EF8E0FF2EF02D8FEF0E94890174
S11303C0F70183818993C017D107B9F781E00E94AF
S11303D0B001DF91CF911F910F91FF90EF9008959D
S11303E0EF92FF920F931F93CF93DF93C82F7B015C
S11303F08A0180E00E94B0018C2F8F7180620E947C
S113040089011016110654F4E7010E0D1F1DCE01CB
S11304100E9493012196C017D107C9F781E00E9479
S1130420B001DF91CF911F910F91FF90EF9008954C
S1130430EF92FF920F931F93CF93DF937C018B0175
S113044080E00E94B00180EA0E9489011016110622
S113045054F4E7010E0D1F1DCE010E949301219655
S1130460C017D107C9F781E00E94B001DF91CF9195
S11304701F910F91FF90EF90089580E00E94B001CA
S113048082EE0E94890181E00E94B0010895CF9319
S113049080E00E94B0018FEF0E948901C82F81E0A3
S11304A00E94B0018C2F90E0CF910895CF93DF93F9
S11304B01F92CDB7DEB741E050E0BE016F5F7F4FC2
S11304C080E00E94C10189818260898341E050E01B
S11304D0BE016F5F7F4F80E00E94F0018FE99CE8CE
S11304E00197F1F700C0000082E08093C2240F90CE
S11304F0DF91CF910895CF93DF931F92CDB7DEB7ED
S113050041E050E0BE016F5F7F4F80E00E94C10177
S113051089818D7F898341E050E0BE016F5F7F4F09
S113052080E00E94F00181E08093C2240F90DF916B
S1130530CF910895CF93DF931F92CDB7DEB741E0FB
S113054050E0BE016F5F7F4F80E00E94C10189814E
S11305508160898341E050E0BE016F5F7F4F80E09E
S11305600E94F00183E08093C2240F90DF91CF9129
S11305700895CF93DF931F92CDB7DEB741E050E0EB
S1130580BE016F5F7F4F80E00E94C10189818E7F31
S1130590898341E050E0BE016F5F7F4F80E00E949D
S11305A0F00184E08093C2240F90DF91CF910895ED
S11305B0CF93DF931F92CDB7DEB7198241E050E0AD
S11305C0BE016F5F7F4F81E00E94F0010F90DF91C9
S11305D0CF9108951F93CF93DF931F92CDB7DEB7CA
S11305E0182F41E050E0BE016F5F7F4F82E00E9410
S11305F0C10121E030E0C90102C0880F991F1A959A
S1130600E2F79981892B898341E050E0BE016F5F55
S11306107F4F82E00E94F0010F90DF91CF911F91F4
S113062008950E94470296958795929582958F70BA
S113063089279F70892781700895CF93DF931F9234
S1130640CDB7DEB70E9447028062898341E050E063
S1130650BE016F5F7F4F87E00E94F0010F90DF9132
S1130660CF9108951F93CF93DF931F92CDB7DEB739
S1130670182F41E050E0BE016F5F7F4F8CE10E9474
S1130680C10121E030E0C90102C0880F991F1A9509
S1130690E2F79981892B898341E050E0BE016F5FC5
S11306A07F4F8CE10E94F0010F90DF91CF911F9159
S11306B00895CF93DF931F92CDB7DEB7198241E03F
S11306C050E0BE016F5F7F4F8CE10E94F0010F90FC
S11306D0DF91CF910895CF93DF931F92CDB7DEB70B
S11306E041E050E0BE016F5F7F4F8DE10E94C10188
S11306F089818460898341E050E0BE016F5F7F4F50
S11307008DE10E94F0010F90DF91CF910895CF9376
S1130710DF931F92CDB7DEB787E0898341E050E0D5
S1130720BE016F5F7F4F86E00E94F001198241E0B5
S113073050E0BE016F5F7F4F81E00E94F00181E0D5
S1130740898341E050E0BE016F5F7F4F86E00E94E5
S1130750F0010E9456028FE99CE80197F1F700C06E
S113076000000E949A0281E00E949F010F90DF9195
S1130770CF910895CF93DF931F921F92CDB7DEB729
S1130780E0E4F6E080EB818380E58093C00880E1BB
S1130790818382E0818380E00E949F0181E00E9446
S11307A0B0010E943D020E947B028EE0898341E0F9
S11307B050E0BE016F5F7F4F87E00E94F0018BE045
S11307C08A8341E050E0BE016E5F7F4F80E00E946B
S11307D0F0010E94D8020E9459030E9487030F90DF
S11307E00F90DF91CF910895EF92FF921F93CF93D3
S11307F0DF937C01EB011091C12480E00E949F01F2
S11308001C161D0694F50E941D03BE01A19714F049
S113081060E270E0C7010E941802C091C2240E94E5
S1130820B90281E00E949F018AE68A95F1F700C02F
S113083080E00E949F0107C00E9447028093C32466
S11308409093C42400000E9411038823A9F300009C
S11308500E941D03C33011F40E949A02812F0E944A
S11308609F018AE28A95F1F700C080E090E0DF9171
S1130870CF911F91FF90EF900895292F33272330B4
S11308803105C9F03CF42130310559F022303105ED
S113089069F036C02132310549F12232310559F16E
S11308A02FC082E190E02AE932E033C082E290E096
S11308B028E732E02EC099278130910559F0823023
S11308C0910571F0892B09F5E4E7F2E0849190E059
S11308D09F011FC0EAE5F2E0849190E09F0119C0F6
S11308E0ECE2F2E0849190E09F0113C089E090E093
S11308F02AE832E00EC080E290E02CEA32E009C03F
S113090080E090E020E030E004C080E090E020E06F
S113091030E0FA01208331830895FC01818185FF51
S1130920FDCF6083818186FFFDCF80E48183808158
S113093008951F93CF93DF93C0EAD6E018E01E8397
S1130940E0E6F6E091E096839683682F80EA99E0EA
S11309500E948D041D83DF91CF911F910895EF9222
S1130960FF920F931F93CF93DF93C0EAD6E018E072
S11309701E830F2EF0E6EF2EF6E0FF2EF02D01E0A1
S1130980F7010583682F80EA99E00E948D04F7013E
S113099006831D83DF91CF911F910F91FF90EF90FC
S11309A008958770806B0E9499040895CF93C82F8F
S11309B0982F9F77892F82958F7080610E94990468
S11309C08C2F8F700E949904CF910895CF93DF9359
S11309D0EC01FB018C818F7E8C83A0E6B6E082E083
S11309E011968C93119715968C938D81806C8D83C1
S11309F084818D7F813021F48D8182608D8303C059
S1130A008D818D7F8D838581882321F08D81846004
S1130A108D8303C08D818B7F8D8380819181A281A1
S1130A20B3819C01AD01220F331F441F551F60E0A9
S1130A3078E488EE91E00E94AA1121503109832FB5
S1130A408F708F832E838C8188608C83DF91CF910C
S1130A500895CF93DF9300D000D0CDB7DEB720EA5E
S1130A6036E088E0D90111968C93A0E6B6E091E0D7
S1130A7011969C931197E0E0F6E0818392E0119641
S1130A809C93119711968C93D90115968C93868318
S1130A90BAE6BA95F1F700C08583EAE6EA95F1F77C
S1130AA000C0E0E7F0E084818F7E848380E09BE1F6
S1130AB0A7EBB0E089839A83AB83BC831D821E823B
S1130AC0BE016F5F7F4F80EA99E00E94E60488EAE6
S1130AD00E9499048FE10E94990483ED0E94990475
S1130AE080E00E94990480E40E94990481EA0E94B3
S1130AF0990488EC0E9499048AED0E94990482E08A
S1130B000E94990481E80E9499048FE80E94990444
S1130B1084EA0E94990486EA0E94990485ED0E9461
S1130B20990480E80E9499048DE80E94990484E164
S1130B300E9499048BED0E94990480E40E94990418
S1130B4089ED0E94990481EF0E9499048FEA0E9422
S1130B5099042696CDBFDEBFDF91CF910895EF9221
S1130B60FF920F931F93CF93DC01EC91EE2329F1B5
S1130B707C01BFEFEB1AFB0AEF37D0F4F0E0EE0F85
S1130B80FF1FEF56FE4D00811181F80180818823FB
S1130B9061F0C1E0F801EC0FF11D80810E94AF0407
S1130BA0CF5FD8019C919C17A8F780E00E94AF0406
S1130BB0D701ED917D01E111DFCFCF911F910F910D
S1130BC0FF90EF90089520E8829FC0011124860FC2
S1130BD0911DE091BA22F091BB22E80FF91F4083E6
S1130BE0089520E8829FC0011124860F911DE09191
S1130BF0BA22F091BB22E80FF91F808108951F9358
S1130C00CF93DF93182FD62FC42F211104C00E9435
S1130C10F1058C1771F04C2F6D2F812F0E94E30585
S1130C20812F0E94D1048D2F0E94D6048C2F0E9404
S1130C30AF04DF91CF911F910895CF93DF93E0E547
S1130C40F0E080E18583808180618083818184FFFD
S1130C50FDCF8FB7F894A0E4B0E094E028ED30E045
S1130C601BBEFD0124BF90838FBF8FE39FE10197DB
S1130C70F1F700C000008C91E0E5F0E08081826033
S1130C808083818181FFFDCFE0E5F0E0868184608F
S1130C908683A0E6B0E08BE115968C93159787EBDD
S1130CA016968C931697C0ECD1E082E08A87EDE12A
S1130CB0F0E0E4911296EC931297ECE1F0E0E49109
S1130CC01396EC9313971A8681E08C9387E08093B4
S1130CD0A200E0EEF7E083E0818386838093B00096
S1130CE080E4808BE0E6F6E090E391839683848B46
S1130CF00E946D10DF91CF910895CF93DF93CDB70C
S1130D00DEB76097CDBFDEBF0E941A1180EE97E078
S1130D1089839A831B820E94BA030E946B0380E03A
S1130D200E94EA0281E00E94EA0282E00E94EA0252
S1130D3083E00E94EA0284E00E94EA0285E00E94C5
S1130D40EA0280E00E94320381E00E94320382E0E2
S1130D500E94320383E00E94320384E00E94320343
S1130D6085E00E9432038CEB92E28093BA22909346
S1130D70BB220E942905000000E0802F0E94D104BC
S1130D8080E00E94D60410E080E00E94AF041F5F60
S1130D901038D1F70F5F043081F780E40E94990482
S1130DA000E00CC021E040E0612F802F0E94FF058D
S1130DB01F5F1038B9F70F5F043011F010E0F2CF65
S1130DC0000080E00E94D1048FE992E20E94AF0506
S1130DD00E941D0683E08093E60780E38093660605
S1130DE081E08093E50710926506789461E0CE0176
S1130DF001960E94B307E0E5F0E080818260808381
S1130E00818181FFFDCF81E00E947C0881E00E9406
S1130E1072080F2EFDE0FF2EF02D8E010C5F1F4F88
S1130E2084EF91E00E943211E4EAF2E2D8018F2DBE
S1130E3001900D928A95E1F7F80101900020E9F7FD
S1130E403197BF01601B710BC8010E94F4038FE846
S1130E5092E20E94C7090E94E60BE2CF83E08093EE
S1130E60E60780E38093660682E08093E50780E1ED
S1130E7080936506089583E08093E60780E380937A
S1130E80660681E08093E5071092650608958FE871
S1130E9092E20E94B209E0ECF4E0908590689087B9
S1130EA0811102C081E101C082E293E09093E607E0
S1130EB090E390936606982F93709093E507807360
S1130EC08093650608958FE892E20E949108089540
S1130ED080919D2290919E22009729F00197809302
S1130EE09D2290939E2208950F931F93F901809160
S1130EF0E4079091640690738370892B982F917006
S1130F00908381FB992790F9918384FB992790F929
S1130F109283829586958770838388E090E0F801B8
S1130F208083918380E01F910F910895F90181E0FE
S1130F309081911101C080E0918191118260928130
S1130F409111806193819111806293E09093E607FF
S1130F5090E390936606982F93709093E5078073BF
S1130F60809365060895662379F0DC01ED91FC9188
S1130F70119721E030E0A90112960C9002C0440FB1
S1130F80551F0A94E2F741830895DC01ED91FC9129
S1130F90119721E030E0A90112960C9002C0440F91
S1130FA0551F0A94E2F745830895DC01ED91FC9105
S1130FB0119721E030E0A90112960C9002C0440F71
S1130FC0551F0A94E2F7468308951F920F920FB6B5
S1130FD00F9211240F900FBE0F901F9018951F921F
S1130FE00F920FB60F9211240F900FBE0F901F9007
S1130FF018951F920F920FB60F9211240F900FBEE7
S11310000F901F9018951F920F920FB60F921124F4
S11310100F900FBE0F901F9018951F920F920FB64E
S11310200F9211240F900FBE0F901F9018951F92CE
S11310300F920FB60F9211240F900FBE0F901F90B6
S113104018951F920F920FB60F9211240F900FBE96
S11310500F901F9018951F920F920FB60F921124A4
S11310600F900FBE0F901F9018951F920F920FB6FE
S11310700F9211240F900FBE0F901F9018951F927E
S11310800F920FB60F9211240F900FBE0F901F9066
S113109018951F920F920FB60F9211240F900FBE46
S11310A00F901F9018951F920F920FB60F92112454
S11310B00F900FBE0F901F9018950F93CF93DF934F
S11310C01F92CDB7DEB72FB72983F8941BBEFC015E
S11310D008ED04BF608389818FBF0F90DF91CF91AA
S11310E00F910895E0E5F0E09081282F2095922358
S11310F090839081892308950F931F93CF93C82FD2
S113110000E410E0F8016081687F682B80E490E0DF
S11311100E945D08F80180818C23CF911F910F916B
S113112008955F926F927F928F929F92AF92BF9237
S1131130CF92DF92EF92FF920F931F93CF93DF939F
S113114000D0CDB7DEB76C01EDB6FEB60E94A10E9D
S1131150882309F4F2C0F601208130E08091CE2486
S11311609091CF248217930709F0E7C08091CB2494
S1131170833009F48CC030F4813071F0823009F48A
S1131180C5C0DBC08A3009F4A7C08B3009F493C012
S1131190893009F0D2C04AC08091CA24813A09F04A
S11311A0CCC0ADB6BEB619821A82EAECF4E28281F2
S11311B013818B83F6018085482F50E08DB79EB74D
S11311C0841B950B8DBF9EBFEDB7FEB731964F01C3
S11311D060E070E0CF010E9409124FEF410F8E01D1
S11311E00F5F1F4F9401BE016D5F7F4FC6010E94C8
S11311F07407F60186819781009729F0408550E0B5
S1131200B4010E94001280E00E943A0E0E94BB0EBC
S11312108B8181110E942A0E69817A81C4010E9406
S11312204F0C0E940B0EADBEBEBE87C08091CA2477
S1131230813209F082C08DB69EB6EAECF4E20681F2
S11312401781728063808DB79EB7801B910B8DBF11
S11312509EBFEDB7FEB731965F010E94BB0EB80189
S1131260C5010E94E50C0E94F20D21E0711001C03D
S113127020E030E0021B130B2A0D3B1D4FEF460DFF
S1131280672DC6010E9496078DBE9EBE56C08091F2
S1131290CA24813A09F051C00E94BB0E0E947A0E02
S11312A08823E1F3F60181850E942A0E0E94F20D43
S11312B00E94D20F42C08091CA248132F1F50E946B
S11312C0BB0E0E94D20F9091CC2481E0911101C0F9
S11312D080E0F601818731C08091CA24813269F5AA
S11312E00E94BB0E0E94D20F8091CC249091CD24F9
S11312F088270024880F991F001C880F991F001C41
S1131300892F902DF6018487958717C08091CA2470
S1131310813A99F40E94BB0E0E947A0E8823E1F36D
S1131320F6018485958596958795969587950E946F
S11313302A0E0E94F20D0E94D20FEDBEFEBE23962D
S1131340CDBFDEBFDF91CF911F910F91FF90EF9042
S1131350DF90CF90BF90AF909F908F907F906F90D1
S11313605F900895FC01399627E0DF011D922A95CC
S1131370E9F721E0FC01218724EF31E02487358758
S113138023E0248361E001960E944B0F08955F924D
S11313906F927F928F929F92AF92BF92CF92DF9281
S11313A0EF92FF920F931F93CF93DF9300D0CDB7AB
S11313B0DEB77C01ADB6BEB68091C924843009F095
S11313C09CC0E091C604F091C704D7011A962D91F0
S11313D03C911B9780A191A12817390709F48DC06E
S11313E011968C910E943A0E8091D2249091D3242C
S11313F0FC01EF5BFF4F208131978081281708F0B3
S11314007CC08DB69EB6F701408550E08DB79EB77F
S1131410841B950B8DBF9EBFADB7BEB711966D01F2
S11314201B8219821A8260E070E0CD010E940912C9
S11314308E010F5F1F4F960140E0BE016D5F7F4F2D
S1131440C7010E947407582EF70184859585892B5E
S113145041F081E026853785232B09F080E0782E42
S113146001C0712CD70116960D911C911797011587
S1131470110599F049815A81B801C6010E94F311FE
S113148066246394892B09F4612CF701408550E0AC
S1131490B601C8010E94001201C0612C89819A81A1
S11314A0892B01F1511004C0611002C070FE1AC0F2
S11314B0D7011C968D919C911D971E968D939C939C
S11314C01F9711968C910E943A0E8B8181110E9474
S11314D02A0E69817A8140E050E0C6010E94FA0B2D
S11314E00E94F20DE091C604F091C70480A191A17D
S11314F0F701828793878DBE9EBEADBEBEBE239686
S1131500CDBFDEBFDF91CF911F910F91FF90EF9080
S1131510DF90CF90BF90AF909F908F907F906F900F
S11315205F900895EF92FF920F931F93CF93DF93F1
S1131530CDB7DEB7EA97CDBFDEBF0AEC14E20F2EBB
S1131540F2EDEF2EF4E2FF2EF02D0E941A0EF801B8
S113155081938F01EE15FF05C1F70E9463070E9476
S1131560A10E882309F413C1EAECF4E2208131814D
S1131570832F90E08A30910508F009C1FC01882787
S1131580E250FF4F8F4F0C94EB11203821F022389A
S113159009F0FDC008C01091C6248091C724882397
S11315A091F0126010C08091CE248F700E943A0E88
S11315B0E091D424F091D524118112FB112710F964
S11315C080E00E943A0E0E94BB0E812F0E942A0ED8
S11315D080E00E942A0E0E94F20D0E94D20FD7C012
S11315E0222309F4DDC0223009F0D1C0DEC081E03D
S11315F0333009F080E08093C72425C0E091CE24E5
S11316001E2F1F7009F4C3C0812F0E943A0E8091CF
S1131610CB24833019F40E94E90E15C0E091D42440
S1131620F091D52481818B7F818324E8129FF0017E
S11316301124E85EFA4D1082E091D424F091D5246F
S113164080818E7F808380E00E943A0E0E94BB0ED0
S11316500E94D20F9CC021119AC01091CC241F77F4
S11316600E94BB0E0E94D20F0E947A0E8823E1F3DF
S11316701093C304111102C082E001C083E080937F
S1131680C92485C02058223008F081C08091CC2420
S11316909091CD248C3DE3E09E07B9F583E08A83E5
S11316A08AE389837FB7F894AE014D5F5F4F20E0F2
S11316B038E0A0ECB1E062E01A966C931A97E32F3D
S11316C0F0E084911A961C921A9720FF03C0829529
S11316D08F703F5F8F708A3018F090E0C79602C019
S11316E090E0C096FA0181939193AF012F5F2C3162
S11316F019F77FBF0E94BB0E6AE370E0CE0101962A
S11317000E944F0C0E940B0E42C0AE014F5F5F4F10
S11317106091CE240E943D048C01892BC1F10E946A
S1131720BB0EB80189819A810E94590D0E940B0E4B
S11317302EC0203861F50E94BB0E8091C5240E9402
S11317402A0E0E94F20D0E94D20F21C021111FC047
S11317508091CC248230D8F40E94BB0E8091CC249A
S11317608093C5240E94D20F8091C524882321F040
S113177084E08093C92409C08091C304811102C00C
S113178081E001C084E08093C9240E9447070E943D
S1131790A10E882381F00E94BB0E0E94E90E0BC0AB
S11317A08091CC24813099F722CF8091CC24882356
S11317B009F424CF48CFEA96CDBFDEBFDF91CF91A5
S11317C01F910F91FF90EF9008950895CF9380910A
S11317D0C924882369F0C091D62480E00E943A0E7F
S11317E00E94A10E81110E94920A8C2F0E943A0E2F
S11317F0CF910895CF92DF92EF92FF920F931F93B0
S1131800CF93DF938C01EB016A010E94ED0F8111EC
S11318103DC0C114D10439F0F60180819181C81B07
S1131820D90B080F191F209781F1E12CF12C20917D
S1131830D2243091D324F901EF5BFF4F908131978B
S113184080819817A8F00E94F20D0E94E60BC11443
S1131850D10449F0F60180819181E80EF91EE082FD
S1131860F18285E013C00E94ED0F882351F00EC071
S1131870F80181918F010E942A0E2197FFEFEF1A40
S1131880FF0A2097A1F680E001C080E0DF91CF91AC
S11318901F910F91FF90EF90DF90CF900895CF921A
S11318A0DF92EF92FF920F931F93CF93DF93C82E93
S11318B0D92E8B018091D62480680E943A0EC09163
S11318C0D024D091D124C017D10740F001151105BF
S11318D021F40E94F20DE80101C0E801EC2CFD2C7A
S11318E0D12C49C08091C924882309F45AC0853079
S11318F009F459C00E94A10E811157C00E94870E9D
S1131900811149C00E947A0E8823A9F18091D624BE
S1131910882374F4E091D224F091D324EF5BFF4F39
S1131920008110E02097F9F00830110578F01BC011
S11319308091D2249091D324FC01E05CFF4F00817C
S11319403196808110E0081B1109ECCFF7018191D9
S11319507F010E942A0E21970F5F1F4F209719F0D5
S11319600830110599F7DD24D3940830110509F0E6
S1131970D12C0E94F20D209709F0B4CFD110B2CF30
S11319800AC08091C924882391F0853091F00E9487
S1131990A10E811110C00E94870E882391F380E06C
S11319A00BC082E009C083E007C081E005C082E08B
S11319B003C083E001C081E0DF91CF911F910F91BB
S11319C0FF90EF90DF90CF900895EF92FF920F93E6
S11319D01F93CF93DF93E82EF92EEB018091D62449
S11319E08F770E943A0E209711F40E940B0E0E2D51
S11319F01F2D36C08091C924882309F446C0853040
S1131A0009F445C00E94A10E811143C00E94870EB3
S1131A10882381F307C00E941A0EF80181938F0175
S1131A202197E1F08091D62488234CF4E091D224CC
S1131A30F091D324EF5BFF4F808190E00DC02091A3
S1131A40D2243091D324F901E05CFF4F8081319698
S1131A50208190E0821B9109892BE9F60E940B0EEC
S1131A60209769F08091C9248823A9F0853051F624
S1131A7014C08091C924882391F0853091F00E948C
S1131A807A0E8823B1F380E00DC082E00BC083E0BE
S1131A9009C081E007C082E005C083E003C082E0A2
S1131AA001C083E0DF91CF911F910F91FF90EF90E0
S1131AB00895DF92EF92FF920F931F93CF93DF93DA
S1131AC0E82EF92E8B018091D62480680E943A0E6C
S1131AD0C091D024D091D124C017D10740F0011572
S1131AE0110521F40E94F20DE80101C0E8010E2D58
S1131AF01F2DD12C4EC08091C924882309F45FC0C6
S1131B00853009F45EC00E94A10E81115CC00E9460
S1131B10870E81114EC00E947A0E8823D1F18091E4
S1131B20D62488237CF4E091D224F091D324EF5B73
S1131B30FF4FE080F12C209719F188E0E816F104BA
S1131B4078F01EC08091D2249091D324FC01E05CF3
S1131B50FF4FE08031968081F12CE81AF108EBCF39
S1131B60F80184910E942A0E0F5F1F4F2197FFEF07
S1131B70EF1AFF0A209721F088E0E816F10481F7B4
S1131B80DD24D394E8E0EE16F10409F0D12C0E9490
S1131B90F20D209709F0AFCFD110ADCF0AC08091DC
S1131BA0C924882391F0853091F00E94A10E8111FF
S1131BB010C00E94870E882391F380E00BC082E05E
S1131BC009C083E007C081E005C082E003C083E070
S1131BD001C081E0DF91CF911F910F91FF90EF90B1
S1131BE0DF900895E091D424F091D524A091D224DB
S1131BF0B091D324AF5BBF4F8C9190E082839383E9
S1131C0080818D798083E091D224F091D324EF5B9D
S1131C10FF4F10820895E091D424F091D52480815F
S1131C208D798083E091D224F091D324EF5BFF4F30
S1131C30108208958091D2249091D324FC01EF5B0B
S1131C40FF4F208131E0320F3083FC01E20FF11DA0
S1131C50808108952091D2243091D324F901EF5B3F
S1131C60FF4F908141E0490F4083F901E90FF11DD5
S1131C70808308958093D624282F2F7030E04091DC
S1131C80C6045091C7048823E4F464E8629FC00149
S1131C90639F900D1124875E9A4D8093D224909374
S1131CA0D324C90182959295907F9827807F9827A5
S1131CB008969A01280F391F2093D4243093D524F1
S1131CC0089564E8629FC001639F900D11248952B6
S1131CD09B4D8093D2249093D32422953295307FC8
S1131CE03227207F3227240F351F2093D4243093AA
S1131CF0D52408958091D62480680E943A0EE091FC
S1131D00D424F091D52480818695817008958091A2
S1131D10D6248F770E943A0EE091D424F091D524F2
S1131D20808185FF0CC08091D2249091D32422819C
S1131D303381FC01E05CFF4F208381E0089580E063
S1131D4008958091D6248F770E943A0EE091D4248E
S1131D50F091D524808184FF0CC08091D22490918D
S1131D60D32422813381FC01E05CFF4F208381E096
S1131D70089580E008958091D6248F770E943A0ECA
S1131D80E091D424F091D52480818D788083E091F2
S1131D90D424F091D524808181608083E091D22481
S1131DA0F091D324EF5BFF4F10828091D62480689A
S1131DB00E943A0EE091D424F091D5248081816070
S1131DC08083E091D224F091D324EF5BFF4F108203
S1131DD00895E091D424F091D52481818460818395
S1131DE0E091D424F091D5248181807C803461F405
S1131DF08091D62480580E943A0EE091D424F09128
S1131E00D52481818460818308951F93CF93DF93C8
S1131E10D82F162FC42F0E943A0EE091D424F091AB
S1131E20D5241182E091D424F091D524DD23A4F0AB
S1131E301082E091D424F091D5241183E091D4242C
S1131E40F091D524128213828091D2249091D324CC
S1131E508483958340E014C082E08083E091D4249D
S1131E60F091D5241183E091D424F091D5241282E9
S1131E7013828091D2249091D324848395834C2F10
S1131E80FC01E05CFF4F40833196108281E0DF91DA
S1131E90CF911F910895AF92BF92CF92DF92EF92AC
S1131EA0FF920F931F93CF93DF93662309F457C0D8
S1131EB0A62E7C018C0184E0E80EF11CB12CF80103
S1131EC0C080CC2009F441C0C181D281F70131978F
S1131ED08081F7019081923010F448E001C048E11C
S1131EE0C930D10550F028E030E090E09F5F220F28
S1131EF0331F2C173D07D0F301C090E0942B2C2DF9
S1131F002F7030E02230310564F59F7EC134D10555
S1131F1050F5882319F0813021F006C09064D92E41
S1131F2007C0906CD92E0AC09068D92E811106C0C2
S1131F304C2F6D2D80E88C0D0E94050F4C2F6D2DBC
S1131F408C2D0E94050F882379F0B3940B5F1F4FEB
S1131F50F5E0EF0EF11CBA10B2CF81E005C081E0CC
S1131F6003C080E001C080E0DF91CF911F910F9109
S1131F70FF90EF90DF90CF90BF90AF900895E0EC8A
S1131F80F4E0A681B78119961C92A681B7811196B7
S1131F901C92A681B78159961C920680F781E02D88
S1131FA0118A08958091CA24882384F404C08091FE
S1131FB0C924882389F00E94870E8823C1F30E94D4
S1131FC00B0E08958091C924882331F00E947A0E63
S1131FD08823C1F30E94F20D0895EF92FF920F93AC
S1131FE01F93CF93E091C604F091C70400A111A1FF
S1131FF0C4E60F2EF0ECEF2EF4E0FF2EF02D02C01D
S1132000C22F8C018091D62488232CF40E947A0E4E
S1132010882329F021C00E94870E81111FC080915E
S1132020C9248823E9F08530E9F0E091D424F091C3
S1132030D524818182FD18C0D7011696ED91FC91BB
S1132040179780A191A108171907D9F22FEF2C0F28
S1132050C111D6CF84E009C080E007C080E005C08C
S113206082E003C083E001C081E0CF911F910F9112
S1132070FF90EF900895CF93DF93E0E4F0E01482B3
S11320808481836084830E9499100E94A010C0EC14
S1132090D4E088818F7788838881806888831092D0
S11320A0C9241092C5241092C7241092C624888192
S11320B08064888348E068E480E80E94050F48E073
S11320C068E480E00E94050F8885806488878981A0
S11320D081608983DF91CF910895CF93DF932FB7E8
S11320E0F894C0ECD1E082E08A87EAE1F0E0E49180
S11320F0A0ECB4E0DA96EC93DA97EBE1F0E0E4914B
S1132100DB96EC93DB971A8680EE95E28E7F16962B
S11321108D939C93179781E18C9383E018968C930D
S11321202FBF81E08093C8240E943B10DF91CF91A0
S11321300895E0ECF4E0808583708087118608952B
S1132140E0ECF4E08FEF8287848708951F920F926A
S11321500FB60F9211240BB60F922F933F934F9308
S11321605F936F937F938F939F93AF93BF93EF93FB
S1132170FF938091CA0488234CF48091C804882377
S11321802CF480E88093CA040E9468078091CA04F2
S113219086FF07C080E48093CA041092C9240E9479
S11321A03B078091CA0485FF16C080E28093CA046D
S11321B08091C524882321F084E08093C92409C038
S11321C08091C304811102C081E001C083E0809347
S11321D0C9240E942E078091CA0484FF18C0E0EC31
S11321E0F4E080E1828782E08093C9241092C524C0
S11321F013820E94BF0F48E068E480E80E94050F44
S113220048E068E480E00E94050F0E94E50BFF911E
S1132210EF91BF91AF919F918F917F916F915F915A
S11322204F913F912F910F900BBE0F900FBE0F90C7
S11322301F901895E2EAF0E08081876080838BE04C
S113224080934300E2E0F4E080818160808380E257
S113225090E080930A0490930B0481E0809300043F
S1132260789408950F931F93CF93DF9300D01F9218
S1132270CDB7DEB7BC018091BC249091BD24A09160
S1132280BE24B091BF2489839A83AB83BC83CB01E2
S1132290770FAA0BBB0BBC01CD01052E5FE0660FC7
S11322A0771F881F991F5A95D1F7502D20E03DE7DD
S11322B040E050E00E94CC1189019A018091BC2435
S11322C09091BD24A091BE24B091BF2449815A812C
S11322D06B817C81841B950BA60BB70B8017910730
S11322E0A207B30758F32496CDBFDEBFDF91CF9189
S11322F01F910F9108951F920F920FB60F92112400
S11323008F939F93AF93BF938091BC249091BD24EE
S1132310A091BE24B091BF240196A11DB11D80934C
S1132320BC249093BD24A093BE24B093BF24BF913A
S1132330AF919F918F910F900FBE0F901F901895A2
S11323401F920F920FB60F9211240F900FBE0F9091
S11323501F901895A1E21A2EAA1BBB1BFD010DC0EC
S1132360AA1FBB1FEE1FFF1FA217B307E407F50741
S113237020F0A21BB30BE40BF50B661F771F881F1D
S1132380991F1A9469F760957095809590959B01B3
S1132390AC01BD01CF010895052E97FB1EF40094F6
S11323A00E94E31157FD07D00E94AA1107FC03D035
S11323B04EF40C94E31150954095309521953F4F80
S11323C04F4F5F4F089590958095709561957F4F1D
S11323D08F4F9F4F0895EE0FFF1F881F8BBF0790ED
S11323E0F691E02D1994FB01DC0104C08D9101905C
S11323F0801921F441505040C8F7881B990B089567
S1132400FB01DC0102C001900D9241505040D8F70D
S11324100895DC0101C06D9341505040E0F70895E8
S1072420F894FFCF5A
S113242440060140060405100810201003826C10B5
S113243401FE03106C8203C8A8980418A0A07805B0
S113244488502050880538C030C038051860806032
S11324541804788080F803087C880490A8A84803AA
S1132464F8100804102828F804F8282810047088A0
S1132474887004F81008F005F808F008F001FE0468
S1132484FE20508802807A01FA04FE1008F0041039
S1132494A8A87803FC12020470A8A83004708888E1
S11324A4FE047088888804FE88887004708888F81C
S11324B40202040380808003040204038282FE0374
S11324C40638C003FE828205C2A2928A86050608E3
S11324D4F0080605C6281028C6053EC038C03E05C7
S11324E40E30C0300E047E80807E050202FE02029D
S11324F4044C92926404FE1232CC057C82A242BC47
S113250404FE12120C047C82827C05FE041860FE14
S113251405FE040804FE04FE80808005FE102844A1
S113252482044080807E0382FE8204FE1010FE0535
S11325347C829292F404FE12120204FE92928204A9
S1132544FE82827C047C82824404FE92926C05F8AE
S1132554141214F808384492AAAABA2418050402D6
S1132564A2120C04824428100428282828041028C1
S1132574448201C40144054C9292927C056C92926B
S1132584926C050202F20A06057C92929264055E3C
S11325948A8A8A7205302824FE2005448292926C29
S11325A40584C2A2928C050084FE8000057CA2925C
S11325B48A7C03C0380601800310101001C0031084
S11325C4381003281028038244380338448201064F
S11325D4056C92AC40A005462610C8C4054854FEB8
S11325E454240528FE28FE280306000601BE020022
S11325F400CE21CC21C821C221BC21B621B021AEF8
S113260421AA21A621A2219E219C219821962192CE
S1132614218C21862180217A2174216E21682162F2
S1132624215C215621542152214D21482143213D2D
S11326342134212E21292124211F211A2115210F7E
S1132644210A2106210121FB20F620F020EA20E5BD
S113265420E020DA20D520D020CA20C520BF20B90C
S113266420B320AD20A720A3209F209B2097209354
S11326742090208B20862081207C20772073206E5C
S1132684206920672064205F205D20572052204D5C
S113269420482043203F203A20362031202B202577
S11326A4201F201A201620122010200C200620009F
S11326B48108000001B22208000000000000004567
S11326C44D4F4E00636374762079617720362E393A
S10526D4000000
S9030000FC
