S00F000070656E6775696E2E737265631F
S11300000C9489010C94AA010C94AA010C94AA01E1
S11300100C94AA010C94AA010C94AA010C94AA01B0
S11300200C94AA010C94AA010C94AA010C94AA01A0
S11300300C94AA010C94AA010C9475090C94AA01BD
S11300400C94AA010C94AA010C94AA010C94AA0180
S11300500C94AA010C94AA010C94AA010C94AA0170
S11300600C94AA010C94A1150C94B5150C94AB1521
S11300700C94BF150C94D3150C94C9150C94AA01B7
S11300800C94AA010C94AA010C94AA010C94AA0140
S11300900C94AA010C94AA010C94AA010C94AA0130
S11300A00C94AA010C94AA010C94AA010C94AA0120
S11300B00C94AA010C94AA010C94AA010C94AA0110
S11300C00C94AA010C94AA010C94AA010C94AA0100
S11300D00C94AA010C94AA010C94AA010C94AA01F0
S11300E00C94AA010C94AA010C94FB150C940F1601
S11300F00C9405160C94AA010C94AA010C94AA0160
S11301000C94AA010C94AA010C94AA010C94AA01BF
S11301100C94AA010C94AA010C94AA010C94AA01AF
S11301200C94AA010C94AA010C94AA010C94AA019F
S11301300C94AA010C94AA010C94AA010C94AA018F
S11301400C94AA010C94AA010C94AA010C94AA017F
S11301500C94AA010C94AA010C94AA010C94AA016F
S11301600C94DD150C94F1150C94E7150C94AA016C
S11301700C94AA010C94AA010C94AA010C94AA014F
S11301800C94AA010C94AA010C94AA010C94AA013F
S11301900C94AA010C94AA010C94AA010C94AA012F
S11301A00C94AA010C94AA010C94AA010C94AA011F
S11301B00C94AA010C94AA010C94AA010C94AA010F
S11301C00C94AA010C94AA010C94AA010C94AA01FF
S11301D00C94AA010C94AA010C94AA010C94AA01EF
S11301E00C94AA010C94AA010C94AA010C94AA01DF
S11301F00C94AA010C942A0F0C94AA010C94641474
S11302000C940D100C9488110C949E0F0C94380AC5
S11302106E616E00696E660000407A10F35A00A0A9
S1130220724E18090010A5D4E80000E876481700BB
S113023000E40B54020000CA9A3B000000E1F505FB
S1130240000080969800000040420F000000A08645
S113025001000000102700000000E8030000000077
S11302606400000000000A0000000000010000001B
S113027000002C76D888DC674F0823DFC1DFAE5935
S1130280E1B1B796E5E3E453C63AE651997696E8C8
S1130290E6C28426EB898C9B62ED407C6FFCEFBC4C
S11302A09C9F40F2BAA56FA5F490055A2AF75C9377
S11302B06B6CF9676DC11BFCE0E40D47FEF520E6AD
S11302C0B500D0ED902E0300943577050080841E90
S11302D0080000204E0A000000C80C333333330FEB
S11302E0986E12831141EF8D2114893BE65516CF88
S11302F0FEE6DB18D1844B381BF77C1D901DA4BB94
S1130300E424203284725E228100C9F124ECA1E548
S11303103D2711241FBECFEFCDBFDFE9DEBF00E0D4
S11303200CBF13E2A0E0B0E2E2E5F8E300E00BBFAB
S113033002C007900D92A835B107D9F727E9A8E5BF
S1130340B3E201C01D92A639B207E1F70E94EC1492
S11303500C94271C0C940000823099F018F481301E
S113036031F00895833011F18430C1F108950E9471
S1130370D40580E090E20E94801581E08093BA93D6
S113038008958091BA93813049F40E94CB058FE996
S11303909CE80197F1F700C0000004C080E090E2FF
S11303A00E94801582E08093BA9308958091BA9355
S11303B0833059F180E090E20E9480150E94DD05AF
S11303C080E090E20E9470158FE094E00197F1F7CD
S11303D000C0000083E08093BA9308958091BA939B
S11303E0843099F080E090E20E9480150E94E60536
S11303F080E090E20E9470158FE094E00197F1F79D
S113040000C0000084E08093BA930895DF92EF92D5
S1130410FF920F931F93CF93DF931F921F92CDB739
S1130420DEB77C01062F172FE0E4F6E080EB818332
S113043080E4828380E58093C00880E1818380E842
S11304408093210680E090E20E94801583E090E290
S11304500E9480152FEF83EC99E02150804090405A
S1130460E1F700C0000081E00E94AC0183E00E943B
S1130470AC010E94B2060E944F050E94360580E737
S1130480898341E050E0BE016F5F7F4F87E00E94A7
S1130490BD048BE08A8341E050E0BE016E5F7F4F74
S11304A080E00E94BD04D7018C91EBEBF3E98083DB
S11304B011968C911197818312968C911297828355
S11304C013968C911397838314968C911497848339
S11304D015968C911597858316968C91169786831D
S11304E017968C911797878318968C911897808705
S11304F019968C91199781871A968C911A978287ED
S11305001B968C911B9783871C969C911C979487B0
S11305101D969C919587402F512F0F2EF1EDEF2EB4
S1130520F3E9FF2EF02D69E174E997019CE0FA01EB
S1130530D90101900D929A95E1F7445F5F4F245FD2
S11305403F4F2617370791F70E94D4070BEB13E9A7
S1130550F80184850E94E807D8011D968C910E94B9
S1130560FC07F80184810E943706D80115968C9106
S11305700E944406F80187810E945C06D12CD701B1
S11305806C918D2D0E941306F70161818D2D0E94BF
S1130590EF05D7011B966C918D2D0E94B007F701D2
S11305A0028113812481358146815781608571855B
S11305B08D2D0E94E006FCE0EF0EF11CD39426E0A2
S11305C0D212DDCF0F900F90DF91CF911F910F9139
S11305D0FF90EF90DF9008950E94A506811104C05A
S11305E00E94A407811108C00E94C50691E08730CB
S11305F009F490E0892F01C080E0817008950E9481
S1130600A90791E089270895CF93DF93EC0128810E
S113061039814A815B816C817D818E819F810E94B9
S11306204E078985882339F06C857D858A859B856D
S11306300E940F050AC08091C893882331F06C850D
S11306407D858A859B850E948905DF91CF910895D8
S1130650CF93DF93EC010E94C50688878630A0F40F
S11306609091C693992329F00E9468058C879D87F1
S113067005C00E94910790E08C879D876C857D85DD
S11306808A859B850E94E80480E0DF91CF910895DC
S11306905F926F927F928F929F92AF92BF92CF920E
S11306A0DF92EF92FF920F931F93CF93DF93EC01AE
S11306B0588069807A809B80BC81AD81FE81EF8106
S11306C0A090C993B090CA93C090CB93D090CC9390
S11306D0E090CD93F090CE930091CF931091D0936E
S11306E0252D362D472D592D6B2F7A2F8F2F9E2F89
S11306F00E94391AD1F00E944E07788169815A818B
S11307004B813C812D819E818F817093C99360932D
S1130710CA935093CB934093CC933093CD9320932F
S1130720CE939093CF938093D0938985882309F4B3
S113073062C08091D293811103C061E00E94EF05F1
S11307408091D193811103C061E00E941306088156
S113075019812A813B814C815D816E817F8180E09A
S11307600E94E006CE010E9404031091BA9382E035
S11307700E94AC010E94FF028823F9F00E949206B5
S113078084E00E94AC0182E00E94AC010E948606D3
S1130790811112C00E946906882391F30E94730696
S11307A00E94CC069E85891758F38091C1930E94BC
S11307B0550688248A9401C0812C812F0E94AC01A3
S11307C0C1EDD3E90A811B812C813D814E815F817A
S11307D06885798580E00E94E0068981811103C0E3
S11307E060E00E94EF058091D193811127C060E001
S11307F00E94130623C0288139814A815B816C8160
S11308007D818E819F810E944E07CE010E94040348
S1130810C091BA930E94FF02882361F00E9492065D
S113082084E00E94AC0182E00E94AC010E94860632
S11308308823B1F38C2F0E94AC01812C0E943605D1
S1130840882DDF91CF911F910F91FF90EF90DF9052
S1130850CF90BF90AF909F908F907F906F905F905C
S11308600895CF93DF936115710589F0DC01680F5A
S1130870791FE0ECF8E0ED019C9193839281992338
S1130880ECF7938198831196A617B707A1F7DF9128
S1130890CF9108951F93CF93DF931F92CDB7DEB707
S11308A0182F86E090E20E9480151F71198361E081
S11308B070E0CE0101960E94310461E070E0CE0147
S11308C001960E94310486E090E20E9470158981AD
S11308D00F90DF91CF911F910895CF92DF92EF9205
S11308E0FF921F93CF93DF931F92CDB7DEB7182FDC
S11308F07B016A0186E090E20E9480151F711983D2
S113090061E070E0CE0101960E943104B601C70196
S11309100E94310486E090E20E9470150F90DF91EE
S1130920CF911F91FF90EF90DF90CF9008951F9388
S1130930CF93DF931F921F92CDB7DEB7182F6A8330
S113094086E090E20E9480151F711062198361E0B5
S113095070E0CE0101960E94310461E070E0CE01A6
S113096002960E94310486E090E20E9470150F9076
S11309700F90DF91CF911F910895CF92DF92EF9264
S1130980FF921F93CF93DF931F92CDB7DEB7182F3B
S11309907B016A0186E090E20E9480151F7110625B
S11309A0198361E070E0CE0101960E943104B60122
S11309B0C7010E94310486E090E20E9470150F90F6
S11309C0DF91CF911F91FF90EF90DF90CF9008952A
S11309D0EF92FF920F931F93CF93DF931F92CDB7A4
S11309E0DEB78C017B0186E090E20E94801581E6EF
S11309F0898361E070E0CE0101960E943104B70161
S1130A00C8010E94310486E090E20E9470150F90A4
S1130A10DF91CF911F910F91FF90EF900895EF9286
S1130A20FF920F931F93CF93DF931F92CDB7DEB73F
S1130A308C017B0186E090E20E94801580EA898324
S1130A4061E070E0CE0101960E943104B701C80153
S1130A500E94310486E090E20E9470150F90DF91AD
S1130A60CF911F910F91FF90EF900895CF93DF9353
S1130A701F92CDB7DEB786E090E20E94801581EE2A
S1130A80898361E070E0CE0101960E94310486E022
S1130A9090E20E9470150F90DF91CF910895CF934B
S1130AA0DF931F92CDB7DEB786E090E20E948015F7
S1130AB082EE898361E070E0CE0101960E943104E8
S1130AC086E090E20E9470150F90DF91CF91089517
S1130AD0CF93DF931F92CDB7DEB786E090E20E94FA
S1130AE0801580E6898361E070E0CE0101960E9462
S1130AF0310461E070E0CE0101960E94310486E089
S1130B0090E20E947015898190E00F90DF91CF915F
S1130B100895EF92FF920F931F93CF93DF931F9249
S1130B20CDB7DEB78C017B0186E090E20E94801590
S1130B3080EB898361E070E0CE0101960E9431046C
S1130B40B701C8010E94310486E090E20E9470154A
S1130B500F90DF91CF911F910F91FF90EF90089527
S1130B60CF93DF931F92CDB7DEB786E090E20E9469
S1130B7080158FEF898361E070E0CE0101960E94B9
S1130B80310486E090E20E947015898190E00F9014
S1130B90DF91CF91089580E00E944A04682F62603B
S1130BA080E00E949704089580E00E944A04682F20
S1130BB06D7F80E00E949704089580E00E944A04BB
S1130BC0682F616080E00E949704089580E00E948D
S1130BD04A04682F6E7F80E00E9497040895CF93A3
S1130BE0C82F662379F081E00E944A0461E070E036
S1130BF002C0660F771FCA95E2F7682B81E00E9456
S1130C0097040FC081E00E944A0461E070E002C0D2
S1130C10660F771FCA95E2F76095682381E00E940A
S1130C209704CF910895CF93C82F662379F082E07B
S1130C300E944A0461E070E002C0660F771FCA9503
S1130C40E2F7682B82E00E9497040FC082E00E94C2
S1130C504A0461E070E002C0660F771FCA95E2F7AC
S1130C606095682382E00E949704CF910895CF9302
S1130C70C82F84E00E944A04807F682F6C2B84E094
S1130C800E949704CF910895CF93C82F84E00E94C7
S1130C904A0490E1C99F900111248F70682F622B40
S1130CA084E00E949704CF9108958E3720F4682F32
S1130CB085E00E9497040895CF93C82F86E00E9490
S1130CC04A04877D682F6C2B86E00E949704CF919D
S1130CD008950E94B005929582958F7089279F7020
S1130CE0892781700895CF93DF931F92CDB7DEB724
S1130CF080E1898341E050E0BE016F5F7F4F87E070
S1130D000E94BD040F90DF91CF9108950E94B00519
S1130D1096958795929582958F7089279F708927DC
S1130D2081700895CF93DF931F92CDB7DEB780E231
S1130D30898341E050E0BE016F5F7F4F87E00E94EE
S1130D40BD040F90DF91CF9108950E94B005002457
S1130D50880F991F001C880F991F001C892F902D44
S1130D6081700895CF93DF931F92CDB7DEB780E4EF
S1130D70898341E050E0BE016F5F7F4F87E00E94AE
S1130D80BD040F90DF91CF9108950E94B0058E703D
S1130D909927959587950895CF93DF931F92CDB7A3
S1130DA0DEB741E050E0BE016F5F7F4F88E00E94F4
S1130DB06D04898182958F700F90DF91CF91089592
S1130DC02F923F924F925F926F927F928F929F9257
S1130DD0AF92BF92CF92DF92EF92FF920F931F9345
S1130DE0CF93DF93CDB7DEB72597CDBFDEBF482EB7
S1130DF0B02EA22E932E842E752E662E572E81E0B1
S1130E00841568F421E090E08EEF840D843008F0BE
S1130E1020E0C22ED92E1C141D0434F021C00F2E44
S1130E20F5E0CF2ED12CF02DDE0111967D01212C81
S1130E30312CE0E0F0E02B2D312F4A2D592D682D77
S1130E40772D862D952D022D0E941D1AD7012D93E5
S1130E507D013196B8E02B0E311CEC15FD055CF3D9
S1130E60A601BE016F5F7F4F8AE0840D0E94BD041E
S1130E702596CDBFDEBFDF91CF911F910F91FF90DB
S1130E80EF90DF90CF90BF90AF909F908F907F9026
S1130E906F905F904F903F902F9008959F92AF92E4
S1130EA0BF92CF92DF92EF92FF920F931F93CF9353
S1130EB0DF93CDB7DEB72597CDBFDEBF922EA32E2D
S1130EC0B42EC52ED62EE72EF82E192FDE0111963C
S1130ED0E0E0F0E0292D3A2D4B2D5C2D6D2D7E2D7B
S1130EE08F2D912F0E2F0E941D1A2D933896E832C4
S1130EF0F10581F745E050E0BE016F5F7F4F80E16F
S1130F000E94BD042596CDBFDEBFDF91CF911F9116
S1130F100F91FF90EF90DF90CF90BF90AF909F9094
S1130F200895CF93DF931F92CDB7DEB741E050E031
S1130F30BE016F5F7F4F8F5E0E946D0489818F7346
S1130F400F90DF91CF91089587E10E944A04817048
S1130F50089587E10E944A0485FB882780F9089553
S1130F60CF93C82F662379F08CE10E944A0461E094
S1130F7070E002C0660F771FCA95E2F7682B8CE118
S1130F800E9497040FC08CE10E944A0461E070E063
S1130F9002C0660F771FCA95E2F7609568238CE15B
S1130FA00E949704CF910895882349F08DE10E940F
S1130FB04A04682F64608DE10E94970408958DE1CE
S1130FC00E944A04682F6B7F8DE10E949704089564
S1130FD0882349F08DE10E944A04682F62608DE104
S1130FE00E94970408958DE10E944A04682F6D7F42
S1130FF08DE10E9497040895882349F08DE10E94B1
S11310004A04682F61608DE10E94970408958DE180
S11310100E944A04682F6E7F8DE10E949704089510
S113102031E1FC013083319722E220833197A3E33D
S1131030A083319760833197708331971082319701
S11310401082319760E8608331971082319762E0B3
S11310506083319763E06083319764E06083319704
S113106065E06083319766E06083319767E0608371
S1131070319768E06083319769E06083319760E17C
S1131080608331973083319732E13083319733E194
S11310903083319734E13083319735E130833197B0
S11310A036E13083319737E13083319738E130834B
S11310B0319739E13083319730E23083319731E22F
S11310C0308331972083319723E220833197408303
S11310D031975083319726E22083319727E220838A
S11310E0319728E22083319729E22083319720E346
S11310F02083319721E320838797089565E080E07A
S113110098E00E944D1683EF91E080932608909317
S1131110270861E080E098E00E945316E0EAF0E0DE
S1131120828181608283A091AF93B091B093CD917D
S1131130CDBFDD91DEBFFF91EF91DF91CF91BF91E4
S1131140AF919F918F917F916F915F914F913F915B
S11311502F911F910F91FF90EF90DF90CF90BF9050
S1131160AF909F908F907F906F905F904F903F9043
S11311702F901F900F900FBE0F90089581E0089557
S11311800F920FB6F8940F921F9211242F923F9250
S11311904F925F926F927F928F929F92AF92BF9283
S11311A0CF92DF92EF92FF920F931F932F933F936F
S11311B04F935F936F937F938F939F93AF93BF935B
S11311C0CF93DF93EF93FF93A091AF93B091B0933C
S11311D00DB60D920EB60D920E941B0DA091AF9309
S11311E0B091B093CD91CDBFDD91DEBFFF91EF9172
S11311F0DF91CF91BF91AF919F918F917F916F912B
S11312005F914F913F912F911F910F91FF90EF901C
S1131210DF90CF90BF90AF909F908F907F906F9012
S11312205F904F903F902F901F900F900FBE0F90A4
S113123008950F920FB6F8940F921F9211242F92D3
S11312403F924F925F926F927F928F929F92AF9252
S1131250BF92CF92DF92EF92FF920F931F932F933F
S11312603F934F935F936F937F938F939F93AF932A
S1131270BF93CF93DF93EF93FF93A091AF93B0917C
S1131280B0930DB60D920EB60D920E94D00B811143
S11312900E941B0DA091AF93B091B093CD91CDBF9F
S11312A0DD91DEBFFF91EF91DF91CF91BF91AF91BF
S11312B09F918F917F916F915F914F913F912F916A
S11312C01F910F91FF90EF90DF90CF90BF90AF9060
S11312D09F908F907F906F905F904F903F902F9052
S11312E01F900F900FBE0F9008950E941909189532
S11312F0CF93DF93EC010E94CA0B80915A23909103
S11313005B23892B31F48FE593E280935A239093E6
S11313105B2320915C2330915D23C9018C0F9D1FB9
S11313208F3F4FE6940770F42817390770F4C09183
S11313305A23D0915B23C20FD31F80935C239093D5
S11313405D2305C0C0E0D0E002C0C0E0D0E00E9450
S1131350880CCE01DF91CF9108950895FC01039686
S1131360818392832FEF3FEF238334838583968396
S11313708783908710820895FC0110861186089552
S1131380CF93DF939C01FB01DC011196CD91DC919D
S11313901297C283D3838C819D81848395838C81AE
S11313A09D81DC0112966D937C9313976C837D83EE
S11313B020873187F90180818F5F8083DF91CF910E
S11313C00895CF93DF93EB01488159814F3F2FEF6D
S11313D0520721F4FC01A781B0850DC0DC011396EE
S11313E001C0DF011296ED91FC91139720813181A8
S11313F042175307B0F71296ED91FC911397EA83C5
S1131400FB83C483D583AC83BD831296CD93DC93D5
S1131410139788879987FC0120812F5F2083DF91B0
S1131420CF910895CF93DF93FC01A085B185C2814C
S1131430D381848195818C839D83C481D58182816C
S113144093818A839B8311968D919C911297E817BF
S1131450F90731F48481958111968D939C931297A9
S1131460108611868C9181508C93DF91CF910895D1
S1131470FFCFE0917793F09178938081811107C039
S11314808FEF9FEF80936193909362930895E0911F
S11314907793F09178930580F681E02D0680F781AB
S11314A0E02D828193818093619390936293089558
S11314B00F931F93CF93DF93EC01009169931091E5
S11314C06A938091AF939091B09302960E94120A0E
S11314D0C00FD11FE091AF93F091B093C283D38337
S11314E0C017D10768F46091AF937091B093809165
S11314F07593909176936E5F7F4F0E94E10917C0B8
S11315006091AF937091B093809177939091789319
S11315106E5F7F4F0E94E109809161939091629385
S1131520C817D90720F4C0936193D0936293DF91D5
S1131530CF911F910F9108954F925F926F927F9276
S11315408F929F92AF92BF92CF92DF92EF92FF92CF
S11315500F93CF93DF934C016B015A012901CA0108
S11315600E9478093C01892B09F4D9C086E290E0F5
S11315700E947809EC01892B71F06F8A788E81E0E2
S1131580A81AB108A60CB71CD6018C91898F8C912E
S1131590811105C018C0C3010E94AD09C0C0AE01CD
S11315A0465E5F4FF6013196B8E0CB0ED11CCF01F9
S11315B02191DA012D93AD01DC018C91882319F07E
S11315C0EC15FD05A1F718A2043008F003E00E8B1A
S11315D06E01B2E0CB0ED11CC6010E94BC09CE0143
S11315E00C960E94BC09C887D98784E090E0801BD0
S11315F091098C879D87CA8BDB8B19A21AA21BA227
S11316001CA21DA2A201B401C5010E941008888376
S11316109983E114F10419F0F701C083D1830FB663
S1131620F8940F9280916B938F5F80936B9380916A
S1131630AF939091B093892B89F5C093AF93D093D6
S1131640B09380916B938130C9F58BE893E90E9444
S1131650AE0984E993E90E94AE098DE993E90E94F9
S1131660AE0986EA93E90E94AE0982E893E90E94F2
S1131670AE0989E793E90E94AE098CE693E90E94DA
S1131680AE0982E893E9809377939093789389E7FE
S113169093E9809375939093769310C080916793A8
S11316A081110CC0E091AF93F091B09396898E892B
S11316B0891720F0C093AF93D093B0938091639334
S11316C08F5F809363938E8990916893981710F439
S11316D08093689390E09C01220F331F220F331FE5
S11316E0220F331F820F931FB60185579C460E9419
S11316F0C0090F900FBE80916793882361F0E09139
S1131700AF93F091B09396898E89981730F40E9424
S1131710C00881E005C081E003C081E001C08FEF13
S1131720DF91CF910F91FF90EF90DF90CF90BF901A
S1131730AF909F908F907F906F905F904F9008959F
S1131740EF92FF920F930F2EFFE5EF2EF3E9FF2E9A
S1131750F02D00E020E030E044E650E06AEB72E275
S113176088E39AE00E949C0A813081F4F8948FEF18
S11317709FEF809361939093629381E0809367934A
S11317801092699310926A930E947E080F91FF90C1
S1131790EF90089580915E938F5F80935E93089598
S11317A0DF92EF92FF920F931F93CF93DF93809179
S11317B05E93811198C0E0906993F0906A938FEFE3
S11317C0E81AF80AE0926993F0926A93E114F1043A
S11317D0B9F4809177939091789320917593309197
S11317E07693209377933093789380937593909323
S11317F07693809164938F5F809364930E94390AF7
S11318008091619390916293E816F90610F4D12CBB
S113181052C0D12CE0917793F0917893808181111B
S113182007C08FEF9FEF809361939093629343C0BF
S1131830E0917793F09178930580F681E02DC6814D
S1131840D7818A819B81E816F90628F480936193F5
S11318509093629330C08E010E5F1F4FC8010E94A7
S1131860120A8C899D89892B21F0CE010C960E9445
S1131870120A8E8990916893981710F48093689354
S113188090E09C01220F331F220F331F220F331FBE
S1131890820F931FB80185579C460E94C009E091AE
S11318A0AF93F091B0939E898689981708F4B2CFCC
S11318B0DD24D394AFCFE091AF93F091B0938689B8
S11318C090E0FC01EE0FFF1FEE0FFF1FEE0FFF1F56
S11318D08E0F9F1FFC01E557FC468081823048F043
S11318E0DD24D39406C0809166938F5F80936693C2
S11318F0D12C80916593882311F0DD24D3948D2D10
S1131900DF91CF911F910F91FF90EF90DF90089599
S1131910DF92EF92FF920F931F93CF93DF930FB653
S1131920F8940F9280915E93815080935E9380919E
S11319305E9381115FC080916B93811133C05DC050
S1131940D7011596ED91FC911697C681D781CE01EA
S11319500C960E94120A8E010E5F1F4FC8010E944E
S1131960120A8E8990916893981710F48093689363
S113197090E09C01220F331F220F331F220F331FCD
S1131980820F931FB80185579C460E94C009E091BD
S1131990AF93F091B0939E898689981768F0D0929E
S11319A065930AC0C0E0D0E00F2EFCE6EF2EF3E909
S11319B0FF2EF02DDD24D394F70180818111C0CF57
S11319C0CD2B11F00E94390AC0916693CC2351F0BB
S11319D0D1E00E94D00B8111D0936593C150C9F717
S11319E01092669380916593882331F00E94C00819
S11319F081E003C080E001C080E00F900FBEDF9162
S1131A00CF911F910F91FF90EF90DF900895CF93A6
S1131A10DF93EC01892B51F00E94CA0B60E0CE01E8
S1131A200E94580A0E94880C811102C00E94C008BA
S1131A30DF91CF91089580915E93882321F081E016
S1131A408093659308951092659320916893822FF3
S1131A5090E0FC01EE0FFF1FEE0FFF1FEE0FFF1FC4
S1131A60E80FF91FE557FC463081311111C02150B0
S1131A70822F90E0FC01EE0FFF1FEE0FFF1FEE0F11
S1131A80FF1FE80FF91FE557FC463081332379F334
S1131A90AC01440F551F440F551F440F551F480FE9
S1131AA0591FDA01A557BC461196ED91FC91129786
S1131AB00280F381E02D1196ED93FC931297425727
S1131AC05C46E417F50729F442815381FD01418303
S1131AD05283FC01EE0FFF1FEE0FFF1FEE0FFF1FDF
S1131AE08E0F9F1FFC01E557FC460180F281E02D1B
S1131AF0868197818093AF939093B093209368935A
S1131B0008954F925F926F927F928F929F92AF92BD
S1131B10BF92EF92FF920F931F9349015A010FB6A0
S1131B20F8940F92E091AF93F091B09325A12230F5
S1131B3029F1E091AF93F091B09341A052A063A03A
S1131B4074A0DC01CB0180959095A095B09584217B
S1131B509521A621B72181A392A3A3A3B4A3E091C5
S1131B60AF93F091B09381E085A3E114F10431F0D7
S1131B7061E0C7010E94580A0E94C0080F900FBE7E
S1131B800FB6F8940F920115110569F0E091AF9327
S1131B90F091B09381A192A1A3A1B4A1F801808393
S1131BA09183A283B383E091AF93F091B09385A125
S1131BB08130B1F0E091AF93F091B09381A192A103
S1131BC0A3A1B4A180949094A094B0948822992263
S1131BD0AA22BB2281A292A2A3A2B4A281E001C044
S1131BE080E0E091AF93F091B09315A20F900FBEF7
S1131BF01F910F91FF90EF90BF90AF909F908F90A7
S1131C007F906F905F904F9008950F931F93CF93A1
S1131C10DF93FC010FB6F8940F920115110549F0FA
S1131C2081A192A1A3A1B4A1E80188839983AA8385
S1131C30BB8385A192E095A32230B1F018F4213042
S1131C4031F02AC02330E9F0243001F125C001A18C
S1131C5012A123A134A1402B512B622B732B41A33E
S1131C6052A363A374A318C041A152A163A174A198
S1131C704F5F5F4F6F4F7F4F41A352A363A374A382
S1131C800BC041A352A363A374A306C0823079F1AD
S1131C9041A352A363A374A3813059F5EF018F01CB
S1131CA00E5F1F4FC8010E94120A8E89909168939B
S1131CB0981710F48093689390E09C01220F331FCF
S1131CC0220F331F220F331F820F931FB801855732
S1131CD09C460E94C009E091AF93F091B0939E8915
S1131CE08689891740F40E94C00881E005C080E01D
S1131CF003C081E001C081E00F900FBEDF91CF915E
S1131D001F910F910895089580932A94282F2F707E
S1131D1030E04091C6045091C7048823E4F464E899
S1131D20629FC001639F900D112483599B46809349
S1131D30269490932794C90182959295907F982731
S1131D40807F982708969A01280F391F209328949A
S1131D5030932994089564E8629FC001639F900DB5
S1131D601124855D9B468093269490932794229515
S1131D703295307F3227207F3227240F351F20935E
S1131D8028943093299408951F93CF93DF93D82FE9
S1131D90162FC42F0E94840EE0912894F091299468
S1131DA01182E0912894F0912994DD23A4F010820B
S1131DB0E0912894F09129941183E0912894F09172
S1131DC0299412821382809126949091279484837B
S1131DD0958340E014C082E08083E0912894F091E0
S1131DE029941183E0912894F0912994128213820A
S1131DF08091269490912794848395834C2FFC01A1
S1131E00E05CFF4F40833196108281E0DF91CF91F7
S1131E101F91089520E030E0A0ECB4E01696ED9117
S1131E20FC911797C90182959295907F9827807F9E
S1131E309827E80FF91F118616964D915C91179714
S1131E40FA01E80FF91F11822F5F3F4F253031054A
S1131E5029F708951F920F920FB60F9211240BB613
S1131E600F922F933F934F935F936F937F938F932F
S1131E709F93AF93BF93EF93FF938091CA048823FA
S1131E804CF48091C80488232CF480E88093CA041D
S1131E900E94830E8091CA0486FF07C080E4809369
S1131EA0CA0410921D940E94830E8091CA0485FF77
S1131EB016C080E28093CA0480911994882321F08B
S1131EC084E080931D9409C08091C304811102C0F1
S1131ED081E001C083E080931D940E94830E809171
S1131EE0CA0484FF18C0E0ECF4E080E1828782E059
S1131EF080931D941092199413820E940A0F48E053
S1131F0068E480E80E94C40E48E068E480E00E942F
S1131F10C40E0E94830EFF91EF91BF91AF919F91E8
S1131F208F917F916F915F914F913F912F910F907E
S1131F300BBE0F900FBE0F901F90189507E028E17D
S1131F4040E060E082EA92E20E94321528E140E03B
S1131F5060E085EA92E20E94321500E028E140E068
S1131F6060E088EA92E20E94321528E140E060E0F5
S1131F708BEA92E20E9432150F2EF6E9CF2EF2E29E
S1131F80DF2EF02D02EA12E2E601CE010E94701566
S1131F9061E0CE010E944E1523960C171D07A9F788
S1131FA0BB24B39484E690E00E94070D02EA12E297
S1131FB0E12CF12CD02FC12FC8010E949015811162
S1131FC00CC08D2F9C2F0E9490158823D1F3F7010C
S1131FD0EE56FD4D80818B2580838FEFE81AF80A39
S1131FE00D5F1F4F84E0E816F10421F78601C0E07D
S1131FF0D0E0FE01EE56FD4D8081882321F0C8011A
S11320000E94701503C0C8010E94801521960D5FBF
S11320101F4FC430D10569F7C5CFCF93DF9300D0EC
S11320201F92CDB7DEB7EE24EA94FE2C8E010F5F2B
S11320301F4F2FEF3FEFA90160E070E0CB010E943A
S1132040810D813061F487EB92E20E94801588EC67
S113205090E00E94070D87EB92E20E94701584E6DF
S113206090E00E94070DDFCFFC01818185FFFDCF49
S11320706083818186FFFDCF80E481838081089520
S11320801F93CF93DF93C0EAD6E018E01E83E0E607
S1132090F6E091E096839683682F80EA99E00E94A7
S11320A034101D83DF91CF911F910895EF92FF9219
S11320B00F931F93CF93DF93C0EAD6E018E01E83FB
S11320C00F2EF0E6EF2EF6E0FF2EF02D01E0F701E3
S11320D00583682F80EA99E00E943410F701068393
S11320E01D83DF91CF911F910F91FF90EF90089581
S11320F08770806B0E9440100895CF93C82F8F770C
S113210082958F7080610E9440108C2F8F700E9486
S11321104010CF910895CF93DF93EC01FB018C81A4
S11321208F7E8C83A0E6B6E082E011968C931197A3
S113213015968C938D81806C8D8384818D7F813005
S113214021F48D8182608D8303C08D818D7F8D8389
S11321508581882321F08D8184608D8303C08D81E6
S11321608B7F8D8380819181A281B3819C01AD019C
S1132170220F331F441F551F60E078E488EE91E07E
S11321800E94F91921503109832F8F708F832E8378
S11321908C8188608C83DF91CF910895CF93DF93F6
S11321A000D000D0CDB7DEB720EA36E088E0D90110
S11321B011968C93A0E6B6E091E011969C9311974A
S11321C0E0E0F6E0818392E011969C9311971196DA
S11321D08C93D90115968C938683BAE6BA95F1F758
S11321E000C08583EAE6EA95F1F700C0E0E7F0E095
S11321F084818F7E848380E09BE1A7EBB0E08983B8
S11322009A83AB83BC831D821E82BE016F5F7F4FA6
S113221080EA99E00E948B1088EA0E9440108FE1C6
S11322200E94401083ED0E94401080E00E94401004
S113223080E40E94401081EA0E94401088EC0E94D1
S113224040108AED0E94401082E00E94401081E814
S11322500E9440108FE80E94401084EA0E944010BF
S113226086EA0E94401085ED0E94401080E80E949A
S113227040108DE80E94401084E10E9440108BEDD4
S11322800E94401080E40E94401089ED0E9440109A
S113229081EF0E9440108FEA0E9440102696CDBF25
S11322A0DEBFDF91CF910895EF92FF920F931F93BA
S11322B0CF93DC01EC91EE2329F17C01BFEFEB1A03
S11322C0FB0AEF37D0F4F0E0EE0FFF1FEC56FE4DA3
S11322D000811181F8018081882361F0C1E0F80157
S11322E0EC0FF11D80810E945610CF5FD8019C91A4
S11322F09C17A8F780E00E945610D701ED917D014C
S1132300E111DFCFCF911F910F91FF90EF900895CE
S11323100E94CE10C0E00FC08C2F0E9478108D2F29
S11323200E947D1080E00E945610DF5FD038A1F734
S1132330CF5FC43011F0D0E0EFCF02E912E23324D2
S113234033940F2EFFEBAF2EF2E2BF2EF02D0F2EA3
S1132350FFEBCF2EF6E9DF2EF02D0F2EFEECEF2E45
S1132360F2E2FF2EF02D0F2EFDED8F2EF6E99F2EBB
S1132370F02D0F2EFDED6F2EF2E27F2EF02D0F2E9D
S1132380FBEF4F2EF6E95F2EF02DF80180818325B7
S11323901F928F93BF92AF92DF92CF920E94A01BA5
S11323A0F801818183251F928F93FF92EF929F9270
S11323B08F920E94A01BF801828183251F928F9324
S11323C07F926F925F924F920E94A01BF8018381CB
S11323D083251F928F938CEE92E29F938F9389E1D2
S11323E097E99F938F930E94A01B8DB79EB7489641
S11323F08DBF9EBFD0E00FC08D2F0E9478108C2F10
S11324000E947D1080E00E945610CF5FC038A1F773
S1132410DF5FD43011F0C0E0EFCFCFEBD6E9212C51
S1132420822D0E94781080E00E947D10CE010E94CF
S1132430541123946E9694E02912F2CF88EC90E024
S11324400E94070DA2CFE0E5F0E0808182608083E6
S1132450818181FFFDCF81E00E94381681E00E94D6
S11324602E1661E087EB92E20E944E1561E084EB48
S113247092E20E944E1561E081EB92E20E944E15B9
S113248061E08EEA92E20E944E1587EB92E20E948E
S1132490701584EB92E20E94701581EB92E20E9427
S11324A070158EEA92E20E94701508950F931F939F
S11324B0CF93DF93EC01E6E4F7E985E597E98287BA
S11324C0938791E0908385E68183828383838483E9
S11324D01582168217829187088119816CEF72E246
S11324E0C8010E94291B892B09F0C3C00A811B81E2
S11324F062E073E2C8010E94291B892BC9F50C8094
S1132500DD81C02D62E073E2CE010E94291B892B7C
S113251021F481E0809392222AC16CE473E2CE011B
S11325200E94291B892B19F41092922220C164E085
S113253073E2CE010E94291B892B09F018C18091F6
S11325409222C1E08C271F928F9386E093E29F939F
S11325508F9385E597E99F938F930E94A01BC09367
S1132560B1930F900F900F900F900F900F90FFC0AA
S11325706CE473E2C8010E94291B892BC9F50C8005
S1132580DD81C02D62E073E2CE010E94291B892BFC
S113259021F481E080939322EAC06CE473E2CE01DB
S11325A00E94291B892B19F410929322E0C064E045
S11325B073E2CE010E94291B892B09F0D8C08091B7
S11325C09322C1E08C271F928F9381E193E29F9322
S11325D08F9385E597E99F938F930E94A01BC093E7
S11325E0B1930F900F900F900F900F900F90BFC06A
S11325F06FE473E2C8010E94291B892B09F0B7C05C
S11326000C80DD81C02D62E073E2CE010E94291BA3
S1132610892B21F481E080939422A9C06CE473E2B5
S1132620CE010E94291B892B19F4109294229FC079
S113263064E073E2CE010E94291B892B09F097C044
S113264080919422C1E08C271F928F938CE193E2B6
S11326509F938F9385E597E99F938F930E94A01B87
S1132660C093B1930F900F900F900F900F900F9015
S11326707EC067E273E2C8010E94291B892BC9F559
S11326800A80DB81C02D62E073E2CE010E94291B27
S1132690892B21F481E08093952269C06CE473E274
S11326A0CE010E94291B892B19F4109295225FC038
S11326B064E073E2CE010E94291B892B09F057C004
S11326C080919522C1E08C271F928F938BE293E235
S11326D09F938F9385E597E99F938F930E94A01B07
S11326E0C093B1930F900F900F900F900F900F9095
S11326F03EC062E373E2C8010E94291B892B01F5E5
S11327000A80DB81C02D62E073E2CE010E94291BA6
S1132710892B41F4E2E9F2E281E0808381838283C0
S1132720838325C06CE473E2CE010E94291B892BAC
S1132730F1F4E2E9F2E2108211821282138217C0EC
S113274066E373E2C8010E94291B892B21F481E00E
S11327508093B1930CC06DE373E2C8010E94291BFE
S1132760892B29F4F0E0E0E083E08CBF199480E049
S113277090E0DF91CF911F910F910895EF92FF9216
S11327800F931F93CF93DF93CDB7DEB76497CDBF7D
S1132790DEBF68E473E20E94251B0097D9F08983A9
S11327A09A837E0183E0E80EF11C01E010E009C089
S11327B0F701819391937F010F5F1F4F0A30110539
S11327C059F068E473E280E090E00E94251B0097D2
S11327D079F702C000E010E0B801CE0101960E9432
S11327E056126496CDBFDEBFDF91CF911F910F913A
S11327F0FF90EF900895EBEBF3E9108211821282BF
S11328008CE083838FE08483858342E0468388E081
S1132810878386E080871186128681E08387848798
S11328208587E1EDF3E99EEE928394E4938393E349
S1132830948392E2958391E19683178210861186A0
S113284086873EEC378724E2208B95E4918B8AE9D6
S1132850828B138A148A158A428F338F248F958F23
S1132860868F178E10A211A243E046A337A320A798
S113287091A782A713A614A615A644E042AB33ABD6
S113288024AB95AB86AB17AA10AE11AEEFE0F4E91A
S113289045E04083318322839383848315821682A7
S11328A01782E1EDF3E929E134E981E08083818352
S11328B083873C96E217F307C9F761ED73E98BEB65
S11328C093E90E9406020895CF93DF93CDB7DEB754
S11328D0A097CDBFDEBF0E94FB13E7E3F7E981E0D9
S11328E081878EEE808384E4818383E3828382E222
S11328F0838381E18483158216821782CE01019637
S113290082879387DC010D900020E9F71197A81BBB
S1132910B90BA487B5878FE086877F010F2EF5E773
S1132920AF2EF7E9BF2EF02D0F2EF6E4CF2EF7E9E8
S1132930DF2EF02D0E94EC02882359F100E010E014
S113294021E041E050E060E070E08091B29390912A
S1132950B3930E94050ED7011A96AD92BC921B97B1
S11329600E94B206C7010E942803D7011A96ED916E
S1132970FC911B971C968D919C911D97E80FF91F54
S113298010821A968D919C911B970E94BE130E94EF
S11329904F058091B1938823D1F0F601A285B385C8
S11329A0FD0101900020E9F73197EA1BFB0BD601EA
S11329B01C96ED93FC931D97C6010E944803D60113
S11329C01A96ED91FC911B9710821092B19388ECAA
S11329D090E00E94070DAECF0E9423120F2EF8EB59
S11329E0EF2EF3E9FF2EF02D00E020E030E044EF7D
S11329F051E06BE473E284E694E10E949C0A0F2E9A
S1132A00F6EBEF2EF3E9FF2EF02D20E030E044EF5B
S1132A1051E06EE473E28EE99FE00E949C0A0F2E5F
S1132A20F4EBEF2EF3E9FF2EF02D20E030E044EF3D
S1132A3051E061E573E288E891E10E949C0A0F2E5F
S1132A40F2EBEF2EF3E9FF2EF02D20E030E044EF1F
S1132A5051E064E573E28DE090E10E949C0A0E94DB
S1132A60A00BFFCF0F93202B611102C000E001C027
S1132A7000E8202B411102C000E001C000E4202B3B
S1132A803FB7F894DC0112964C9112974093B00032
S1132A90ED91FC91208B3FBF0F910895662381F047
S1132AA0DC01ED91FC91119721E030E0A90112962F
S1132AB00C9002C0440F551F0A94E2F74183089515
S1132AC0DC01ED91FC91119721E030E0A90112960F
S1132AD00C9002C0440F551F0A94E2F742830895F4
S1132AE0DC01ED91FC91119721E030E0A9011296EF
S1132AF00C9002C0440F551F0A94E2F745830895D1
S1132B00DC01ED91FC91119721E030E0A9011296CE
S1132B100C9002C0440F551F0A94E2F746830895AF
S1132B20DC01ED91FC911197208530E0F9011296BA
S1132B300C9002C0F595E7950A94E2F7CF018170F5
S1132B4008951F920F920FB60F9211240F900FBE8B
S1132B500F901F9018951F920F920FB60F92112489
S1132B600F900FBE0F901F9018951F920F920FB6E3
S1132B700F9211240F900FBE0F901F9018951F9263
S1132B800F920FB60F9211240F900FBE0F901F904B
S1132B9018951F920F920FB60F9211240F900FBE2B
S1132BA00F901F9018951F920F920FB60F92112439
S1132BB00F900FBE0F901F9018951F920F920FB693
S1132BC00F9211240F900FBE0F901F9018951F9213
S1132BD00F920FB60F9211240F900FBE0F901F90FB
S1132BE018951F920F920FB60F9211240F900FBEDB
S1132BF00F901F9018951F920F920FB60F921124E9
S1132C000F900FBE0F901F9018951F920F920FB642
S1132C100F9211240F900FBE0F901F9018951F92C2
S1132C200F920FB60F9211240F900FBE0F901F90AA
S1132C3018950F93CF93DF931F92CDB7DEB72FB7BD
S1132C402983F8941BBEFC0108ED04BF60838981CD
S1132C508FBF0F90DF91CF910F910895E0E5F0E0E1
S1132C609081282F20959223908390818923089521
S1132C700F931F93CF93C82F00E410E0F8016081F5
S1132C80687F682B80E490E00E941916F801808127
S1132C908C23CF911F910F910895FC019081907F17
S1132CA0692B60830895FC0196819C7F692B668360
S1132CB008952F923F924F925F926F927F928F92DC
S1132CC09F92AF92BF92CF92DF92EF92FF920F93B7
S1132CD01F93CF93DF93CDB7DEB76097CDBFDEBF31
S1132CE07C011B016A01FC0116821782838181FF2A
S1132CF044C39E012F5F3F4F3901F7019381F101D6
S1132D0093FD859193FF81911F01882309F431C3B9
S1132D10853239F493FD859193FF81911F018532AA
S1132D2039F4B70190E00E94641B56016501E5CFB8
S1132D3010E0512C912CFFE1F915D8F08B3279F089
S1132D4038F4803279F08332A1F4F92DF0612EC089
S1132D508D3261F0803369F4292D21602DC0392D25
S1132D603260932E892D8460982E2AC0E92DE86064
S1132D7015C097FC2DC020ED280F2A3088F496FE4C
S1132D8006C03AE0139F200D1124122F19C08AE0C7
S1132D90589E200D1124522EE92DE0629E2E10C063
S1132DA08E3231F496FCE5C2F92DF0649F2E08C0F2
S1132DB08C3621F4292D2068922E02C0883641F4E5
S1132DC0F10193FD859193FF81911F018111B3CF8F
S1132DD09BEB980F933020F4992D9061805E07C08F
S1132DE09BE9980F933008F066C1992D9F7E96FF5A
S1132DF016E09F73992E853619F49064992E08C0B5
S1132E00863621F4392F3068932E02C011111150E7
S1132E1097FE07C01C3350F444244394410E27E02A
S1132E200BC0183038F027E017E005C027E09CE31A
S1132E30492E02C0212F412C560184E0A80EB11C5A
S1132E40F6016081718182819381042DA3010E9426
S1132E50421A6C01F981FC87F0FF02C0F3FF06C03F
S1132E6091FC06C092FE06C000E205C00DE203C05C
S1132E700BE201C000E08C858C7019F001115AC27C
S1132E809BC297FE10C04C0CFC85F4FF04C08A81E1
S1132E90813309F44A94141474F528E0241578F560
S1132EA088E0482E2CC096FC2AC0812F90E08C1517
S1132EB09D059CF03CEFC3163FEFD30674F0892DBB
S1132EC08068982E0AC0E2E0F0E0EC0FFD1FE10FED
S1132ED0F11D8081803319F411501111F4CF97FE44
S1132EE00EC044244394410E812F90E0C816D906A5
S1132EF02CF41C1904C04424439401C010E097FE30
S1132F0006C01C141D0434F4C601019605C085E0F6
S1132F1090E002C081E090E001110196112331F0AC
S1132F20212F30E02F5F3F4F820F931F252D30E07C
S1132F308217930714F4581A01C0512C892D8970F3
S1132F4049F4552039F0B70180E290E00E94641BF7
S1132F505A94F7CF002329F0B701802F90E00E9404
S1132F60641B93FC09C0552039F0B70180E390E05D
S1132F700E94641B5A94F7CF97FE4CC04601D7FEBB
S1132F8002C0812C912CC60188199909F301E80F1C
S1132F90F91FED87FE879601241931092F87388B95
S1132FA0012F10E01195019511093FEF8316930647
S1132FB029F4B7018EE290E00E94641BC814D9047E
S1132FC04CF08F8598898815990524F4ED85FE8544
S1132FD0818101C080E3F1E08F1A91082D853E853F
S1132FE02F5F3F4F2D873E87801691062CF0B70147
S1132FF090E00E94641BD9CFC814D90441F49A818B
S1133000963320F4953319F43C8534FF81E3B701FA
S113301090E04EC08A81813319F09C859F7E9C8705
S1133020B70190E00E94641B111105C094FC18C004
S113303085E690E017C0B7018EE290E00E94641B21
S11330401E5F82E001E0080FF301E80FF11D8081AB
S1133050B70190E00E94641B802F0113F3CFE6CFE9
S113306085E490E0B7010E94641BD7FC06C0C1143C
S1133070D10441F4EC85E4FF05C0D194C194D10896
S11330808DE201C08BE2B70190E00E94641B80E3F3
S11330902AE0C216D1042CF08F5FFAE0CF1AD108CF
S11330A0F7CFB70190E00E94641BB701C601C09638
S11330B00E94641B54C1833631F0833779F0833521
S11330C009F056C020C0560132E0A30EB11CF6012F
S11330D08081898301E010E0630112C05601F2E0AF
S11330E0AF0EB11CF601C080D18096FE03C0612FE3
S11330F070E002C06FEF7FEFC6010E94321B8C01AB
S1133100F92DFF7714C0560122E0A20EB11CF6017E
S1133110C080D18096FE03C0612F70E002C06FEFC3
S11331207FEFC6010E941A1B8C01F92DF0689F2EB7
S1133130F3FD1AC0852D90E008171907A8F4B7010C
S113314080E290E00E94641B5A94F4CFF60197FC4D
S1133150859197FE81916F01B70190E00E94641BF5
S113316051105A94015011090115110579F7F7C04E
S1133170843611F0893661F5560197FE09C024E0C2
S1133180A20EB11CF60160817181828193810AC013
S1133190F2E0AF0EB11CF60160817181072E000CC4
S11331A0880B990BF92DFF769F2E97FF09C09095F8
S11331B08095709561957F4F8F4F9F4FF0689F2E3C
S11331C02AE030E0A3010E94C91BC82EC6183FC0E4
S11331D0092D853721F40F7E2AE030E01DC0097FD8
S11331E08F3691F018F4883559F0C3C0803719F040
S11331F0883711F0BEC0006104FF09C0046007C035
S113320094FE08C0066006C028E030E005C020E156
S113321030E002C020E132E0560107FF09C084E03B
S1133220A80EB11CF601608171818281938108C06E
S1133230F2E0AF0EB11CF6016081718180E090E094
S1133240A3010E94C91BC82EC6180F77902E96FEA4
S11332500BC0092D0E7FC11650F494FE0AC092FCD7
S113326008C0092D0E7E05C0DC2C092D03C0DC2C02
S113327001C0D12E04FF0DC0FE01EC0DF11D8081B3
S1133280803311F4097E09C002FF06C0D394D3949D
S113329004C0802F867809F0D39403FD11C000FF89
S11332A006C01C2DD51480F4150D1D190DC0D514A0
S11332B058F4B70180E290E00E94641BD394F7CFE6
S11332C0D51410F45D1801C0512C04FF10C0B701CF
S11332D080E390E00E94641B02FF17C001FD03C05D
S11332E088E790E002C088E590E0B7010CC0802F29
S11332F0867859F001FF02C08BE201C080E207FD2D
S11333008DE2B70190E00E94641BC11638F4B70146
S113331080E390E00E94641B1150F7CFCA94F3013C
S1133320EC0DF11D8081B70190E00E94641BC11077
S1133330F5CF15C0F4E0F51560F584E0581A93FE56
S11333401FC0011127C02C8523FF2AC000E112E011
S1133350392D3071932EF8018491811124C05520A8
S113336009F4E4CCB70180E290E00E94641B5A9413
S1133370F6CFF7018681978126C08FEF9FEF23C098
S1133380B70180E290E00E94641B5A945110F8CF78
S1133390D8CF512CB701802F90E00E94641BD3CF6B
S11333A004E112E0D5CF91108052B70190E00E9461
S11333B0641B0F5F1F4FCFCF23E0251510F483E06C
S11333C0BDCF512CC0CF6096CDBFDEBFDF91CF9172
S11333D01F910F91FF90EF90DF90CF90BF90AF902F
S11333E09F908F907F906F905F904F903F902F9021
S11333F00895A1E21A2EAA1BBB1BFD010DC0AA1F32
S1133400BB1FEE1FFF1FA217B307E407F50720F049
S1133410A21BB30BE40BF50B661F771F881F991FC4
S11334201A9469F760957095809590959B01AC010D
S1133430BD01CF01089597FB10F8169400080F936F
S1133440083098F00850232F342F452F562F672F1C
S1133450782F892F902DF4CF05949795879577959C
S1133460679557954795379527950A95AAF70F912C
S113347008952A153B054C055D056E057F058007FB
S113348091070895283008F027E03327DA01990FCF
S1133490311D87FD916000966105710539F4326034
S11334A02E5F3D9330E32A95E1F708959F3F30F076
S11334B080387105610509F03C5F3C5F3D939130B4
S11334C008F08068911DDF93CF931F930F93FF92B1
S11334D0EF92192F987F9695E92F96959695E90F77
S11334E0FF27EE58FD4F99273327EE24FF24A70129
S11334F0E70105900894079428F4360FE71EF81E98
S1133500491F511D660F771F881F991F0694A1F745
S11335100590079428F4E70EF81E491F561FC11D95
S1133520770F881F991F661F0694A1F705900794CB
S113353028F4F80E491F561FC71FD11D880F991F65
S1133540661F771F0694A1F70590079420F4490F8E
S1133550561FC71FD81F990F661F771F881F069411
S1133560A9F784911095177041F0D695C795579592
S11335704795F794E7941A95C1F7E8E1F2E0689467
S11335801590159135916591959105907FE273950C
S1133590E118F10A430B560BC90BD009C0F7E10C33
S11335A0F11E431F561FC91FD01D7EF4703311F442
S11335B08A95E6CFE894015030F0080F0AF400270A
S11335C0021708F4202F2395022F7A3328F079E389
S11335D07D932A95E9F710C07D932A9589F6069480
S11335E097956795379517951794E118F10A430B4A
S11335F0560BC90BD00998F023957E9173957A33B5
S113360008F070E37C932013B8F77E9170617D938A
S113361030F0839571E37D9370E32A95E1F71124EB
S1133620EF90FF900F911F91CF91DF91992787FD24
S113363090950895FC010590615070400110D8F7F1
S1133640809590958E0F9F1F089548E553E20C9442
S11336503D1BFB01DC018D91019080190110D9F310
S1133660990B0895FC016150704001900110D8F746
S1133670809590958E0F9F1F0895FA01A191B081B6
S1133680009719F41097E1F0CD01DC01CD010D9004
S1133690002011F4C00113C0FB012191222319F071
S11336A02015D9F7F3CFFB012191201519F41E92AF
S11336B0119606C02223C1F70D900020A1F7D00176
S11336C0FA01A193B08308950F931F93CF93DF93CF
S11336D0FB01238121FD03C08FEF9FEF2CC022FF4C
S11336E016C046815781248135814217530744F41B
S11336F0A081B1819D012F5F3F4F208331838C9343
S1133700268137812F5F3F4F2683378314C08B0177
S1133710EC01FB010084F185E02D1995892BE1F67C
S1133720D80116968D919C911797019616968D93B4
S11337309C931797CE01DF91CF911F910F9108951C
S11337400F931F93CF93DF93CDB7DEB72E97CDBFE3
S1133750DEBF0E891F8986E08C8309831A838FEF6D
S11337609FE78D839E83AE01465E5F4F688D798DA2
S1133770CE0101960E945916EF81F885E00FF11FE2
S113378010822E96CDBFDEBFDF91CF911F910F9196
S11337900895FA01AA27283051F1203181F1E894E3
S11337A06F936E7F6E5F7F4F8F4F9F4FAF4FB1E030
S11337B03ED0B4E03CD0670F781F891F9A1FA11D2B
S11337C0680F791F8A1F911DA11D6A0F711D811D2C
S11337D0911DA11D20D009F468943F912AE0269FF1
S11337E011243019305D3193DEF6CF010895462F50
S11337F04770405D4193B3E00FD0C9F7F6CF462F31
S11338004F70405D4A3318F0495D31FD4052419399
S113381002D0A9F7EACFB4E0A69597958795779556
S11338206795BA95C9F700976105710508959B01DD
S1133830AC010A2E06945795479537952795BA9566
S1133840C9F7620F731F841F951FA01D0895F89474
S1053850FFCFA4
S11338522006074006044006040510081020100341
S1133862826C1001FE03106C8203C8A8980418A08D
S1133872A0780588502050880538C030C038051813
S11338826080601804788080F803087C880490A81B
S1133892A84803F8100804102828F804F828281067
S11338A2047088887004F81008F005F808F008F02D
S11338B201FE04FE20508802807A01FA04FE1008F8
S11338C2F00410A8A87803FC12020470A8A830041B
S11338D2708888FE047088888804FE888870047062
S11338E28888F802020403808080030402040382AD
S11338F282FE030638C003FE828205C2A2928A8631
S1133902050608F0080605C6281028C6053EC03874
S1133912C03E050E30C0300E047E80807E05020259
S1133922FE0202044C92926404FE1232CC057C82A2
S1133932A242BC04FE12120C047C82827C05FE04A8
S11339421860FE05FE040804FE04FE80808005FE65
S113395210284482044080807E0382FE8204FE108A
S113396210FE057C829292F404FE12120204FE926C
S1133972928204FE82827C047C82824404FE9292BD
S11339826C05F8141214F808384492AAAABA241836
S1133992050402A2120C04824428100428282828B0
S11339A2041028448201C40144054C9292927C057D
S11339B26C9292926C050202F20A06057C92929231
S11339C264055E8A8A8A7205302824FE20054482B0
S11339D292926C0584C2A2928C050084FE8000053A
S11339E27CA2928A7C03C038060180031010100165
S11339F2C0031038100328102803824438033844C3
S1133A02820106056C92AC40A005462610C8C40586
S1133A124854FE54240528FE28FE28030600060105
S1133A22BE020000D121CF21CB21C521BF21B92162
S1133A32B321B121AD21A921A521A1219F219B213E
S1133A42992195218F21892183217D21772171213A
S1133A526B2165215F2159215721552150214B2189
S1133A6246214021372131212C21272122211D21C8
S1133A72182112210D2109210421FE20F920F3200D
S1133A82ED20E820E320DD20D820D320CD20C8205B
S1133A92C220BC20B620B020AA20A620A2209E20AC
S1133AA29A20962093208E20892084207F207A20B9
S1133AB2762071206C206A206720622060205A20C0
S1133AC2552050204B20462042203D2039203420CE
S1133AD22E20282022201D201920152013200F20FB
S1133AE20920010101010006060006040006028005
S1133AF206000006070006054006004006016006AF
S1133B0205600604E00701E0070049444C45004C07
S1133B12696768742030203A2020202564004C69AB
S1133B226768742031203A2020202564004C69679C
S1133B3268742032203A20202025640046616E20D9
S1133B4220202020203A2020202564006C69676808
S1133B52740030003F006C6967687420302025646B
S1133B62006C696768742031202564006C69676899
S1133B727420322025640066616E0066616E202521
S1133B826400616C6C0073746174757300626F6FAE
S1133B92746C6F6164657200202C0074310074329D
S10B3BA20074330074340000C8
S9030000FC
