S00F000070656E6775696E2E737265631F
S11300000C94E7010C9408020C9408020C94080266
S11300100C9408020C9408020C9408020C94080234
S11300200C9408020C9408020C9408020C94080224
S11300300C9408020C9408020C9408060C94080210
S11300400C9408020C9408020C9408020C94080204
S11300500C9408020C9408020C9408020C940802F4
S11300600C9408020C94B5160C94C9160C94BF1683
S11300700C94D3160C94E7160C94DD160C94080219
S11300800C9408020C9408020C9408020C940802C4
S11300900C9408020C9408020C9408020C940802B4
S11300A00C9408020C9408020C9408020C940802A4
S11300B00C9408020C9408020C9408020C94080294
S11300C00C9408020C9408020C9408020C94080284
S11300D00C9408020C9408020C9408020C94080274
S11300E00C9408020C9408020C940F170C94231718
S11300F00C9419170C9408020C9408020C9408022E
S11301000C9408020C9408020C9408020C94080243
S11301100C9408020C9408020C9408020C94080233
S11301200C9408020C9408020C9408020C94080223
S11301300C9408020C9408020C9408020C94080213
S11301400C9408020C9408020C9408020C94080203
S11301500C9408020C9408020C9408020C940802F3
S11301600C94F1160C9405170C94FB160C940802CD
S11301700C9408020C9408020C9408020C940802D3
S11301800C9408020C9408020C9408020C940802C3
S11301900C9408020C9408020C9408020C940802B3
S11301A00C9408020C9408020C9408020C940802A3
S11301B00C9408020C9408020C9408020C94080293
S11301C00C9408020C9408020C9408020C94080283
S11301D00C9408020C9408020C9408020C94080273
S11301E00C9408020C9408020C9408020C94080263
S11301F00C9408020C9482110C9408025A0C850C7D
S11302005C0D850C5C0DC00CD70C5C0D2E0D3B0DEC
S11302100C94850C0C942E0D0C943B0D0C945A0CE0
S11302200C94D70C0C94CB060C945C0D0C94F61126
S11302300C94740A0C94C00C0C945D0B0C94C114B3
S11302401C034C00550046004100200043004400BC
S113025043002000440065006D006F000000180397
S11302604400650061006E002000430061006D00E1
S113027065007200610000000403090409023E00E5
S1130280020100C032090400000102020100052439
S11302900010010424020605240600010705820358
S11302A00800FF09040100020A0000000705040217
S11302B01000050705830210000512011001020059
S11302C00008EB03442001000102DC016E616E00B2
S11302D0696E660000407A10F35A00A0724E180945
S11302E00010A5D4E80000E87648170000E40B5499
S11302F0020000CA9A3B000000E1F5050000809668
S11303009800000040420F000000A0860100000099
S1130310102700000000E803000000006400000053
S113032000000A00000000000100000000002C761C
S1130330D888DC674F0823DFC1DFAE59E1B1B79637
S1130340E5E3E453C63AE651997696E8E6C2842694
S1130350EB898C9B62ED407C6FFCEFBC9C9F40F270
S1130360BAA56FA5F490055A2AF75C936B6CF967EC
S11303706DC11BFCE0E40D47FEF520E6B500D0EDB1
S1130380902E0300943577050080841E0800002019
S11303904E0A000000C80C333333330F986E1283B7
S11303A01141EF8D2114893BE65516CFFEE6DB188B
S11303B0D1844B381BF77C1D901DA4BBE424203250
S11303C084725E228100C9F124ECA1E53D27112449
S11303D01FBECFEFCDBFDFE9DEBF00E00CBF13E2ED
S11303E0A0E0B0E2EEE2FBE300E00BBF02C0079046
S11303F00D92AC30B107D9F728E9ACE0B3E201C003
S11304001D92A938B207E1F70E947C150C94951D42
S11304100C940000CF92DF92EF92FF920F931F9300
S1130420CF93DF9300D01F92CDB7DEB76C017B0171
S1130430E0918798F0918898309729F063E878E9FB
S113044019958C0102C00FEF1FEFF6014081518115
S1130450628173818091839890918498A09185980A
S1130460B0918698480F591F6A1F7B1F10161106FA
S11304704CF4C801012E000CAA0BBB0B480F591FEA
S11304806A1F7B1F49835A836B837C83B701CE0128
S113049001960E94C102F701028713872496CDBFFB
S11304A0DEBFDF91CF911F910F91FF90EF90DF900E
S11304B0CF900895CF92DF92EF92FF920F931F9304
S11304C0CF93DF9300D01F92CDB7DEB78C010E948B
S11304D0970369837A838B839C83F8018285938550
S11304E097FF0EC0E0918798F0918898309741F07B
S11304F063E878E9CE0101961995F801828793871C
S1130500F801828593851816190694F4092E000CB7
S1130510AA0BBB0B49815A816B817C816A017B01E7
S1130520C81AD90AEA0AFB0AC982DA82EB82FC8277
S113053089819A81AB81BC81409183985091849840
S11305406091859870918698841B950BA60BB70BC8
S113055089839A83AB83BC83B801CE0101960E9440
S11305600A0269817A818B819C812496CDBFDEBF8A
S1130570DF91CF911F910F91FF90EF90DF90CF907B
S11305800895CF92DF92EF92FF920F931F93CF9330
S1130590DF93CDB7DEB72897CDBFDEBF8B01FC015B
S11305A0608171818281938120E831E541E050E0EE
S11305B00E94311B69017A012CE330E040E050E0F5
S11305C00E946F1D29833A834B835C8389819A81BE
S11305D0AB81BC81F80160836CE370E00E941D1B59
S11305E0DC01CB01F801A1838283C601069667E092
S11305F070E00E945B1B84832DEA3EE840E050E0FB
S1130600C701B6010E946F1D29833A836D837E83DF
S11306108F83988789819A8124E6289F6001299F86
S1130620D00C11246D817E818F81988525EB35E076
S113063040E050E00E946F1D29833A836D837E83DE
S1130640E980FA80EE0CFF1CEE0CFF1CEC0CFD1C88
S11306508D819E81F5E6EF16F10410F0019604C039
S113066024E6E216F10419F021E030E002C020E0B3
S113067030E0A90144595E4F4817590768F46DE604
S113068071E0821B930B0E941D1BDC01CB01E80E61
S1130690F91ECD0120E030E044E6E40EF11CF8013F
S11306A0E682F78280879187255C3F4F8217930704
S11306B048F46FE170E00E941D1BDC01CB01F801DE
S11306C0858322C069E970E0821B930B0E941D1B85
S11306D0DC01CB01F82EFF0CFF0CF80E6DE370E08B
S11306E0CD010E941D1BDC01CB01E82EEE0C6FE155
S11306F070E0CD010E941D1BDC01CB0122E0280F1C
S1130700F20EFE0CF801F582A383F801128613861B
S113071083818F5F83832896CDBFDEBFDF91CF9126
S11307201F910F91FF90EF90DF90CF9008958F92DB
S11307309F92AF92BF92CF92DF92EF92FF920F936C
S11307401F93CF93DF93EC01EE81FF818F01045659
S11307501109B9F0CF01855691096C0197FF03C0C7
S113076023E0C20ED11CD594C794D594C7946CE9E8
S11307707FEF0E941D1BC60ED71E8FEFC81AD80A22
S113078002C0C12CD12C0D2C000CEE08FF082DE664
S113079031E0D8010E948E1DC60ED71EE81EF91E38
S11307A08B81082E000C990B8C01015011092D81AD
S11307B022302CF4222379F1015E1F4F2CC0CF018B
S11307C08459984F0E945204E82FF0E0FB96E00F02
S11307D0F11F8D81082E000C990B0297853091052D
S11307E014F0E756FF4F65E070E00E941D1B9C016A
S11307F097FF02C02F5F3F4F359527959DE3929F4A
S1130800A001939F500D11248F01040F151F80FF29
S113081002C0015E1F4FA801110F660B770B9A01EE
S1130820AB012C0D3D1D4E1D5F1D60E871E581E09F
S113083090E00E945F1D6B017C01AA810A2E000CCE
S1130840BB0B20E13EE00E948E1D4B015C01A9819F
S11308500A2E000CBB0B2CE330E00E948E1DDC0141
S1130860CB01880D991DAA1DBB1D4881042E000CC7
S1130870550B660B770B840F951FA61FB71FBC0182
S1130880CD016C0D7D1D8E1D9F1DDF91CF911F919C
S11308900F91FF90EF90DF90CF90BF90AF909F901B
S11308A08F9008959C0123703327232B59F464E619
S11308B070E00E941D1B892B39F46370772781E057
S11308C0672B19F080E0089581E00895292F3327DC
S11308D02230310559F02330310569F021303105DA
S11308E029F582E190E02AEB32E029C08EE390E022
S11308F02CE732E024C099278130910559F08230E9
S1130900910571F0892BB9F4E8E7F2E0849190E065
S11309109F0115C0EEE5F2E0849190E09F010FC0C5
S1130920E0E4F2E0849190E09F0109C080E090E06F
S113093020E030E004C080E090E020E030E0FA0104
S113094020833183089531E1FC013083319722E221
S113095020833197A3E3A083319760833197708319
S11309603197108231971082319760E86083319714
S11309701082319762E06083319763E0608331973E
S113098064E06083319765E06083319766E060835B
S1130990319767E06083319768E06083319769E05D
S11309A06083319760E1608331973083319732E11E
S11309B03083319733E13083319734E13083319799
S11309C035E13083319736E13083319737E1308335
S11309D0319738E13083319739E13083319730E210
S11309E03083319731E2308331972083319723E28A
S11309F020833197408331975083319726E22083B7
S1130A00319727E22083319728E22083319729E226
S1130A102083319720E32083319721E32083879734
S1130A20089565E080E098E00E94611783EF91E00B
S1130A30809326089093270861E080E098E00E9464
S1130A406717E0EAF0E0828181608283A0915D9380
S1130A50B0915E93CD91CDBFDD91DEBFFF91EF915B
S1130A60DF91CF91BF91AF919F918F917F916F91C2
S1130A705F914F913F912F911F910F91FF90EF90B4
S1130A80DF90CF90BF90AF909F908F907F906F90AA
S1130A905F904F903F902F901F900F900FBE0F903C
S1130AA0089581E008950F920FB6F8940F921F9263
S1130AB011242F923F924F925F926F927F928F9266
S1130AC09F92AF92BF92CF92DF92EF92FF920F93D9
S1130AD01F932F933F934F935F936F937F938F93C2
S1130AE09F93AF93BF93CF93DF93EF93FF93A09123
S1130AF05D93B0915E930DB60D920EB60D920E9469
S1130B00B409A0915D93B0915E93CD91CDBFDD9179
S1130B10DEBFFF91EF91DF91CF91BF91AF919F9194
S1130B208F917F916F915F914F913F912F911F9181
S1130B300F91FF90EF90DF90CF90BF90AF909F9078
S1130B408F907F906F905F904F903F902F901F9069
S1130B500F900FBE0F9008950F920FB6F8940F9256
S1130B601F9211242F923F924F925F926F927F9225
S1130B708F929F92AF92BF92CF92DF92EF92FF92A9
S1130B800F931F932F933F934F935F936F937F9391
S1130B908F939F93AF93BF93CF93DF93EF93FF9381
S1130BA0A0915D93B0915E930DB60D920EB60D9229
S1130BB00E943C0881110E94B409A0915D93B091F8
S1130BC05E93CD91CDBFDD91DEBFFF91EF91DF91BB
S1130BD0CF91BF91AF919F918F917F916F915F91D1
S1130BE04F913F912F911F910F91FF90EF90DF90C4
S1130BF0CF90BF90AF909F908F907F906F905F90B9
S1130C004F903F902F901F900F900FBE0F9008951C
S1130C100E94AC051895CF93DF93EC010E9436082F
S1130C2080910C2390910D23892B31F481E193E27F
S1130C3080930C2390930D2320910E2330910F2346
S1130C40CE01820F931F8F3F4FE6940770F428174D
S1130C50390770F4C0910C23D0910D23C20FD31F18
S1130C6080930E2390930F2305C0C0E0D0E002C010
S1130C70C0E0D0E00E941209CE01DF91CF91089527
S1130C800895FC010396818392832FEF3FEF238322
S1130C903483858396838783908710820895FC012B
S1130CA0108611860895CF93DF939C01FB01DC012C
S1130CB01196CD91DC911297C283D3838C819D814F
S1130CC0848395838C819D81DC0112966D937C9342
S1130CD013976C837D8320873187F90180818F5F2F
S1130CE08083DF91CF910895CF93DF93EB01488107
S1130CF059814F3F2FEF520721F4FC01A781B085A2
S1130D000DC0DC01139601C0DF011296ED91FC9138
S1130D1013972081318142175307B0F71296ED9152
S1130D20FC911397EA83FB83C483D583AC83BD838F
S1130D301296CD93DC93139788879987FC012081C1
S1130D402F5F2083DF91CF910895CF93DF93FC0130
S1130D50A085B185C281D381848195818C839D8353
S1130D60C481D581828193818A839B831196CD919D
S1130D70DC911297CE17DF0731F48C819D81119697
S1130D808D939C931297108611868C9181508C932D
S1130D90DF91CF910895FFCFCF93DF93EC01E091E2
S1130DA05D93F0915E9382839383809117939091E6
S1130DB01893C817D90768F460915D9370915E9396
S1130DC080912393909124936E5F7F4F0E947406C9
S1130DD017C060915D9370915E938091259390917B
S1130DE026936E5F7F4F0E947406809189229091B2
S1130DF08A22C817D90720F4C0938922D0938A2263
S1130E00DF91CF9108954F925F926F927F928F926C
S1130E109F92AF92BF92CF92DF92EF92FF920F9385
S1130E201F93CF93DF934C01EB015A01290181E217
S1130E3090E00E940B063C01009709F4DAC0C1144B
S1130E40D10409F0D2C0C5010E940B06F301878BBF
S1130E50908F892B21F4C3010E944006CAC0F1E09F
S1130E60AF1AB108F3018789908DA80EB91E888145
S1130E70818F8881882381F0D3015A96FE013196AF
S1130E809E01285F3F4FEF0181918D9388818823D4
S1130E9019F0E217F307B9F7F30110A2102F043089
S1130EA008F013E0F301168BE3012296CE010E94B1
S1130EB04F06C3010C960E944F06F30160867186AB
S1130EC084E090E0811B910984879587628A738A04
S1130ED0A201B401C5010E94A304F301808391839C
S1130EE0E114F10419F0F701608271820FB6F894ED
S1130EF00F92809119938F5F8093199380915D93E2
S1130F0090915E93892B89F560925D9370925E93C4
S1130F10809119938130C1F589E393E90E944106D8
S1130F2082E493E90E9441068BE493E90E9441061E
S1130F3084E593E90E94410680E393E90E94410617
S1130F4087E293E90E9441068AE193E90E944106FF
S1130F5080E393E9809325939093269387E293E922
S1130F6080932393909324930FC0809115938111C0
S1130F700BC0E0915D93F0915E938689081720F091
S1130F8060925D9370925E93809111938F5F8093D2
S1130F901193F301868990911693981710F4809316
S1130FA0169390E09C01220F331F220F331F220F50
S1130FB0331F820F931FBE01875C9C460E94530619
S1130FC00F900FBE80911593882359F0E0915D93A3
S1130FD0F0915E938689801730F40E94530581E076
S1130FE009C081E007C081E005C0FC01C78AD08E3A
S1130FF036CF8FEFDF91CF911F910F91FF90EF903C
S1131000DF90CF90BF90AF909F908F907F906F9024
S11310105F904F900895AF92BF92CF92DF92EF927C
S1131020FF920F93A12CB12CC12CD12CE12CF12CCB
S113103000E020E030E044E650E065EB72E28BEC47
S113104096E00E940307813049F4F8948093159345
S113105010921793109218930E9411050F91FF900C
S1131060EF90DF90CF90BF90AF9008958091109350
S11310708F5F809310930895DF92EF92FF920F9306
S11310801F93CF93DF93809110938111B6C0809109
S113109017939091189301968093179390931893B4
S11310A0E0901793F0901893E114F10499F580916E
S11310B02593909126932091239330912493209308
S11310C02593309326938093239390932493809134
S11310D012938F5F80931293E0912593F09126935E
S11310E08081811107C08FEF9FEF809389229093B5
S11310F08A2210C0E0912593F09126930580F68111
S1131100E02D0680F781E02D8281938180938922EE
S113111090938A228091892290918A22E816F90676
S113112010F4D12C52C0D12CE0912593F091269348
S11311309081911107C08FEF9FEF80938922909344
S11311408A2243C0E0912593F09126930580F6818D
S1131150E02DC681D7812A813B81E216F30628F46B
S11311602093892230938A2230C08E010E5F1F4F54
S1131170C8010E94A5068C899D89892B21F0CE0186
S11311800C960E94A5062E8980911693821710F45E
S11311902093169330E0C901880F991F880F991F77
S11311A0880F991F820F931FB801875C9C460E9489
S11311B05306E0915D93F0915E939E89868998171A
S11311C008F4B2CFDD24D394AFCFE0915D93F091D6
S11311D05E93868990E0FC01EE0FFF1FEE0FFF1F68
S11311E0EE0FFF1F8E0F9F1FFC01E75CFC46808102
S11311F0823048F0DD24D39406C0809114938F5F2D
S113120080931493D12C80911393882311F0DD24BF
S1131210D3948D2DDF91CF911F910F91FF90EF907B
S1131220DF900895DF92EF92FF920F931F93CF9375
S1131230DF930FB6F8940F928091109381508093AE
S1131240109380911093811162C080911993811140
S113125033C060C0D7011596ED91FC911697C681F5
S1131260D781CE010C960E94A5068E010E5F1F4FFA
S1131270C8010E94A5062E8980911693821710F446
S11312802093169330E0C901880F991F880F991F86
S1131290880F991F820F931FB801875C9C460E9498
S11312A05306E0915D93F0915E939E898689981729
S11312B058F0D092139308C00F2EFAE1EF2EF3E901
S11312C0FF2EF02DDD24D394F70180818111C2CF4C
S11312D080911493882399F080911493882379F052
S11312E0C1E00E943C088111C09313938091149330
S11312F0815080931493809114938111F2CF809143
S11313001393813031F40E94530581E003C080E0DF
S113131001C080E00F900FBEDF91CF911F910F911C
S1131320FF90EF90DF900895CF93DF93EC01892B2A
S1131330B1F00E9436088091179390911893C80FCA
S1131340D91F80915D9390915E9302960E94A506A9
S1131350CE010E94CC060E941209811102C00E9493
S11313605305DF91CF91089580911093882321F044
S113137081E08093139308951092139380911693B0
S113138090E0FC01EE0FFF1FEE0FFF1FEE0FFF1F9B
S11313908E0F9F1FFC01E75CFC468081811117C002
S11313A0809116938150809316938091169390E0C8
S11313B0FC01EE0FFF1FEE0FFF1FEE0FFF1F8E0F3E
S11313C09F1FFC01E75CFC468081882349F38091E0
S11313D0169390E09C01220F331F220F331F220F1C
S11313E0331F280F391FD901A75CBC461196ED9114
S11313F0FC9112970280F381E02D1196ED93FC93FA
S11314001297245C3C46E217F30729F422813381C6
S1131410FD0121833283FC01EE0FFF1FEE0FFF1F3E
S1131420EE0FFF1F8E0F9F1FFC01E75CFC4601803F
S1131430F281E02D8681978180935D9390935E93F2
S11314400895CF93DF93EC01FC0170968BE0DF01EC
S11314501D928A95E9F782E08C83898783E08E87E1
S113146061E0CE0101960E941710882361F061E0CB
S1131470CE0106960E941710882329F061E0CE0160
S11314800B960E941710DF91CF910895CF93FC0122
S113149090918E95943019F584899589A689B78998
S11314A0892B8A2B8B2BE9F0C62F81810E94060F92
S11314B08091979590919895FC01EF5BFF4F208167
S11314C031978081281730F00E94BE0E0E94C6100A
S11314D0811108C08C2F0E94F60E80E003C082E0C8
S11314E001C082E0CF910895FB01682F8485958522
S11314F00E94460A21E030E0811102C020E030E081
S113150088279927821B930B0895CF93DF93FC01BF
S113151090918E959430F1F584899589A689B7893F
S1131520892B8A2B8B2BC1F181810E94060F80911C
S11315309B9588234CF4E0919795F0919895EF5BF7
S1131540FF4F808190E00DC0209197953091989540
S1131550F901E05CFF4F80813196208190E0821B8D
S11315609109892BD9F08091979590919895FC01D8
S1131570EF5BFF4FD0813197C0810E94BE0EDC1714
S113158078F00E94C610C82F81110CC00E94BE0EB4
S11315908C2F08C082E006C082E004C080E002C054
S11315A080E000C0DF91CF910895CF93DF93FC01D9
S11315B090918E95943099F484899589A689B789F8
S11315C0892B8A2B8B2B59F0EF0181810E94060F06
S11315D00E94460F882319F0CE010E94850ADF91EC
S11315E0CF910895CF93DF9320918E95243009F005
S11315F056C0FC014489558966897789452B462B59
S1131600472B09F44FC086810E94060F0E94530F96
S1131610882309F44AC080919B9588234CF4E09177
S11316209795F0919895EF5BFF4F808190E00DC006
S11316302091979530919895F901E05CFF4F808156
S11316403196208190E0821B9109892B29F00E9418
S1131650E60EC82FD0E002C0CFEFDFEF80919B955C
S113166088234CF4E0919795F0919895EF5BFF4FA8
S1131670208130E00DC04091979550919895FA01E2
S1131680E05CFF4F20813196808130E0281B3109D6
S1131690232B71F40E94D70E8C2F9D2F0BC08FEF3C
S11316A09FEF08C08FEF9FEF05C08FEF9FEF02C041
S11316B08C2F9D2FDF91CF910895FC018485958512
S11316C00E94F20A992314F48EEF9FEF0895FB0110
S11316D02EE0DB011D922A95E9F723E0238324E71A
S11316E03AE0208731872DE53BE0228733878487E2
S11316F0958708950895FF920F931F93CF93DF93D7
S1131700EC010E946D0F882309F49BC0288130E00E
S113171080919395909194958217930709F091C0C5
S113172080919095813259F018F4803281F189C00A
S1131730823209F467C0833209F476C082C0809192
S11317408F95813A09F07DC00E94870F0E94460F51
S11317508823E1F38C89FD880E891F890E94F60E87
S11317608F2D0E94F60E802F0E94F60E812F0E946C
S1131770F60E888D0E94F60E898D0E94F60E8A8DD3
S11317800E94F60E0E94BE0E0E94AB105AC08091B9
S11317908F95813209F055C00E94870F05C0809152
S11317A08E95882309F44DC00E94530F8823B9F302
S11317B00E94E60EF82E0E94E60E182F0E94E60EF6
S11317C0082F0E94E60E402F50E060E070E0BA015E
S11317D055274427782B4F29512B4C8B5D8B6E8BCF
S11317E07F8B0E94E60E888F0E94E60E898F0E94EE
S11317F0E60E8A8F0E94D70E0E94AB10CE010E9483
S11318007A0B1FC080918F958132D9F40E94870F83
S11318100E94AB108091919590919295888B998BB1
S1131820CE010E9445160DC080918F95813249F4F6
S11318300E94870F0E94AB1060919195CE010E9487
S11318407A0BDF91CF911F910F91FF900895EF9242
S1131850FF920F931F93CF93DF93CDB7DEB7EA9731
S1131860CDBFDEBF0FE815E90F2EF7E9EF2EF5E93E
S1131870FF2EF02D0E94E60EF80181938F01EE15E4
S1131880FF05C1F70E9440160E946D0F882309F4DA
S113189013C1EFE8F5E920813181832F90E08A308C
S11318A0910508F009C1FC018827E250FF4F8F4FD2
S11318B00C94531B203821F0223809F0FDC008C0D5
S11318C010918B9580918C95882391F0126010C0B3
S11318D0809193958F700E94060FE0919995F091F5
S11318E09A95118112FB112710F980E00E94060FCE
S11318F00E94870F812F0E94F60E80E00E94F60E50
S11319000E94BE0E0E94AB10D7C0222309F4DDC092
S1131910223009F0D1C0DEC081E0333009F080E02C
S113192080938C9525C0E09193951E2F1F7009F428
S1131930C3C0812F0E94060F80919095833019F4C3
S11319400E94B50F15C0E0919995F0919A95818107
S11319508B7F818324E8129FF0011124E352FA461D
S11319601082E0919995F0919A9580818E7F808381
S113197080E00E94060F0E94870F0E94AB109CC05B
S113198021119AC0109191951F770E94870F0E9490
S1131990AB100E94460F8823E1F31093C304111186
S11319A002C082E001C083E080938E9585C02058F8
S11319B0223008F081C080919195909192958C3D50
S11319C0E3E09E07B9F583E08A838AE389837FB7DE
S11319D0F894AE014D5F5F4F20E038E0A0ECB1E039
S11319E062E01A966C931A97E32FF0E084911A96AA
S11319F01C921A9720FF03C082958F703F5F8F70EF
S1131A008A3018F090E0C79602C090E0C096FA01C0
S1131A1081939193AF012F5F2C3119F77FBF0E94FF
S1131A20870F6AE370E0CE0101960E948F0D0E9439
S1131A30D70E42C0AE014F5F5F4F609193950E94F5
S1131A4066048C01892BC1F10E94870FB80189813A
S1131A509A810E94250E0E94D70E2EC0203861F56F
S1131A600E94870F80918A950E94F60E0E94BE0EF6
S1131A700E94AB1021C021111FC08091919582302A
S1131A80D8F40E94870F8091919580938A950E9443
S1131A90AB1080918A95882321F084E080938E9501
S1131AA009C08091C304811102C081E001C084E0B7
S1131AB080938E950E9429160E946D0F882381F0D1
S1131AC00E94870F0E94B50F0BC0809191958130C1
S1131AD099F722CF80919195882309F424CF48CF98
S1131AE0EA96CDBFDEBFDF91CF911F910F91FF909A
S1131AF0EF9008950895CF9380918E95882369F08F
S1131B00C0919B9580E00E94060F0E946D0F811189
S1131B100E94270C8C2F0E94060FCF910895CF921C
S1131B20DF92EF92FF920F931F93CF93DF93C82E10
S1131B30D92E8B0180919B9580680E94060FC091DD
S1131B409595D0919695C017D10740F001151105D0
S1131B5021F40E94BE0EE80101C0E801EC2CFD2C2A
S1131B60D12C49C080918E95882309F45AC08530C0
S1131B7009F459C00E946D0F811157C00E94530F80
S1131B80811149C00E94460F8823A9F180919B9539
S1131B90882374F4E0919795F0919895EF5BFF4F4B
S1131BA0008110E02097F9F00830110578F01BC08F
S1131BB08091979590919895FC01E05CFF4F00818E
S1131BC03196808110E0081B1109ECCFF701819157
S1131BD07F010E94F60E21970F5F1F4F209719F087
S1131BE00830110599F7DD24D3940830110509F064
S1131BF0D12C0E94BE0E209709F0B4CFD110B2CFE1
S1131C000AC080918E95882391F0853091F00E94CE
S1131C106D0F811110C00E94530F882391F380E04F
S1131C200BC082E009C083E007C081E005C082E008
S1131C3003C083E001C081E0DF91CF911F910F9138
S1131C40FF90EF90DF90CF900895DF92EF92FF9294
S1131C500F931F93CF93DF93E82EF92E8B0180917E
S1131C609B9580680E94060FC0919595D09196959A
S1131C70C017D10740F00115110521F40E94BE0ED2
S1131C80E80101C0E8010E2D1F2DD12C4EC080911A
S1131C908E95882309F45FC0853009F45EC00E94E4
S1131CA06D0F81115CC00E94530F81114EC00E94C0
S1131CB0460F8823D1F180919B9588237CF4E09191
S1131CC09795F0919895EF5BFF4FE080F12C20976A
S1131CD019F188E0E816F10478F01EC08091979518
S1131CE090919895FC01E05CFF4FE08031968081F3
S1131CF0F12CE81AF108EBCFF80184910E94F60E5A
S1131D000F5F1F4F2197FFEFEF1AFF0A209721F073
S1131D1088E0E816F10481F7DD24D394E8E0EE16B8
S1131D20F10409F0D12C0E94BE0E209709F0AFCF28
S1131D30D110ADCF0AC080918E95882391F0853063
S1131D4091F00E946D0F811110C00E94530F8823DF
S1131D5091F380E00BC082E009C083E007C081E01A
S1131D6005C082E003C083E001C081E0DF91CF9130
S1131D701F910F91FF90EF90DF900895E091999556
S1131D80F0919A95A0919795B0919895AF5BBF4FBC
S1131D908C9190E08283938380818D798083E0911C
S1131DA09795F0919895EF5BFF4F10820895E0911D
S1131DB09995F0919A9580818D798083E09197959A
S1131DC0F0919895EF5BFF4F10820895809197955D
S1131DD090919895FC01EF5BFF4F208131E0320F29
S1131DE03083FC01E20FF11D8081089520919795C5
S1131DF030919895F901EF5BFF4F908141E0490FD5
S1131E004083F901E90FF11D8083089580939B9528
S1131E10282F2F7030E04091C6045091C7048823C6
S1131E20E4F464E8629FC001639F900D1124825220
S1131E309A468093979590939895C9018295929527
S1131E40907F9827807F982708969A01280F391F3A
S1131E502093999530939A95089564E8629FC00100
S1131E60639F900D112484569A468093979590937E
S1131E70989522953295307F3227207F3227240F80
S1131E80351F2093999530939A95089580919B9549
S1131E9080680E94060FE0919995F0919A9580814F
S1131EA086958170089580919B958F770E94060F87
S1131EB0E0919995F0919A95808185FF0CC080916D
S1131EC097959091989522813381FC01E05CFF4FB6
S1131ED0208381E0089580E0089580919B958F7719
S1131EE00E94060FE0919995F0919A95808184FF64
S1131EF00CC0809197959091989522813381FC0133
S1131F00E05CFF4F208381E0089580E00895809194
S1131F109B958F770E94060FE0919995F0919A9581
S1131F2080818D788083E0919995F0919A95808154
S1131F3081608083E0919795F0919895EF5BFF4FD6
S1131F40108280919B9580680E94060FE09199957C
S1131F50F0919A95808181608083E0919795F091CA
S1131F609895EF5BFF4F10820895E0919995F09159
S1131F709A95818184608183E0919995F0919A95F5
S1131F808181807C803461F480919B9580580E948B
S1131F90060FE0919995F0919A95818184608183EF
S1131FA008951F93CF93DF93D82F162FC42F0E9429
S1131FB0060FE0919995F0919A951182E091999587
S1131FC0F0919A95DD23A4F01082E0919995F09117
S1131FD09A951183E0919995F0919A9512821382C2
S1131FE080919795909198958483958340E014C04F
S1131FF082E08083E0919995F0919A951183E09124
S11320009995F0919A951282138280919795909167
S11320109895848395834C2FFC01E05CFF4F4083AB
S11320203196108281E0DF91CF911F910895AF9294
S1132030BF92CF92DF92EF92FF920F931F93CF93B1
S1132040DF93662309F457C0A62E7C018C0184E03B
S1132050E80EF11CB12CF801C080CC2009F441C079
S1132060C181D281F70131978081F701908192304B
S113207010F448E001C048E1C930D10550F028E02F
S113208030E090E09F5F220F331F2C173D07D0F301
S113209001C090E0942B2C2D2F7030E025303105B9
S11320A064F59F7EC134D10550F5882319F0813041
S11320B021F006C09064D92E07C0906CD92E0AC0B6
S11320C09068D92E811106C04C2F6D2D80E88C0D9F
S11320D00E94D10F4C2F6D2D8C2D0E94D10F88237F
S11320E079F0B3940B5F1F4FF5E0EF0EF11CBA10BB
S11320F0B2CF81E005C081E003C080E001C080E090
S1132100DF91CF911F910F91FF90EF90DF90CF90CF
S1132110BF90AF90089520E030E0A0ECB4E01696B4
S1132120ED91FC911797C90182959295907F98271C
S1132130807F9827E80FF91F118616964D915C91C0
S11321401797FA01E80FF91F11822F5F3F4F2530CF
S1132150310529F7089580918F95882384F404C06C
S113216080918E95882389F00E94530F8823C1F3B0
S11321700E94D70E089580918E95882331F00E9495
S1132180460F8823C1F30E94BE0E0895FF920F9359
S11321901F93CF93DF93E091C604F091C704E05BF3
S11321A0FF4FC081D1810F2EF4E6FF2EF02D00ECFD
S11321B014E002C0F22EEC0180919B9588232CF44C
S11321C00E94460F882329F023C00E94530F8111D7
S11321D021C080918E958823F9F08530F9F0E09143
S11321E09995F0919A95818182FD1AC0D80116962D
S11321F0ED91FC911797E05BFF4F80819181C817A7
S1132200D907C9F22FEF2F0DF110D4CF84E009C004
S113221080E007C080E005C082E003C083E001C025
S113222081E0DF91CF911F910F91FF900895CF939B
S1132230DF93E0E4F0E014828481836084830E946D
S113224075110E947C11C0ECD4E088818F7788835B
S113225088818068888310928E9510928A95109256
S11322608C9510928B9588818064888348E068E41B
S113227080E80E94D10F48E068E480E00E94D10F1A
S1132280888580648887898181608983DF91CF9183
S11322900895CF93DF932FB7F894C0ECD1E082E098
S11322A08A87EAE1F0E0E491A0ECB4E0DA96EC93FA
S11322B0DA97EBE1F0E0E491DB96EC93DB971A8696
S11322C081E398E98E7F16968D939C93179784E10A
S11322D08C9383E018968C932FBF81E080938D9527
S11322E00E941711DF91CF910895E0ECF4E080850E
S11322F08370808711860895E0ECF4E08FEF828785
S1132300848708951F920F920FB60F9211240BB673
S11323100F922F933F934F935F936F937F938F937A
S11323209F93AF93BF93EF93FF938091CA04882345
S11323304CF48091C80488232CF480E88093CA0468
S11323400E947A0D8091CA0486FF07C080E48093BE
S1132350CA0410928E950E941D168091CA0485FFAE
S113236016C080E28093CA0480918A95882321F064
S113237084E080938E9509C08091C304811102C0CA
S113238081E001C083E080938E950E9410168091B5
S1132390CA0484FF18C0E0ECF4E080E1828782E0A4
S11323A080938E9510928A9513820E948B1048E038
S11323B068E480E80E94D10F48E068E480E00E946D
S11323C0D10F0E947A0DFF91EF91BF91AF919F9130
S11323D08F917F916F915F914F913F912F910F90CA
S11323E00BBE0F900FBE0F901F9018950E943608D9
S11323F08BE892E20E94D50A0E947B0D0E9412098A
S113240081E090E00E949409F1CFFC01818185FF75
S1132410FDCF6083818186FFFDCF80E4818380814D
S113242008951F93CF93DF93C0EAD6E018E01E838C
S1132430E0E6F6E091E096839683682F80EA99E0DF
S11324400E9405121D83DF91CF911F910895EF9291
S1132450FF920F931F93CF93DF93C0EAD6E018E067
S11324601E830F2EF0E6EF2EF6E0FF2EF02D01E096
S1132470F7010583682F80EA99E00E940512F701AD
S113248006831D83DF91CF911F910F91FF90EF90F1
S113249008958770806B0E9411120895CF93C82FFE
S11324A0982F9F77892F82958F7080610E941112D7
S11324B08C2F8F700E941112CF910895CF93DF93C8
S11324C0EC01FB018C818F7E8C83A0E6B6E082E078
S11324D011968C93119715968C938D81806C8D83B6
S11324E084818D7F813021F48D8182608D8303C04E
S11324F08D818D7F8D838581882321F08D818460FA
S11325008D8303C08D818B7F8D8380819181A28196
S1132510B3819C01AD01220F331F441F551F60E09E
S113252078E488EE91E00E94311B21503109832F19
S11325308F708F832E838C8188608C83DF91CF9101
S11325400895CF93DF9300D000D0CDB7DEB720EA53
S113255036E088E0D90111968C93A0E6B6E091E0CC
S113256011969C931197E0E0F6E0818392E0119636
S11325709C93119711968C93D90115968C9386830D
S1132580BAE6BA95F1F700C08583EAE6EA95F1F771
S113259000C0E0E7F0E084818F7E848380E09BE1EB
S11325A0A7EBB0E089839A83AB83BC831D821E8230
S11325B0BE016F5F7F4F80EA99E00E945E1288EA55
S11325C00E9411128FE10E94111283ED0E941112D8
S11325D080E00E94111280E40E94111281EA0E949C
S11325E0111288EC0E9411128AED0E94111282E0ED
S11325F00E94111281E80E9411128FE80E941112A8
S113260084EA0E94111286EA0E94111285ED0E944A
S1132610111280E80E9411128DE80E94111284E1C7
S11326200E9411128BED0E94111280E40E9411127B
S113263089ED0E94111281EF0E9411128FEA0E940B
S113264011122696CDBFDEBFDF91CF910895EF9290
S1132650FF920F931F93CF93DC01EC91EE2329F1AA
S11326607C01BFEFEB1AFB0AEF37D0F4F0E0EE0F7A
S1132670FF1FE557FE4D00811181F80180818823F9
S113268061F0C1E0F801EC0FF11D80810E94271276
S1132690CF5FD8019C919C17A8F780E00E94271275
S11326A0D701ED917D01E111DFCFCF911F910F9102
S11326B0FF90EF90089520E8829FC0011124860FB7
S11326C0911DE0916D93F0916E93E80FF91F408393
S11326D0089520E8829FC0011124860F911DE09186
S11326E06D93F0916E93E80FF91F808108951F9305
S11326F0CF93DF93182FD62FC42F211104C00E942B
S113270069138C1771F04C2F6D2F812F0E945B136E
S1132710812F0E9449128D2F0E944E128C2F0E94ED
S11327202712DF91CF911F9108950F9307E020E1C5
S113273040E060E08FEA92E20E9446160F9108950D
S113274061E08FEA92E20E94621660E08FEA92E210
S11327500E94621661E082EB92E20E94621661E0DE
S11327608CEA92E20E9462160E94951308951F93C8
S1132770CF93DF93182F61E08FEA92E20E946216F2
S1132780C8E0D0E010FF05C08FEA92E20E948416F0
S113279004C08FEA92E20E94941681E090E00E94C5
S11327A0940982EB92E20E94841681E090E00E94F8
S11327B0940982EB92E20E9494161695219711F7E0
S11327C060E08FEA92E20E946216DF91CF911F913E
S11327D008951F93CF93DF9360E08FEA92E20E9403
S11327E06216C0E0D0E010E08FEA92E20E94A416E4
S11327F0282F30E00C2E02C0220F331F0A94E2F778
S1132800122B81E090E00E94940982EB92E20E94F4
S1132810841681E090E00E94940982EB92E20E9487
S113282094162196C830D105F9F6812FDF91CF9106
S11328301F910895CF93C82F8CEA92E20E948416C8
S113284084E090E00E9494098C2F0E94B7130E94A8
S1132850E913C82F84E090E00E9494098CEA92E284
S11328600E9494168C2FCF910895EF92FF920F93AC
S11328701F93CF93DF93CDB7DEB76397CDBFDEBF92
S11328808CEA92E20E94841684E090E00E9494090B
S11328908FEB0E94B7138E010F5F1F4F7E0188E0FC
S11328A0E80EF11C0E94E913F80181938F01EE15E3
S11328B0FF05C1F78CEA92E20E9494160000898118
S11328C0982F92959F70990F292F220F220F920F04
S11328D08F70890F88878A81982F92959F70990F9E
S11328E0292F220F220F920F8F70890F89878B81D6
S11328F0982F92959F70990F292F220F220F920FD4
S11329008F70890F8A878C81982F92959F70990F69
S1132910292F220F220F920F8F70890F8B878D81A1
S1132920282F2F70215082958F70880F982F990F20
S1132930990F890F820F8D878F81282F2F70829591
S11329408F7090E0AC01440F551F880F991F880FBA
S1132950991F880F991F840F951F820F911D8C5901
S11329609F4F8E879F87CE0108960E945A026396D6
S1132970CDBFDEBFDF91CF911F910F91FF90EF90FC
S11329800895CF93DF9300D01F92CDB7DEB70E9496
S1132990A0130F2EFFE5EF2EF3E9FF2EF02D01E833
S11329A00F2EF5ECCF2EF2E2DF2EF02D0F2EF9ECE8
S11329B0AF2EF2E2BF2EF02D97014AE050E061E025
S11329C070E08AEB92E20E94BF1C102F812F0E94BC
S11329D01A141F928F93DF92CF92FF92EF920E946C
S11329E0771C1E5F0F900F900F900F900F900F9019
S11329F0133961F7970142E050E061E070E087ED40
S1132A0092E20E94BF1CCE0101960E9435148C8173
S1132A108F938B818F938A818F9389818F93BF92B8
S1132A20AF92FF92EF920E94771C88EE93E00E948F
S1132A309409CDBFDEBFC0CFCF93DF93E0E5F0E0D4
S1132A4080E18583808180618083818184FFFDCFE3
S1132A508FB7F894A0E4B0E094E028ED30E01BBE1A
S1132A60FD0124BF90838FBF8FE39FE10197F1F7AE
S1132A7000C000008C91E0E5F0E0808182608083FA
S1132A80818181FFFDCFE0E5F0E08681846086836B
S1132A90A0E6B0E08BE115968C93159787EB16961C
S1132AA08C931697C0ECD1E082E08A87EDE1F0E0E8
S1132AB0E4911296EC931297ECE1F0E0E491139612
S1132AC0EC9313971A8681E08C9387E08093A2009D
S1132AD0E0EEF7E083E0818386838093B00080E4B6
S1132AE0808BE0E6F6E090E391839683848B0E94EA
S1132AF04911DF91CF91089561E089EA92E20E9441
S1132B00621661E086EA92E20E9462160E941C1537
S1132B108FE693E980936D9390936E930E94A11234
S1132B20D0E00FC08D2F0E9449128C2F0E944E12AC
S1132B3080E00E942712CF5FC038A1F7DF5FD43056
S1132B4011F0C0E0EFCF80E40E941112D0E00CC07D
S1132B5021E040E06C2F8D2F0E947713CF5FC038A7
S1132B60B9F7DF5FD43011F0C0E0F2CF000080E0AD
S1132B700E9449128FEF92E20E94271361E089EAD2
S1132B8092E20E94621661E086EA92E20E94621674
S1132B90E0E5F0E0808182608083818181FFFDCF68
S1132BA081E00E944C1781E00E944217E0EEF7E0BA
S1132BB081E0818382E0818380E1809361066FE517
S1132BC073E98BE892E20E94670B789400002BE98A
S1132BD040E060EA74E08FE695E90E946D1700001A
S1132BE000000000A12CB12CC12CD12CE12CF12C23
S1132BF000E020E030E044EF51E064E073E281EC77
S1132C0094E10E94030720E030E048EC50E067E0E4
S1132C1073E286EF91E10E9403070E940B08FFCF45
S1132C2083E08093E60780E38093660682E08093E6
S1132C30E50780E180936506089583E08093E607C5
S1132C4080E38093660681E08093E5071092650631
S1132C5008958BE892E20E94210A811102C081E169
S1132C6001C082E293E09093E60790E390936606B6
S1132C70982F93709093E507807380936506089569
S1132C808BE892E20E947B0B089508950F93202B0A
S1132C90611102C000E001C000E8202B411102C014
S1132CA000E001C000E4202B3FB7F894DC01129649
S1132CB04C9112974093B000ED91FC91208B3FBF53
S1132CC00F910895662381F0DC01ED91FC91119739
S1132CD021E030E0A90112960C9002C0440F551F68
S1132CE00A94E2F741830895DC01ED91FC91119778
S1132CF021E030E0A90112960C9002C0440F551F48
S1132D000A94E2F742830895DC01ED91FC91119756
S1132D1021E030E0A90112960C9002C0440F551F27
S1132D200A94E2F745830895DC01ED91FC91119733
S1132D3021E030E0A90112960C9002C0440F551F07
S1132D400A94E2F746830895DC01ED91FC91119712
S1132D50208530E0F90112960C9002C0F595E795B4
S1132D600A94E2F7CF01817008951F920F920FB673
S1132D700F9211240F900FBE0F901F9018951F9261
S1132D800F920FB60F9211240F900FBE0F901F9049
S1132D9018951F920F920FB60F9211240F900FBE29
S1132DA00F901F9018951F920F920FB60F92112437
S1132DB00F900FBE0F901F9018951F920F920FB691
S1132DC00F9211240F900FBE0F901F9018951F9211
S1132DD00F920FB60F9211240F900FBE0F901F90F9
S1132DE018951F920F920FB60F9211240F900FBED9
S1132DF00F901F9018951F920F920FB60F921124E7
S1132E000F900FBE0F901F9018951F920F920FB640
S1132E100F9211240F900FBE0F901F9018951F92C0
S1132E200F920FB60F9211240F900FBE0F901F90A8
S1132E3018951F920F920FB60F9211240F900FBE88
S1132E400F901F9018951F920F920FB60F92112496
S1132E500F900FBE0F901F9018950F93CF93DF9391
S1132E601F92CDB7DEB72FB72983F8941BBEFC01A0
S1132E7008ED04BF608389818FBF0F90DF91CF91EC
S1132E800F910895E0E5F0E09081282F209592239A
S1132E9090839081892308950F931F93CF93C82F14
S1132EA000E410E0F8016081687F682B80E490E022
S1132EB00E942D17F80180818C23CF911F910F91CF
S1132EC00895FC019081907F692B60830895FC0133
S1132ED096819C7F692B66830895FC0160837183CE
S1132EE04863DB0111964C93A081B18115962C9314
S1132EF00190F081E02D81E0848308952F923F9228
S1132F004F925F926F927F928F929F92AF92BF92F5
S1132F10CF92DF92EF92FF920F931F93CF93DF93A1
S1132F20CDB7DEB76397CDBFDEBF6C014B012A017D
S1132F30FC0116821782838181FF43C3AE014F5F78
S1132F405F4F3A01F6019381F40193FD859193FF5C
S1132F5081914F01882309F430C3853239F493FDFC
S1132F60859193FF81914F01853239F4B60190E048
S1132F700E94871C52012501E5CF10E0F12C20E0CE
S1132F802032A0F48B3269F030F4803259F083326D
S1132F9069F420612CC08D3239F0803339F421601A
S1132FA026C02260246023C0286021C027FD27C0DA
S1132FB030ED380F3A3078F426FF06C0FAE01F9F50
S1132FC0300D1124132F13C04AE0F49E300D112448
S1132FD0F32E20620CC08E3221F426FDEEC2206452
S1132FE006C08C3611F4206802C0883641F4F4011E
S1132FF093FD859193FF81914F018111C1CF9BEB8B
S1133000980F933018F42061805E06C09BE9980FF6
S1133010933008F071C12F7E26FF16E02F73322EF5
S1133020853619F42064322E08C0863621F4F22F36
S1133030F0683F2E02C01111115037FE07C01C3337
S113304050F4EE24E394E10E27E00BC0183038F07E
S113305027E017E005C027E04CE3E42E02C0212F4F
S1133060E12C520144E0A40EB11CF2016081718193
S1133070828193810E2DA3010E94891B2C01098159
S113308000FF02C003FF07C031FC08C032FE09C0C4
S113309030E2232E07C02DE2222E04C09BE2292E0B
S11330A001C0212C802F8C7019F0211068C2A8C295
S11330B037FE0FC0E40C04FF04C08A81813309F495
S11330C0EA941E1474F5F8E0FE1578F588E0E82E0D
S11330D02CC036FC2AC0812F90E0841595059CF005
S11330E02CEF42162FEF520674F0432D4068342E15
S11330F00AC0E2E0F0E0EC0FFD1FE10FF11D80815A
S1133100803319F411501111F4CF37FE0EC0EE24A0
S1133110E394E10E812F90E0481659062CF414191B
S113312004C0EE24E39401C010E037FE06C014147A
S1133130150434F4C201019605C085E090E002C094
S113314081E090E021100196112331F0212F30E02D
S11331502F5F3F4F820F931F2F2D30E0821793076D
S113316014F4F81A01C0F12C832D897049F4FF205E
S113317039F0B60180E290E00E94871CFA94F7CF00
S1133180222029F0B601822D90E00E94871C33FC96
S113319009C0FF2039F0B60180E390E00E94871C4B
S11331A0FA94F7CF37FE5AC0942D852D57FE02C0EE
S11331B090E080E0292E382E20E030E0A2014E1964
S11331C051094C875D87A201421953094E875F87D5
S11331D0612F70E044275527461B570B488B598BAA
S11331E05FEF2516350649F4B6018EE290E02A8B8E
S11331F03B8B0E94871C3B892A89421453046CF040
S11332004C855D854215530544F4EE85FF85E20F38
S1133210F31FE60DF71D818101C080E351E0251AFB
S113322031082F5F3F4F48895989241635064CF0E1
S1133230B60190E02A8B3B8B0E94871C2A893B892C
S1133240CFCF2414350439F49A81963318F4953386
S113325011F404FF81E3B60190E04BC08A8181330D
S113326009F00F7EB60190E00E94871C111105C081
S113327034FC18C085E690E017C0B6018EE290E0F9
S11332800E94871C82E0EE24E394E80EF301E80F29
S1133290F11D8081B60190E00E94871C11508E2D93
S11332A091F7E6CF85E490E0B6010E94871C57FCB5
S11332B005C04114510439F404FF05C051944194EC
S11332C051088DE201C08BE2B60190E00E94871C98
S11332D080E39AE0491651042CF08F5F5AE0451AB6
S11332E05108F7CFB60190E00E94871CB601C201D5
S11332F0C0960E94871C57C1833631F0833779F01A
S1133300833509F058C021C05201E2E0AE0EB11C71
S1133310F2018081898301E010E0230114C052018D
S1133320F2E0AF0EB11CF2014080518026FF03C0D1
S1133330612F70E002C06FEF7FEFC2012A8B0E9401
S11333406C1C8C012A892F7715C05201F2E0AF0E54
S1133350B11CF2014080518026FF03C0612F70E050
S113336002C06FEF7FEFC2012A8B0E94611C8C01A7
S11333702A892068322E23FD1AC08F2D90E0081769
S11333801907A8F4B60180E290E00E94871CFA9421
S1133390F4CFF20137FC859137FE81912F01B601FC
S11333A090E00E94871CF110FA9401501109011554
S11333B0110579F7F8C0843611F0893659F55201B0
S11333C027FF09C0F4E0AF0EB11CF20160817181E6
S11333D0828193810AC0F2E0AF0EB11CF2016081D8
S11333E07181072E000C880B990B2F76322E97FFD4
S11333F009C090958095709561957F4F8F4F9F4F31
S11334002068322E2AE030E0A3010E94011DE82E3C
S1133410E6183FC0022F853721F40F7E2AE030E002
S11334201DC0097F8F3691F018F4883559F0C5C056
S1133430803719F0883711F0C0C0006104FF09C05B
S1133440046007C024FF08C0066006C028E030E01E
S113345005C020E130E002C020E132E0520107FF64
S113346009C0F4E0AF0EB11CF20160817181828168
S1133470938108C0F2E0AF0EB11CF201608171814A
S113348080E090E0A3010E94011DE82EE6180F776A
S1133490302E36FE0BC0332D3E7FE11650F434FE41
S11334A00AC032FC08C0332D3E7E05C00E2D332DDC
S11334B003C00E2D01C0012F34FF0CC0FE01EE0D20
S11334C0F11D8081803311F4397E08C032FF05C0BC
S11334D00E5F04C0832F867809F00F5F33FD13C09D
S11334E030FF06C01E2D0F1518F41F0D101B0F2DD5
S11334F00F1568F4B60180E290E03B8B0E94871CB4
S11335000F5F3B89F5CF0F1510F4F01A01C0F12CB1
S113351034FF12C0B60180E390E03B8B0E94871C0D
S11335203B8932FF17C031FD03C088E790E002C039
S113353088E590E0B6010CC0832F867859F031FFFE
S113354002C08BE201C080E237FD8DE2B60190E05B
S11335500E94871CE11638F4B60180E390E00E94D3
S1133560871C1150F7CFEA94F301EE0DF11D808111
S1133570B60190E00E94871CE110F5CF14C0F4E07E
S1133580FF1558F584E0F81A33FE1EC0211026C03A
S113359003FF2AC00CEC12E0F32DF0713F2EF8016A
S11335A08491811124C0FF2009F4E5CCB60180E2A6
S11335B090E00E94871CFA94F6CFF60186819781E9
S11335C026C08FEF9FEF23C0B60180E290E00E94F7
S11335D0871CFA94F110F8CFD9CFF12CB601822DC3
S11335E090E00E94871CD4CF00ED12E0D5CF3110BB
S11335F08052B60190E00E94871C0F5F1F4FCFCF0F
S113360023E02F1510F483E0BECFF12CC1CF6396D5
S1133610CDBFDEBFDF91CF911F910F91FF90EF904F
S1133620DF90CF90BF90AF909F908F907F906F90DE
S11336305F904F903F902F90089597FB072E16F4BC
S1133640009407D077FD09D00E945B1B07FC05D0CE
S11336503EF4909581959F4F0895709561957F4FA5
S11336600895A1E21A2EAA1BBB1BFD010DC0AA1FBF
S1133670BB1FEE1FFF1FA217B307E407F50720F0D7
S1133680A21BB30BE40BF50B661F771F881F991F52
S11336901A9469F760957095809590959B01AC019B
S11336A0BD01CF010895EE0FFF1F881F8BBF079048
S11336B0F691E02D1994AA1BBB1B51E107C0AA1F68
S11336C0BB1FA617B70710F0A61BB70B881F991FBF
S11336D05A95A9F780959095BC01CD0108950E9453
S11336E07A1BA59F900DB49F900DA49F800D911DF2
S11336F011240895A29FB001B39FC001A39F700D30
S1133700811D1124911DB29F700D811D1124911DE5
S11337100895283008F027E03327DA01990F311D86
S113372087FD916000966105710539F432602E5F62
S11337303D9330E32A95E1F708959F3F30F08038B8
S11337407105610509F03C5F3C5F3D93913008F0E1
S11337508068911DDF93CF931F930F93FF92EF9295
S1133760192F987F9695E92F96959695E90FFF273F
S1133770E25DFC4F99273327EE24FF24A701E701DC
S113378005900894079428F4360FE71EF81E491F85
S1133790511D660F771F881F991F0694A1F7059086
S11337A0079428F4E70EF81E491F561FC11D770F12
S11337B0881F991F661F0694A1F70590079428F4A3
S11337C0F80E491F561FC71FD11D880F991F661F6A
S11337D0771F0694A1F70590079420F4490F561F0C
S11337E0C71FD81F990F661F771F881F0694A9F754
S11337F084911095177041F0D695C79557954795C4
S1133800F794E7941A95C1F7E4EDF2E06894159003
S1133810159135916591959105907FE27395E11825
S1133820F10A430B560BC90BD009C0F7E10CF11E8A
S1133830431F561FC91FD01D7EF4703311F48A959F
S1133840E6CFE894015030F0080F0AF4002702177D
S113385008F4202F2395022F7A3328F079E37D93FF
S11338602A95E9F710C07D932A9589F606949795D1
S11338706795379517951794E118F10A430B560B82
S1133880C90BD00998F023957E9173957A3308F08B
S113389070E37C932013B8F77E9170617D9330F0D0
S11338A0839571E37D9370E32A95E1F71124EF90FA
S11338B0FF900F911F91CF91DF91992787FD9095EC
S11338C00895FC010590615070400110D8F780956F
S11338D090958E0F9F1F0895FC01615070400190D8
S11338E00110D8F7809590958E0F9F1F0895CF9360
S11338F0DF93CDB7DEB7AE01465F5F4F688579854C
S11339008E819F810E947E17DF91CF9108950F933E
S11339101F93CF93DF93FB01238121FD03C08FEF1E
S11339209FEF28C022FF16C046815781248135812C
S11339304217530744F4A081B1819D012F5F3F4F8B
S1133940208331838C93268137812F5F3F4F2683D9
S1133950378310C0EB01092F182F0084F185E02D67
S11339601995892BE1F68E819F8101968E839F8321
S1133970812F902FDF91CF911F910F9108958F92F6
S11339809F92AF92BF92CF92DF92EF92FF920F93EA
S11339901F93CF93DF935B014A017901D9011396F9
S11339A02C9121FF1DC0C0E0D0E0C815D905D9F085
S11339B08C016C01CA0CDB1CC8010C151D0571F0CF
S11339C00F5F1F4FD7011896ED91FC911997B7011E
S11339D0DC018C911995892B79F305C02196E5CFEB
S11339E080E090E001C0CE01DF91CF911F910F9153
S11339F0FF90EF90DF90CF90BF90AF909F908F900B
S1133A000895FA01AA27283051F1203181F1E89470
S1133A106F936E7F6E5F7F4F8F4F9F4FAF4FB1E0BD
S1133A203ED0B4E03CD0670F781F891F9A1FA11DB8
S1133A30680F791F8A1F911DA11D6A0F711D811DB9
S1133A40911DA11D20D009F468943F912AE0269F7E
S1133A5011243019305D3193DEF6CF010895462FDD
S1133A604770405D4193B3E00FD0C9F7F6CF462FBE
S1133A704F70405D4A3318F0495D31FD4052419327
S1133A8002D0A9F7EACFB4E0A695979587957795E4
S1133A906795BA95C9F700976105710508959B016B
S1133AA0AC010A2E06945795479537952795BA95F4
S1133AB0C9F7620F731F841F951FA01D0895DB01B2
S1133AC08F939F930E946F1BBF91AF91A29F800D14
S1133AD0911DA39F900DB29F900D11240895052E62
S1133AE097FB1EF400940E94861D57FD07D00E9488
S1133AF0311B07FC03D04EF40C94861D5095409561
S1133B00309521953F4F4F4F5F4F08959095809585
S1133B10709561957F4F8F4F9F4F08950E947A1B38
S1113B20B7FF0895821B930B0895F894FFCF0E
S1133B2E05100810201003826C1001FE03106C8225
S1133B3E03C8A8980418A0A07805885020508805BA
S1133B4E38C030C03805186080601804788080F85A
S1133B5E03087C880490A8A84803F81008041028C9
S1133B6E28F804F8282810047088887004F81008BF
S1133B7EF005F808F008F001FE04FE2050880280DB
S1133B8E7A01FA04FE1008F00410A8A87803FC12B7
S1133B9E020470A8A83004708888FE04708888888F
S1133BAE04FE88887004708888F8020204038080FA
S1133BBE8003040204038282FE030638C003FE82DD
S1133BCE8205C2A2928A86050608F0080605C62852
S1133BDE1028C6053EC038C03E050E30C0300E0457
S1133BEE7E80807E050202FE0202044C92926404E0
S1133BFEFE1232CC057C82A242BC04FE12120C04CC
S1133C0E7C82827C05FE041860FE05FE040804FE18
S1133C1E04FE80808005FE10284482044080807E4D
S1133C2E0382FE8204FE1010FE057C829292F4043E
S1133C3EFE12120204FE92928204FE82827C047CA4
S1133C4E82824404FE92926C05F8141214F8083819
S1133C5E4492AAAABA2418050402A2120C0482449D
S1133C6E28100428282828041028448201C401445A
S1133C7E054C9292927C056C9292926C050202F221
S1133C8E0A06057C92929264055E8A8A8A720530CF
S1133C9E2824FE2005448292926C0584C2A2928C42
S1133CAE050084FE8000057CA2928A7C03C038063F
S1133CBE01800310101001C00310381003281028BF
S1133CCE03824438033844820106056C92AC40A04A
S1133CDE05462610C8C4054854FE54240528FE285B
S1133CEEFE280306000601BE020000C821C621C23A
S1133CFE21BC21B621B021AA21A821A421A0219C56
S1133D0E2198219621922190218C21862180217A3D
S1133D1E2174216E21682162215C21562150214E8D
S1133D2E214C21472142213D2137212E21282123B7
S1133D3E211E21192114210F21092104210021FB07
S1133D4E20F520F020EA20E420DF20DA20D420CF52
S1133D5E20CA20C420BF20B920B320AD20A720A1A3
S1133D6E209D209920952091208D208A20852080C9
S1133D7E207B20762071206D206820632061205ED8
S1133D8E205920572051204C20472042203D2039D5
S1133D9E20342030202B2025201F20192014201001
S1133DAE200C200A2006200020FFFF0083100000B4
S1133DBE0104100000018208000001000000000050
S1133DCE000000000000E00701E0070020060720C5
S1133DDE060620060549444C450068616C6C61205A
S1133DEE626F6C20002578200074696D65737461B0
S1133DFE6D70203A2025640D0A0074686520746580
S1133E0E6D702069732025660A0D006C69676874ED
S1133E1E20302031006C69676874203020300045F2
S10F3E2E4D4F4E007434007573620000A8
S9030000FC
