S00F000070656E6775696E2E737265631F
S11300000C9487010C94A8010C94A8010C94A801E9
S11300100C94A8010C94A8010C94A8010C94A801B8
S11300200C94A8010C94A8010C94A8010C94A801A8
S11300300C94A8010C94A8010C949B090C94A8019D
S11300400C94A8010C94A8010C94A8010C94A80188
S11300500C94A8010C94A8010C94A8010C94A80178
S11300600C94A8010C9461160C9475160C946B16E0
S11300700C947F160C9493160C9489160C94A80176
S11300800C94A8010C94A8010C94A8010C94A80148
S11300900C94A8010C94A8010C94A8010C94A80138
S11300A00C94A8010C94A8010C94A8010C94A80128
S11300B00C94A8010C94A8010C94A8010C94A80118
S11300C00C94A8010C94A8010C94A8010C94A80108
S11300D00C94A8010C94A8010C94A8010C94A801F8
S11300E00C94A8010C94A8010C94BB160C94CF1684
S11300F00C94C5160C94A8010C94A8010C94A801A6
S11301000C94A8010C94A8010C94A8010C94A801C7
S11301100C94A8010C94A8010C94A8010C94A801B7
S11301200C94A8010C94A8010C94A8010C94A801A7
S11301300C94A8010C94A8010C94A8010C94A80197
S11301400C94A8010C94A8010C94A8010C94A80187
S11301500C94A8010C94A8010C94A8010C94A80177
S11301600C949D160C94B1160C94A7160C94A8012B
S11301700C94A8010C94A8010C94A8010C94A80157
S11301800C94A8010C94A8010C94A8010C94A80147
S11301900C94A8010C94A8010C94A8010C94A80137
S11301A00C94A8010C94A8010C94A8010C94A80127
S11301B00C94A8010C94A8010C94A8010C94A80117
S11301C00C94A8010C94A8010C94A8010C94A80107
S11301D00C94A8010C94A8010C94A8010C94A801F7
S11301E00C94A8010C94A8010C94A8010C94A801E7
S11301F00C94A8010C945B0E0C94A8010C94141399
S11302000C94D8140C945E0A0C94CF0E6E616E009C
S1130210696E660000407A10F35A00A0724E180905
S11302200010A5D4E80000E87648170000E40B5459
S1130230020000CA9A3B000000E1F5050000809628
S11302409800000040420F000000A086010000005A
S1130250102700000000E803000000006400000014
S113026000000A00000000000100000000002C76DD
S1130270D888DC674F0823DFC1DFAE59E1B1B796F8
S1130280E5E3E453C63AE651997696E8E6C2842655
S1130290EB898C9B62ED407C6FFCEFBC9C9F40F231
S11302A0BAA56FA5F490055A2AF75C936B6CF967AD
S11302B06DC11BFCE0E40D47FEF520E6B500D0ED72
S11302C0902E0300943577050080841E08000020DA
S11302D04E0A000000C80C333333330F986E128378
S11302E01141EF8D2114893BE65516CFFEE6DB184C
S11302F0D1844B381BF77C1D901DA4BBE424203211
S113030084725E228100C9F124ECA1E53D27112409
S11303101FBECFEFCDBFDFE9DEBF00E00CBF13E2AD
S1130320A0E0B0E2E0E2FBE300E00BBF02C0079014
S11303300D92A235B107D9F728E9A2E5B3E201C0CD
S11303401D92AD3AB207E1F70E9432150C948E1D4E
S11303500C9400006BE978E90E94B1018BE998E9FB
S11303600895CF92DF92EF92FF920F931F93CF9352
S1130370DF9300D01F92CDB7DEB76C017B01E09113
S1130380AB98F091AC98309729F067EA78E9199521
S11303908C0102C00FEF1FEFF60140815181628191
S11303A073818091A7989091A898A091A998B091F1
S11303B0AA98480F591F6A1F7B1F101611064CF488
S11303C0C801012E000CAA0BBB0B480F591F6A1F52
S11303D07B1F49835A836B837C83B701CE010196CB
S11303E00E946802F701028713872496CDBFDEBFFF
S11303F0DF91CF911F910F91FF90EF90DF90CF90FD
S11304000895CF92DF92EF92FF920F931F93CF93B1
S1130410DF9300D01F92CDB7DEB78C010E943E035C
S113042069837A838B839C83F8018285938597FF04
S11304300EC0E091AB98F091AC98309741F067EA28
S113044078E9CE0101961995F80182879387F8011E
S1130450828593851816190694F4092E000CAA0BAC
S1130460BB0B49815A816B817C816A017B01C81A6B
S1130470D90AEA0AFB0AC982DA82EB82FC82898100
S11304809A81AB81BC814091A7985091A8986091C2
S1130490A9987091AA98841B950BA60BB70B898316
S11304A09A83AB83BC83B801CE0101960E94B1014B
S11304B069817A818B819C812496CDBFDEBFDF91D7
S11304C0CF911F910F91FF90EF90DF90CF900895FF
S11304D0CF92DF92EF92FF920F931F93CF93DF930C
S11304E0CDB7DEB72897CDBFDEBF8B01FC0160819D
S11304F071818281938120E831E541E050E00E94DE
S1130500CC1A69017A012CE330E040E050E00E940B
S1130510681D29833A834B835C8389819A81AB81EB
S1130520BC81F80160836CE370E00E94B81ADC01BE
S1130530CB01F801A1838283C601069667E070E0CF
S11305400E940C1B84832DEA3EE840E050E0C70182
S1130550B6010E94681D29833A836D837E838F834D
S1130560988789819A8124E6289F6001299FD00C6D
S113057011246D817E818F81988525EB35E040E0E3
S113058050E00E94681D29833A836D837E83E9804D
S1130590FA80EE0CFF1CEE0CFF1CEC0CFD1C8D8194
S11305A09E81F5E6EF16F10410F0019604C024E6EE
S11305B0E216F10419F021E030E002C020E030E05E
S11305C0A90144595E4F4817590768F46DE671E074
S11305D0821B930B0E94B81ADC01CB01E80EF91EB2
S11305E0CD0120E030E044E6E40EF11CF801E6829F
S11305F0F78280879187255C3F4F8217930748F4E1
S11306006FE170E00E94B81ADC01CB01F801858328
S113061022C069E970E0821B930B0E94B81ADC01C6
S1130620CB01F82EFF0CFF0CF80E6DE370E0CD014A
S11306300E94B81ADC01CB01E82EEE0C6FE170E0E9
S1130640CD010E94B81ADC01CB0122E0280FF20E82
S1130650FE0CF801F582A383F801128613868381C8
S11306608F5F83832896CDBFDEBFDF91CF911F912B
S11306700F91FF90EF90DF90CF9008958F929F920B
S1130680AF92BF92CF92DF92EF92FF920F931F939C
S1130690CF93DF93EC01EE81FF818F0104561109A2
S11306A0B9F0CF01855691096C0197FF03C023E08F
S11306B0C20ED11CD594C794D594C7946CE97FEF2E
S11306C00E94B81AC60ED71E8FEFC81AD80A02C0E5
S11306D0C12CD12C0D2C000CEE08FF082DE631E0C6
S11306E0D8010E94871DC60ED71EE81EF91E8B81F5
S11306F0082E000C990B8C01015011092D81223018
S11307002CF4222379F1015E1F4F2CC0CF018459B0
S1130710984F0E94F903E82FF0E0FB96E00FF11FD9
S11307208D81082E000C990B02978530910514F0E9
S1130730E756FF4F65E070E00E94B81A9C0197FFEE
S113074002C02F5F3F4F359527959DE3929FA001EF
S1130750939F500D11248F01040F151F80FF02C0B9
S1130760015E1F4FA801110F660B770B9A01AB01B5
S11307702C0D3D1D4E1D5F1D60E871E581E090E08C
S11307800E94581D6B017C01AA810A2E000CBB0B30
S113079020E13EE00E94871D4B015C01A9810A2EE5
S11307A0000CBB0B2CE330E00E94871DDC01CB0165
S11307B0880D991DAA1DBB1D4881042E000C550BE4
S11307C0660B770B840F951FA61FB71FBC01CD01C5
S11307D06C0D7D1D8E1D9F1DDF91CF911F910F917B
S11307E0FF90EF90DF90CF90BF90AF909F908F904D
S11307F008959C0123703327232B59F464E670E099
S11308000E94B81A892B39F46370772781E0672B2B
S113081019F080E0089581E008958093C308E0EC26
S1130820F8E082818823ECF78091C3080895FC01E5
S113083080818093C308E0ECF8E082818823ECF7A0
S11308408091C3080895CF93C82F882329F080E0AE
S113085090E20E94301604C080E090E20E944016AC
S1130860C093B095CF910895CF93C82F882329F0D2
S113087083E090E20E94301604C083E090E20E947C
S11308804016C093AF95CF910895EF92FF920F93C6
S11308901F93CF93DF93C82F7B018A0180E00E94CE
S11308A034048C2F8F710E940D041016110694F4D9
S11308B0E7010E0D1F1D0F2EF0ECEF2EF8E0FF2EBA
S11308C0F02D8FEF0E940D04F70183818993C017E7
S11308D0D107B9F781E00E943404DF91CF911F91D1
S11308E00F91FF90EF900895EF92FF920F931F9353
S11308F0CF93DF93C82F7B018A0180E00E943404E8
S11309008C2F8F7180620E940D041016110654F40E
S1130910E7010E0D1F1DCE010E9417042196C0177A
S1130920D107C9F781E00E943404DF91CF911F9170
S11309300F91FF90EF900895EF92FF920F931F9302
S1130940CF93DF937C018B0180E00E94340481E625
S11309500E940D041016110694F4E7010E0D1F1DDC
S11309600F2EF0ECEF2EF8E0FF2EF02D8FEF0E940B
S11309700D04F70193819993C017D107B9F781E06A
S11309800E943404DF91CF911F910F91FF90EF905B
S1130990089580E00E94340482EE0E940D0481E0F8
S11309A00E9434040895CF9380E00E94340480E6CA
S11309B00E940D048FEF0E940D04C82F81E00E9455
S11309C034048C2F90E0CF910895CF93DF931F923E
S11309D0CDB7DEB741E050E0BE016F5F7F4F80E0EE
S11309E00E94450489818260898341E050E0BE0110
S11309F06F5F7F4F80E00E9474048FE99CE8019749
S1130A00F1F700C0000082E08093B1950F90DF9170
S1130A10CF910895CF93DF931F92CDB7DEB741E016
S1130A2050E0BE016F5F7F4F80E00E9445048981E2
S1130A308D7F898341E050E0BE016F5F7F4F80E08E
S1130A400E94740481E08093B1950F90DF91CF915F
S1130A500895CF93DF931F92CDB7DEB741E050E006
S1130A60BE016F5F7F4F80E00E94450489818160F1
S1130A70898341E050E0BE016F5F7F4F80E00E94B8
S1130A80740483E08093B1950F90DF91CF91089522
S1130A901F93CF93DF931F92CDB7DEB7182F41E09A
S1130AA050E0BE016F5F7F4F81E00E94450421E06A
S1130AB030E0C90102C0880F991F1A95E2F79981A5
S1130AC0892B898341E050E0BE016F5F7F4F81E055
S1130AD00E9474040F90DF91CF911F910895CF93DA
S1130AE0DF931F92CDB7DEB7198241E050E0BE011B
S1130AF06F5F7F4F81E00E9474040F90DF91CF916C
S1130B0008951F93CF93DF931F92CDB7DEB7182FAD
S1130B1041E050E0BE016F5F7F4F82E00E944504D8
S1130B2021E030E0C90102C0880F991F1A95E2F74D
S1130B309981892B898341E050E0BE016F5F7F4F2B
S1130B4082E00E9474040F90DF91CF911F91089569
S1130B501F93CF93DF931F92CDB7DEB7182F41E0D9
S1130B6050E0BE016F5F7F4F84E00E94450499818D
S1130B70907F812F892B898341E050E0BE016F5F14
S1130B807F4F84E00E9474040F90DF91CF911F91F6
S1130B9008951F93CF93DF931F92CDB7DEB7182F1D
S1130BA041E050E0BE016F5F7F4F84E00E94450446
S1130BB020E1129FC001112499819F70892B8983A0
S1130BC041E050E0BE016F5F7F4F84E00E947404F7
S1130BD00F90DF91CF911F9108951F93CF93DF93CF
S1130BE01F92CDB7DEB7182F41E050E0BE016F5F12
S1130BF07F4F86E00E9445049981977D812F892B40
S1130C00898341E050E0BE016F5F7F4F86E00E9420
S1130C1074040F90DF91CF911F9108952F923F920A
S1130C204F925F926F927F928F929F92AF92BF92F8
S1130C30CF92DF92EF92FF920F931F93CF93DF93A4
S1130C40CDB7DEB72597CDBFDEBF482EB02EA22E7E
S1130C50932E842E752E662E572E81E0841568F40B
S1130C6021E090E08EEF840D843008F020E0C22E65
S1130C70D92E1C141D0434F021C00F2EF5E0CF2E04
S1130C80D12CF02DDE0111967D01212C312CE0E0D8
S1130C90F0E02B2D312F4A2D592D682D772D862DDF
S1130CA0952D022D0E94F01AD7012D937D013196C6
S1130CB0B8E02B0E311CEC15FD055CF3A601BE015A
S1130CC06F5F7F4F8AE0840D0E9474042596CDBF28
S1130CD0DEBFDF91CF911F910F91FF90EF90DF90D6
S1130CE0CF90BF90AF909F908F907F906F905F90C8
S1130CF04F903F902F900895CF93DF931F92CDB7DD
S1130D00DEB741E050E0BE016F5F7F4F87E10E9494
S1130D104504898181700F90DF91CF9108951F93CD
S1130D20CF93DF931F92CDB7DEB7182F41E050E089
S1130D30BE016F5F7F4F8CE10E94450421E030E0EB
S1130D40C90102C0880F991F1A95E2F79981892B6E
S1130D50898341E050E0BE016F5F7F4F8CE10E94C8
S1130D6074040F90DF91CF911F910895CF93DF9377
S1130D701F92CDB7DEB7198241E050E0BE016F5F2C
S1130D807F4F8CE10E9474040F90DF91CF910895FE
S1130D90CF93DF931F92CDB7DEB741E050E0BE01A1
S1130DA06F5F7F4F8DE10E94450489818460898350
S1130DB041E050E0BE016F5F7F4F8DE10E947404FB
S1130DC00F90DF91CF910895CF93DF931F92CDB70A
S1130DD0DEB741E050E0BE016F5F7F4F8DE10E94BE
S1130DE0450489818260898341E050E0BE016F5FE0
S1130DF07F4F8DE10E9474040F90DF91CF9108958D
S1130E00CF93DF931F92CDB7DEB787E0898341E0AC
S1130E1050E0BE016F5F7F4F86E00E947404198228
S1130E2041E050E0BE016F5F7F4F81E00E94740497
S1130E3081E0898341E050E0BE016F5F7F4F86E02F
S1130E400E9474040E94E5048FE99CE80197F1F77D
S1130E5000C000000E94290581E00E9423040F9035
S1130E60DF91CF910895CF93DF931F921F92CDB757
S1130E70DEB7E0E4F6E080EB818380E4828380E502
S1130E808093C00880E1818380E88093210680E01C
S1130E900E94230481E00E9434040E94C9040E9439
S1130EA00A058EE0898341E050E0BE016F5F7F4F09
S1130EB087E00E9474048BE08A8341E050E0BE0125
S1130EC06E5F7F4F80E00E9474040E946F050E9451
S1130ED0B6060E9400070E94C8060E94E40680E04D
S1130EE00E94480581E00E94480582E00E9448056E
S1130EF083E00E94480584E00E94480585E00E9442
S1130F00480580E00E948F0681E00E948F0682E0FF
S1130F100E948F0683E00E948F0684E00E948F0661
S1130F2085E00E948F0680E00E94810581E00E9496
S1130F30810582E00E94810583E00E94810584E0AE
S1130F400E94810585E00E9481058FE00E94A8052A
S1130F508FE00E94C90580E20E94ED050E94C90449
S1130F600F900F90DF91CF91089501C000008FEF93
S1130F700E940D048823D1F30E94330700000895D2
S1130F80CF93DF9380E00E9434048FEF0E940D041E
S1130F90C82FD0E081E00E943404209719F40000A7
S1130FA00E94B507CE01DF91CF910895CF93DF93CF
S1130FB01F92CDB7DEB70E94C0078064898341E0E9
S1130FC050E0BE016F5F7F4F87E00E9474040F9072
S1130FD0DF91CF910895CF93863090F4C82F0E946B
S1130FE0C00786FF0FC08E709927AC0155954795B1
S1130FF02C2F30E081E04217530729F080E003C032
S113100080E001C080E0CF9108950F931F93CF93A8
S1131010DF938630F0F4EB010E94EB078823E1F0C4
S113102000000E94D3048C018132910528F00E94B3
S1131030C904802F912F15C0BC01CE010E949C04CD
S11310400E947C06882359F00E94D607802F912F96
S113105008C08FEF9FEF05C080E090E002C0802FB2
S1131060912FDF91CF911F910F91089531E1FC01F0
S11310703083319722E220833197A3E3A083319711
S11310806083319770833197108231971082319742
S113109060E8608331971082319762E06083319712
S11310A063E06083319764E06083319765E0608337
S11310B0319766E06083319767E06083319768E039
S11310C06083319769E06083319760E16083319791
S11310D03083319732E13083319733E13083319774
S11310E034E13083319735E13083319736E1308311
S11310F0319737E13083319738E13083319739E1E3
S11311003083319730E23083319731E23083319745
S11311102083319723E22083319740833197508392
S1131120319726E22083319727E22083319728E202
S11311302083319729E22083319720E3208331975C
S113114021E320838797089565E080E098E00E947A
S11311500D1783EF91E0809326089093270861E0B0
S113116080E098E00E941317E0EAF0E08281816059
S11311708283A091A593B091A693CD91CDBFDD912B
S1131180DEBFFF91EF91DF91CF91BF91AF919F911E
S11311908F917F916F915F914F913F912F911F910B
S11311A00F91FF90EF90DF90CF90BF90AF909F9002
S11311B08F907F906F905F904F903F902F901F90F3
S11311C00F900FBE0F90089581E008950F920FB60F
S11311D0F8940F921F9211242F923F924F925F9294
S11311E06F927F928F929F92AF92BF92CF92DF9233
S11311F0EF92FF920F931F932F933F934F935F931D
S11312006F937F938F939F93AF93BF93CF93DF930A
S1131210EF93FF93A091A593B091A6930DB60D9271
S11312200EB60D920E94470DA091A593B091A6937E
S1131230CD91CDBFDD91DEBFFF91EF91DF91CF91D5
S1131240BF91AF919F918F917F916F915F914F91DA
S11312503F912F911F910F91FF90EF90DF90CF90CE
S1131260BF90AF909F908F907F906F905F904F90C2
S11312703F902F901F900F900FBE0F9008950F92E4
S11312800FB6F8940F921F9211242F923F924F920F
S11312905F926F927F928F929F92AF92BF92CF9202
S11312A0DF92EF92FF920F931F932F933F934F93ED
S11312B05F936F937F938F939F93AF93BF93CF93DA
S11312C0DF93EF93FF93A091A593B091A6930DB6EE
S11312D00D920EB60D920E94CF0B81110E94470D04
S11312E0A091A593B091A693CD91CDBFDD91DEBF22
S11312F0FF91EF91DF91CF91BF91AF919F918F912A
S11313007F916F915F914F913F912F911F910F9119
S1131310FF90EF90DF90CF90BF90AF909F908F9011
S11313207F906F905F904F903F902F901F900F9001
S11313300FBE0F9008950E943F091895CF93DF9335
S1131340EC010E94C90B8091542390915523892B61
S113135031F489E593E280935423909355232091AB
S1131360562330915723CE01820F931F8F3F4FE6B0
S1131370940770F42817390770F4C0915423D0915E
S11313805523C20FD31F809356239093572305C030
S1131390C0E0D0E002C0C0E0D0E00E94A50CCE01C5
S11313A0DF91CF9108950895FC0103968183928380
S11313B02FEF3FEF2383348385839683878390873E
S11313C010820895FC01108611860895CF93DF934F
S11313D09C01FB01DC011196CD91DC911297C28333
S11313E0D3838C819D81848395838C819D81DC0151
S11313F012966D937C9313976C837D83208731873A
S1131400F90180818F5F8083DF91CF910895CF931D
S1131410DF93EB01488159814F3F2FEF520721F4AD
S1131420FC01A781B0850DC0DC01139601C0DF016A
S11314301296ED91FC911397208131814217530745
S1131440B0F71296ED91FC911397EA83FB83C48362
S1131450D583AC83BD831296CD93DC931397888791
S11314609987FC0120812F5F2083DF91CF9108951C
S1131470CF93DF93FC01A085B185C281D3818481A0
S113148095818C839D83C481D581828193818A8354
S11314909B831196CD91DC911297CE17DF0731F41F
S11314A08C819D8111968D939C9312971086118641
S11314B08C9181508C93DF91CF910895FFCFCF937E
S11314C0DF93EC01E091A593F091A693828393833B
S11314D080915F9390916093C817D90768F46091E5
S11314E0A5937091A69380916B9390916C936E5F8A
S11314F07F4F0E94070A17C06091A5937091A6932D
S113150080916D9390916E936E5F7F4F0E94070A56
S113151080918F2290919022C817D90720F4C0930C
S11315208F22D0939022DF91CF9108954F925F92B2
S11315306F927F928F929F92AF92BF92CF92DF92DF
S1131540EF92FF920F931F93CF93DF934C01EB0124
S11315505A01290181E290E00E949E093C01009712
S113156009F4DAC0C114D10409F0D2C0C5010E9443
S11315709E09F301878B908F892B21F4C3010E946C
S1131580D309CAC0F1E0AF1AB108F3018789908D7D
S1131590A80EB91E8881818F8881882381F0D301A8
S11315A05A96FE0131969E01285F3F4FEF018191CB
S11315B08D938881882319F0E217F307B9F7F301B3
S11315C010A2102F043008F013E0F301168BE3018E
S11315D02296CE010E94E209C3010C960E94E20900
S11315E0F3016086718684E090E0811B9109848711
S11315F09587628A738AA201B401C5010E943608E4
S1131600F30180839183E114F10419F0F7016082FE
S113161071820FB6F8940F92809161938F5F8093DB
S113162061938091A5939091A693892B89F56092FB
S1131630A5937092A693809161938130C1F581E85E
S113164093E90E94D4098AE893E90E94D40983E9C2
S113165093E90E94D4098CE993E90E94D40988E7AC
S113166093E90E94D4098FE693E90E94D40982E6A3
S113167093E90E94D40988E793E980936D9390934A
S11316806E938FE693E980936B9390936C930FC062
S113169080915D9381110BC0E091A593F091A69385
S11316A08689081720F06092A5937092A693809182
S11316B059938F5F80935993F301868990915E9338
S11316C0981710F480935E9390E09C01220F331FCF
S11316D0220F331F220F331F820F931FBE018F5718
S11316E09C460E94E6090F900FBE80915D9388236B
S11316F059F0E091A593F091A6938689801730F470
S11317000E94E60881E009C081E007C081E005C0CD
S1131710FC01C78AD08E36CF8FEFDF91CF911F9116
S11317200F91FF90EF90DF90CF90BF90AF909F907C
S11317308F907F906F905F904F900895AF92BF927B
S1131740CF92DF92EF92FF920F93A12CB12CC12C78
S1131750D12CE12CF12C00E020E030E044E650E014
S113176062EC72E28EE59AE00E94960A813049F4B6
S1131770F89480935D9310925F93109260930E940B
S1131780A4080F91FF90EF90DF90CF90BF90AF909F
S11317900895809158938F5F809358930895DF92B2
S11317A0EF92FF920F931F93CF93DF9380915893FF
S11317B08111B6C080915F9390916093019680935C
S11317C05F9390936093E0905F93F0906093E11443
S11317D0F10499F580916D9390916E9320916B93A0
S11317E030916C9320936D9330936E9380936B93AD
S11317F090936C9380915A938F5F80935A93E09166
S11318006D93F0916E938081811107C08FEF9FEFEC
S113181080938F229093902210C0E0916D93F09169
S11318206E930580F681E02D0680F781E02D82819C
S1131830938180938F229093902280918F22909114
S11318409022E816F90610F4D12C52C0D12CE09164
S11318506D93F0916E939081911107C08FEF9FEF7C
S113186080938F229093902243C0E0916D93F091E6
S11318706E930580F681E02DC681D7812A813B8154
S1131880E216F30628F420938F223093902230C07E
S11318908E010E5F1F4FC8010E94380A8C899D89F2
S11318A0892B21F0CE010C960E94380A2E89809152
S11318B05E93821710F420935E9330E0C901880F81
S11318C0991F880F991F880F991F820F931FB801C2
S11318D08F579C460E94E609E091A593F091A69348
S11318E09E898689981708F4B2CFDD24D394AFCFAC
S11318F0E091A593F091A693868990E0FC01EE0F08
S1131900FF1FEE0FFF1FEE0FFF1F8E0F9F1FFC0127
S1131910EF57FC468081823048F0DD24D39406C022
S113192080915C938F5F80935C93D12C80915B93C7
S1131930882311F0DD24D3948D2DDF91CF911F9155
S11319400F91FF90EF90DF900895DF92EF92FF9256
S11319500F931F93CF93DF930FB6F8940F92809158
S1131960589381508093589380915893811162C009
S113197080916193811133C060C0D7011596ED91B8
S1131980FC911697C681D781CE010C960E94380A25
S11319908E010E5F1F4FC8010E94380A2E89809164
S11319A05E93821710F420935E9330E0C901880F90
S11319B0991F880F991F880F991F820F931FB801D1
S11319C08F579C460E94E609E091A593F091A69357
S11319D09E898689981758F0D0925B9308C00F2E81
S11319E0F2E6EF2EF3E9FF2EF02DDD24D394F70178
S11319F080818111C2CF80915C93882399F080917A
S1131A005C93882379F0C1E00E94CF0B8111C093CD
S1131A105B9380915C93815080935C9380915C9301
S1131A208111F2CF80915B93813031F40E94E608FA
S1131A3081E003C080E001C080E00F900FBEDF9121
S1131A40CF911F910F91FF90EF90DF900895CF9366
S1131A50DF93EC01892BB1F00E94C90B80915F9355
S1131A6090916093C80FD91F8091A5939091A693EC
S1131A7002960E94380ACE010E945F0A0E94A50CB9
S1131A80811102C00E94E608DF91CF9108958091F0
S1131A905893882321F081E080935B9308951092FA
S1131AA05B9380915E9390E0FC01EE0FFF1FEE0FBD
S1131AB0FF1FEE0FFF1F8E0F9F1FFC01EF57FC4609
S1131AC08081811117C080915E93815080935E93D1
S1131AD080915E9390E0FC01EE0FFF1FEE0FFF1F5D
S1131AE0EE0FFF1F8E0F9F1FFC01EF57FC468081F6
S1131AF0882349F380915E9390E09C01220F331F69
S1131B00220F331F220F331F280F391FD901AF575C
S1131B10BC461196ED91FC9112970280F381E02D61
S1131B201196ED93FC9312972C573C46E217F3075A
S1131B3029F422813381FD0121833283FC01EE0FDC
S1131B40FF1FEE0FFF1FEE0FFF1F8E0F9F1FFC01E5
S1131B50EF57FC460180F281E02D868197818093C6
S1131B60A5939093A693089508958093C595282FDF
S1131B702F7030E04091C6045091C7048823E4F4E8
S1131B8064E8629FC001639F900D1124885F9946A9
S1131B908093C1959093C295C90182959295907F47
S1131BA09827807F982708969A01280F391F209339
S1131BB0C3953093C495089564E8629FC001639F00
S1131BC0900D11248A539A468093C1959093C2959F
S1131BD022953295307F3227207F3227240F351FFC
S1131BE02093C3953093C49508951F93CF93DF93A7
S1131BF0D82F162FC42F0E94B50DE091C395F091F4
S1131C00C4951182E091C395F091C495DD23A4F0AD
S1131C101082E091C395F091C4951183E091C3952E
S1131C20F091C495128213828091C1959091C295CE
S1131C308483958340E014C082E08083E091C3955F
S1131C40F091C4951183E091C395F091C4951282EB
S1131C5013828091C1959091C295848395834C2F72
S1131C60FC01E05CFF4F40833196108281E0DF91FC
S1131C70CF911F91089520E030E0A0ECB4E01696D7
S1131C80ED91FC911797C90182959295907F9827C1
S1131C90807F9827E80FF91F118616964D915C9165
S1131CA01797FA01E80FF91F11822F5F3F4F253074
S1131CB0310529F708951F920F920FB60F92112440
S1131CC00BB60F922F933F934F935F936F937F9332
S1131CD08F939F93AF93BF93EF93FF938091CA0425
S1131CE088234CF48091C80488232CF480E88093E2
S1131CF0CA040E94B40D8091CA0486FF07C080E420
S1131D008093CA041092B8950E94E6158091CA0483
S1131D1085FF16C080E28093CA048091B49588231D
S1131D2021F084E08093B89509C08091C3048111A7
S1131D3002C081E001C083E08093B8950E94D91568
S1131D408091CA0484FF18C0E0ECF4E080E182874B
S1131D5082E08093B8951092B49513820E943B0E52
S1131D6048E068E480E80E94F50D48E068E480E01B
S1131D700E94F50D0E94B40DFF91EF91BF91AF91B8
S1131D809F918F917F916F915F914F913F912F918F
S1131D900F900BBE0F900FBE0F901F90189507E089
S1131DA028E140E060E08AEA92E20E94F21528E12C
S1131DB040E060E087EA92E20E94F21500E028E148
S1131DC040E060E084EA92E20E94F21528E140E0FB
S1131DD060E081EA92E20E94F2158EE992E20E94AA
S1131DE030168BE992E20E94301688E992E20E9452
S1131DF0301685E992E20E94301661E08EE992E2A3
S1131E000E940E1661E08BE992E20E940E1661E0D8
S1131E1088E992E20E940E1661E085E992E20E944E
S1131E200E16C1E084E690E00E94270D8AEA92E251
S1131E300E94501681110BC08AEA92E20E94501649
S1131E408823D1F3809194228C278093942287EA6B
S1131E5092E20E94501681110BC087EA92E20E941E
S1131E6050168823D1F3809193228C278093932258
S1131E7084EA92E20E94501681110BC084EA92E235
S1131E800E9450168823D1F3809192228C2780934C
S1131E90922281EA92E20E94501681110BC081EADB
S1131EA092E20E9450168823D1F3809191228C27CC
S1131EB08093912280919422882329F08EE992E2E2
S1131EC00E94301604C08EE992E20E94401680916E
S1131ED09322882329F08BE992E20E94301604C0F1
S1131EE08BE992E20E94401680919222882329F085
S1131EF085E992E20E94301604C085E992E20E94CC
S1131F00401680919122882329F088E992E20E9468
S1131F10301688CF88E992E20E94401683CFFC01F4
S1131F20818185FFFDCF6083818186FFFDCF80E4C1
S1131F308183808108951F93CF93DF93C0EAD6E015
S1131F4018E01E83E0E6F6E091E096839683682F1E
S1131F5080EA99E00E948F0F1D83DF91CF911F913A
S1131F600895EF92FF920F931F93CF93DF93C0EAEC
S1131F70D6E018E01E830F2EF0E6EF2EF6E0FF2EDB
S1131F80F02D01E0F7010583682F80EA99E00E94B3
S1131F908F0FF70106831D83DF91CF911F910F915E
S1131FA0FF90EF9008958770806B0E949B0F0895B7
S1131FB0CF93C82F982F9F77892F82958F70806138
S1131FC00E949B0F8C2F8F700E949B0FCF910895BE
S1131FD0CF93DF93D0E00FC08D2F0E94D30F8C2FAF
S1131FE00E94D80F80E00E94B10FCF5FC038A1F7E4
S1131FF0DF5FD43011F0C0E0EFCFDF91CF910895CF
S1132000CF93DF93EC01FB018C818F7E8C83A0E660
S1132010B6E082E011968C93119715968C938D817E
S1132020806C8D8384818D7F813021F48D818260E9
S11320308D8303C08D818D7F8D838581882321F0DD
S11320408D8184608D8303C08D818B7F8D8380819E
S11320509181A281B3819C01AD01220F331F441FE2
S1132060551F60E078E488EE91E00E94CC1A21507C
S11320703109832F8F708F832E838C8188608C83AA
S1132080DF91CF910895CF93DF9300D000D0CDB7E7
S1132090DEB720EA36E088E0D90111968C93A0E6F9
S11320A0B6E091E011969C931197E0E0F6E081830D
S11320B092E011969C93119711968C93D9011596E1
S11320C08C938683BAE6BA95F1F700C08583EAE675
S11320D0EA95F1F700C0E0E7F0E084818F7E848325
S11320E080E09BE1A7EBB0E089839A83AB83BC8358
S11320F01D821E82BE016F5F7F4F80EA99E00E94BD
S1132100001088EA0E949B0F8FE10E949B0F83EDD1
S11321100E949B0F80E00E949B0F80E40E949B0F13
S113212081EA0E949B0F88EC0E949B0F8AED0E941B
S11321309B0F82E00E949B0F81E80E949B0F8FE817
S11321400E949B0F84EA0E949B0F86EA0E949B0FC9
S113215085ED0E949B0F80E80E949B0F8DE80E94F2
S11321609B0F84E10E949B0F8BED0E949B0F80E4E8
S11321700E949B0F89ED0E949B0F81EF0E949B0F91
S11321808FEA0E949B0F2696CDBFDEBFDF91CF91D1
S11321900895EF92FF920F931F93CF93DC01EC917C
S11321A0EE2329F17C01BFEFEB1AFB0AEF37D0F4E1
S11321B0F0E0EE0FFF1FEF56FE4D00811181F80194
S11321C08081882361F0C1E0F801EC0FF11D80816A
S11321D00E94B10FCF5FD8019C919C17A8F780E0B3
S11321E00E94B10FD701ED917D01E111DFCFCF91B5
S11321F01F910F91FF90EF90089520E8829FC001F6
S11322001124860F911DE091AD93F091AE93E80FE8
S1132210F91F4083089520E8829FC0011124860F8E
S1132220911DE091AD93F091AE93E80FF91F808179
S113223008951F93CF93DF93182FD62FC42F211106
S113224004C00E940B118C1771F04C2F6D2F812F3D
S11322500E94FD10812F0E94D30F8D2F0E94D80F52
S11322608C2F0E94B10FDF91CF911F9108950F938E
S113227007E020E140E060E08CEB92E20E94F2157E
S11322800F91089561E08CEB92E20E940E1660E0DB
S11322908CEB92E20E940E1661E08FEB92E20E94B8
S11322A00E1661E089EB92E20E940E160E9437112D
S11322B008951F93CF93DF93182F61E08CEB92E284
S11322C00E940E16C8E0D0E010FF05C08CEB92E22D
S11322D00E94301604C08CEB92E20E94401681E00A
S11322E090E00E94270D8FEB92E20E94301681E06D
S11322F090E00E94270D8FEB92E20E944016169503
S1132300219711F760E08CEB92E20E940E16DF91A8
S1132310CF911F9108951F93CF93DF9360E08CEBCF
S113232092E20E940E16C0E0D0E010E08CEB92E244
S11323300E945016282F30E00C2E02C0220F331FAB
S11323400A94E2F7122B81E090E00E94270D8FEBB4
S113235092E20E94301681E090E00E94270D8FEBFC
S113236092E20E9440162196C830D105F9F6812FD9
S1132370DF91CF911F910895CF93DF93D82FC62F6C
S113238080919A98882331F010929A9860E08EE8B0
S11323900E94BC1189EB92E20E94301684E090E026
S11323A00E94270D8D2F0E9459118C2F0E945911C4
S11323B084E090E00E94270D89EB92E20E9440168F
S11323C0DF91CF910895EF92FF920F931F93CF93D4
S11323D0DF9300D01F92CDB7DEB769837A838B83F6
S11323E09C83CE0101960E94AA017C010000FC019D
S11323F0608117E66102812D11248595859567FD1D
S11324008395282F220F922F990F990F920F691BF2
S1132410F0E18F9F600D112480E80E94BC11F70148
S113242061816102812D11248595859567FD8395D0
S1132430282F220F922F990F990F920F691BF0E109
S11324408F9F600D112482E80E94BC11F701628104
S11324506102812D11248595859567FD8395282F2B
S1132460220F922F990F990F920F691BF0E18F9F02
S1132470600D112484E80E94BC11F701638161029C
S1132480112D11241595159567FD1395912F990F0D
S1132490892F880F880F890F681BF0E11F9F600D3B
S11324A0112486E80E94BC11F7018581082E000CD6
S11324B0990B01960AE010E0B8010E94B81AF0E105
S11324C06F9F800D1124682F88E80E94BC11F701CA
S11324D064816F5F8AE80E94BC11F701868197814D
S11324E084569109B8010E94B81AF0E16F9F800DDB
S11324F01124682F8CE80E94BC112496CDBFDEBF46
S1132500DF91CF911F910F91FF90EF900895EF927B
S1132510FF920F931F93CF93DF93CDB7DEB76397EB
S1132520CDBFDEBF89EB92E20E94301684E090E0DA
S11325300E94270D8FEB0E9459118E010F5F1F4FD0
S11325407E0188E0E80EF11C0E948B11F801819352
S11325508F01EE15FF05C1F789EB92E20E94401648
S113256000008981982F92959F70990F292F220F2F
S1132570220F920F8F70890F88878A81982F9295E6
S11325809F70990F292F220F220F920F8F70890F9E
S113259089878B81982F92959F70990F292F220FED
S11325A0220F920F8F70890F8A878C81982F9295B2
S11325B09F70990F292F220F220F920F8F70890F6E
S11325C08B878D81282F2F70215082958F70880FD3
S11325D0982F990F990F890F820F8D878F81282F3C
S11325E02F7082958F7090E0AC01440F551F880FB7
S11325F0991F880F991F880F991F840F951F820FA9
S1132600911D8C599F4F8E879F870000CE0108969D
S11326100E9401026396CDBFDEBFDF91CF911F916F
S11326200F91FF90EF900895CF93DF93CDB7DEB76E
S1132630CA55D109CDBFDEBF0E9442113324339461
S11326400F2EF7EC8F2EF2E29F2EF02D9E012F5FBE
S11326503F4F59010F2EF4EDCF2EF2E2DF2EF02D75
S11326607E013FE1E30EF11C0F2EF1EE6F2EF2E23C
S11326707F2EF02D2E018DE3480E511C8091942263
S113268083251F928F939F928F92BF92AF920E9445
S1132690D01C8091932283251F928F93DF92CF9237
S11326A0FF92EF920E94D01C8091922283251F9268
S11326B08F937F926F925F924F920E94D01C809171
S11326C0AB93CDBFDEBF882391F08091A793909107
S11326D0A893A091A993B091AA93BC01CD0160588D
S11326E073448D4698430E94E3111092AB930E9469
S11326F08712DC01CB01805C974CAF4FBF4F8093B6
S11327005A9890935B98A0935C98B0935D9810E06E
S11327100FC0812F0E94D30F802F0E94D80F80E01A
S11327200E94B10F0F5F0038A1F71F5F143011F042
S113273000E0EFCF80E00E94D30F80E00E94D80F2A
S1132740C5010E94C910832D0E94D30F80E00E940E
S1132750D80FC7010E94C91082E00E94D30F80E005
S11327600E94D80FC2010E94C9108091AC938823A3
S113277071F083EB92E20E94401688EC90E00E9494
S1132780270D83EB92E20E9430161092AC9388ECF2
S113279090E00E94270D72CF0F931F93CF93DF9386
S11327A0EC01088119816FEE72E2C8010E94481C95
S11327B0892B09F043C00A811B8162E473E2C801DA
S11327C00E94481C892BC9F40C80DD81C02D62E471
S11327D073E2CE010E94481C892B21F481E080938E
S11327E09422A2C065EF72E2CE010E94481C892B9C
S11327F009F09AC01092942297C065EF72E2C80162
S11328000E94481C892B09F08FC00C80DD81C02DEB
S113281062E473E2CE010E94481C892B21F481E01A
S11328208093932281C065EF72E2CE010E94481C1E
S1132830892B09F079C01092932276C067EF72E277
S1132840C8010E94481C892BC9F40A80DB81C02D71
S113285062E473E2CE010E94481C892B21F481E0DA
S11328608093922261C065EF72E2CE010E94481CFF
S1132870892B09F059C01092922256C06BEF72E274
S1132880C8010E94481C892B21F50A80DB81C02DD8
S113289062E473E2CE010E94481C892B51F481E06A
S11328A08093942280939322809392228093912206
S11328B03BC065EF72E2CE010E94481C892BA1F552
S11328C010929422109293221092922210929122AA
S11328D02BC06FEF72E2C8010E94481C892BC1F41F
S11328E064E073E28A819B810E94481C892BE1F495
S11328F08C819D810E943A1B6093A7937093A89347
S11329008093A9939093AA9381E08093AB930CC096
S113291068E073E2C8010E94481C892B29F4F0E0A6
S1132920E0E083E08CBF199480E090E0DF91CF91E8
S11329301F910F910895EF92FF920F931F93CF93DE
S1132940DF93CDB7DEB76497CDBFDEBF63E173E23B
S11329500E94441C0097D9F089839A837E0183E006
S1132960E80EF11C01E010E009C0F7018193919396
S11329707F010F5F1F4F0A30110559F063E173E2C5
S113298080E090E00E94441C009779F702C000E0C8
S113299010E0B801CE0101960E94CC136496CDBF1D
S11329A0DEBFDF91CF911F910F91FF90EF900895BB
S11329B0CF93DF93CDB7DEB7A397CDBFDEBF0E9421
S11329C0330701E31CE42CE43CE44CE450E060E015
S11329D070E081E00E940E0602E32CE43CE44CE447
S11329E050E060E070E082E00E940E0603E32CE415
S11329F03CE44CE450E060E070E083E00E940E06AA
S1132A0004E32CE43CE44CE450E060E070E084E057
S1132A100E940E0605E32CE43CE44CE450E060E044
S1132A2070E085E00E940E0684EF91E00E94270D7D
S1132A3081E00E94EB078823B9F3000081E08093D2
S1132A40AC93BE016F5F7F4F0E94050821E030E028
S1132A502C0F3D1F820F931FFC011082C9010E949D
S1132A609B14E2CFCF93DF9300D01F92CDB7DEB794
S1132A70E0E5F0E0808182608083818181FFFDCF89
S1132A8081E00E94F81681E00E94EE1689E393E249
S1132A900E943A1B69837A838B839C83000086EBB4
S1132AA092E20E94301683EB92E20E94301661E0BB
S1132AB086EB92E20E940E1661E083EB92E20E94A2
S1132AC00E1661E080EB92E20E940E1661E08DEA40
S1132AD092E20E940E1680EB92E20E9430168DEA7A
S1132AE092E20E9430168DEA92E20E9440168FEA2A
S1132AF093E98093AD939093AE930E9443100E9408
S1132B00E80F80E40E949B0F00E00CC021E040E04D
S1132B10612F802F0E9419111F5F1038B9F70F5FC2
S1132B20043011F010E0F2CF00000E94E80F80E0C2
S1132B300E94D30F84E493E20E94C91061E086EB03
S1132B4092E20E940E1661E083EB92E20E940E165E
S1132B50E0EEF7E081E0818382E0818380E180938D
S1132B606106A12CB12CC12CD12CE12CF12C00E05C
S1132B7020E030E044EF51E069E473E288ED94E151
S1132B800E94960A20E030E048EE53E06CE473E2E1
S1132B9084E193E10E94960A20E030E044EF51E0A2
S1132BA06FE473E28FEC9EE00E94960A0E949E0BF3
S1132BB0FFCF83E08093E60780E38093660682E09C
S1132BC08093E50780E180936506089583E0809310
S1132BD0E60780E38093660681E08093E507109220
S1132BE0650608950F93202B611102C000E001C017
S1132BF000E8202B411102C000E001C000E4202BBA
S1132C003FB7F894DC0112964C9112974093B000B0
S1132C10ED91FC91208B3FBF0F910895662381F0C5
S1132C20DC01ED91FC91119721E030E0A9011296AD
S1132C300C9002C0440F551F0A94E2F74183089593
S1132C40DC01ED91FC91119721E030E0A90112968D
S1132C500C9002C0440F551F0A94E2F74283089572
S1132C60DC01ED91FC91119721E030E0A90112966D
S1132C700C9002C0440F551F0A94E2F7458308954F
S1132C80DC01ED91FC91119721E030E0A90112964D
S1132C900C9002C0440F551F0A94E2F7468308952E
S1132CA0DC01ED91FC911197208530E0F901129639
S1132CB00C9002C0F595E7950A94E2F7CF01817074
S1132CC008951F920F920FB60F9211240F900FBE0A
S1132CD00F901F9018951F920F920FB60F92112408
S1132CE00F900FBE0F901F9018951F920F920FB662
S1132CF00F9211240F900FBE0F901F9018951F92E2
S1132D000F920FB60F9211240F900FBE0F901F90C9
S1132D1018951F920F920FB60F9211240F900FBEA9
S1132D200F901F9018951F920F920FB60F921124B7
S1132D300F900FBE0F901F9018951F920F920FB611
S1132D400F9211240F900FBE0F901F9018951F9291
S1132D500F920FB60F9211240F900FBE0F901F9079
S1132D6018951F920F920FB60F9211240F900FBE59
S1132D700F901F9018951F920F920FB60F92112467
S1132D800F900FBE0F901F9018951F920F920FB6C1
S1132D900F9211240F900FBE0F901F9018951F9241
S1132DA00F920FB60F9211240F900FBE0F901F9029
S1132DB018950F93CF93DF931F92CDB7DEB72FB73C
S1132DC02983F8941BBEFC0108ED04BF608389814C
S1132DD08FBF0F90DF91CF910F910895E0E5F0E060
S1132DE09081282F209592239083908189230895A0
S1132DF00F931F93CF93C82F00E410E0F801608174
S1132E00687F682B80E490E00E94D916F8018081E5
S1132E108C23CF911F910F910895FC019081907F95
S1132E20692B60830895FC0196819C7F692B6683DE
S1132E3008952F923F924F925F926F927F928F925A
S1132E409F92AF92BF92CF92DF92EF92FF920F9335
S1132E501F93CF93DF93CDB7DEB76397CDBFDEBFAC
S1132E606C014B012A01FC0116821782838181FFC8
S1132E7043C3AE014F5F5F4F3A01F6019381F40102
S1132E8093FD859193FF81914F01882309F430C309
S1132E90853239F493FD859193FF81914F018532F9
S1132EA039F4B60190E00E94981C52012501E5CF47
S1132EB010E0F12C20E02032A0F48B3269F030F4E1
S1132EC0803259F0833269F420612CC08D3239F09C
S1132ED0803339F4216026C02260246023C0286036
S1132EE021C027FD27C030ED380F3A3078F426FF93
S1132EF006C0FAE01F9F300D1124132F13C04AE0BF
S1132F00F49E300D1124F32E20620CC08E3221F475
S1132F1026FDEEC2206406C08C3611F4206802C07F
S1132F20883641F4F40193FD859193FF81914F011B
S1132F308111C1CF9BEB980F933018F42061805E10
S1132F4006C09BE9980F933008F071C12F7E26FFCD
S1132F5016E02F73322E853619F42064322E08C001
S1132F60863621F4F22FF0683F2E02C01111115061
S1132F7037FE07C01C3350F4EE24E394E10E27E03F
S1132F800BC0183038F027E017E005C027E04CE309
S1132F90E42E02C0212FE12C520144E0A40EB11C06
S1132FA0F20160817181828193810E2DA3010E94BF
S1132FB0611B2C01098100FF02C003FF07C031FC23
S1132FC008C032FE09C030E2232E07C02DE2222EB3
S1132FD004C09BE2292E01C0212C802F8C7019F093
S1132FE0211068C2A8C237FE0FC0E40C04FF04C05D
S1132FF08A81813309F4EA941E1474F5F8E0FE150D
S113300078F588E0E82E2CC036FC2AC0812F90E0A9
S1133010841595059CF02CEF42162FEF520674F0A0
S1133020432D4068342E0AC0E2E0F0E0EC0FFD1FAF
S1133030E10FF11D8081803319F411501111F4CF87
S113304037FE0EC0EE24E394E10E812F90E0481683
S113305059062CF4141904C0EE24E39401C010E0C2
S113306037FE06C01414150434F4C201019605C0D9
S113307085E090E002C081E090E0211001961123E8
S113308031F0212F30E02F5F3F4F820F931F2F2D00
S113309030E08217930714F4F81A01C0F12C832D41
S11330A0897049F4FF2039F0B60180E290E00E9473
S11330B0981CFA94F7CF222029F0B601822D90E0D3
S11330C00E94981C33FC09C0FF2039F0B60180E34C
S11330D090E00E94981CFA94F7CF37FE5AC0942DC2
S11330E0852D57FE02C090E080E0292E382E20E086
S11330F030E0A2014E1951094C875D87A2014219A3
S113310053094E875F87612F70E044275527461B7C
S1133110570B488B598B5FEF2516350649F4B601DA
S11331208EE290E02A8B3B8B0E94981C3B892A8973
S1133130421453046CF04C855D854215530544F4E8
S1133140EE85FF85E20FF31FE60DF71D818101C0B7
S113315080E351E0251A31082F5F3F4F4889598990
S1133160241635064CF0B60190E02A8B3B8B0E9466
S1133170981C2A893B89CFCF2414350439F49A81C9
S1133180963318F4953311F404FF81E3B60190E00B
S11331904BC08A81813309F00F7EB60190E00E9412
S11331A0981C111105C034FC18C085E690E017C0C6
S11331B0B6018EE290E00E94981C82E0EE24E39433
S11331C0E80EF301E80FF11D8081B60190E00E9442
S11331D0981C11508E2D91F7E6CF85E490E0B6014E
S11331E00E94981C57FC05C04114510439F404FF93
S11331F005C05194419451088DE201C08BE2B6019F
S113320090E00E94981C80E39AE0491651042CF047
S11332108F5F5AE0451A5108F7CFB60190E00E943B
S1133220981CB601C201C0960E94981C57C18336EF
S113323031F0833779F0833509F058C021C0520149
S1133240E2E0AE0EB11CF2018081898301E010E05E
S1133250230114C05201F2E0AF0EB11CF201408010
S1133260518026FF03C0612F70E002C06FEF7FEF33
S1133270C2012A8B0E94511C8C012A892F7715C008
S11332805201F2E0AF0EB11CF2014080518026FFE2
S113329003C0612F70E002C06FEF7FEFC2012A8B81
S11332A00E94391C8C012A892068322E23FD1AC001
S11332B08F2D90E008171907A8F4B60180E290E07A
S11332C00E94981CFA94F4CFF20137FC859137FEE2
S11332D081912F01B60190E00E94981CF110FA949C
S11332E0015011090115110579F7F8C0843611F060
S11332F0893659F5520127FF09C0F4E0AF0EB11C1D
S1133300F20160817181828193810AC0F2E0AF0E83
S1133310B11CF20160817181072E000C880B990B9E
S11333202F76322E97FF09C0909580957095619500
S11333307F4F8F4F9F4F2068322E2AE030E0A30149
S11333400E94FA1CE82EE6183FC0022F853721F4AC
S11333500F7E2AE030E01DC0097F8F3691F018F40B
S1133360883559F0C5C0803719F0883711F0C0C0CE
S1133370006104FF09C0046007C024FF08C00660A0
S113338006C028E030E005C020E130E002C020E1C2
S113339032E0520107FF09C0F4E0AF0EB11CF201A4
S11333A0608171818281938108C0F2E0AF0EB11C0B
S11333B0F2016081718180E090E0A3010E94FA1C17
S11333C0E82EE6180F77302E36FE0BC0332D3E7FE5
S11333D0E11650F434FE0AC032FC08C0332D3E7EA0
S11333E005C00E2D332D03C00E2D01C0012F34FF57
S11333F00CC0FE01EE0DF11D8081803311F4397E85
S113340008C032FF05C00E5F04C0832F867809F020
S11334100F5F33FD13C030FF06C01E2D0F1518F4C7
S11334201F0D101B0F2D0F1568F4B60180E290E0FC
S11334303B8B0E94981C0F5F3B89F5CF0F1510F44E
S1133440F01A01C0F12C34FF12C0B60180E390E001
S11334503B8B0E94981C3B8932FF17C031FD03C08F
S113346088E790E002C088E590E0B6010CC0832FA5
S1133470867859F031FF02C08BE201C080E237FD4B
S11334808DE2B60190E00E94981CE11638F4B60172
S113349080E390E00E94981C1150F7CFEA94F30166
S11334A0EE0DF11D8081B60190E00E94981CE110A0
S11334B0F5CF14C0F4E0FF1558F584E0F81A33FE94
S11334C01EC0211026C003FF2AC00CE012E0F32D19
S11334D0F0713F2EF8018491811124C0FF2009F47A
S11334E0E5CCB60180E290E00E94981CFA94F6CFF5
S11334F0F6018681978126C08FEF9FEF23C0B60126
S113350080E290E00E94981CFA94F110F8CFD9CF91
S1133510F12CB601822D90E00E94981CD4CF00E1DA
S113352012E0D5CF31108052B60190E00E94981C71
S11335300F5F1F4FCFCF23E02F1510F483E0BECFD2
S1133540F12CC1CF6396CDBFDEBFDF91CF911F9128
S11335500F91FF90EF90DF90CF90BF90AF909F902E
S11335608F907F906F905F904F903F902F90089531
S113357097FB072E16F4009407D077FD09D00E941C
S11335800C1B07FC05D03EF4909581959F4F089540
S1133590709561957F4F0895A1E21A2EAA1BBB1B5B
S11335A0FD010DC0AA1FBB1FEE1FFF1FA217B3070B
S11335B0E407F50720F0A21BB30BE40BF50B661F21
S11335C0771F881F991F1A9469F7609570958095E5
S11335D090959B01AC01BD01CF01089597FB10F8B4
S11335E0169400080F93083098F00850232F342FB6
S11335F0452F562F672F782F892F902DF4CF0594C0
S11336009795879577956795579547953795279516
S11336100A95AAF70F910895AA1BBB1B51E107C095
S1133620AA1FBB1FA617B70710F0A61BB70B881F4E
S1133630991F5A95A9F780959095BC01CD010895DD
S11336400E942B1BA59F900DB49F900DA49F800DED
S1133650911D11240895A29FB001B39FC001A39F9F
S1133660700D811D1124911DB29F700D811D1124B7
S1133670911D08951F93FC0199278827BC01E894A4
S113368011911032E9F3193010F01E30C8F31B32D7
S113369051F01D3249F4689406C00E94831C610FE6
S11336A0711D811D911D119110531A30B0F33EF418
S11336B090958095709561957F4F8F4F9F4F1F9187
S11336C00895283008F027E03327DA01990F311DD7
S11336D087FD916000966105710539F432602E5FB3
S11336E03D9330E32A95E1F708959F3F30F0803809
S11336F07105610509F03C5F3C5F3D93913008F032
S11337008068911DDF93CF931F930F93FF92EF92E5
S1133710192F987F9695E92F96959695E90FFF278F
S1133720E259FD4F99273327EE24FF24A701E7012F
S113373005900894079428F4360FE71EF81E491FD5
S1133740511D660F771F881F991F0694A1F70590D6
S1133750079428F4E70EF81E491F561FC11D770F62
S1133760881F991F661F0694A1F70590079428F4F3
S1133770F80E491F561FC71FD11D880F991F661FBA
S1133780771F0694A1F70590079420F4490F561F5C
S1133790C71FD81F990F661F771F881F0694A9F7A4
S11337A084911095177041F0D695C7955795479514
S11337B0F794E7941A95C1F7E4E1F2E06894159060
S11337C0159135916591959105907FE27395E11876
S11337D0F10A430B560BC90BD009C0F7E10CF11EDB
S11337E0431F561FC91FD01D7EF4703311F48A95F0
S11337F0E6CFE894015030F0080F0AF400270217CE
S113380008F4202F2395022F7A3328F079E37D934F
S11338102A95E9F710C07D932A9589F60694979521
S11338206795379517951794E118F10A430B560BD2
S1133830C90BD00998F023957E9173957A3308F0DB
S113384070E37C932013B8F77E9170617D9330F020
S1133850839571E37D9370E32A95E1F71124EF904A
S1133860FF900F911F91CF91DF91992787FD90953C
S11338700895FC010590615070400110D8F78095BF
S113388090958E0F9F1F089542E553E20C945C1CA3
S1133890FB01DC018D91019080190110D9F3990B82
S11338A00895FC016150704001900110D8F7809593
S11338B090958E0F9F1F0895FA01A191B0810097F2
S11338C019F41097E1F0CD01DC01CD010D90002039
S11338D011F4C00113C0FB012191222319F020151A
S11338E0D9F7F3CFFB012191201519F41E921196FB
S11338F006C02223C1F70D900020A1F7D001FA01E0
S1133900A193B0830895592F482F372F262F660F80
S1133910771F881F991F660F771F881F991F620FD3
S1133920731F841F951F660F771F881F991F0895A3
S11339300F931F93CF93DF93FB01238121FD03C0DA
S11339408FEF9FEF28C022FF16C046815781248144
S113395035814217530744F4A081B1819D012F5F43
S11339603F4F208331838C93268137812F5F3F4FD4
S11339702683378310C0EB01092F182F0084F185AB
S1133980E02D1995892BE1F68E819F8101968E8316
S11339909F83812F902FDF91CF911F910F910895D5
S11339A00F931F93CF93DF93CDB7DEB72E97CDBF81
S11339B0DEBF0E891F8986E08C8309831A838FEF0B
S11339C09FE78D839E83AE01465E5F4F688D798D40
S11339D0CE0101960E9419172F813885F801E20F54
S11339E0F31F10822E96CDBFDEBFDF91CF911F91C2
S11339F00F910895FA01AA27283051F1203181F15D
S1133A00E8946F936E7F6E5F7F4F8F4F9F4FAF4FE2
S1133A10B1E03ED0B4E03CD0670F781F891F9A1FF5
S1133A20A11D680F791F8A1F911DA11D6A0F711DA9
S1133A30811D911DA11D20D009F468943F912AE0B5
S1133A40269F11243019305D3193DEF6CF0108959D
S1133A50462F4770405D4193B3E00FD0C9F7F6CFCE
S1133A60462F4F70405D4A3318F0495D31FD405296
S1133A70419302D0A9F7EACFB4E0A695979587952C
S1133A8077956795BA95C9F700976105710508950B
S1133A909B01AC010A2E06945795479537952795B7
S1133AA0BA95C9F7620F731F841F951FA01D08954F
S1133AB0DB018F939F930E94201BBF91AF91A29F24
S1133AC0800D911DA39F900DB29F900D1124089518
S1133AD0052E97FB1EF400940E947F1D57FD07D00E
S1133AE00E94CC1A07FC03D04EF40C947F1D509511
S1133AF04095309521953F4F4F4F5F4F08959095D6
S1133B008095709561957F4F8F4F9F4F08950E94C8
S1133B102B1BB7FF0895821B930B0895F894FFCFD6
S1133B2020060740060405100810201003826C10BC
S1133B3001FE03106C8203C8A8980418A0A078059D
S1133B4088502050880538C030C03805186080601F
S1133B501804788080F803087C880490A8A8480397
S1133B60F8100804102828F804F82828100470888D
S1133B70887004F81008F005F808F008F001FE0455
S1133B80FE20508802807A01FA04FE1008F0041026
S1133B90A8A87803FC12020470A8A83004708888CE
S1133BA0FE047088888804FE88887004708888F809
S1133BB00202040380808003040204038282FE0361
S1133BC00638C003FE828205C2A2928A86050608D0
S1133BD0F0080605C6281028C6053EC038C03E05B4
S1133BE00E30C0300E047E80807E050202FE02028A
S1133BF0044C92926404FE1232CC057C82A242BC34
S1133C0004FE12120C047C82827C05FE041860FE01
S1133C1005FE040804FE04FE80808005FE1028448E
S1133C2082044080807E0382FE8204FE1010FE0522
S1133C307C829292F404FE12120204FE9292820496
S1133C40FE82827C047C82824404FE92926C05F89B
S1133C50141214F808384492AAAABA2418050402C3
S1133C60A2120C04824428100428282828041028AE
S1133C70448201C40144054C9292927C056C929258
S1133C80926C050202F20A06057C92929264055E29
S1133C908A8A8A7205302824FE2005448292926C16
S1133CA00584C2A2928C050084FE8000057CA29249
S1133CB08A7C03C0380601800310101001C0031071
S1133CC0381003281028038244380338448201063C
S1133CD0056C92AC40A005462610C8C4054854FEA5
S1133CE054240528FE28FE280306000601BE02000F
S1133CF000CE21CC21C821C221BC21B621B021AEE5
S1133D0021AA21A621A2219E219C219821962192BB
S1133D10218C21862180217A2174216E21682162DF
S1133D20215C215621542152214D21482143213D1A
S1133D302134212E21292124211F211A2115210F6B
S1133D40210A2106210121FB20F620F020EA20E5AA
S1133D5020E020DA20D520D020CA20C520BF20B9F9
S1133D6020B320AD20A720A3209F209B2097209341
S1133D702090208B20862081207C20772073206E49
S1133D80206920672064205F205D20572052204D49
S1133D9020482043203F203A20362031202B202564
S1133DA0201F201A201620122010200C200620FF8D
S1133DB0FF0101010180060000060200060400065E
S1133DC006400601400600000605000607600605D9
S1133DD0600604E00701E007002006022006042034
S1133DE0060649444C45004C696768742030203A03
S1133DF0202564004C696768742031203A202564CA
S1133E000046616E2020202020203A202564006C8A
S1133E106967687400310066616E00616C6C0074DF
S1133E20696D650073657400626F6F746C6F6164B3
S1133E30657200202C006E6F772070617273696E5A
S1133E406720737472696E670020002573202C202C
S1133E5025732025732025730031343731303036F3
S1133E6036333000454D4F4E0074330074340074C3
S1053E70360016
S9030000FC
