:100000000C9405020C9426020C9426020C942602F1
:100010000C9426020C9426020C9426020C942602C0
:100020000C9426020C9426020C9426020C942602B0
:100030000C9426020C9426020C94EC060C942602D6
:100040000C9426020C9426020C9426020C94260290
:100050000C9426020C9426020C9426020C94260280
:100060000C9426020C9439180C944D180C944318D7
:100070000C9457180C946B180C9461180C9426026D
:100080000C9426020C9426020C9426020C94260250
:100090000C9426020C9426020C9426020C94260240
:1000A0000C9426020C9426020C9426020C94260230
:1000B0000C9426020C9426020C9426020C94260220
:1000C0000C9426020C9426020C9426020C94260210
:1000D0000C9426020C9426020C9426020C94260200
:1000E0000C9426020C9426020C9493180C94A718D6
:1000F0000C949D180C9426020C9426020C94260253
:100100000C9426020C9426020C9426020C942602CF
:100110000C9426020C9426020C9426020C942602BF
:100120000C9426020C9426020C9426020C942602AF
:100130000C9426020C9426020C9426020C9426029F
:100140000C9426020C9426020C9426020C9426028F
:100150000C9426020C9426020C9426020C9426027F
:100160000C9475180C9489180C947F180C94260222
:100170000C9426020C9426020C9426020C9426025F
:100180000C9426020C9426020C9426020C9426024F
:100190000C9426020C9426020C9426020C9426023F
:1001A0000C9426020C9426020C9426020C9426022F
:1001B0000C9426020C9426020C9426020C9426021F
:1001C0000C9426020C9426020C9426020C9426020F
:1001D0000C9426020C9426020C9426020C942602FF
:1001E0000C9426020C9426020C9426020C942602EF
:1001F0000C9426020C9466120C9426023E0D690D96
:10020000400E690D400EA40DBB0D400E120E1F0EC8
:100210000C94690D0C94120E0C941F0E0C943E0D50
:100220000C94BB0D0C94AF070C94400E0C94DA1296
:100230000C94580B0C94A40D0C94410C0C94561671
:100240001C034C00550046004100200043004400C0
:1002500043002000440065006D006F00000018039B
:100260004400650061006E002000430061006D00E5
:1002700065007200610000000403090409023E00E9
:10028000020100C03209040000010202010005243D
:10029000001001042402060524060001070582035C
:1002A0000800FF09040100020A000000070504021B
:1002B000100005070583021000051201100102005D
:1002C0000008EB03442001000102DC016E616E00B6
:1002D000696E660000407A10F35A00A0724E180949
:1002E0000010A5D4E80000E87648170000E40B549D
:1002F000020000CA9A3B000000E1F505000080966C
:100300009800000040420F000000A086010000009D
:10031000102700000000E803000000006400000057
:1003200000000A00000000000100000000002C7620
:10033000D888DC674F0823DFC1DFAE59E1B1B7963B
:10034000E5E3E453C63AE651997696E8E6C2842698
:10035000EB898C9B62ED407C6FFCEFBC9C9F40F274
:10036000BAA56FA5F490055A2AF75C936B6CF967F0
:100370006DC11BFCE0E40D47FEF520E6B500D0EDB5
:10038000902E0300943577050080841E080000201D
:100390004E0A000000C80C333333330F986E1283BB
:1003A0001141EF8D2114893BE65516CFFEE6DB188F
:1003B000D1844B381BF77C1D901DA4BBE424203254
:1003C00084725E228100C9F124ECA1E53D275375BA
:1003D0006E4D6F6E547565576564546875467269E5
:1003E000536174004A616E4665624D61724170727C
:1003F0004D61794A756E4A756C4175675365704FEA
:1004000063744E6F76446563000011241FBECFEF06
:10041000CDBFDFE9DEBF00E00CBF13E2A0E0B0E239
:10042000E0ECFDE300E00BBF02C007900D92A232AA
:10043000B107D9F729E9A2E2B3E201C01D92A630C3
:10044000B207E1F70E9400170C94DE1E0C94000026
:10045000CF93DF93CDB7DEB72C97CDBFDEBFBE0104
:100460006F5F7F4F0E944D026091002070910120CC
:10047000CE0101960E9404038091002090910120FA
:100480002C96CDBFDEBFDF91CF9108956AED78E95C
:100490000E944D028AED98E90895CF92DF92EF9283
:1004A000FF920F931F93CF93DF9300D01F92CDB78E
:1004B000DEB76C017B01E0910499F09105993097CA
:1004C00029F066EE78E919958C0102C00FEF1FEF55
:1004D000F60140815181628173818091E69890910B
:1004E000E798A091E898B091E998480F591F6A1FC2
:1004F0007B1F101611064CF4C801012E000CAA0B2C
:10050000BB0B480F591F6A1F7B1F49835A836B839C
:100510007C83B701CE0101960E948B03F70102870D
:1005200013872496CDBFDEBFDF91CF911F910F912E
:10053000FF90EF90DF90CF900895CF92DF92EF92EF
:10054000FF920F931F93CF93DF9300D01F92CDB7ED
:10055000DEB78C010E94610469837A838B839C835C
:10056000F8018285938597FF0EC0E0910499F09180
:100570000599309741F066EE78E9CE01019619951C
:10058000F80182879387F8018285938518161906EA
:1005900094F4092E000CAA0BBB0B49815A816B8184
:1005A0007C816A017B01C81AD90AEA0AFB0AC9825E
:1005B000DA82EB82FC8289819A81AB81BC81409195
:1005C000E6985091E7986091E8987091E998841BBB
:1005D000950BA60BB70B89839A83AB83BC83B801B9
:1005E000CE0101960E944D0269817A818B819C81A6
:1005F0002496CDBFDEBFDF91CF911F910F91FF9069
:10060000EF90DF90CF900895CF92DF92EF92FF921C
:100610000F931F93CF93DF938C01EB01FC01848137
:10062000B82FBB0FB80F8581782F770F780F7E0119
:100630009E012C5F3F4F40E0842F8B0F90E0A0E0A5
:1006400082539C4FAF4FFC015A2F0E94D71EF701D7
:1006500061937F01842F870F90E0A0E08C519C4F25
:10066000AF4FFC015A2F0E94D71EF90161939F01E1
:100670004F5F433009F780E28F838B83BE01685F51
:100680007F4FF801838140E2082E000C990B0E94F5
:100690001C05BE01655F7F4FF80182814AE3082E89
:1006A000000C990B0E941C05BE01625F7F4FF80190
:1006B00081814AE3082E000C990B0E941C05BE01A3
:1006C0006F5E7F4FF801808140E2082E000C990B8D
:1006D0000E941C05F8018681978164E670E08459C8
:1006E000984F0E94A11C6B017C01BE016C5E7F4F84
:1006F00040E2C6010E941C05BE016A5E7F4F40E0D9
:10070000C701DF91CF911F910F91FF90EF90DF9084
:10071000CF900C941C05CF92DF92EF92FF920F9333
:100720001F93CF93DF93CDB7DEB72897CDBFDEBF42
:100730008B01FC01608171818281938120E831E528
:1007400041E050E00E94B51C69017A012CE330E0E1
:1007500040E050E00E94B11E29833A834B835C83C2
:1007600089819A81AB81BC81F80160836CE370E080
:100770000E94A11CDC01CB01F801A1838283C60188
:10078000069667E070E00E94DF1C84832DEA3EE855
:1007900040E050E0C701B6010E94B11E29833A83B0
:1007A0006D837E838F83988789819A8124E6289F31
:1007B0006001299FD00C11246D817E818F819885E5
:1007C00025EB35E040E050E00E94B11E29833A83DA
:1007D0006D837E83E980FA80EE0CFF1CEE0CFF1C1B
:1007E000EC0CFD1C8D819E81F5E6EF16F10410F0F6
:1007F000019604C024E6E216F10419F021E030E08D
:1008000002C020E030E0A90144595E4F4817590763
:1008100068F46DE671E0821B930B0E94A11CDC0161
:10082000CB01E80EF91ECD0120E030E044E6E40EF5
:10083000F11CF801E682F78280879187255C3F4FA3
:100840008217930748F46FE170E00E94A11CDC015D
:10085000CB01F801858322C069E970E0821B930B0C
:100860000E94A11CDC01CB01F82EFF0CFF0CF80E3E
:100870006DE370E0CD010E94A11CDC01CB01E82EEC
:10088000EE0C6FE170E0CD010E94A11CDC01CB01F8
:1008900022E0280FF20EFE0CF801F582A383F80186
:1008A0001286138683818F5F83832896CDBFDEBF38
:1008B000DF91CF911F910F91FF90EF90DF90CF903C
:1008C00008958F929F92AF92BF92CF92DF92EF9254
:1008D000FF920F931F93CF93DF93EC01EE81FF8183
:1008E0008F0104561109B9F0CF01855691096C01A9
:1008F00097FF03C023E0C20ED11CD594C794D594B2
:10090000C7946CE97FEF0E94A11CC60ED71E8FEF23
:10091000C81AD80A02C0C12CD12C0D2C000CEE082C
:10092000FF082DE631E0D8010E94D01EC60ED71E6A
:10093000E81EF91E8B81082E000C990B8C010150CA
:1009400011092D8122302CF4222379F1015E1F4FF1
:100950002CC0CF018459984F0E943605E82FF0E053
:10096000FB96E00FF11F8D81082E000C990B02976A
:100970008530910514F0E756FF4F65E070E00E9466
:10098000A11C9C0197FF02C02F5F3F4F3595279513
:100990009DE3929FA001939F500D11248F01040F9E
:1009A000151F80FF02C0015E1F4FA801110F660BCB
:1009B000770B9A01AB012C0D3D1D4E1D5F1D60E8AC
:1009C00071E581E090E00E94A11E6B017C01AA818B
:1009D0000A2E000CBB0B20E13EE00E94D01E4B0112
:1009E0005C01A9810A2E000CBB0B2CE330E00E94B5
:1009F000D01EDC01CB01880D991DAA1DBB1D4881AD
:100A0000042E000C550B660B770B840F951FA61F49
:100A1000B71FBC01CD016C0D7D1D8E1D9F1DDF918B
:100A2000CF911F910F91FF90EF90DF90CF90BF90EB
:100A3000AF909F908F9008950F931F93CF93DF9364
:100A40001F92CDB7DEB78B016AE070E049830E9448
:100A5000A11C605DF8016083805D818349814283D0
:100A60000F90DF91CF911F910F9108959C012370FA
:100A70003327232B59F464E670E00E94A11C892BD4
:100A800039F46370772781E0672B19F080E00895CF
:100A900081E00895292F33272230310559F0233082
:100AA000310569F02130310529F582E190E02AEB2A
:100AB00032E029C08EE390E02CE732E024C0992791
:100AC0008130910559F08230910571F0892BB9F48C
:100AD000E8E7F2E0849190E09F0115C0EEE5F2E0D6
:100AE000849190E09F010FC0E0E4F2E0849190E0F7
:100AF0009F0109C080E090E020E030E004C080E089
:100B000090E020E030E0FA0120833183089531E164
:100B1000FC013083319722E220833197A3E3A08345
:100B200031976083319770833197108231971082AB
:100B3000319760E8608331971082319762E060837B
:100B4000319763E06083319764E06083319765E0BB
:100B50006083319766E06083319767E06083319707
:100B600068E06083319769E06083319760E160837A
:100B700031973083319732E13083319733E13083DD
:100B8000319734E13083319735E13083319736E165
:100B90003083319737E13083319738E130833197B3
:100BA00039E13083319730E23083319731E230835D
:100BB00031972083319723E2208331974083319707
:100BC0005083319726E22083319727E220833197A3
:100BD00028E22083319729E22083319720E3208384
:100BE000319721E320838797089565E080E098E0BE
:100BF0000E94E51883EF91E08093260890932708E0
:100C000061E080E098E00E94EB18E0EAF0E0828189
:100C100081608283A0917393B0917493CD91CDBF85
:100C2000DD91DEBFFF91EF91DF91CF91BF91AF9149
:100C30009F918F917F916F915F914F913F912F91F4
:100C40001F910F91FF90EF90DF90CF90BF90AF90EA
:100C50009F908F907F906F905F904F903F902F90DC
:100C60001F900F900FBE0F90089581E008950F928E
:100C70000FB6F8940F921F9211242F923F924F9229
:100C80005F926F927F928F929F92AF92BF92CF921C
:100C9000DF92EF92FF920F931F932F933F934F9307
:100CA0005F936F937F938F939F93AF93BF93CF93F4
:100CB000DF93EF93FF93A0917393B09174930DB66C
:100CC0000D920EB60D920E94980AA0917393B09166
:100CD0007493CD91CDBFDD91DEBFFF91EF91DF9198
:100CE000CF91BF91AF919F918F917F916F915F91C4
:100CF0004F913F912F911F910F91FF90EF90DF90B7
:100D0000CF90BF90AF909F908F907F906F905F90AB
:100D10004F903F902F901F900F900FBE0F9008950F
:100D20000F920FB6F8940F921F9211242F923F92B8
:100D30004F925F926F927F928F929F92AF92BF92EB
:100D4000CF92DF92EF92FF920F931F932F933F93D7
:100D50004F935F936F937F938F939F93AF93BF93C3
:100D6000CF93DF93EF93FF93A0917393B09174931C
:100D70000DB60D920EB60D920E94200981110E94AF
:100D8000980AA0917393B0917493CD91CDBFDD91EA
:100D9000DEBFFF91EF91DF91CF91BF91AF919F9116
:100DA0008F917F916F915F914F913F912F911F9103
:100DB0000F91FF90EF90DF90CF90BF90AF909F90FA
:100DC0008F907F906F905F904F903F902F901F90EB
:100DD0000F900FBE0F9008950E9490061895CF9324
:100DE000DF93EC010E941A09809122239091232322
:100DF000892B31F487E293E280932223909323237B
:100E00002091242330912523CE01820F931F8F3F01
:100E10004FE6940770F42817390770F4C091222325
:100E2000D0912323C20FD31F809324239093252393
:100E300005C0C0E0D0E002C0C0E0D0E00E94F609EA
:100E4000CE01DF91CF9108950895FC01039681832F
:100E500092832FEF3FEF23833483858396838783A9
:100E6000908710820895FC01108611860895CF9313
:100E7000DF939C01FB01DC011196CD91DC9112976F
:100E8000C283D3838C819D81848395838C819D8152
:100E9000DC0112966D937C9313976C837D8320877E
:100EA0003187F90180818F5F8083DF91CF91089531
:100EB000CF93DF93EB01488159814F3F2FEF5207CA
:100EC00021F4FC01A781B0850DC0DC01139601C09F
:100ED000DF011296ED91FC91139720813181421729
:100EE0005307B0F71296ED91FC911397EA83FB83B9
:100EF000C483D583AC83BD831296CD93DC931397C3
:100F000088879987FC0120812F5F2083DF91CF9113
:100F10000895CF93DF93FC01A085B185C281D38171
:100F2000848195818C839D83C481D58182819381C5
:100F30008A839B831196CD91DC911297CE17DF07A0
:100F400031F48C819D8111968D939C93129710861C
:100F500011868C9181508C93DF91CF910895FFCFB2
:100F6000CF93DF93EC01E0917393F09174938283BC
:100F7000938380912D9390912E93C817D90768F48D
:100F800060917393709174938091399390913A9397
:100F90006E5F7F4F0E94580717C0609173937091E6
:100FA000749380913B9390913C936E5F7F4F0E942E
:100FB000580780918B2290918C22C817D90720F472
:100FC000C0938B22D0938C22DF91CF9108954F92C2
:100FD0005F926F927F928F929F92AF92BF92CF92C9
:100FE000DF92EF92FF920F931F93CF93DF934C0109
:100FF000EB015A01290181E290E00E94EF063C01D9
:10100000009709F4DAC0C114D10409F0D2C0C501B7
:101010000E94EF06F301878B908F892B21F4C30187
:101020000E942407CAC0F1E0AF1AB108F301878912
:10103000908DA80EB91E8881818F8881882381F0C8
:10104000D3015A96FE0131969E01285F3F4FEF0172
:1010500081918D938881882319F0E217F307B9F7FE
:10106000F30110A2102F043008F013E0F301168BE7
:10107000E3012296CE010E943307C3010C960E9421
:101080003307F3016086718684E090E0811B91094B
:1010900084879587628A738AA201B401C5010E9480
:1010A0008705F30180839183E114F10419F0F701BE
:1010B000608271820FB6F8940F9280912F938F5FA8
:1010C00080932F938091739390917493892B89F5DA
:1010D000609273937092749380912F938130C1F5D5
:1010E0008FE493E90E94250788E593E90E9425078C
:1010F00081E693E90E9425078AE693E90E94250785
:1011000086E493E90E9425078DE393E90E94250771
:1011100080E393E90E94250786E493E980933B935B
:1011200090933C938DE393E98093399390933A9312
:101130000FC080912B9381110BC0E0917393F091BC
:1011400074938689081720F0609273937092749359
:10115000809127938F5F80932793F30186899091E5
:101160002C93981710F480932C9390E09C01220FFD
:10117000331F220F331F220F331F820F931FBE0115
:10118000815B9C460E9437070F900FBE80912B9386
:10119000882359F0E0917393F091749386898017B6
:1011A00030F40E94370681E009C081E007C081E089
:1011B00005C0FC01C78AD08E36CF8FEFDF91CF916B
:1011C0001F910F91FF90EF90DF90CF90BF90AF9065
:1011D0009F908F907F906F905F904F900895AF9207
:1011E000BF92CF92DF92EF92FF920F93A12CB12C7E
:1011F000C12CD12CE12CF12C00E020E030E044E6C1
:1012000050E067EB72E28FEA97E00E94E7078130D7
:1012100049F4F89480932B9310922D9310922E936F
:101220000E94F5050F91FF90EF90DF90CF90BF9057
:10123000AF900895809126938F5F809326930895B1
:10124000DF92EF92FF920F931F93CF93DF938091E2
:1012500026938111B6C080912D9390912E93019683
:1012600080932D9390932E93E0902D93F0902E9356
:10127000E114F10499F580913B9390913C93209176
:10128000399330913A9320933B9330933C938093DE
:10129000399390933A93809128938F5F809328930A
:1012A000E0913B93F0913C938081811107C08FEFD7
:1012B0009FEF80938B2290938C2210C0E0913B9300
:1012C000F0913C930580F681E02D0680F781E02DBA
:1012D0008281938180938B2290938C2280918B22A8
:1012E00090918C22E816F90610F4D12C52C0D12C22
:1012F000E0913B93F0913C939081911107C08FEF67
:101300009FEF80938B2290938C2243C0E0913B937C
:10131000F0913C930580F681E02DC681D7812A812A
:101320003B81E216F30628F420938B2230938C2223
:1013300030C08E010E5F1F4FC8010E9489078C8943
:101340009D89892B21F0CE010C960E9489072E8958
:1013500080912C93821710F420932C9330E0C901D4
:10136000880F991F880F991F880F991F820F931F4D
:10137000B801815B9C460E943707E0917393F0911E
:1013800074939E898689981708F4B2CFDD24D3948C
:10139000AFCFE0917393F0917493868990E0FC0154
:1013A000EE0FFF1FEE0FFF1FEE0FFF1F8E0F9F1F91
:1013B000FC01E15BFC468081823048F0DD24D3945F
:1013C00006C080912A938F5F80932A93D12C8091BD
:1013D0002993882311F0DD24D3948D2DDF91CF91B3
:1013E0001F910F91FF90EF90DF900895DF92EF92A1
:1013F000FF920F931F93CF93DF930FB6F8940F9242
:101400008091269381508093269380912693811119
:1014100062C080912F93811133C060C0D7011596AF
:10142000ED91FC911697C681D781CE010C960E9452
:1014300089078E010E5F1F4FC8010E9489072E8900
:1014400080912C93821710F420932C9330E0C901E3
:10145000880F991F880F991F880F991F820F931F5C
:10146000B801815B9C460E943707E0917393F0912D
:1014700074939E898689981758F0D092299308C052
:101480000F2EF0E3EF2EF3E9FF2EF02DDD24D394A1
:10149000F70180818111C2CF80912A93882399F02E
:1014A00080912A93882379F0C1E00E94200981115C
:1014B000C093299380912A93815080932A9380919D
:1014C0002A938111F2CF80912993813031F40E94C7
:1014D000370681E003C080E001C080E00F900FBEBE
:1014E000DF91CF911F910F91FF90EF90DF900895C2
:1014F000CF93DF93EC01892BB1F00E941A09809100
:101500002D9390912E93C80FD91F80917393909132
:10151000749302960E948907CE010E94B0070E9430
:10152000F609811102C00E943706DF91CF9108951C
:1015300080912693882321F081E080932993089558
:101540001092299380912C9390E0FC01EE0FFF1FE5
:10155000EE0FFF1FEE0FFF1F8E0F9F1FFC01E15BC1
:10156000FC468081811117C080912C93815080931B
:101570002C9380912C9390E0FC01EE0FFF1FEE0F57
:10158000FF1FEE0FFF1F8E0F9F1FFC01E15BFC464C
:101590008081882349F380912C9390E09C01220F55
:1015A000331F220F331F220F331F280F391FD9017A
:1015B000A15BBC461196ED91FC9112970280F381DC
:1015C000E02D1196ED93FC9312972E5A3C46E217AC
:1015D000F30729F422813381FD0121833283FC0149
:1015E000EE0FFF1FEE0FFF1FEE0FFF1F8E0F9F1F4F
:1015F000FC01E15BFC460180F281E02D8681978150
:1016000080937393909374930895CF93DF93EC0139
:10161000FC0170968BE0DF011D928A95E9F782E06C
:101620008C83898783E08E8761E0CE0101960E94DA
:10163000FB10882361F061E0CE0106960E94FB104A
:10164000882329F061E0CE010B960E94FB10DF9108
:10165000CF910895CF93FC019091A495943019F502
:1016600084899589A689B789892B8A2B8B2BE9F0E8
:10167000C62F81810E94EA0F8091AD959091AE9521
:10168000FC01EF5BFF4F208131978081281730F0FC
:101690000E94A20F0E94AA11811108C08C2F0E94E3
:1016A000DA0F80E003C082E001C082E0CF910895AC
:1016B000FB01682F848595850E942A0B21E030E08C
:1016C000811102C020E030E088279927821B930B0C
:1016D0000895CF93DF93FC019091A4959430F1F598
:1016E00084899589A689B789892B8A2B8B2BC1F18F
:1016F00081810E94EA0F8091B19588234CF4E0919A
:10170000AD95F091AE95EF5BFF4F808190E00DC0FD
:101710002091AD953091AE95F901E05CFF4F80814D
:101720003196208190E0821B9109892BD9F080911C
:10173000AD959091AE95FC01EF5BFF4FD081319755
:10174000C0810E94A20FDC1778F00E94AA11C82F56
:1017500081110CC00E94A20F8C2F08C082E006C02D
:1017600082E004C080E002C080E000C0DF91CF9141
:101770000895CF93DF93FC019091A495943099F450
:1017800084899589A689B789892B8A2B8B2B59F057
:10179000EF0181810E94EA0F0E942A10882319F02C
:1017A000CE010E94690BDF91CF910895CF93DF9313
:1017B0002091A495243009F056C0FC014489558934
:1017C00066897789452B462B472B09F44FC08681C4
:1017D0000E94EA0F0E943710882309F44AC08091C2
:1017E000B19588234CF4E091AD95F091AE95EF5B07
:1017F000FF4F808190E00DC02091AD953091AE9566
:10180000F901E05CFF4F80813196208190E0821BDE
:101810009109892B29F00E94CA0FC82FD0E002C07D
:10182000CFEFDFEF8091B19588234CF4E091AD9537
:10183000F091AE95EF5BFF4F208130E00DC04091FD
:10184000AD955091AE95FA01E05CFF4F2081319645
:10185000808130E0281B3109232B71F40E94BB0FDB
:101860008C2F9D2F0BC08FEF9FEF08C08FEF9FEF46
:1018700005C08FEF9FEF02C08C2F9D2FDF91CF917E
:101880000895FC01848595850E94D60B992314F454
:101890008EEF9FEF0895FB012EE0DB011D922A954C
:1018A000E9F723E0238328E53BE02087318721E423
:1018B0003CE0228733878487958708950895FF92B7
:1018C0000F931F93CF93DF93EC010E945110882355
:1018D00009F49BC0288130E08091A9959091AA9548
:1018E0008217930709F091C08091A695813259F033
:1018F00018F4803281F189C0823209F467C08332E2
:1019000009F476C082C08091A595813A09F07DC026
:101910000E946B100E942A108823E1F38C89FD88B5
:101920000E891F890E94DA0F8F2D0E94DA0F802FF7
:101930000E94DA0F812F0E94DA0F888D0E94DA0F41
:10194000898D0E94DA0F8A8D0E94DA0F0E94A20F01
:101950000E948F115AC08091A595813209F055C01F
:101960000E946B1005C08091A495882309F44DC096
:101970000E9437108823B9F30E94CA0FF82E0E94E4
:10198000CA0F182F0E94CA0F082F0E94CA0F402F9B
:1019900050E060E070E0BA0155274427782B4F29CA
:1019A000512B4C8B5D8B6E8B7F8B0E94CA0F888F67
:1019B0000E94CA0F898F0E94CA0F8A8F0E94BB0F94
:1019C0000E948F11CE010E945E0C1FC08091A595D0
:1019D0008132D9F40E946B100E948F118091A795DB
:1019E0009091A895888B998BCE010E94C9170DC044
:1019F0008091A595813249F40E946B100E948F114D
:101A00006091A795CE010E945E0CDF91CF911F914E
:101A10000F91FF900895EF92FF920F931F93CF9332
:101A2000DF93CDB7DEB7EA97CDBFDEBF05EA15E994
:101A30000F2EFDEAEF2EF5E9FF2EF02D0E94CA0FC2
:101A4000F80181938F01EE15FF05C1F70E94C417BD
:101A50000E945110882309F413C1E5EAF5E92081B9
:101A60003181832F90E08A30910508F009C1FC0193
:101A70008827E250FF4F8F4F0C94D71C203821F05D
:101A8000223809F0FDC008C01091A1958091A2955F
:101A9000882391F0126010C08091A9958F700E94E8
:101AA000EA0FE091AF95F091B095118112FB1127EB
:101AB00010F980E00E94EA0F0E946B10812F0E94B3
:101AC000DA0F80E00E94DA0F0E94A20F0E948F11AD
:101AD000D7C0222309F4DDC0223009F0D1C0DEC016
:101AE00081E0333009F080E08093A29525C0E09139
:101AF000A9951E2F1F7009F4C3C0812F0E94EA0F01
:101B00008091A695833019F40E94991015C0E09138
:101B1000AF95F091B09581818B7F818324E8129FEE
:101B2000F0011124ED50FA461082E091AF95F0914A
:101B3000B09580818E7F808380E00E94EA0F0E94B2
:101B40006B100E948F119CC021119AC01091A79513
:101B50001F770E946B100E948F110E942A10882309
:101B6000E1F31093C304111102C082E001C083E0CD
:101B70008093A49585C02058223008F081C08091C0
:101B8000A7959091A8958C3DE3E09E07B9F583E079
:101B90008A838AE389837FB7F894AE014D5F5F4FF4
:101BA00020E038E0A0ECB1E062E01A966C931A975E
:101BB000E32FF0E084911A961C921A9720FF03C03D
:101BC00082958F703F5F8F708A3018F090E0C796D3
:101BD00002C090E0C096FA0181939193AF012F5F0C
:101BE0002C3119F77FBF0E946B106AE370E0CE01C1
:101BF00001960E94730E0E94BB0F42C0AE014F5F60
:101C00005F4F6091A9950E944A058C01892BC1F113
:101C10000E946B10B80189819A810E94090F0E946D
:101C2000BB0F2EC0203861F50E946B108091A095EB
:101C30000E94DA0F0E94A20F0E948F1121C0211171
:101C40001FC08091A7958230D8F40E946B108091BC
:101C5000A7958093A0950E948F118091A0958823CD
:101C600021F084E08093A49509C08091C304811180
:101C700002C081E001C084E08093A4950E94AD176A
:101C80000E945110882381F00E946B100E949910CD
:101C90000BC08091A795813099F722CF8091A795AD
:101CA000882309F424CF48CFEA96CDBFDEBFDF9169
:101CB000CF911F910F91FF90EF9008950895CF93CA
:101CC0008091A495882369F0C091B19580E00E942D
:101CD000EA0F0E94511081110E940B0D8C2F0E945F
:101CE000EA0FCF910895CF92DF92EF92FF920F9378
:101CF0001F93CF93DF93C82ED92E8B018091B1957E
:101D000080680E94EA0FC091AB95D091AC95C01746
:101D1000D10740F00115110521F40E94A20FE8013E
:101D200001C0E801EC2CFD2CD12C49C08091A49578
:101D3000882309F45AC0853009F459C00E94511013
:101D4000811157C00E943710811149C00E942A108A
:101D50008823A9F18091B195882374F4E091AD9521
:101D6000F091AE95EF5BFF4F008110E02097F9F006
:101D70000830110578F01BC08091AD959091AE951B
:101D8000FC01E05CFF4F00813196808110E0081B70
:101D90001109ECCFF70181917F010E94DA0F2197A1
:101DA0000F5F1F4F209719F00830110599F7DD24B8
:101DB000D3940830110509F0D12C0E94A20F20976E
:101DC00009F0B4CFD110B2CF0AC08091A495882376
:101DD00091F0853091F00E945110811110C00E9445
:101DE0003710882391F380E00BC082E009C083E0C4
:101DF00007C081E005C082E003C083E001C081E04C
:101E0000DF91CF911F910F91FF90EF90DF90CF90D6
:101E10000895DF92EF92FF920F931F93CF93DF937A
:101E2000E82EF92E8B018091B19580680E94EA0F0F
:101E3000C091AB95D091AC95C017D10740F001157A
:101E4000110521F40E94A20FE80101C0E8010E2D46
:101E50001F2DD12C4EC08091A495882309F45FC01A
:101E6000853009F45EC00E94511081115CC00E944F
:101E7000371081114EC00E942A108823D1F1809121
:101E8000B19588237CF4E091AD95F091AE95EF5B30
:101E9000FF4FE080F12C209719F188E0E816F1045B
:101EA00078F01EC08091AD959091AE95FC01E05CFC
:101EB000FF4FE08031968081F12CE81AF108EBCFDA
:101EC000F80184910E94DA0F0F5F1F4F2197FFEFF7
:101ED000EF1AFF0A209721F088E0E816F10481F755
:101EE000DD24D394E8E0EE16F10409F0D12C0E9431
:101EF000A20F209709F0AFCFD110ADCF0AC08091CB
:101F0000A495882391F0853091F00E9451108111A1
:101F100010C00E943710882391F380E00BC082E04C
:101F200009C083E007C081E005C082E003C083E010
:101F300001C081E0DF91CF911F910F91FF90EF9051
:101F4000DF900895E091AF95F091B095A091AD9597
:101F5000B091AE95AF5BBF4F8C9190E0828393833D
:101F600080818D798083E091AD95F091AE95EF5BA6
:101F7000FF4F10820895E091AF95F091B095808168
:101F80008D798083E091AD95F091AE95EF5BFF4F39
:101F9000108208958091AD959091AE95FC01EF5B14
:101FA000FF4F208131E0320F3083FC01E20FF11D41
:101FB000808108952091AD953091AE95F901EF5B48
:101FC000FF4F908141E0490F4083F901E90FF11D76
:101FD000808308958093B195282F2F7030E0409131
:101FE000C6045091C7048823E4F464E8629FC001EA
:101FF000639F900D11248C509A468093AD959093D9
:10200000AE95C90182959295907F9827807F9827F9
:1020100008969A01280F391F2093AF953093B095F9
:10202000089564E8629FC001639F900D11248E544F
:102030009A468093AD959093AE9522953295307FD8
:102040003227207F3227240F351F2093AF953093FE
:10205000B09508958091B19580680E94EA0FE09153
:10206000AF95F091B09580818695817008958091AB
:10207000B1958F770E94EA0FE091AF95F091B095FE
:10208000808185FF0CC08091AD959091AE952281A5
:102090003381FC01E05CFF4F208381E0089580E004
:1020A00008958091B1958F770E94EA0FE091AF95E6
:1020B000F091B095808184FF0CC08091AD95909196
:1020C000AE9522813381FC01E05CFF4F208381E0EB
:1020D000089580E008958091B1958F770E94EA0F6E
:1020E000E091AF95F091B09580818D788083E091FB
:1020F000AF95F091B095808181608083E091AD953E
:10210000F091AE95EF5BFF4F10828091B1958068A2
:102110000E94EA0FE091AF95F091B09580818160C7
:102120008083E091AD95F091AE95EF5BFF4F10820B
:102130000895E091AF95F091B0958181846081839D
:10214000E091AF95F091B0958181807C803461F40D
:102150008091B19580580E94EA0FE091AF95F0917F
:10216000B09581818460818308951F93CF93DF931D
:10217000D82F162FC42F0E94EA0FE091AF95F0914F
:10218000B0951182E091AF95F091B095DD23A4F068
:102190001082E091AF95F091B0951183E091AF95E9
:1021A000F091B095128213828091AD959091AE9589
:1021B0008483958340E014C082E08083E091AF95F2
:1021C000F091B0951183E091AF95F091B0951282A6
:1021D00013828091AD959091AE95848395834C2F19
:1021E000FC01E05CFF4F40833196108281E0DF917B
:1021F000CF911F910895AF92BF92CF92DF92EF924D
:10220000FF920F931F93CF93DF93662309F457C078
:10221000A62E7C018C0184E0E80EF11CB12CF801A3
:10222000C080CC2009F441C0C181D281F70131972F
:102230008081F7019081923010F448E001C048E1BC
:10224000C930D10550F028E030E090E09F5F220FC8
:10225000331F2C173D07D0F301C090E0942B2C2D99
:102260002F7030E02530310564F59F7EC134D105F3
:1022700050F5882319F0813021F006C09064D92EE2
:1022800007C0906CD92E0AC09068D92E811106C063
:102290004C2F6D2D80E88C0D0E94B5104C2F6D2DAC
:1022A0008C2D0E94B510882379F0B3940B5F1F4FDB
:1022B000F5E0EF0EF11CBA10B2CF81E005C081E06D
:1022C00003C080E001C080E0DF91CF911F910F91AA
:1022D000FF90EF90DF90CF90BF90AF90089520E0F7
:1022E00030E0A0ECB4E01696ED91FC911797C9018F
:1022F00082959295907F9827807F9827E80FF91F05
:10230000118616964D915C911797FA01E80FF91F07
:1023100011822F5F3F4F2530310529F708958091B5
:10232000A595882384F404C08091A495882389F01E
:102330000E9437108823C1F30E94BB0F089580913B
:10234000A495882331F00E942A108823C1F30E94AB
:10235000A20F0895FF920F931F93CF93DF93E09105
:10236000C604F091C704E05BFF4FC081D1810F2EFE
:10237000F4E6FF2EF02D00EC14E002C0F22EEC018A
:102380008091B19588232CF40E942A10882329F08B
:1023900023C00E943710811121C08091A495882309
:1023A000F9F08530F9F0E091AF95F091B095818129
:1023B00082FD1AC0D8011696ED91FC911797E05B4B
:1023C000FF4F80819181C817D907C9F22FEF2F0DD8
:1023D000F110D4CF84E009C080E007C080E005C0E0
:1023E00082E003C083E001C081E0DF91CF911F91C3
:1023F0000F91FF900895CF93DF93E0E4F0E0148213
:102400008481836084830E9459120E946012C0EC10
:10241000D4E088818F778883888180688883109250
:10242000A4951092A0951092A2951092A1958881E2
:102430008064888348E068E480E80E94B51048E042
:1024400068E480E00E94B51088858064888789816F
:1024500081608983DF91CF910895CF93DF932FB768
:10246000F894C0ECD1E082E08A87EAE1F0E0E49100
:10247000A0ECB4E0DA96EC93DA97EBE1F0E0E491CB
:10248000DB96EC93DB971A8687E498E98E7F1696A5
:102490008D939C93179784E18C9383E018968C938B
:1024A0002FBF81E08093A3950E94FB11DF91CF9114
:1024B0000895E0ECF4E080858370808711860895AC
:1024C000E0ECF4E08FEF8287848708951F920F92EB
:1024D0000FB60F9211240BB60F922F933F934F9389
:1024E0005F936F937F938F939F93AF93BF93EF937C
:1024F000FF938091CA0488234CF48091C8048823F8
:102500002CF480E88093CA040E945E0E8091CA0475
:1025100086FF07C080E48093CA041092A4950E94AD
:10252000A1178091CA0485FF16C080E28093CA0477
:102530008091A095882321F084E08093A49509C020
:102540008091C304811102C081E001C083E08093C7
:10255000A4950E9494178091CA0484FF18C0E0ECEF
:10256000F4E080E1828782E08093A4951092A095A8
:1025700013820E946F1148E068E480E80E94B51061
:1025800048E068E480E00E94B5100E945E0EFF9172
:10259000EF91BF91AF919F918F917F916F915F91DB
:1025A0004F913F912F910F900BBE0F900FBE0F9048
:1025B0001F9018950E941A098DE892E20E94B90BAB
:1025C0000E945F0E0E94F60981E090E00E94780A66
:1025D000F1CFFC01818185FFFDCF6083818186FF82
:1025E000FDCF80E48183808108951F93CF93DF9393
:1025F000C0EAD6E018E01E83E0E6F6E091E09683BC
:102600009683682F80EA99E00E94E9121D83DF918A
:10261000CF911F910895EF92FF920F931F93CF9345
:10262000DF93C0EAD6E018E01E830F2EF0E6EF2E0F
:10263000F6E0FF2EF02D01E0F7010583682F80EA18
:1026400099E00E94E912F70106831D83DF91CF9183
:102650001F910F91FF90EF9008958770806B0E94FB
:10266000F5120895CF93C82F982F9F77892F8295C1
:102670008F7080610E94F5128C2F8F700E94F5126E
:10268000CF910895CF93DF93EC01FB018C818F7E76
:102690008C83A0E6B6E082E011968C931197159694
:1026A0008C938D81806C8D8384818D7F813021F42A
:1026B0008D8182608D8303C08D818D7F8D83858127
:1026C000882321F08D8184608D8303C08D818B7F71
:1026D0008D8380819181A281B3819C01AD01220F04
:1026E000331F441F551F60E078E488EE91E00E949C
:1026F000B51C21503109832F8F708F832E838C81DD
:1027000088608C83DF91CF910895CF93DF9300D0C1
:1027100000D0CDB7DEB720EA36E088E0D9011196C7
:102720008C93A0E6B6E091E011969C931197E0E0BF
:10273000F6E0818392E011969C93119711968C9309
:10274000D90115968C938683BAE6BA95F1F700C045
:102750008583EAE6EA95F1F700C0E0E7F0E08481DE
:102760008F7E848380E09BE1A7EBB0E089839A832E
:10277000AB83BC831D821E82BE016F5F7F4F80EAE8
:1027800099E00E94421388EA0E94F5128FE10E94AC
:10279000F51283ED0E94F51280E00E94F51280E4AC
:1027A0000E94F51281EA0E94F51288EC0E94F5124F
:1027B0008AED0E94F51282E00E94F51281E80E94E3
:1027C000F5128FE80E94F51284EA0E94F51286EA5B
:1027D0000E94F51285ED0E94F51280E80E94F51224
:1027E0008DE80E94F51284E10E94F5128BED0E94A3
:1027F000F51280E40E94F51289ED0E94F51281EF36
:102800000E94F5128FEA0E94F5122696CDBFDEBF18
:10281000DF91CF910895EF92FF920F931F93CF9383
:10282000DC01EC91EE2329F17C01BFEFEB1AFB0AEE
:10283000EF37D0F4F0E0EE0FFF1FE357FE4D0081BD
:102840001181F8018081882361F0C1E0F801EC0F6B
:10285000F11D80810E940B13CF5FD8019C919C17C2
:10286000A8F780E00E940B13D701ED917D01E111E3
:10287000DFCFCF911F910F91FF90EF90089520E847
:10288000829FC0011124860F911DE0918393F091E6
:102890008493E80FF91F4083089520E8829FC001C8
:1028A0001124860F911DE0918393F0918493E80F9A
:1028B000F91F808108951F93CF93DF93182FD62F90
:1028C000C42F211104C00E944D148C1771F04C2F9D
:1028D0006D2F812F0E943F14812F0E942D138D2F69
:1028E0000E9432138C2F0E940B13DF91CF911F9106
:1028F00008950F9307E020E140E060E081EB92E271
:102900000E94CA170F91089561E081EB92E20E9444
:10291000E61760E081EB92E20E94E61761E084EB4B
:1029200092E20E94E61761E08EEA92E20E94E617C8
:102930000E94791408951F93CF93DF93182F61E0BD
:1029400081EB92E20E94E617C8E0D0E010FF05C0DC
:1029500081EB92E20E94081804C081EB92E20E948F
:10296000181881E090E00E94780A84EB92E20E94BD
:10297000081881E090E00E94780A84EB92E20E94BD
:1029800018181695219711F760E081EB92E20E94EA
:10299000E617DF91CF911F9108951F93CF93DF9397
:1029A00060E081EB92E20E94E617C0E0D0E010E028
:1029B00081EB92E20E942818282F30E00C2E02C0F2
:1029C000220F331F0A94E2F7122B81E090E00E945D
:1029D000780A84EB92E20E94081881E090E00E945D
:1029E000780A84EB92E20E9418182196C830D1052B
:1029F000F9F6812FDF91CF911F910895CF93DF9347
:102A0000D82FC62F8091D998882331F01092D99869
:102A100060E08EE80E94FE148EEA92E20E9408189E
:102A200084E090E00E94780A8D2F0E949B148C2FE6
:102A30000E949B1484E090E00E94780A8EEA92E261
:102A40000E941818DF91CF910895EF92FF920F9393
:102A50001F93CF93DF9300D01F92CDB7DEB769836A
:102A60007A838B839C83CE0101960E9446027C016F
:102A70000000FC01608117E66102812D112485951B
:102A8000859567FD8395282F220F922F990F990F17
:102A9000920F691BF0E18F9F600D112480E80E9466
:102AA000FE14F70161816102812D112485958595C0
:102AB00067FD8395282F220F922F990F990F920F60
:102AC000691BF0E18F9F600D112482E80E94FE14C3
:102AD000F70162816102812D11248595859567FD3D
:102AE0008395282F220F922F990F990F920F691B10
:102AF000F0E18F9F600D112484E80E94FE14F7011D
:102B000063816102112D11241595159567FD1395AB
:102B1000912F990F892F880F880F890F681BF0E17B
:102B20001F9F600D112486E80E94FE14F701858125
:102B3000082E000C990B01960AE010E0B8010E94E3
:102B4000A11CF0E16F9F800D1124682F88E80E947E
:102B5000FE14F70164816F5F8AE80E94FE14F7019A
:102B60008681978184569109B8010E94A11CF0E1E9
:102B70006F9F800D1124682F8CE80E94FE1424960C
:102B8000CDBFDEBFDF91CF911F910F91FF90EF90EE
:102B90000895EF92FF920F931F93CF93DF93CDB7DA
:102BA000DEB76397CDBFDEBF8EEA92E20E940818BF
:102BB00084E090E00E94780A8FEB0E949B148E01C3
:102BC0000F5F1F4F7E0188E0E80EF11C0E94CD14BC
:102BD000F80181938F01EE15FF05C1F78EEA92E2AD
:102BE0000E94181800008981982F92959F70990F64
:102BF000292F220F220F920F8F70890F88878A81C9
:102C0000982F92959F70990F292F220F220F920FC4
:102C10008F70890F89878B81982F92959F70990F5C
:102C2000292F220F220F920F8F70890F8A878C8194
:102C3000982F92959F70990F292F220F220F920F94
:102C40008F70890F8B878D81282F2F70215082954F
:102C50008F70880F982F990F990F890F820F8D878A
:102C60008F81282F2F7082958F7090E0AC01440FD8
:102C7000551F880F991F880F991F880F991F840F60
:102C8000951F820F911D8C599F4F8E879F87000043
:102C9000CE0108960E949D026396CDBFDEBFDF91F4
:102CA000CF911F910F91FF90EF9008950E9484148F
:102CB0006DE875EA81E29FE10E9425150F2EFCEB7D
:102CC000EF2EF2E2FF2EF02DC5E7D3E903ED12E27D
:102CD0000E94C915DC01CB01805C974CAF4FBF4F00
:102CE0008093999890939A98A0939B98B0939C986E
:102CF0000E94C915DC01CB0180589C4BA249B74CFE
:102D0000BF93AF939F938F93FF92EF92DF93CF93F5
:102D10000E94FB1D89E998E90E9428029F938F93E6
:102D20001F930F93DF93CF930E94FB1D88EC90E0DD
:102D30000E94780A8DB79EB70E968DBF9EBFC8CFF2
:102D4000CF93DF93E0E5F0E080E1858380818061CF
:102D50008083818184FFFDCF8FB7F894A0E4B0E039
:102D600094E028ED30E01BBEFD0124BF90838FBFAF
:102D70008FE39FE10197F1F700C000008C91E0E53F
:102D8000F0E0808182608083818181FFFDCFE0E57A
:102D9000F0E0868184608683A0E6B0E08BE1159642
:102DA0008C93159787EB16968C931697C0ECD1E011
:102DB00082E08A87EDE1F0E0E4911296EC931297BD
:102DC000ECE1F0E0E4911396EC9313971A8681E01E
:102DD0008C9387E08093A200E0EEF7E083E08183AC
:102DE00086838093B00080E4808BE0E6F6E090E399
:102DF00091839683848B0E942D12DF91CF91089549
:102E000061E08BEA92E20E94E61761E088EA92E2D2
:102E10000E94E6170E94A01685E893E980938393A9
:102E2000909384930E948513D0E00FC08D2F0E9451
:102E30002D138C2F0E94321380E00E940B13CF5F62
:102E4000C038A1F7DF5FD43011F0C0E0EFCF80E4ED
:102E50000E94F512D0E00CC021E040E06C2F8D2FD5
:102E60000E945B14CF5FC038B9F7DF5FD43011F038
:102E7000C0E0F2CF000080E00E942D1386E193E2D3
:102E80000E940B1461E08BEA92E20E94E61761E077
:102E900088EA92E20E94E617E0E5F0E08081826035
:102EA0008083818181FFFDCF81E00E94D01881E085
:102EB0000E94C618E0EEF7E081E0818382E0818322
:102EC00080E18093610665E773E98DE892E20E94F4
:102ED0004B0C789400002BE940E060EA74E085E850
:102EE00095E90E94F118000000000000A12CB12C0F
:102EF000C12CD12CE12CF12C00E020E030E044EF9B
:102F000051E06BE173E286E596E10E94E70720E07D
:102F100030E048EC50E06EE173E28AED92E10E940D
:102F2000E7070E94EF08FFCF83E08093E60780E386
:102F30008093660682E08093E50780E180936506D2
:102F4000089583E08093E60780E38093660681E03E
:102F50008093E5071092650608958DE892E20E943D
:102F6000050B811102C081E101C082E293E09093E0
:102F7000E60790E390936606982F93709093E50789
:102F800080738093650608958DE892E20E945F0C3D
:102F9000089508950F93202B611102C000E001C035
:102FA00000E8202B411102C000E001C000E4202B0A
:102FB0003FB7F894DC0112964C9112974093B00001
:102FC000ED91FC91208B3FBF0F910895662381F016
:102FD000DC01ED91FC91119721E030E0A9011296FE
:102FE0000C9002C0440F551F0A94E2F741830895E4
:102FF000DC01ED91FC91119721E030E0A9011296DE
:103000000C9002C0440F551F0A94E2F742830895C2
:10301000DC01ED91FC91119721E030E0A9011296BD
:103020000C9002C0440F551F0A94E2F7458308959F
:10303000DC01ED91FC91119721E030E0A90112969D
:103040000C9002C0440F551F0A94E2F7468308957E
:10305000DC01ED91FC911197208530E0F901129689
:103060000C9002C0F595E7950A94E2F7CF018170C4
:1030700008951F920F920FB60F9211240F900FBE5A
:103080000F901F9018951F920F920FB60F92112458
:103090000F900FBE0F901F9018951F920F920FB6B2
:1030A0000F9211240F900FBE0F901F9018951F9232
:1030B0000F920FB60F9211240F900FBE0F901F901A
:1030C00018951F920F920FB60F9211240F900FBEFA
:1030D0000F901F9018951F920F920FB60F92112408
:1030E0000F900FBE0F901F9018951F920F920FB662
:1030F0000F9211240F900FBE0F901F9018951F92E2
:103100000F920FB60F9211240F900FBE0F901F90C9
:1031100018951F920F920FB60F9211240F900FBEA9
:103120000F901F9018951F920F920FB60F921124B7
:103130000F900FBE0F901F9018951F920F920FB611
:103140000F9211240F900FBE0F901F9018951F9291
:103150000F920FB60F9211240F900FBE0F901F9079
:1031600018950F93CF93DF931F92CDB7DEB72FB78C
:103170002983F8941BBEFC0108ED04BF608389819C
:103180008FBF0F90DF91CF910F910895E0E5F0E0B0
:103190009081282F209592239083908189230895F0
:1031A0000F931F93CF93C82F00E410E0F8016081C4
:1031B000687F682B80E490E00E94B118F80180815C
:1031C0008C23CF911F910F910895FC019081907FE6
:1031D000692B60830895FC0196819C7F692B66832F
:1031E0000895FC01608371834863DB0111964C9361
:1031F000A081B18115962C930190F081E02D81E0A2
:10320000848308952F923F924F925F926F927F92A4
:103210008F929F92AF92BF92CF92DF92EF92FF92E6
:103220000F931F93CF93DF93CDB7DEB76397CDBFD7
:10323000DEBF6C014B012A01FC01168217828381DB
:1032400081FF43C3AE014F5F5F4F3A01F6019381A7
:10325000F40193FD859193FF81914F01882309F437
:1032600030C3853239F493FD859193FF81914F01ED
:10327000853239F4B60190E00E940B1E52012501FF
:10328000E5CF10E0F12C20E02032A0F48B3269F081
:1032900030F4803259F0833269F420612CC08D32D1
:1032A00039F0803339F4216026C02260246023C0C5
:1032B000286021C027FD27C030ED380F3A3078F460
:1032C00026FF06C0FAE01F9F300D1124132F13C0F4
:1032D0004AE0F49E300D1124F32E20620CC08E3291
:1032E00021F426FDEEC2206406C08C3611F420685D
:1032F00002C0883641F4F40193FD859193FF8191DA
:103300004F018111C1CF9BEB980F933018F42061CE
:10331000805E06C09BE9980F933008F071C12F7E44
:1033200026FF16E02F73322E853619F42064322ED4
:1033300008C0863621F4F22FF0683F2E02C011112A
:10334000115037FE07C01C3350F4EE24E394E10E15
:1033500027E00BC0183038F027E017E005C027E061
:103360004CE3E42E02C0212FE12C520144E0A40ED4
:10337000B11CF20160817181828193810E2DA301C4
:103380000E940D1D2C01098100FF02C003FF07C030
:1033900031FC08C032FE09C030E2232E07C02DE206
:1033A000222E04C09BE2292E01C0212C802F8C707C
:1033B00019F0211068C2A8C237FE0FC0E40C04FF48
:1033C00004C08A81813309F4EA941E1474F5F8E08C
:1033D000FE1578F588E0E82E2CC036FC2AC0812F37
:1033E00090E0841595059CF02CEF42162FEF5206C5
:1033F00074F0432D4068342E0AC0E2E0F0E0EC0F98
:10340000FD1FE10FF11D8081803319F4115011115E
:10341000F4CF37FE0EC0EE24E394E10E812F90E04E
:10342000481659062CF4141904C0EE24E39401C084
:1034300010E037FE06C01414150434F4C2010196DE
:1034400005C085E090E002C081E090E02110019687
:10345000112331F0212F30E02F5F3F4F820F931F58
:103460002F2D30E08217930714F4F81A01C0F12CC5
:10347000832D897049F4FF2039F0B60180E290E095
:103480000E940B1EFA94F7CF222029F0B601822D5C
:1034900090E00E940B1E33FC09C0FF2039F0B601FA
:1034A00080E390E00E940B1EFA94F7CF37FE5AC0DB
:1034B000942D852D57FE02C090E080E0292E382EF5
:1034C00020E030E0A2014E1951094C875D87A2012E
:1034D000421953094E875F87612F70E044275527B3
:1034E000461B570B488B598B5FEF2516350649F461
:1034F000B6018EE290E02A8B3B8B0E940B1E3B892B
:103500002A89421453046CF04C855D85421553059D
:1035100044F4EE85FF85E20FF31FE60DF71D818170
:1035200001C080E351E0251A31082F5F3F4F4889E1
:103530005989241635064CF0B60190E02A8B3B8B56
:103540000E940B1E2A893B89CFCF2414350439F4FD
:103550009A81963318F4953311F404FF81E3B60190
:1035600090E04BC08A81813309F00F7EB60190E074
:103570000E940B1E111105C034FC18C085E690E0B6
:1035800017C0B6018EE290E00E940B1E82E0EE248E
:10359000E394E80EF301E80FF11D8081B60190E09D
:1035A0000E940B1E11508E2D91F7E6CF85E490E01E
:1035B000B6010E940B1E57FC05C04114510439F49A
:1035C00004FF05C05194419451088DE201C08BE283
:1035D000B60190E00E940B1E80E39AE04916510468
:1035E0002CF08F5F5AE0451A5108F7CFB60190E0F2
:1035F0000E940B1EB601C201C0960E940B1E57C14D
:10360000833631F0833779F0833509F058C021C013
:103610005201E2E0AE0EB11CF2018081898301E02B
:1036200010E0230114C05201F2E0AF0EB11CF20110
:103630004080518026FF03C0612F70E002C06FEF11
:103640007FEFC2012A8B0E94F01D8C012A892F77FF
:1036500015C05201F2E0AF0EB11CF2014080518062
:1036600026FF03C0612F70E002C06FEF7FEFC20141
:103670002A8B0E94E51D8C012A892068322E23FDA9
:103680001AC08F2D90E008171907A8F4B60180E240
:1036900090E00E940B1EFA94F4CFF20137FC859162
:1036A00037FE81912F01B60190E00E940B1EF110B0
:1036B000FA94015011090115110579F7F8C0843603
:1036C00011F0893659F5520127FF09C0F4E0AF0E19
:1036D000B11CF20160817181828193810AC0F2E0A4
:1036E000AF0EB11CF20160817181072E000C880BB6
:1036F000990B2F76322E97FF09C090958095709583
:1037000061957F4F8F4F9F4F2068322E2AE030E027
:10371000A3010E94431EE82EE6183FC0022F853702
:1037200021F40F7E2AE030E01DC0097F8F3691F032
:1037300018F4883559F0C5C0803719F0883711F072
:10374000C0C0006104FF09C0046007C024FF08C0B6
:10375000066006C028E030E005C020E130E002C08D
:1037600020E132E0520107FF09C0F4E0AF0EB11CC6
:10377000F201608171818281938108C0F2E0AF0E15
:10378000B11CF2016081718180E090E0A3010E9490
:10379000431EE82EE6180F77302E36FE0BC0332D71
:1037A0003E7FE11650F434FE0AC032FC08C0332DCF
:1037B0003E7E05C00E2D332D03C00E2D01C0012FFE
:1037C00034FF0CC0FE01EE0DF11D8081803311F439
:1037D000397E08C032FF05C00E5F04C0832F867893
:1037E00009F00F5F33FD13C030FF06C01E2D0F150B
:1037F00018F41F0D101B0F2D0F1568F4B60180E291
:1038000090E03B8B0E940B1E0F5F3B89F5CF0F159D
:1038100010F4F01A01C0F12C34FF12C0B60180E39D
:1038200090E03B8B0E940B1E3B8932FF17C031FD9D
:1038300003C088E790E002C088E590E0B6010CC0C4
:10384000832F867859F031FF02C08BE201C080E2FD
:1038500037FD8DE2B60190E00E940B1EE11638F4B0
:10386000B60180E390E00E940B1E1150F7CFEA945E
:10387000F301EE0DF11D8081B60190E00E940B1E58
:10388000E110F5CF14C0F4E0FF1558F584E0F81A04
:1038900033FE1EC0211026C003FF2AC00CEC12E02C
:1038A000F32DF0713F2EF8018491811124C0FF2087
:1038B00009F4E5CCB60180E290E00E940B1EFA9478
:1038C000F6CFF6018681978126C08FEF9FEF23C048
:1038D000B60180E290E00E940B1EFA94F110F8CF3E
:1038E000D9CFF12CB601822D90E00E940B1ED4CFCF
:1038F00000ED12E0D5CF31108052B60190E00E9469
:103900000B1E0F5F1F4FCFCF23E02F1510F483E066
:10391000BECFF12CC1CF6396CDBFDEBFDF91CF917B
:103920001F910F91FF90EF90DF90CF90BF90AF90DD
:103930009F908F907F906F905F904F903F902F90CF
:10394000089597FB072E16F4009407D077FD09D051
:103950000E94DF1C07FC05D03EF4909581959F4F97
:103960000895709561957F4F0895A1E21A2EAA1BC4
:10397000BB1BFD010DC0AA1FBB1FEE1FFF1FA2171F
:10398000B307E407F50720F0A21BB30BE40BF50B1C
:10399000661F771F881F991F1A9469F760957095A5
:1039A000809590959B01AC01BD01CF010895EE0F6C
:1039B000FF1F881F8BBF0790F691E02D1994AA1B5B
:1039C000BB1B51E107C0AA1FBB1FA617B70710F00A
:1039D000A61BB70B881F991F5A95A9F7809590953C
:1039E000BC01CD0108950E94FE1CA59F900DB49FBF
:1039F000900DA49F800D911D11240895A29FB001E8
:103A0000B39FC001A39F700D811D1124911DB29F12
:103A1000700D811D1124911D0895283008F027E0B4
:103A20003327DA01990F311D87FD916000966105FA
:103A3000710539F432602E5F3D9330E32A95E1F74A
:103A400008959F3F30F080387105610509F03C5FB3
:103A50003C5F3D93913008F08068911DDF93CF93D8
:103A60001F930F93FF92EF92192F987F9695E92F4E
:103A700096959695E90FFF27E25DFC4F992733272E
:103A8000EE24FF24A701E70105900894079428F489
:103A9000360FE71EF81E491F511D660F771F881F3E
:103AA000991F0694A1F70590079428F4E70EF81ED5
:103AB000491F561FC11D770F881F991F661F069447
:103AC000A1F70590079428F4F80E491F561FC71F49
:103AD000D11D880F991F661F771F0694A1F70590C7
:103AE000079420F4490F561FC71FD81F990F661F50
:103AF000771F881F0694A9F784911095177041F0DD
:103B0000D695C79557954795F794E7941A95C1F7B9
:103B1000E4EDF2E0689415901591359165919591D9
:103B200005907FE27395E118F10A430B560BC90B20
:103B3000D009C0F7E10CF11E431F561FC91FD01D4D
:103B40007EF4703311F48A95E6CFE894015030F09A
:103B5000080F0AF40027021708F4202F2395022FDC
:103B60007A3328F079E37D932A95E9F710C07D93A5
:103B70002A9589F606949795679537951795179422
:103B8000E118F10A430B560BC90BD00998F02395A5
:103B90007E9173957A3308F070E37C932013B8F725
:103BA0007E9170617D9330F0839571E37D9370E336
:103BB0002A95E1F71124EF90FF900F911F91CF917B
:103BC000DF91992787FD90950895FC01059061503C
:103BD00070400110D8F7809590958E0F9F1F089523
:103BE000FC016150704001900110D8F780959095CC
:103BF0008E0F9F1F0895CF93DF93CDB7DEB7AE0131
:103C0000465F5F4F688579858E819F810E9402198A
:103C1000DF91CF9108950F931F93CF93DF93FB0113
:103C2000238121FD03C08FEF9FEF28C022FF16C024
:103C300046815781248135814217530744F4A0817E
:103C4000B1819D012F5F3F4F208331838C9326816B
:103C500037812F5F3F4F2683378310C0EB01092F39
:103C6000182F0084F185E02D1995892BE1F68E81BE
:103C70009F8101968E839F83812F902FDF91CF911B
:103C80001F910F910895FA01AA27283051F1203190
:103C900081F1E8946F936E7F6E5F7F4F8F4F9F4FE0
:103CA000AF4FB1E03ED0B4E03CD0670F781F891F22
:103CB0009A1FA11D680F791F8A1F911DA11D6A0FF0
:103CC000711D811D911DA11D20D009F468943F91A3
:103CD0002AE0269F11243019305D3193DEF6CF01A2
:103CE0000895462F4770405D4193B3E00FD0C9F768
:103CF000F6CF462F4F70405D4A3318F0495D31FDD5
:103D00004052419302D0A9F7EACFB4E0A695979527
:103D1000879577956795BA95C9F7009761057105FD
:103D200008959B01AC010A2E069457954795379547
:103D30002795BA95C9F7620F731F841F951FA01DA1
:103D40000895DB018F939F930E94F31CBF91AF9165
:103D5000A29F800D911DA39F900DB29F900D1124E5
:103D60000895052E97FB1EF400940E94C81E57FD6F
:103D700007D00E94B51C07FC03D04EF40C94C81E5B
:103D800050954095309521953F4F4F4F5F4F089587
:103D900090958095709561957F4F8F4F9F4F0895B7
:103DA0000E94FE1CB7FF0895821B930B089557FDD8
:103DB00003C05BBF6791089560810895F894FFCFB9
:103DC000EA9805100810201003826C1001FE031001
:103DD0006C8203C8A8980418A0A0780588502050C9
:103DE000880538C030C038051860806018047880B5
:103DF00080F803087C880490A8A84803F8100804F9
:103E0000102828F804F8282810047088887004F80E
:103E10001008F005F808F008F001FE04FE205088B4
:103E200002807A01FA04FE1008F00410A8A87803B2
:103E3000FC12020470A8A83004708888FE04708800
:103E4000888804FE88887004708888F80202040359
:103E500080808003040204038282FE030638C003CC
:103E6000FE828205C2A2928A86050608F00806052F
:103E7000C6281028C6053EC038C03E050E30C030EA
:103E80000E047E80807E050202FE0202044C9292A5
:103E90006404FE1232CC057C82A242BC04FE1212E3
:103EA0000C047C82827C05FE041860FE05FE04087A
:103EB00004FE04FE80808005FE10284482044080B9
:103EC000807E0382FE8204FE1010FE057C829292A8
:103ED000F404FE12120204FE92928204FE82827C9C
:103EE000047C82824404FE92926C05F8141214F849
:103EF00008384492AAAABA2418050402A2120C0493
:103F0000824428100428282828041028448201C448
:103F10000144054C9292927C056C9292926C05023F
:103F200002F20A06057C92929264055E8A8A8A727F
:103F300005302824FE2005448292926C0584C2A29A
:103F4000928C050084FE8000057CA2928A7C03C0CE
:103F5000380601800310101001C003103810032828
:103F6000102803824438033844820106056C92AC61
:103F700040A005462610C8C4054854FE5424052810
:103F8000FE28FE280306000601BE020000CA21C862
:103F900021C421BE21B821B221AC21AA21A621A28F
:103FA000219E219A219821942192218E218821827B
:103FB000217C21762170216A2164215E21582152C1
:103FC0002150214E21492144213F21392130212AEC
:103FD00021252120211B21162111210B210621023F
:103FE00021FD20F720F220EC20E620E120DC20D685
:103FF00020D120CC20C620C120BB20B520AF20A9D5
:1040000020A3209F209B20972093208F208C208707
:104010002082207D20782073206F206A2065206315
:104020002060205B20592053204E20492044203F0F
:10403000203B20362032202D20272021201B201637
:104040002012200E200C2008200220FFFF008310E9
:1040500000000104100000018208000001000000BF
:104060000000000000000000E00701E0070020065B
:104070000720060620060549444C4500554E495880
:104080002054696D657374616D70203A20256C75DC
:104090000D0A0054696D65206173206120626173AF
:1040A000696320737472696E67203D2025730A0D61
:1040B000007468652074656D702069732025660A38
:1040C0000D006C6967687420302031006C69676886
:1040D000742030203000454D4F4E0074340075730D
:0240E00062007C
:00000001FF
