S00F000070656E6775696E2E737265631F
S11300000C9409020C942A020C942A020C942A02DD
S11300100C942A020C942A020C942A020C942A02AC
S11300200C942A020C942A020C942A020C942A029C
S11300300C942A020C942A020C94F0060C942A02C2
S11300400C942A020C942A020C942A020C942A027C
S11300500C942A020C942A020C942A020C942A026C
S11300600C942A020C94A8190C94BC190C94B2197F
S11300700C94C6190C94DA190C94D0190C942A0215
S11300800C942A020C942A020C942A020C942A023C
S11300900C942A020C942A020C942A020C942A022C
S11300A00C942A020C942A020C942A020C942A021C
S11300B00C942A020C942A020C942A020C942A020C
S11300C00C942A020C942A020C942A020C942A02FC
S11300D00C942A020C942A020C942A020C942A02EC
S11300E00C942A020C942A020C94021A0C94161AE8
S11300F00C940C1A0C942A020C942A020C942A02D2
S11301000C942A020C942A020C942A020C942A02BB
S11301100C942A020C942A020C942A020C942A02AB
S11301200C942A020C942A020C942A020C942A029B
S11301300C942A020C942A020C942A020C942A028B
S11301400C942A020C942A020C942A020C942A027B
S11301500C942A020C942A020C942A020C942A026B
S11301600C94E4190C94F8190C94EE190C942A02CA
S11301700C942A020C942A020C942A020C942A024B
S11301800C942A020C942A020C942A020C942A023B
S11301900C942A020C942A020C942A020C942A022B
S11301A00C942A020C942A020C942A020C942A021B
S11301B00C942A020C942A020C942A020C942A020B
S11301C00C942A020C942A020C942A020C942A02FB
S11301D00C942A020C942A020C942A020C942A02EB
S11301E00C942A020C942A020C942A020C942A02DB
S11301F00C942A020C946A120C942A02420D6D0D7E
S1130200440E6D0D440EA80DBF0D440E160E230EA4
S11302100C949B130C946D0D0C94160E0C94230EDD
S11302200C94C2170C94420D0C9417130C94BF0D2C
S11302300C94B3070C94440E0C94DE120C945C0BD7
S11302400C94A80D0C94450C6E616E00696E6600EA
S113025000407A10F35A00A0724E18090010A5D479
S1130260E80000E87648170000E40B54020000CAD6
S11302709A3B000000E1F50500008096980000001C
S113028040420F000000A08601000000102700007B
S11302900000E803000000006400000000000A0001
S11302A0000000000100000000002C76D888DC6704
S11302B04F0823DFC1DFAE59E1B1B796E5E3E4535C
S11302C0C63AE651997696E8E6C28426EB898C9B79
S11302D062ED407C6FFCEFBC9C9F40F2BAA56FA519
S11302E0F490055A2AF75C936B6CF9676DC11BFC9B
S11302F0E0E40D47FEF520E6B500D0ED902E0300B6
S1130300943577050080841E080000204E0A000002
S113031000C80C333333330F986E12831141EF8DC1
S11303202114893BE65516CFFEE6DB18D1844B3801
S11303301BF77C1D901DA4BBE424203284725E2232
S11303408100C9F124ECA1E53D271C034C005500B4
S113035046004100200043004400430020004400C4
S113036065006D006F000000180344006500610023
S11303706E002000430061006D00650072006100A2
S113038000000403090409023E00020100C032090E
S113039004000001020201000524001001042402EB
S11303A0060524060001070582030800FF0904016D
S11303B000020A0000000705040210000507058377
S11303C0021000051201100102000008EB03442092
S11303D001000102DC0153756E4D6F6E5475655753
S11303E06564546875467269536174004A616E4667
S11303F065624D61724170724D61794A756E4A75DC
S11304006C4175675365704F63744E6F76446563D2
S1130410000011241FBECFEFCDBFDFE9DEBF00E037
S11304200CBF13E2A0E0B0E2E4E9F1E400E00BBFAA
S113043002C007900D92AE35B107D9F729E9AEE5B0
S1130440B3E201C01D92A333B207E1F70E94721810
S11304500C94C8200C940000CF93DF93CDB7DEB783
S11304602C97CDBFDEBFBE016F5F7F4F0E9451024C
S11304706091002070910120CE0101960E94080332
S113048080910020909101202C96CDBFDEBFDF919A
S1130490CF91089567E079E90E94510287E099E9D4
S11304A00895CF92DF92EF92FF920F931F93CF9311
S11304B0DF9300D01F92CDB7DEB76C017B01E091D2
S11304C03199F0913299309729F063E179E91995DE
S11304D08C0102C00FEF1FEFF60140815181628150
S11304E073818091139990911499A0911599B09169
S11304F01699480F591F6A1F7B1F101611064CF4DA
S1130500C801012E000CAA0BBB0B480F591F6A1F10
S11305107B1F49835A836B837C83B701CE01019689
S11305200E948F03F701028713872496CDBFDEBF95
S1130530DF91CF911F910F91FF90EF90DF90CF90BB
S11305400895CF92DF92EF92FF920F931F93CF9370
S1130550DF9300D01F92CDB7DEB78C010E946504F3
S113056069837A838B839C83F8018285938597FFC3
S11305700EC0E0913199F0913299309741F063E1E6
S113058079E9CE0101961995F80182879387F801DC
S1130590828593851816190694F4092E000CAA0B6B
S11305A0BB0B49815A816B817C816A017B01C81A2A
S11305B0D90AEA0AFB0AC982DA82EB82FC828981BF
S11305C09A81AB81BC8140911399509114996091A7
S11305D0159970911699841B950BA60BB70B8983FB
S11305E09A83AB83BC83B801CE0101960E94510269
S11305F069817A818B819C812496CDBFDEBFDF9196
S1130600CF911F910F91FF90EF90DF90CF900895BD
S1130610CF92DF92EF92FF920F931F93CF93DF93CA
S11306208C01EB01FC018481B82FBB0FB80F8581CD
S1130630782F770F780F7E019E012C5F3F4F40E0AB
S1130640842F8B0F90E0A0E08A529C4FAF4FFC01A7
S11306505A2F0E94C120F70161937F01842F870FD5
S113066090E0A0E084519C4FAF4FFC015A2F0E94B0
S1130670C120F90161939F014F5F433009F780E284
S11306808F838B83BE01685F7F4FF801838140E2D3
S1130690082E000C990B0E942005BE01655F7F4F58
S11306A0F80182814AE3082E000C990B0E94200570
S11306B0BE01625F7F4FF80181814AE3082E000C7E
S11306C0990B0E942005BE016F5E7F4FF801808167
S11306D040E2082E000C990B0E942005F801868147
S11306E0978164E670E08459984F0E94FF1D6B0166
S11306F07C01BE016C5E7F4F40E2C6010E94200572
S1130700BE016A5E7F4F40E0C701DF91CF911F9128
S11307100F91FF90EF90DF90CF900C942005CF9233
S1130720DF92EF92FF920F931F93CF93DF93CDB796
S1130730DEB72897CDBFDEBF8B01FC0160817181DC
S11307408281938120E831E541E050E00E94131E4C
S113075069017A012CE330E040E050E00E949B20E4
S113076029833A834B835C8389819A81AB81BC81E1
S1130770F80160836CE370E00E94FF1DDC01CB0193
S1130780F801A1838283C601069667E070E00E94A7
S11307903D1E84832DEA3EE840E050E0C701B601E7
S11307A00E949B2029833A836D837E838F8398875D
S11307B089819A8124E6289F6001299FD00C112405
S11307C06D817E818F81988525EB35E040E050E096
S11307D00E949B2029833A836D837E83E980FA807B
S11307E0EE0CFF1CEE0CFF1CEC0CFD1C8D819E819D
S11307F0F5E6EF16F10410F0019604C024E6E216C3
S1130800F10419F021E030E002C020E030E0A90159
S113081044595E4F4817590768F46DE671E0821B2E
S1130820930B0E94FF1DDC01CB01E80EF91ECD01E4
S113083020E030E044E6E40EF11CF801E682F782A1
S113084080879187255C3F4F8217930748F46FE1B7
S113085070E00E94FF1DDC01CB01F801858322C0FA
S113086069E970E0821B930B0E94FF1DDC01CB0140
S1130870F82EFF0CFF0CF80E6DE370E0CD010E9422
S1130880FF1DDC01CB01E82EEE0C6FE170E0CD0121
S11308900E94FF1DDC01CB0122E0280FF20EFE0CAA
S11308A0F801F582A383F8011286138683818F5F92
S11308B083832896CDBFDEBFDF91CF911F910F9127
S11308C0FF90EF90DF90CF9008958F929F92AF9218
S11308D0BF92CF92DF92EF92FF920F931F93CF9329
S11308E0DF93EC01EE81FF818F0104561109B9F009
S11308F0CF01855691096C0197FF03C023E0C20E16
S1130900D11CD594C794D594C7946CE97FEF0E9409
S1130910FF1DC60ED71E8FEFC81AD80A02C0C12CFD
S1130920D12C0D2C000CEE08FF082DE631E0D80187
S11309300E94BA20C60ED71EE81EF91E8B81082E0F
S1130940000C990B8C01015011092D8122302CF4DB
S1130950222379F1015E1F4F2CC0CF018459984F97
S11309600E943A05E82FF0E0FB96E00FF11F8D811D
S1130970082E000C990B02978530910514F0E75668
S1130980FF4F65E070E00E94FF1D9C0197FF02C0CD
S11309902F5F3F4F359527959DE3929FA001939F2D
S11309A0500D11248F01040F151F80FF02C0015E3A
S11309B01F4FA801110F660B770B9A01AB012C0D89
S11309C03D1D4E1D5F1D60E871E581E090E00E94D1
S11309D08B206B017C01AA810A2E000CBB0B20E149
S11309E03EE00E94BA204B015C01A9810A2E000C52
S11309F0BB0B2CE330E00E94BA20DC01CB01880D54
S1130A00991DAA1DBB1D4881042E000C550B660BB5
S1130A10770B840F951FA61FB71FBC01CD016C0D6A
S1130A207D1D8E1D9F1DDF91CF911F910F91FF9012
S1130A30EF90DF90CF90BF90AF909F908F900895EC
S1130A400F931F93CF93DF931F92CDB7DEB78B0124
S1130A506AE070E049830E94FF1D605DF8016083D5
S1130A60805D8183498142830F90DF91CF911F91F3
S1130A700F9108959C0123703327232B59F464E6C6
S1130A8070E00E94FF1D892B39F46370772781E0A1
S1130A90672B19F080E0089581E00895292F33270A
S1130AA02230310559F02330310569F02130310508
S1130AB029F582E190E024EC33E029C08EE390E054
S1130AC026E833E024C099278130910559F082301B
S1130AD0910571F0892BB9F4E2E8F3E0849190E098
S1130AE09F0115C0E8E6F3E0849190E09F010FC0F8
S1130AF0EAE4F3E0849190E09F0109C080E090E093
S1130B0020E030E004C080E090E020E030E0FA0132
S1130B1020833183089531E1FC013083319722E24F
S1130B2020833197A3E3A083319760833197708347
S1130B303197108231971082319760E86083319742
S1130B401082319762E06083319763E0608331976C
S1130B5064E06083319765E06083319766E0608389
S1130B60319767E06083319768E06083319769E08B
S1130B706083319760E1608331973083319732E14C
S1130B803083319733E13083319734E130833197C7
S1130B9035E13083319736E13083319737E1308363
S1130BA0319738E13083319739E13083319730E23E
S1130BB03083319731E2308331972083319723E2B8
S1130BC020833197408331975083319726E22083E5
S1130BD0319727E22083319728E22083319729E255
S1130BE02083319720E32083319721E32083879763
S1130BF0089565E080E098E00E94541A83EF91E044
S1130C00809326089093270861E080E098E00E9492
S1130C105A1AE0EAF0E0828181608283A091B19364
S1130C20B091B293CD91CDBFDD91DEBFFF91EF9135
S1130C30DF91CF91BF91AF919F918F917F916F91F0
S1130C405F914F913F912F911F910F91FF90EF90E2
S1130C50DF90CF90BF90AF909F908F907F906F90D8
S1130C605F904F903F902F901F900F900FBE0F906A
S1130C70089581E008950F920FB6F8940F921F9291
S1130C8011242F923F924F925F926F927F928F9294
S1130C909F92AF92BF92CF92DF92EF92FF920F9307
S1130CA01F932F933F934F935F936F937F938F93F0
S1130CB09F93AF93BF93CF93DF93EF93FF93A09151
S1130CC0B193B091B2930DB60D920EB60D920E94EF
S1130CD09C0AA091B193B091B293CD91CDBFDD9117
S1130CE0DEBFFF91EF91DF91CF91BF91AF919F91C3
S1130CF08F917F916F915F914F913F912F911F91B0
S1130D000F91FF90EF90DF90CF90BF90AF909F90A6
S1130D108F907F906F905F904F903F902F901F9097
S1130D200F900FBE0F9008950F920FB6F8940F9284
S1130D301F9211242F923F924F925F926F927F9253
S1130D408F929F92AF92BF92CF92DF92EF92FF92D7
S1130D500F931F932F933F934F935F936F937F93BF
S1130D608F939F93AF93BF93CF93DF93EF93FF93AF
S1130D70A091B193B091B2930DB60D920EB60D92AF
S1130D800E94240981110E949C0AA091B193B09100
S1130D90B293CD91CDBFDD91DEBFFF91EF91DF9195
S1130DA0CF91BF91AF919F918F917F916F915F91FF
S1130DB04F913F912F911F910F91FF90EF90DF90F2
S1130DC0CF90BF90AF909F908F907F906F905F90E7
S1130DD04F903F902F901F900F900FBE0F9008954B
S1130DE00E9494061895CF93DF93EC010E941E098C
S1130DF08091602390916123892B31F485E693E2FD
S1130E008093602390936123209162233091632324
S1130E10CE01820F931F8F3F4FE6940770F428177B
S1130E20390770F4C0916023D0916123C20FD31F9E
S1130E30809362239093632305C0C0E0D0E002C096
S1130E40C0E0D0E00E94FA09CE01DF91CF9108956D
S1130E500895FC010396818392832FEF3FEF238350
S1130E603483858396838783908710820895FC0159
S1130E70108611860895CF93DF939C01FB01DC015A
S1130E801196CD91DC911297C283D3838C819D817D
S1130E90848395838C819D81DC0112966D937C9370
S1130EA013976C837D8320873187F90180818F5F5D
S1130EB08083DF91CF910895CF93DF93EB01488135
S1130EC059814F3F2FEF520721F4FC01A781B085D0
S1130ED00DC0DC01139601C0DF011296ED91FC9167
S1130EE013972081318142175307B0F71296ED9181
S1130EF0FC911397EA83FB83C483D583AC83BD83BE
S1130F001296CD93DC93139788879987FC012081EF
S1130F102F5F2083DF91CF910895CF93DF93FC015E
S1130F20A085B185C281D381848195818C839D8381
S1130F30C481D581828193818A839B831196CD91CB
S1130F40DC911297CE17DF0731F48C819D811196C5
S1130F508D939C931297108611868C9181508C935B
S1130F60DF91CF910895FFCFCF93DF93EC01E09110
S1130F70B193F091B2938283938380916B93909118
S1130F806C93C817D90768F46091B1937091B293C8
S1130F9080917793909178936E5F7F4F0E945C0766
S1130FA017C06091B1937091B293809179939091AD
S1130FB07A936E5F7F4F0E945C0780918B229091A1
S1130FC08C22C817D90720F4C0938B22D0938C228B
S1130FD0DF91CF9108954F925F926F927F928F929B
S1130FE09F92AF92BF92CF92DF92EF92FF920F93B4
S1130FF01F93CF93DF934C01EB015A01290181E246
S113100090E00E94F3063C01009709F4DAC0C11491
S1131010D10409F0D2C0C5010E94F306F301878B05
S1131020908F892B21F4C3010E942807CAC0F1E0E4
S1131030AF1AB108F3018789908DA80EB91E888173
S1131040818F8881882381F0D3015A96FE013196DD
S11310509E01285F3F4FEF0181918D938881882302
S113106019F0E217F307B9F7F30110A2102F0430B7
S113107008F013E0F301168BE3012296CE010E94DF
S11310803707C3010C960E943707F3016086718607
S113109084E090E0811B910984879587628A738A32
S11310A0A201B401C5010E948B05F30180839183E1
S11310B0E114F10419F0F701608271820FB6F8941B
S11310C00F9280916D938F5F80936D938091B19314
S11310D09091B293892B89F56092B1937092B293F7
S11310E080916D938130C1F58DE893E90E942907C1
S11310F086E993E90E9429078FE993E90E94290769
S113110088EA93E90E94290784E893E90E94290761
S11311108BE793E90E9429078EE693E90E94290749
S113112084E893E98093799390937A938BE793E996
S113113080937793909378930FC0809169938111F2
S11311400BC0E091B193F091B2938689081720F017
S11311506092B1937092B293809165938F5F809304
S11311606593F301868990916A93981710F480939C
S11311706A9390E09C01220F331F220F331F220F2A
S1131180331F820F931FBE0183579C460E943B0767
S11311900F900FBE80916993882359F0E091B19329
S11311A0F091B2938689801730F40E943B0681E067
S11311B009C081E007C081E005C0FC01C78AD08E68
S11311C036CF8FEFDF91CF911F910F91FF90EF906A
S11311D0DF90CF90BF90AF909F908F907F906F9053
S11311E05F904F900895AF92BF92CF92DF92EF92AB
S11311F0FF920F93A12CB12CC12CD12CE12CF12CFA
S113120000E020E030E044E650E06FEC72E283EB73
S113121097E00E94EB07813049F4F8948093699336
S113122010926B9310926C930E94F9050F91FF90AA
S1131230EF90DF90CF90BF90AF900895809164932A
S11312408F5F809364930895DF92EF92FF920F93E0
S11312501F93CF93DF93809164938111B6C08091E3
S11312606B9390916C93019680936B9390936C9392
S1131270E0906B93F0906C93E114F10499F58091F4
S1131280799390917A9320917793309178932093E6
S1131290799330937A938093779390937893809112
S11312A066938F5F80936693E0917993F0917A933C
S11312B08081811107C08FEF9FEF80938B229093E1
S11312C08C2210C0E0917993F0917A930580F68195
S11312D0E02D0680F781E02D8281938180938B221B
S11312E090938C2280918B2290918C22E816F9069F
S11312F010F4D12C52C0D12CE0917993F0917A93CF
S11313009081911107C08FEF9FEF80938B22909370
S11313108C2243C0E0917993F0917A930580F68111
S1131320E02DC681D7812A813B81E216F30628F499
S113133020938B2230938C2230C08E010E5F1F4F7E
S1131340C8010E948D078C899D89892B21F0CE01CB
S11313500C960E948D072E8980916A93821710F44F
S113136020936A9330E0C901880F991F880F991F51
S1131370880F991F820F931FB80183579C460E94C0
S11313803B07E091B193F091B2939E8986899817B7
S113139008F4B2CFDD24D394AFCFE091B193F091B0
S11313A0B293868990E0FC01EE0FFF1FEE0FFF1F42
S11313B0EE0FFF1F8E0F9F1FFC01E357FC46808139
S11313C0823048F0DD24D39406C0809168938F5F07
S11313D080936893D12C80916793882311F0DD2446
S11313E0D3948D2DDF91CF911F910F91FF90EF90AA
S11313F0DF900895DF92EF92FF920F931F93CF93A4
S1131400DF930FB6F8940F92809164938150809388
S1131410649380916493811162C080916D93811172
S113142033C060C0D7011596ED91FC911697C68123
S1131430D781CE010C960E948D078E010E5F1F4F3F
S1131440C8010E948D072E8980916A93821710F437
S113145020936A9330E0C901880F991F880F991F60
S1131460880F991F820F931FB80183579C460E94CF
S11314703B07E091B193F091B2939E8986899817C6
S113148058F0D092679308C00F2EFEE6EF2EF3E9D2
S1131490FF2EF02DDD24D394F70180818111C2CF7A
S11314A080916893882399F080916893882379F0D8
S11314B0C1E00E9424098111C093679380916893CD
S11314C0815080936893809168938111F2CF8091C9
S11314D06793813031F40E943B0681E003C080E0D1
S11314E001C080E00F900FBEDF91CF911F910F914B
S11314F0FF90EF90DF900895CF93DF93EC01892B59
S1131500B1F00E941E0980916B9390916C93C80F67
S1131510D91F8091B1939091B29302960E948D0746
S1131520CE010E94B4070E94FA09811102C00E94F0
S11315303B06DF91CF91089580916493882321F035
S113154081E08093679308951092679380916A93E2
S113155090E0FC01EE0FFF1FEE0FFF1FEE0FFF1FC9
S11315608E0F9F1FFC01E357FC468081811117C039
S113157080916A93815080936A9380916A9390E0FA
S1131580FC01EE0FFF1FEE0FFF1FEE0FFF1F8E0F6C
S11315909F1FFC01E357FC468081882349F3809117
S11315A06A9390E09C01220F331F220F331F220FF6
S11315B0331F280F391FD901A357BC461196ED914B
S11315C0FC9112970280F381E02D1196ED93FC9328
S11315D0129720573C46E217F30729F422813381FE
S11315E0FD0121833283FC01EE0FFF1FEE0FFF1F6D
S11315F0EE0FFF1F8E0F9F1FFC01E357FC46018077
S1131600F281E02D868197818093B1939093B29378
S11316100895CF93DF93EC01FC0170968BE0DF011A
S11316201D928A95E9F782E08C83898783E08E870F
S113163061E0CE0101960E94FF10882361F061E011
S1131640CE0106960E94FF10882329F061E0CE01A6
S11316500B960E94FF10DF91CF910895CF93FC0168
S11316609091CB95943019F584899589A689B78989
S1131670892B8A2B8B2BE9F0C62F81810E94EE0FD8
S11316808091D4959091D595FC01EF5BFF4F20811B
S113169031978081281730F00E94A60F0E94AE1166
S11316A0811108C08C2F0E94DE0F80E003C082E00D
S11316B001C082E0CF910895FB01682F8485958550
S11316C00E942E0B21E030E0811102C020E030E0C6
S11316D088279927821B930B0895CF93DF93FC01EE
S11316E09091CB959430F1F584899589A689B78931
S11316F0892B8A2B8B2BC1F181810E94EE0F809163
S1131700D89588234CF4E091D495F091D595EF5B6E
S1131710FF4F808190E00DC02091D4953091D595F4
S1131720F901E05CFF4F80813196208190E0821BBB
S11317309109892BD9F08091D4959091D595FC018C
S1131740EF5BFF4FD0813197C0810E94A60FDC1759
S113175078F00E94AE11C82F81110CC00E94A60F10
S11317608C2F08C082E006C082E004C080E002C082
S113177080E000C0DF91CF910895CF93DF93FC0107
S11317809091CB95943099F484899589A689B789E9
S1131790892B8A2B8B2B59F0EF0181810E94EE0F4C
S11317A00E942E10882319F0CE010E946D0BDF9148
S11317B0CF910895CF93DF932091CB95243009F0F6
S11317C056C0FC014489558966897789452B462B87
S11317D0472B09F44FC086810E94EE0F0E943B10F4
S11317E0882309F44AC08091D89588234CF4E09169
S11317F0D495F091D595EF5BFF4F808190E00DC0BB
S11318002091D4953091D595F901E05CFF4F80810A
S11318103196208190E0821B9109892B29F00E9446
S1131820CE0FC82FD0E002C0CFEFDFEF8091D89564
S113183088234CF4E091D495F091D595EF5BFF4F5C
S1131840208130E00DC04091D4955091D595FA0196
S1131850E05CFF4F20813196808130E0281B310904
S1131860232B71F40E94BF0F8C2F9D2F0BC08FEF81
S11318709FEF08C08FEF9FEF05C08FEF9FEF02C06F
S11318808C2F9D2FDF91CF910895FC018485958540
S11318900E94DA0B992314F48EEF9FEF0895FB0155
S11318A02EE0DB011D922A95E9F723E023832CE542
S11318B03BE02087318725E43CE022873387848717
S11318C0958708950895FF920F931F93CF93DF9305
S11318D0EC010E945510882309F49BC0288130E054
S11318E08091D0959091D1958217930709F091C07A
S11318F08091CD95813259F018F4803281F189C0FC
S1131900823209F467C0833209F476C082C08091C0
S1131910CC95813A09F07DC00E946F100E942E1070
S11319208823E1F38C89FD880E891F890E94DE0FCC
S11319308F2D0E94DE0F802F0E94DE0F812F0E94C8
S1131940DE0F888D0E94DE0F898D0E94DE0F8A8D46
S11319500E94DE0F0E94A60F0E9493115AC080912C
S1131960CC95813209F055C00E946F1005C080915A
S1131970CB95882309F44DC00E943B108823B9F30A
S11319800E94CE0FF82E0E94CE0F182F0E94CE0F69
S1131990082F0E94CE0F402F50E060E070E0BA01A3
S11319A055274427782B4F29512B4C8B5D8B6E8BFD
S11319B07F8B0E94CE0F888F0E94CE0F898F0E944A
S11319C0CE0F8A8F0E94BF0F0E949311CE010E94F6
S11319D0620C1FC08091CC958132D9F40E946F10A3
S11319E00E9493118091CE959091CF95888B998B7D
S11319F0CE010E9438190DC08091CC95813249F4F2
S1131A000E946F100E9493116091CE95CE010E94A6
S1131A10620CDF91CF911F910F91FF900895EF9287
S1131A20FF920F931F93CF93DF93CDB7DEB7EA975F
S1131A30CDBFDEBF0CEC15E90F2EF4EDEF2EF5E96A
S1131A40FF2EF02D0E94CE0FF80181938F01EE1529
S1131A50FF05C1F70E9433190E945510882309F429
S1131A6013C1ECECF5E920813181832F90E08A30B9
S1131A70910508F009C1FC018827E250FF4F8F4F00
S1131A800C94351E203821F0223809F0FDC008C01E
S1131A901091C8958091C995882391F0126010C067
S1131AA08091D0958F700E94EE0FE091D695F091C1
S1131AB0D795118112FB112710F980E00E94EE0FD7
S1131AC00E946F10812F0E94DE0F80E00E94DE0FC3
S1131AD00E94A60F0E949311D7C0222309F4DDC0EF
S1131AE0223009F0D1C0DEC081E0333009F080E05B
S1131AF08093C99525C0E091D0951E2F1F7009F4DD
S1131B00C3C0812F0E94EE0F8091CD95833019F4CC
S1131B100E949D1015C0E091D695F091D7958181D2
S1131B208B7F818324E8129FF0011124E65EF9463D
S1131B301082E091D695F091D79580818E7F808335
S1131B4080E00E94EE0F0E946F100E9493119CC0CF
S1131B5021119AC01091CE951F770E946F100E9498
S1131B6093110E942E108823E1F31093C3041111E2
S1131B7002C082E001C083E08093CB9585C02058E9
S1131B80223008F081C08091CE959091CF958C3D04
S1131B90E3E09E07B9F583E08A838AE389837FB70C
S1131BA0F894AE014D5F5F4F20E038E0A0ECB1E067
S1131BB062E01A966C931A97E32FF0E084911A96D8
S1131BC01C921A9720FF03C082958F703F5F8F701D
S1131BD08A3018F090E0C79602C090E0C096FA01EF
S1131BE081939193AF012F5F2C3119F77FBF0E942E
S1131BF06F106AE370E0CE0101960E94770E0E9496
S1131C00BF0F42C0AE014F5F5F4F6091D0950E94FD
S1131C104E058C01892BC1F10E946F10B801898196
S1131C209A810E940D0F0E94BF0F2EC0203861F5CB
S1131C300E946F108091C7950E94DE0F0E94A60F2C
S1131C400E94931121C021111FC08091CE95823032
S1131C50D8F40E946F108091CE958093C7950E940E
S1131C6093118091C795882321F084E08093CB95CC
S1131C7009C08091C304811102C081E001C084E0E5
S1131C808093CB950E941C190E945510882381F0E3
S1131C900E946F100E949D100BC08091CE958130E0
S1131CA099F722CF8091CE95882309F424CF48CF89
S1131CB0EA96CDBFDEBFDF91CF911F910F91FF90C8
S1131CC0EF9008950895CF938091CB95882369F080
S1131CD0C091D89580E00E94EE0F0E9455108111AA
S1131CE00E940F0D8C2F0E94EE0FCF910895CF927A
S1131CF0DF92EF92FF920F931F93CF93DF93C82E3F
S1131D00D92E8B018091D89580680E94EE0FC091E6
S1131D10D295D091D395C017D10740F00115110584
S1131D2021F40E94A60FE80101C0E801EC2CFD2C6F
S1131D30D12C49C08091CB95882309F45AC08530B1
S1131D4009F459C00E945510811157C00E943B10DC
S1131D50811149C00E942E108823A9F18091D89541
S1131D60882374F4E091D495F091D595EF5BFF4FFF
S1131D70008110E02097F9F00830110578F01BC0BD
S1131D808091D4959091D595FC01E05CFF4F008142
S1131D903196808110E0081B1109ECCFF701819185
S1131DA07F010E94DE0F21970F5F1F4F209719F0CC
S1131DB00830110599F7DD24D3940830110509F092
S1131DC0D12C0E94A60F209709F0B4CFD110B2CF26
S1131DD00AC08091CB95882391F0853091F00E94C0
S1131DE05510811110C00E943B10882391F380E0AC
S1131DF00BC082E009C083E007C081E005C082E037
S1131E0003C083E001C081E0DF91CF911F910F9166
S1131E10FF90EF90DF90CF900895DF92EF92FF92C2
S1131E200F931F93CF93DF93E82EF92E8B018091AC
S1131E30D89580680E94EE0FC091D295D091D39529
S1131E40C017D10740F00115110521F40E94A60F17
S1131E50E80101C0E8010E2D1F2DD12C4EC0809148
S1131E60CB95882309F45FC0853009F45EC00E94D5
S1131E70551081115CC00E943B1081114EC00E941C
S1131E802E108823D1F18091D89588237CF4E09199
S1131E90D495F091D595EF5BFF4FE080F12C20971E
S1131EA019F188E0E816F10478F01EC08091D49509
S1131EB09091D595FC01E05CFF4FE08031968081E4
S1131EC0F12CE81AF108EBCFF80184910E94DE0F9F
S1131ED00F5F1F4F2197FFEFEF1AFF0A209721F0A2
S1131EE088E0E816F10481F7DD24D394E8E0EE16E7
S1131EF0F10409F0D12C0E94A60F209709F0AFCF6E
S1131F00D110ADCF0AC08091CB95882391F0853054
S1131F1091F00E945510811110C00E943B1088233B
S1131F2091F380E00BC082E009C083E007C081E048
S1131F3005C082E003C083E001C081E0DF91CF915E
S1131F401F910F91FF90EF90DF900895E091D69547
S1131F50F091D795A091D495B091D595AF5BBF4F33
S1131F608C9190E08283938380818D798083E0914A
S1131F70D495F091D595EF5BFF4F10820895E091D1
S1131F80D695F091D79580818D798083E091D49511
S1131F90F091D595EF5BFF4F108208958091D49511
S1131FA09091D595FC01EF5BFF4F208131E0320F1A
S1131FB03083FC01E20FF11D808108952091D495B6
S1131FC03091D595F901EF5BFF4F908141E0490FC6
S1131FD04083F901E90FF11D808308958093D8951A
S1131FE0282F2F7030E04091C6045091C7048823F5
S1131FF0E4F464E8629FC001639F900D1124855E40
S113200099468093D4959093D595C90182959295DC
S1132010907F9827807F982708969A01280F391F68
S11320202093D6953093D795089564E8629FC001B4
S1132030639F900D112487529A468093D495909370
S1132040D59522953295307F3227207F3227240F71
S1132050351F2093D6953093D79508958091D895C0
S113206080680E94EE0FE091D695F091D79580811B
S11320708695817008958091D8958F770E94EE0F90
S1132080E091D695F091D795808185FF0CC0809121
S1132090D4959091D59522813381FC01E05CFF4F6A
S11320A0208381E0089580E008958091D8958F770A
S11320B00E94EE0FE091D695F091D795808184FF30
S11320C00CC08091D4959091D59522813381FC01E7
S11320D0E05CFF4F208381E0089580E008958091C3
S11320E0D8958F770E94EE0FE091D695F091D79511
S11320F080818D788083E091D695F091D795808109
S113210081608083E091D495F091D595EF5BFF4F8A
S113211010828091D89580680E94EE0FE091D69548
S1132120F091D795808181608083E091D495F0917E
S1132130D595EF5BFF4F10820895E091D695F0910D
S1132140D795818184608183E091D695F091D7956C
S11321508181807C803461F48091D89580580E947C
S1132160EE0FE091D695F091D795818184608183BB
S113217008951F93CF93DF93D82F162FC42F0E9457
S1132180EE0FE091D695F091D7951182E091D69516
S1132190F091D795DD23A4F01082E091D695F091CB
S11321A0D7951183E091D695F091D7951282138239
S11321B08091D4959091D5958483958340E014C003
S11321C082E08083E091D695F091D7951183E091D8
S11321D0D695F091D795128213828091D4959091DF
S11321E0D595848395834C2FFC01E05CFF4F40839D
S11321F03196108281E0DF91CF911F910895AF92C3
S1132200BF92CF92DF92EF92FF920F931F93CF93DF
S1132210DF93662309F457C0A62E7C018C0184E069
S1132220E80EF11CB12CF801C080CC2009F441C0A7
S1132230C181D281F70131978081F7019081923079
S113224010F448E001C048E1C930D10550F028E05D
S113225030E090E09F5F220F331F2C173D07D0F32F
S113226001C090E0942B2C2D2F7030E025303105E7
S113227064F59F7EC134D10550F5882319F081306F
S113228021F006C09064D92E07C0906CD92E0AC0E4
S11322909068D92E811106C04C2F6D2D80E88C0DCD
S11322A00E94B9104C2F6D2D8C2D0E94B9108823DB
S11322B079F0B3940B5F1F4FF5E0EF0EF11CBA10E9
S11322C0B2CF81E005C081E003C080E001C080E0BE
S11322D0DF91CF911F910F91FF90EF90DF90CF90FE
S11322E0BF90AF90089520E030E0A0ECB4E01696E3
S11322F0ED91FC911797C90182959295907F98274B
S1132300807F9827E80FF91F118616964D915C91EE
S11323101797FA01E80FF91F11822F5F3F4F2530FD
S1132320310529F708958091CC95882384F404C05D
S11323308091CB95882389F00E943B108823C1F3B8
S11323400E94BF0F08958091CB95882331F00E949D
S11323502E108823C1F30E94A60F0895FF920F93B5
S11323601F93CF93DF93E091C604F091C704E05B21
S1132370FF4FC081D1810F2EF4E6FF2EF02D00EC2B
S113238014E002C0F22EEC018091D89588232CF43D
S11323900E942E10882329F023C00E943B10811133
S11323A021C08091CB958823F9F08530F9F0E09134
S11323B0D695F091D795818182FD1AC0D8011696E1
S11323C0ED91FC911797E05BFF4F80819181C817D5
S11323D0D907C9F22FEF2F0DF110D4CF84E009C033
S11323E080E007C080E005C082E003C083E001C054
S11323F081E0DF91CF911F910F91FF900895CF93CA
S1132400DF93E0E4F0E014828481836084830E949B
S11324105D120E946412C0ECD4E088818F778883B7
S11324208881806888831092CB951092C79510920A
S1132430C9951092C89588818064888348E068E4CF
S113244080E80E94B91048E068E480E00E94B91076
S1132450888580648887898181608983DF91CF91B1
S11324600895CF93DF932FB7F894C0ECD1E082E0C6
S11324708A87EAE1F0E0E491A0ECB4E0DA96EC9328
S1132480DA97EBE1F0E0E491DB96EC93DB971A86C4
S11324908EE698E98E7F16968D939C93179784E128
S11324A08C9383E018968C932FBF81E08093CA9518
S11324B00E94FF11DF91CF910895E0ECF4E0808554
S11324C08370808711860895E0ECF4E08FEF8287B3
S11324D0848708951F920F920FB60F9211240BB6A2
S11324E00F922F933F934F935F936F937F938F93A9
S11324F09F93AF93BF93EF93FF938091CA04882374
S11325004CF48091C80488232CF480E88093CA0496
S11325100E94620E8091CA0486FF07C080E4809303
S1132520CA041092CB950E9410198091CA0485FFA9
S113253016C080E28093CA048091C795882321F055
S113254084E08093CB9509C08091C304811102C0BB
S113255081E001C083E08093CB950E9403198091B0
S1132560CA0484FF18C0E0ECF4E080E1828782E0D2
S11325708093CB951092C79513820E94731148E003
S113258068E480E80E94B91048E068E480E00E94B2
S1132590B9100E94620EFF91EF91BF91AF919F918C
S11325A08F917F916F915F914F913F912F910F90F8
S11325B00BBE0F900FBE0F901F90189588EC90E003
S11325C00E947C0A8091B693882329F081EB92E2E1
S11325D00E94771904C081EB92E20E9487198091CE
S11325E0B593882329F08EEA92E20E94771904C0F9
S11325F08EEA92E20E9487198091B493882329F08D
S11326008BEA92E20E94771904C08BEA92E20E945C
S113261087198091B393882329F088EA92E20E9473
S11326207719CCCF88EA92E20E948719C7CF61E07C
S113263081EB92E20E94551961E08EEA92E20E94D7
S1132640551961E08BEA92E20E94551961E088EA2B
S113265092E20E94551900E028E140E060E088EA37
S113266092E20E94391907E028E140E060E08DEB36
S113267092E20E94391928E140E060E08AEB92E29C
S11326800E94391900E028E140E060E087EB92E223
S11326900E94391928E140E060E084EB92E20E9454
S11326A03919C1E084E690E00E947C0A8DEB92E245
S11326B00E94971981110BC08DEB92E20E94971929
S11326C08823D1F38091B6938C278093B6938AEBB9
S11326D092E20E94971981110BC08AEB92E20E9448
S11326E097198823D1F38091B5938C278093B59360
S11326F087EB92E20E94971981110BC087EB92E25B
S11327000E9497198823D1F38091B4938C278093E6
S1132710B49384EB92E20E9497198111C3CF84EBA6
S113272092E20E9497198823D1F38091B3938C2766
S11327308093B393B7CF0E941E098DE892E20E9462
S1132740BD0B0E94630E0E94FA0981E090E00E9492
S11327507C0AF1CFFC01818185FFFDCF60838181FB
S113276086FFFDCF80E48183808108951F93CF93FA
S1132770DF93C0EAD6E018E01E83E0E6F6E091E0DD
S113278096839683682F80EA99E00E94AA131D839A
S1132790DF91CF911F910895EF92FF920F931F93B2
S11327A0CF93DF93C0EAD6E018E01E830F2EF0E645
S11327B0EF2EF6E0FF2EF02D01E0F7010583682FE0
S11327C080EA99E00E94AA13F70106831D83DF9132
S11327D0CF911F910F91FF90EF9008958770806BB8
S11327E00E94B6130895CF93C82F982F9F77892FEF
S11327F082958F7080610E94B6138C2F8F700E9417
S1132800B613CF910895CF93DF93D0E00FC08D2FEF
S11328100E94EE138C2F0E94F31380E00E94CC13CD
S1132820CF5FC038A1F7DF5FD43011F0C0E0EFCF45
S1132830DF91CF910895CF93DF93EC01FB018C815D
S11328408F7E8C83A0E6B6E082E011968C9311977C
S113285015968C938D81806C8D8384818D7F8130DE
S113286021F48D8182608D8303C08D818D7F8D8362
S11328708581882321F08D8184608D8303C08D81BF
S11328808B7F8D8380819181A281B3819C01AD0175
S1132890220F331F441F551F60E078E488EE91E057
S11328A00E94131E21503109832F8F708F832E8332
S11328B08C8188608C83DF91CF910895CF93DF93CF
S11328C000D000D0CDB7DEB720EA36E088E0D901E9
S11328D011968C93A0E6B6E091E011969C93119723
S11328E0E0E0F6E0818392E011969C9311971196B3
S11328F08C93D90115968C938683BAE6BA95F1F731
S113290000C08583EAE6EA95F1F700C0E0E7F0E06D
S113291084818F7E848380E09BE1A7EBB0E0898390
S11329209A83AB83BC831D821E82BE016F5F7F4F7F
S113293080EA99E00E941B1488EA0E94B6138FE192
S11329400E94B61383ED0E94B61380E00E94B61372
S113295080E40E94B61381EA0E94B61388EC0E94B8
S1132960B6138AED0E94B61382E00E94B61381E882
S11329700E94B6138FE80E94B61384EA0E94B6132D
S113298086EA0E94B61385ED0E94B61380E80E9481
S1132990B6138DE80E94B61384E10E94B6138BED42
S11329A00E94B61380E40E94B61389ED0E94B61308
S11329B081EF0E94B6138FEA0E94B6132696CDBF0C
S11329C0DEBFDF91CF910895EF92FF920F931F9393
S11329D0CF93DC01EC91EE2329F17C01BFEFEB1ADC
S11329E0FB0AEF37D0F4F0E0EE0FFF1FE357FE4D84
S11329F000811181F8018081882361F0C1E0F80130
S1132A00EC0FF11D80810E94CC13CF5FD8019C9103
S1132A109C17A8F780E00E94CC13D701ED917D01AB
S1132A20E111DFCFCF911F910F91FF90EF900895A7
S1132A3020E8829FC0011124860F911DE091C59367
S1132A40F091C693E80FF91F4083089520E8829F10
S1132A50C0011124860F911DE091C593F091C69396
S1132A60E80FF91F808108951F93CF93DF93182FE8
S1132A70D62FC42F211104C00E9426158C1771F083
S1132A804C2F6D2F812F0E941815812F0E94EE1359
S1132A908D2F0E94F3138C2F0E94CC13DF91CF91C2
S1132AA01F9108950F9307E020E140E060E089EC76
S1132AB092E20E9439190F91089561E089EC92E243
S1132AC00E94551960E089EC92E20E94551961E078
S1132AD08CEC92E20E94551961E086EC92E20E942D
S1132AE055190E94521508951F93CF93DF93182F01
S1132AF061E089EC92E20E945519C8E0D0E010FF31
S1132B0005C089EC92E20E94771904C089EC92E234
S1132B100E94871981E090E00E947C0A8CEC92E28A
S1132B200E94771981E090E00E947C0A8CEC92E28A
S1132B300E9487191695219711F760E089EC92E2BB
S1132B400E945519DF91CF911F9108951F93CF9340
S1132B50DF9360E089EC92E20E945519C0E0D0E076
S1132B6010E089EC92E20E949719282F30E00C2E95
S1132B7002C0220F331F0A94E2F7122B81E090E087
S1132B800E947C0A8CEC92E20E94771981E090E02A
S1132B900E947C0A8CEC92E20E9487192196C8302C
S1132BA0D105F9F6812FDF91CF911F910895CF932D
S1132BB0DF93D82FC62F80910099882331F010928B
S1132BC0009960E08EE80E94D71586EC92E20E949C
S1132BD0771984E090E00E947C0A8D2F0E9474157E
S1132BE08C2F0E94741584E090E00E947C0A86EC8D
S1132BF092E20E948719DF91CF910895EF92FF929C
S1132C000F931F93CF93DF9300D01F92CDB7DEB7FE
S1132C1069837A838B839C83CE0101960E944A0246
S1132C207C010000FC01608117E66102812D112402
S1132C308595859567FD8395282F220F922F990FEF
S1132C40990F920F691BF0E18F9F600D112480E8AA
S1132C500E94D715F70161816102812D11248595A8
S1132C60859567FD8395282F220F922F990F990F31
S1132C70920F691BF0E18F9F600D112482E80E947E
S1132C80D715F70162816102812D112485958595FF
S1132C9067FD8395282F220F922F990F990F920F7A
S1132CA0691BF0E18F9F600D112484E80E94D71501
S1132CB0F70163816102112D11241595159567FDA6
S1132CC01395912F990F892F880F880F890F681BEF
S1132CD0F0E11F9F600D112486E80E94D715F701CB
S1132CE08581082E000C990B01960AE010E0B801CA
S1132CF00E94FF1DF0E16F9F800D1124682F88E86A
S1132D000E94D715F70164816F5F8AE80E94D71586
S1132D10F7018681978184569109B8010E94FF1DAD
S1132D20F0E16F9F800D1124682F8CE80E94D71565
S1132D302496CDBFDEBFDF91CF911F910F91FF90FD
S1132D40EF900895EF92FF920F931F93CF93DF9329
S1132D50CDB7DEB76397CDBFDEBF86EC92E20E94AB
S1132D60771984E090E00E947C0A8FEB0E9474152E
S1132D708E010F5F1F4F7E0188E0E80EF11C0E9458
S1132D80A615F80181938F01EE15FF05C1F786ECB6
S1132D9092E20E94871900008981982F92959F7072
S1132DA0990F292F220F220F920F8F70890F888776
S1132DB08A81982F92959F70990F292F220F220FA5
S1132DC0920F8F70890F89878B81982F92959F70AE
S1132DD0990F292F220F220F920F8F70890F8A8744
S1132DE08C81982F92959F70990F292F220F220F73
S1132DF0920F8F70890F8B878D81282F2F70215010
S1132E0082958F70880F982F990F990F890F820FD1
S1132E108D878F81282F2F7082958F7090E0AC0161
S1132E20440F551F880F991F880F991F880F991FEA
S1132E30840F951F820F911D8C599F4F8E879F87FA
S1132E400000CE0108960E94A1026396CDBFDEBFAA
S1132E50DF91CF911F910F91FF90EF900895EF9222
S1132E60FF920F931F93CF93DF93CDB7DEB7C05577
S1132E70D109CDBFDEBF8C0189EF92E20E94D31F3E
S1132E806CE073E2C8010E944E1F0097C9F0898369
S1132E909A838E010D5F1F4F7E0185E1E80EF11CC0
S1132EA007C0F801819391938F01EE15FF0541F05E
S1132EB06CE073E280E090E00E944E1F009789F777
S1132EC069817A81CE018E5B9F4F0E94521F6F8170
S1132ED07885CE0145960E94521F8A858F938985F5
S1132EE08F938C818F938B818F938E818F938D8120
S1132EF08F938EE093E29F938F93CE0184969F935A
S1132F008F930E940320CDBFDEBF00E00FC0802F4F
S1132F100E94EE13812F0E94F31380E00E94CC13D1
S1132F201F5F1038A1F70F5F043011F010E0EFCFEE
S1132F3080E00E94EE1380E00E94F313CE014596D8
S1132F400E94E41481E00E94EE1380E00E94F313D7
S1132F50CE0184960E94E41482E00E94EE1380E085
S1132F600E94F313CE018E5B9F4F0E94E414C05B5A
S1132F70DF4FCDBFDEBFDF91CF911F910F91FF9047
S1132F80EF9008950E945D1564E071EA8EE29FE17E
S1132F900E94FE150F2EF7E1EF2EF3E2FF2EF02D27
S1132FA0C7EBD3E90EE213E20E94A216DC01CB01C7
S1132FB0885D934CAF4FBF4F8093C0989093C19856
S1132FC0A093C298B093C3980E94A216DC01CB01CF
S1132FD080589C4BA249B74CBF93AF939F938F9358
S1132FE0FF92EF92DF93CF930E948B1F80EC98E9BE
S1132FF00E942C029F938F931F930F93DF93CF9381
S11330000E948B1F80EC98E90E942C020E942F17CB
S113301088EC90E00E947C0A8DB79EB70E968DBF17
S11330209EBFC2CFCF93DF93E0E5F0E080E18583DC
S1133030808180618083818184FFFDCF8FB7F89484
S1133040A0E4B0E094E028ED30E01BBEFD0124BF15
S113305090838FBF8FE39FE10197F1F700C00000D9
S11330608C91E0E5F0E0808182608083818181FF42
S1133070FDCFE0E5F0E0868184608683A0E6B0E0E1
S11330808BE115968C93159787EB16968C93169770
S1133090C0ECD1E082E08A87EDE1F0E0E4911296A1
S11330A0EC931297ECE1F0E0E4911396EC93139710
S11330B01A8681E08C9387E08093A200E0EEF7E02B
S11330C083E0818386838093B00080E4808BE0E694
S11330D0F6E090E391839683848B0E943112DF9112
S11330E0CF91089561E083EC92E20E94551961E06A
S11330F080EC92E20E9455190E94121887EC93E921
S11331008093C5939093C6930E945E140E94031407
S113311080E40E94B613D0E00CC021E040E06C2FA4
S11331208D2F0E943415CF5FC038B9F7DF5FD430DC
S113313011F0C0E0F2CF00000E94031480E00E946E
S1133140EE138CE493E20E94E41461E083EC92E2D7
S11331500E94551961E080EC92E20E945519E0E565
S1133160F0E0808182608083818181FFFDCF81E0F6
S11331700E943F1A81E00E94351AE0EEF7E081E0F8
S1133180818382E0818380E18093610667EB73E948
S11331908DE892E20E944F0C789400000000000039
S11331A00000A12CB12CC12CD12CE12CF12C00E07D
S11331B020E030E044EF51E061E573E282EC97E116
S11331C00E94EB0720E030E044EF51E064E573E255
S11331D087E193E10E94EB0720E030E044EF51E007
S11331E067E573E28EED92E10E94EB0720E030E0A8
S11331F048EC50E06AE573E28BE993E10E94EB0747
S11332000E94F308FFCF83E08093E60780E3809376
S1133210660682E08093E50780E180936506089561
S113322083E08093E60780E38093660681E08093E1
S1133230E5071092650608958DE892E20E94090B55
S1133240811102C081E101C082E293E09093E6071C
S113325090E390936606982F93709093E50780739C
S11332608093650608958DE892E20E94630C0895A8
S113327008950F93202B611102C000E001C000E803
S1133280202B411102C000E001C000E4202B3FB715
S1133290F894DC0112964C9112974093B000ED9192
S11332A0FC91208B3FBF0F910895662381F0DC01D0
S11332B0ED91FC91119721E030E0A90112960C9058
S11332C002C0440F551F0A94E2F741830895DC01BC
S11332D0ED91FC91119721E030E0A90112960C9038
S11332E002C0440F551F0A94E2F742830895DC019B
S11332F0ED91FC91119721E030E0A90112960C9018
S113330002C0440F551F0A94E2F745830895DC0177
S1133310ED91FC91119721E030E0A90112960C90F7
S113332002C0440F551F0A94E2F746830895DC0156
S1133330ED91FC911197208530E0F90112960C90E3
S113334002C0F595E7950A94E2F7CF0181700895DC
S11333501F920F920FB60F9211240F900FBE0F9071
S11333601F9018951F920F920FB60F9211240F9071
S11333700FBE0F901F9018951F920F920FB60F92C9
S113338011240F900FBE0F901F9018951F920F924B
S11333900FB60F9211240F900FBE0F901F90189527
S11333A01F920F920FB60F9211240F900FBE0F9021
S11333B01F9018951F920F920FB60F9211240F9021
S11333C00FBE0F901F9018951F920F920FB60F9279
S11333D011240F900FBE0F901F9018951F920F92FB
S11333E00FB60F9211240F900FBE0F901F901895D7
S11333F01F920F920FB60F9211240F900FBE0F90D1
S11334001F9018951F920F920FB60F9211240F90D0
S11334100FBE0F901F9018951F920F920FB60F9228
S113342011240F900FBE0F901F9018951F920F92AA
S11334300FB60F9211240F900FBE0F901F90189586
S11334400F93CF93DF931F92CDB7DEB72FB72983A6
S1133450F8941BBEFC0108ED04BF608389818FBF13
S11334600F90DF91CF910F910895E0E5F0E0908106
S1133470282F2095922390839081892308950F9378
S11334801F93CF93C82F00E410E0F8016081687F98
S1133490682B80E490E00E94201AF80180818C233C
S11334A0CF911F910F910895FC019081907F692B1A
S11334B060830895FC0196819C7F692B668308953F
S11334C02F923F924F925F926F927F928F929F9230
S11334D0AF92BF92CF92DF92EF92FF920F931F931E
S11334E0CF93DF93CDB7DEB76397CDBFDEBF6C015B
S11334F04B012A01FC0116821782838181FF43C399
S1133500AE014F5F5F4F3A01F6019381F40193FDE1
S1133510859193FF81914F01882309F430C385324B
S113352039F493FD859193FF81914F01853239F4EC
S1133530B60190E00E949B1F52012501E5CF10E0E7
S1133540F12C20E02032A0F48B3269F030F4803288
S113355059F0833269F420612CC08D3239F0803304
S113356039F4216026C02260246023C0286021C071
S113357027FD27C030ED380F3A3078F426FF06C017
S1133580FAE01F9F300D1124132F13C04AE0F49E5C
S1133590300D1124F32E20620CC08E3221F426FD4E
S11335A0EEC2206406C08C3611F4206802C088364E
S11335B041F4F40193FD859193FF81914F018111B1
S11335C0C1CF9BEB980F933018F42061805E06C046
S11335D09BE9980F933008F071C12F7E26FF16E007
S11335E02F73322E853619F42064322E08C08636A5
S11335F021F4F22FF0683F2E02C01111115037FE52
S113360007C01C3350F4EE24E394E10E27E00BC012
S1133610183038F027E017E005C027E04CE3E42E2B
S113362002C0212FE12C520144E0A40EB11CF2018E
S113363060817181828193810E2DA3010E946B1E92
S11336402C01098100FF02C003FF07C031FC08C040
S113365032FE09C030E2232E07C02DE2222E04C020
S11336609BE2292E01C0212C802F8C7019F021108F
S113367068C2A8C237FE0FC0E40C04FF04C08A81EC
S1133680813309F4EA941E1474F5F8E0FE1578F514
S113369088E0E82E2CC036FC2AC0812F90E08415E7
S11336A095059CF02CEF42162FEF520674F0432D33
S11336B04068342E0AC0E2E0F0E0EC0FFD1FE10F99
S11336C0F11D8081803319F411501111F4CF37FEAC
S11336D00EC0EE24E394E10E812F90E048165906C3
S11336E02CF4141904C0EE24E39401C010E037FE56
S11336F006C01414150434F4C201019605C085E013
S113370090E002C081E090E021100196112331F095
S1133710212F30E02F5F3F4F820F931F2F2D30E07A
S11337208217930714F4F81A01C0F12C832D8970C1
S113373049F4FF2039F0B60180E290E00E949B1F1B
S1133740FA94F7CF222029F0B601822D90E00E944E
S11337509B1F33FC09C0FF2039F0B60180E390E0E1
S11337600E949B1FFA94F7CF37FE5AC0942D852DE3
S113377057FE02C090E080E0292E382E20E030E091
S1133780A2014E1951094C875D87A20142195309C0
S11337904E875F87612F70E044275527461B570BE0
S11337A0488B598B5FEF2516350649F4B6018EE236
S11337B090E02A8B3B8B0E949B1F3B892A894214F1
S11337C053046CF04C855D854215530544F4EE8535
S11337D0FF85E20FF31FE60DF71D818101C080E331
S11337E051E0251A31082F5F3F4F48895989241623
S11337F035064CF0B60190E02A8B3B8B0E949B1F50
S11338002A893B89CFCF2414350439F49A8196331D
S113381018F4953311F404FF81E3B60190E04BC032
S11338208A81813309F00F7EB60190E00E949B1FCC
S1133830111105C034FC18C085E690E017C0B6012C
S11338408EE290E00E949B1F82E0EE24E394E80E57
S1133850F301E80FF11D8081B60190E00E949B1FE7
S113386011508E2D91F7E6CF85E490E0B6010E94C9
S11338709B1F57FC05C04114510439F404FF05C0D3
S11338805194419451088DE201C08BE2B60190E05D
S11338900E949B1F80E39AE0491651042CF08F5F2D
S11338A05AE0451A5108F7CFB60190E00E949B1FD9
S11338B0B601C201C0960E949B1F57C1833631F0E6
S11338C0833779F0833509F058C021C05201E2E012
S11338D0AE0EB11CF2018081898301E010E0230166
S11338E014C05201F2E0AF0EB11CF20140805180CD
S11338F026FF03C0612F70E002C06FEF7FEFC201AB
S11339002A8B0E94591F8C012A892F7715C05201D6
S1133910F2E0AF0EB11CF2014080518026FF03C0DB
S1133920612F70E002C06FEF7FEFC2012A8B0E940B
S1133930431F8C012A892068322E23FD1AC08F2D43
S113394090E008171907A8F4B60180E290E00E94FD
S11339509B1FFA94F4CFF20137FC859137FE8191D5
S11339602F01B60190E00E949B1FF110FA940150C0
S113397011090115110579F7F8C0843611F089365B
S113398059F5520127FF09C0F4E0AF0EB11CF20152
S113399060817181828193810AC0F2E0AF0EB11C13
S11339A0F20160817181072E000C880B990B2F7630
S11339B0322E97FF09C090958095709561957F4F41
S11339C08F4F9F4F2068322E2AE030E0A3010E94DF
S11339D02D20E82EE6183FC0022F853721F40F7EF4
S11339E02AE030E01DC0097F8F3691F018F4883545
S11339F059F0C5C0803719F0883711F0C0C0006194
S1133A0004FF09C0046007C024FF08C0066006C0A4
S1133A1028E030E005C020E130E002C020E132E0DF
S1133A20520107FF09C0F4E0AF0EB11CF20160813E
S1133A3071818281938108C0F2E0AF0EB11CF20162
S1133A406081718180E090E0A3010E942D20E82E26
S1133A50E6180F77302E36FE0BC0332D3E7FE1166D
S1133A6050F434FE0AC032FC08C0332D3E7E05C03B
S1133A700E2D332D03C00E2D01C0012F34FF0CC0B9
S1133A80FE01EE0DF11D8081803311F4397E08C0F2
S1133A9032FF05C00E5F04C0832F867809F00F5FE4
S1133AA033FD13C030FF06C01E2D0F1518F41F0D73
S1133AB0101B0F2D0F1568F4B60180E290E03B8BCC
S1133AC00E949B1F0F5F3B89F5CF0F1510F4F01A6E
S1133AD001C0F12C34FF12C0B60180E390E03B8BAF
S1133AE00E949B1F3B8932FF17C031FD03C088E74A
S1133AF090E002C088E590E0B6010CC0832F867880
S1133B0059F031FF02C08BE201C080E237FD8DE243
S1133B10B60190E00E949B1FE11638F4B60180E3E1
S1133B2090E00E949B1F1150F7CFEA94F301EE0D31
S1133B30F11D8081B60190E00E949B1FE110F5CF3A
S1133B4014C0F4E0FF1558F584E0F81A33FE1EC0E3
S1133B50211026C003FF2AC008E412E0F32DF071FF
S1133B603F2EF8018491811124C0FF2009F4E5CC93
S1133B70B60180E290E00E949B1FFA94F6CFF60112
S1133B808681978126C08FEF9FEF23C0B60180E224
S1133B9090E00E949B1FFA94F110F8CFD9CFF12C3A
S1133BA0B601822D90E00E949B1FD4CF0CE412E05A
S1133BB0D5CF31108052B60190E00E949B1F0F5F59
S1133BC01F4FCFCF23E02F1510F483E0BECFF12C8D
S1133BD0C1CF6396CDBFDEBFDF91CF911F910F910F
S1133BE0FF90EF90DF90CF90BF90AF909F908F9019
S1133BF07F906F905F904F903F902F90089597FB28
S1133C00072E16F4009407D077FD09D00E943D1EBC
S1133C1007FC05D03EF4909581959F4F08957095CB
S1133C2061957F4F0895A1E21A2EAA1BBB1BFD01CB
S1133C300DC0AA1FBB1FEE1FFF1FA217B307E40787
S1133C40F50720F0A21BB30BE40BF50B661F771FDF
S1133C50881F991F1A9469F76095709580959095BF
S1133C609B01AC01BD01CF010895EE0FFF1F881F1A
S1133C708BBF0790F691E02D1994AA1BBB1B51E151
S1133C8007C0AA1FBB1FA617B70710F0A61BB70BC8
S1133C90881F991F5A95A9F780959095BC01CD016D
S1133CA008950E945C1EA59F900DB49F900DA49F43
S1133CB0800D911D11240895A29FB001B39FC001EE
S1133CC0A39F700D811D1124911DB29F700D811D44
S1133CD01124911D0895283008F027E03327DA01D4
S1133CE0990F311D87FD916000966105710539F4C6
S1133CF032602E5F3D9330E32A95E1F708959F3FAC
S1133D0030F080387105610509F03C5F3C5F3D93FC
S1133D10913008F08068911DDF93CF931F930F9328
S1133D20FF92EF92192F987F9695E92F9695969585
S1133D30E90FFF27E655FD4F99273327EE24FF248B
S1133D40A701E70105900894079428F4360FE71EAD
S1133D50F81E491F511D660F771F881F991F06946F
S1133D60A1F70590079428F4E70EF81E491F561F83
S1133D70C11D770F881F991F661F0694A1F7059030
S1133D80079428F4F80E491F561FC71FD11D880F2A
S1133D90991F661F771F0694A1F70590079420F4D6
S1133DA0490F561FC71FD81F990F661F771F881FFB
S1133DB00694A9F784911095177041F0D695C7958C
S1133DC057954795F794E7941A95C1F7E0E5F2E023
S1133DD068941590159135916591959105907FE2C0
S1133DE07395E118F10A430B560BC90BD009C0F7C0
S1133DF0E10CF11E431F561FC91FD01D7EF4703302
S1133E0011F48A95E6CFE894015030F0080F0AF4D3
S1133E100027021708F4202F2395022F7A3328F065
S1133E2079E37D932A95E9F710C07D932A9589F665
S1133E30069497956795379517951794E118F10AA5
S1133E40430B560BC90BD00998F023957E917395BB
S1133E507A3308F070E37C932013B8F77E91706195
S1133E607D9330F0839571E37D9370E32A95E1F7B8
S1133E701124EF90FF900F911F91CF91DF9199271B
S1133E8087FD90950895FC010590615070400110E4
S1133E90D8F7809590958E0F9F1F08954EE553E2B5
S1133EA00C94641FFB01DC0101900D920020E1F7EA
S1133EB00895FC016150704001900110D8F780957D
S1133EC090958E0F9F1F0895FA01A191B0810097DC
S1133ED019F41097E1F0CD01DC01CD010D90002023
S1133EE011F4C00113C0FB012191222319F0201504
S1133EF0D9F7F3CFFB012191201519F41E921196E5
S1133F0006C02223C1F70D900020A1F7D001FA01C9
S1133F10A193B0830895CF93DF93CDB7DEB7AE01FD
S1133F20465F5F4F688579858E819F810E94601A04
S1133F30DF91CF9108950F931F93CF93DF93FB01EC
S1133F40238121FD03C08FEF9FEF28C022FF16C0FD
S1133F5046815781248135814217530744F4A08157
S1133F60B1819D012F5F3F4F208331838C93268144
S1133F7037812F5F3F4F2683378310C0EB01092F12
S1133F80182F0084F185E02D1995892BE1F68E8197
S1133F909F8101968E839F83812F902FDF91CF91F4
S1133FA01F910F9108950F931F93CF93DF93E09187
S1133FB00399F0910499238121FF1BC08C01D0E067
S1133FC0C0E0F80181918F01609103997091049987
S1133FD0DB011896ED91FC911997882331F019951E
S1133FE0892B79F3DFEFCFEFECCF8AE01995892B9A
S1133FF019F08FEF9FEF02C08D2F9C2FDF91CF918F
S11340001F910F9108950F931F93CF93DF93CDB713
S1134010DEB72E97CDBFDEBF0E891F8986E08C8365
S113402009831A838FEF9FE78D839E83AE01465EDB
S11340305F4F688D798DCE0101960E94601A2F81A1
S11340403885F801E20FF31F10822E96CDBFDEBF34
S1134050DF91CF911F910F910895FA01AA2728307B
S113406051F1203181F1E8946F936E7F6E5F7F4F41
S11340708F4F9F4FAF4FB1E03ED0B4E03CD0670FBD
S1134080781F891F9A1FA11D680F791F8A1F911D10
S1134090A11D6A0F711D811D911DA11D20D009F460
S11340A068943F912AE0269F11243019305D3193A2
S11340B0DEF6CF010895462F4770405D4193B3E08B
S11340C00FD0C9F7F6CF462F4F70405D4A3318F032
S11340D0495D31FD4052419302D0A9F7EACFB4E0E3
S11340E0A6959795879577956795BA95C9F700979B
S11340F06105710508959B01AC010A2E069457953C
S1134100479537952795BA95C9F7620F731F841F92
S1134110951FA01D0895DB018F939F930E94511E4C
S1134120BF91AF91A29F800D911DA39F900DB29F4F
S1134130900D11240895052E97FB1EF400940E94FF
S1134140B22057FD07D00E94131E07FC03D04EF483
S11341500C94B22050954095309521953F4F4F4F88
S11341605F4F089590958095709561957F4F8F4F1F
S11341709F4F08950E945C1EB7FF0895821B930B06
S1134180089557FD03C05BBF67910895608108954A
S1074190F894FFCFCD
S1134194179905100810201003826C1001FE0310F7
S11341A46C8203C8A8980418A0A0780588502050ED
S11341B4880538C030C038051860806018047880D9
S11341C480F803087C880490A8A84803F81008041D
S11341D4102828F804F8282810047088887004F833
S11341E41008F005F808F008F001FE04FE205088D9
S11341F402807A01FA04FE1008F00410A8A87803D7
S1134204FC12020470A8A83004708888FE04708824
S1134214888804FE88887004708888F8020204037D
S113422480808003040204038282FE030638C003F0
S1134234FE828205C2A2928A86050608F008060553
S1134244C6281028C6053EC038C03E050E30C0300E
S11342540E047E80807E050202FE0202044C9292C9
S11342646404FE1232CC057C82A242BC04FE121207
S11342740C047C82827C05FE041860FE05FE04089E
S113428404FE04FE80808005FE10284482044080DD
S1134294807E0382FE8204FE1010FE057C829292CC
S11342A4F404FE12120204FE92928204FE82827CC0
S11342B4047C82824404FE92926C05F8141214F86D
S11342C408384492AAAABA2418050402A2120C04B7
S11342D4824428100428282828041028448201C46D
S11342E40144054C9292927C056C9292926C050264
S11342F402F20A06057C92929264055E8A8A8A72A4
S113430405302824FE2005448292926C0584C2A2BE
S1134314928C050084FE8000057CA2928A7C03C0F2
S1134324380601800310101001C00310381003284C
S1134334102803824438033844820106056C92AC85
S113434440A005462610C8C4054854FE5424052834
S1134354FE28FE280306000601BE020000CA21C886
S113436421C421BE21B821B221AC21AA21A621A2B3
S1134374219E219A219821942192218E218821829F
S1134384217C21762170216A2164215E21582152E5
S11343942150214E21492144213F21392130212A10
S11343A421252120211B21162111210B2106210263
S11343B421FD20F720F220EC20E620E120DC20D6A9
S11343C420D120CC20C620C120BB20B520AF20A9F9
S11343D420A3209F209B20972093208F208C20872C
S11343E42082207D20782073206F206A206520633A
S11343F42060205B20592053204E20492044203F34
S1134404203B20362032202D20272021201B20165B
S11344142012200E200C2008200220FFFF0083100D
S113442400000104100000018208000001000000E3
S113443400000000000000008006000006020006E0
S113444404000606400601400600000605000607AF
S1134454E00701E0070020060220060420060649BE
S1134464444C45007468652074656D70206973203C
S113447425660A0D006C6967687420302031006C6D
S11344846967687420302030006E6F772070617221
S113449473696E6720737472696E670020002573F4
S11344A420257320257300554E49582054696D65A1
S11344B47374616D70203A20256C750D0A0054697B
S11344C46D65206173206120626173696320737474
S11344D472696E67203D2025730A0D00454D4F4EC9
S11144E4007434007435007436007573620081
S9030000FC
