:100000000C94FE000C941F010C941F010C941F0112
:100010000C941F010C941F010C941F010C941F01E0
:100020000C941F010C941F010C94CA090C94050A2E
:100030000C941F010C941F010C941F010C941F01C0
:100040000C941F010C941F010C941F010C941F01B0
:100050000C941F010C941F010C941F010C941F01A0
:100060000C941F010C94EB070C94FF070C94F507FC
:100070000C9409080C941D080C9413080C941F018F
:100080000C941F010C941F010C941F010C941F0170
:100090000C941F010C941F010C941F010C941F0160
:1000A0000C941F010C941F010C941F010C941F0150
:1000B0000C941F010C941F010C941F010C941F0140
:1000C0000C941F010C941F010C941F010C941F0130
:1000D0000C941F010C941F010C941F010C941F0120
:1000E0000C941F010C941F010C9445080C945908A2
:1000F0000C944F080C941F010C941F010C941F01C9
:100100000C941F010C941F010C941F010C941F01EF
:100110000C941F010C941F010C941F010C941F01DF
:100120000C941F010C941F010C941F010C941F01CF
:100130000C941F010C941F010C941F010C941F01BF
:100140000C941F010C941F010C941F010C941F01AF
:100150000C941F010C941F010C941F010C941F019F
:100160000C9427080C943B080C9431080C941F0144
:100170000C941F010C941F010C941F010C941F017F
:100180000C941F010C941F010C941F010C941F016F
:100190000C941F010C941F010C941F010C941F015F
:1001A0000C941F010C941F010C941F010C941F014F
:1001B0000C941F010C941F010C941F010C941F013F
:1001C0000C941F010C941F010C941F010C941F012F
:1001D0000C941F010C941F010C941F010C941F011F
:1001E0000C941F010C941F010C941F010C941F010F
:1001F0000C941F010C943E090C941F0111241FBE86
:10020000CFEFCDBFDFE9DEBF00E00CBF12E2A0E020
:10021000B0E2EAECF4E100E00BBF02C007900D92FF
:10022000A43BB107D9F727E2A4EBB2E201C01D92CB
:10023000A137B207E1F70E9496060C94630A0C946A
:1002400000008093C308E0ECF8E082818823ECF79B
:100250008091C3080895FC0180818093C308E0EC7D
:10026000F8E082818823ECF78091C3080895CF934A
:10027000C82F882329F080E090E20E94CB0704C0B9
:1002800080E090E20E94DB07C093C324CF910895E1
:10029000CF93C82F882329F083E090E20E94CB07F8
:1002A00004C083E090E20E94DB07C093C224CF9198
:1002B0000895EF92FF920F931F93CF93DF93C82F70
:1002C0007B018A0180E00E9448018C2F8F710E947F
:1002D00021011016110694F4E7010E0D1F1D0F2EBB
:1002E000F0ECEF2EF8E0FF2EF02D8FEF0E942101B1
:1002F000F70183818993C017D107B9F781E00E9484
:100300004801DF91CF911F910F91FF90EF900895D9
:10031000EF92FF920F931F93CF93DF93C82F7B0130
:100320008A0180E00E9448018C2F8F7180620E94B8
:1003300021011016110654F4E7010E0D1F1DCE0108
:100340000E942B012196C017D107C9F781E00E94B6
:100350004801DF91CF911F910F91FF90EF90089589
:10036000EF92FF920F931F93CF93DF937C018B014A
:1003700080E00E94480181E60E94210110161106CA
:1003800094F4E7010E0D1F1D0F2EF0ECEF2EF8E098
:10039000FF2EF02D8FEF0E942101F7019381999399
:1003A000C017D107B9F781E00E944801DF91CF91D2
:1003B0001F910F91FF90EF90089580E00E944801F7
:1003C00082EE0E94210181E00E9448010895CF93AE
:1003D00080E00E94480180E60E9421018FEF0E9488
:1003E0002101C82F81E00E9448018C2F90E0CF911D
:1003F0000895CF9380E00E9448018FEF0E94210171
:10040000C82F81E00E9448018C2F90E0CF91089581
:10041000CF93DF931F92CDB7DEB741E050E0BE012E
:100420006F5F7F4F80E00E945901898182608983DC
:1004300041E050E0BE016F5F7F4F80E00E94880185
:100440008FE99CE80197F1F700C0000082E08093FB
:10045000C4240F90DF91CF910895CF93DF931F9223
:10046000CDB7DEB741E050E0BE016F5F7F4F80E067
:100470000E94590189818D7F898341E050E0BE014E
:100480006F5F7F4F80E00E94880181E08093C424E9
:100490000F90DF91CF910895CF93DF931F92CDB747
:1004A000DEB741E050E0BE016F5F7F4F80E00E9409
:1004B000590189818160898341E050E0BE016F5F0D
:1004C0007F4F80E00E94880183E08093C4240F90D6
:1004D000DF91CF9108951F93CF93DF931F92CDB7F4
:1004E000DEB7182F41E050E0BE016F5F7F4F81E023
:1004F0000E94590121E030E0C90102C0880F991F14
:100500001A95E2F79981892B898341E050E0BE0179
:100510006F5F7F4F81E00E9488010F90DF91CF9144
:100520001F910895CF93DF931F92CDB7DEB7198245
:1005300041E050E0BE016F5F7F4F81E00E94880183
:100540000F90DF91CF9108951F93CF93DF931F9268
:10055000CDB7DEB7182F41E050E0BE016F5F7F4F8F
:1005600082E00E94590121E030E0C90102C0880FF9
:10057000991F1A95E2F79981892B898341E050E010
:10058000BE016F5F7F4F82E00E9488010F90DF9174
:10059000CF911F9108951F93CF93DF931F92CDB7F3
:1005A000DEB7182F41E050E0BE016F5F7F4F84E05F
:1005B0000E94590120E1129FC001112499819F706E
:1005C000892B898341E050E0BE016F5F7F4F84E05B
:1005D0000E9488010F90DF91CF911F910895CF93D2
:1005E000DF931F92CDB7DEB70E94F9018064898343
:1005F00041E050E0BE016F5F7F4F87E00E948801BD
:100600000F90DF91CF9108952F923F924F925F927A
:100610006F927F928F929F92AF92BF92CF92DF9212
:10062000EF92FF920F931F93CF93DF93CDB7DEB777
:100630002597CDBFDEBF482EB02EA22E932E842E3E
:10064000752E662E572E81E0841568F421E090E027
:100650008EEF840D843008F020E0C22ED92E1C14B9
:100660001D0434F021C00F2EF5E0CF2ED12CF02D3B
:10067000DE0111967D01212C312CE0E0F0E02B2DE4
:10068000312F4A2D592D682D772D862D952D022D30
:100690000E94470AD7012D937D013196B8E02B0EB9
:1006A000311CEC15FD055CF3A601BE016F5F7F4FA9
:1006B0008AE0840D0E9488012596CDBFDEBFDF91C0
:1006C000CF911F910F91FF90EF90DF90CF90BF904F
:1006D000AF909F908F907F906F905F904F903F90E2
:1006E0002F9008950F931F93CF93DF93CDB7DEB76D
:1006F0002D97CDBFDEBF823090F141E050E09EEFFC
:10070000980F943008F040E0042F152FBE016F5F62
:100710007F4F865F0E9459011E821F8218861986AC
:100720001A861B861C861D86101611067CF4DE01B7
:100730001196FE01369620E030E08D919081892B54
:1007400081932F5F3F4F20173107BCF32E813F81EC
:10075000488559856A857B858C859D8513C045E0D4
:1007600050E0BE016F5F7F4F865F0E9459011E827D
:100770001F82188619861A861B861C861D8605E030
:1007800010E0D5CF2D96CDBFDEBFDF91CF911F9169
:100790000F910895CF93DF931F92CDB7DEB741E05D
:1007A00050E0BE016F5F7F4F87E10E945901898150
:1007B00081700F90DF91CF9108951F93CF93DF93B6
:1007C0001F92CDB7DEB7182F41E050E0BE016F5F3A
:1007D0007F4F8CE10E94590121E030E0C90102C045
:1007E000880F991F1A95E2F79981892B898341E037
:1007F00050E0BE016F5F7F4F8CE10E9488010F9037
:10080000DF91CF911F910895CF93DF931F92CDB7C2
:10081000DEB7198241E050E0BE016F5F7F4F8CE18F
:100820000E9488010F90DF91CF910895CF93DF93BD
:100830001F92CDB7DEB741E050E0BE016F5F7F4F42
:100840008DE10E94590189818460898341E050E0F3
:10085000BE016F5F7F4F8DE10E9488010F90DF9195
:10086000CF910895CF93DF931F92CDB7DEB741E0CC
:1008700050E0BE016F5F7F4F8DE10E945901898179
:100880008260898341E050E0BE016F5F7F4F8DE160
:100890000E9488010F90DF91CF910895CF93DF934D
:1008A0001F92CDB7DEB787E0898341E050E0BE01FB
:1008B0006F5F7F4F86E00E948801198241E050E01F
:1008C000BE016F5F7F4F81E00E94880181E08983D4
:1008D00041E050E0BE016F5F7F4F86E00E948801DB
:1008E0000E9408028FE99CE80197F1F700C0000020
:1008F0000E944C0281E00E9437010F90DF91CF915E
:100900000895CF93DF931F921F92CDB7DEB7E0E437
:10091000F6E080EB818380E58093C00880E18183ED
:1009200082E0818380E00E94370181E00E944801DB
:100930000E94DD010E942D028EE0898341E050E09B
:10094000BE016F5F7F4F87E00E9488018BE08A8342
:1009500041E050E0BE016E5F7F4F80E00E94880161
:100960000E9492020E9404040E944E040F900F9075
:10097000DF91CF910895CF93863090F4C82F0E94D5
:10098000F90186FF0FC08E709927AC0155954795E8
:100990002C2F30E081E04217530729F080E003C09C
:1009A00080E001C080E0CF9108950F931F93CF9313
:1009B000DF938630F0F4EB010E94BB048823E1F062
:1009C00000000E94E7018C018132910528F00E940D
:1009D000DD0180E090E015C0BC01CE010E94B001B5
:1009E0000E94CA03882359F00E94EF02802F912FA2
:1009F00008C08FEF9FEF05C080E090E002C0802F1D
:100A0000912FDF91CF911F910F910895FC0181816A
:100A100085FFFDCF6083818186FFFDCF80E48183E8
:100A2000808108951F93CF93DF93C0EAD6E018E04A
:100A30001E83E0E6F6E091E096839683682F80EAD5
:100A400099E00E9406051D83DF91CF911F910895C3
:100A5000EF92FF920F931F93CF93DF93C0EAD6E0FC
:100A600018E01E830F2EF0E6EF2EF6E0FF2EF02D9D
:100A700001E0F7010583682F80EA99E00E940605EE
:100A8000F70106831D83DF91CF911F910F91FF9096
:100A9000EF9008958770806B0E9412050895CF93A0
:100AA000C82F982F9F77892F82958F7080610E9421
:100AB00012058C2F8F700E941205CF910895CF934D
:100AC000DF93EC01FB018C818F7E8C83A0E6B6E086
:100AD00082E011968C93119715968C938D81806C82
:100AE0008D8384818D7F813021F48D8182608D831F
:100AF00003C08D818D7F8D838581882321F08D8139
:100B000084608D8303C08D818B7F8D8380819181F3
:100B1000A281B3819C01AD01220F331F441F551FD9
:100B200060E078E488EE91E00E94230A21503109C8
:100B3000832F8F708F832E838C8188608C83DF91CD
:100B4000CF910895CF93DF9300D000D0CDB7DEB71B
:100B500020EA36E088E0D90111968C93A0E6B6E051
:100B600091E011969C931197E0E0F6E0818392E08A
:100B700011969C93119711968C93D90115968C938D
:100B80008683BAE6BA95F1F700C08583EAE6EA956E
:100B9000F1F700C0E0E7F0E084818F7E848380E09D
:100BA0009BE1A7EBB0E089839A83AB83BC831D8272
:100BB0001E82BE016F5F7F4F80EA99E00E945F0551
:100BC00088EA0E9412058FE10E94120583ED0E94BF
:100BD000120580E00E94120580E40E94120581EA5D
:100BE0000E94120588EC0E9412058AED0E941205EF
:100BF00082E00E94120581E80E9412058FE80E949F
:100C0000120584EA0E94120586EA0E94120585ED0B
:100C10000E94120580E80E9412058DE80E941205CC
:100C200084E10E9412058BED0E94120580E40E946F
:100C3000120589ED0E94120581EF0E9412058FEACC
:100C40000E9412052696CDBFDEBFDF91CF91089599
:100C5000EF92FF920F931F93CF93DC01EC91EE2361
:100C600029F17C01BFEFEB1AFB0AEF37D0F4F0E07B
:100C7000EE0FFF1FEF56FE4D00811181F8018081BC
:100C8000882361F0C1E0F801EC0FF11D80810E9422
:100C90002805CF5FD8019C919C17A8F780E00E949F
:100CA0002805D701ED917D01E111DFCFCF911F9193
:100CB0000F91FF90EF90089520E8829FC0011124CA
:100CC000860F911DE091BC22F091BD22E80FF91F23
:100CD0004083089520E8829FC0011124860F911D52
:100CE000E091BC22F091BD22E80FF91F80810895A8
:100CF0001F93CF93DF93182FD62FC42F211104C039
:100D00000E946A068C1771F04C2F6D2F812F0E9464
:100D10005C06812F0E944A058D2F0E944F058C2F63
:100D20000E942805DF91CF911F910895CF93DF9303
:100D3000CDB7DEB7CF56D109CDBFDEBF0E94B20915
:100D400080EE97E089839A831B820E9481040E942F
:100D500016040E94320480E00E946B0281E00E942F
:100D60006B0282E00E946B0283E00E946B0284E0CF
:100D70000E946B0285E00E946B0280E00E94DD030E
:100D800081E00E94DD0382E00E94DD0383E00E9497
:100D9000DD0384E00E94DD0385E00E94DD0380E046
:100DA0000E94A40281E00E94A40282E00E94A402A8
:100DB00083E00E94A40284E00E94A40285E00E94D5
:100DC000A4028FE00E94CB028EEB92E28093BC22C1
:100DD0009093BD220E94A205000010E00FC0812F59
:100DE0000E944A05802F0E944F0580E00E9428053E
:100DF0000F5F0038A1F71F5F143011F000E0EFCF54
:100E000080E40E94120510E00CC021E040E0602F59
:100E1000812F0E9478060F5F0038B9F71F5F1430EA
:100E200011F000E0F2CF000080E00E944A058FE957
:100E300092E20E94280683E08093E60780E3809395
:100E4000660681E08093E50710926506789461E07C
:100E5000CE0101960E94B907E0E5F0E08081826052
:100E60008083818181FFFDCF81E00E94820881E043
:100E70000E9478080E94DD0105E116E127E138E1D2
:100E800049E150E060E070E080E00E94040380E00F
:100E90000E9472032C833D834E835F83688779872A
:100EA0008A879B8700000F2EF0EECF2EF7E0DF2E13
:100EB000F02DFF24F39483E00E94BB048823D9F330
:100EC000F601F782BE01645F7F4F83E00E94D50484
:100ED0002CE030E02C0F3D1F820F931FFC0110828D
:100EE0000E94DD010E94EF0200E00FC0802F0E94EF
:100EF0004A05812F0E944F0580E00E9428051F5F50
:100F00001038A1F70F5F043011F010E0EFCF80E050
:100F10000E944F0580E00E944A05CE010C960E9477
:100F200028060E94DD01C7CF83E08093E60780E3B7
:100F30008093660682E08093E50780E180936506F2
:100F4000089583E08093E60780E38093660681E05E
:100F50008093E50710926506089580919D229091F7
:100F60009E22009729F0019780939D2290939E22C4
:100F70000895662379F0DC01ED91FC91119721E051
:100F800030E0A90112960C9002C0440F551F0A943C
:100F9000E2F741830895DC01ED91FC91119721E086
:100FA00030E0A90112960C9002C0440F551F0A941C
:100FB000E2F745830895DC01ED91FC91119721E062
:100FC00030E0A90112960C9002C0440F551F0A94FC
:100FD000E2F7468308951F920F920FB60F921124E5
:100FE0000F900FBE0F901F9018951F920F920FB683
:100FF0000F9211240F900FBE0F901F9018951F9203
:101000000F920FB60F9211240F900FBE0F901F90EA
:1010100018951F920F920FB60F9211240F900FBECA
:101020000F901F9018951F920F920FB60F921124D8
:101030000F900FBE0F901F9018951F920F920FB632
:101040000F9211240F900FBE0F901F9018951F92B2
:101050000F920FB60F9211240F900FBE0F901F909A
:1010600018951F920F920FB60F9211240F900FBE7A
:101070000F901F9018951F920F920FB60F92112488
:101080000F900FBE0F901F9018951F920F920FB6E2
:101090000F9211240F900FBE0F901F9018951F9262
:1010A0000F920FB60F9211240F900FBE0F901F904A
:1010B00018951F920F920FB60F9211240F900FBE2A
:1010C0000F901F9018950F93CF93DF931F92CDB77A
:1010D000DEB72FB72983F8941BBEFC0108ED04BFCF
:1010E000608389818FBF0F90DF91CF910F91089519
:1010F000E0E5F0E09081282F209592239083908165
:10110000892308950F931F93CF93C82F00E410E015
:10111000F8016081687F682B80E490E00E9463089A
:10112000F80180818C23CF911F910F91089508952C
:101130008093DC24282F2F7030E04091C60450911A
:10114000C7048823E4F464E8629FC001639F900DA4
:101150001124815E9A4D8093D8249093D924C9019B
:1011600082959295907F9827807F982708969A017C
:10117000280F391F2093DA243093DB24089564E884
:10118000629FC001639F900D112483529B4D8093F9
:10119000D8249093D92422953295307F3227207F0E
:1011A0003227240F351F2093DA243093DB2408954F
:1011B0001F93CF93DF93D82F162FC42F0E94980828
:1011C000E091DA24F091DB241182E091DA24F091AD
:1011D000DB24DD23A4F01082E091DA24F091DB24FB
:1011E0001183E091DA24F091DB2412821382809142
:1011F000D8249091D9248483958340E014C082E060
:101200008083E091DA24F091DB241183E091DA24E9
:10121000F091DB24128213828091D8249091D924FA
:10122000848395834C2FFC01E05CFF4F4083319613
:10123000108281E0DF91CF911F91089520E030E08E
:10124000A0ECB4E01696ED91FC911797C901829538
:101250009295907F9827807F9827E80FF91F118635
:1012600016964D915C911797FA01E80FF91F1182BC
:101270002F5F3F4F2530310529F708951F920F92B8
:101280000FB60F9211240BB60F922F933F934F93EB
:101290005F936F937F938F939F93AF93BF93EF93DE
:1012A000FF938091CA0488234CF48091C80488235A
:1012B0002CF480E88093CA040E94AD078091CA0490
:1012C00086FF07C080E48093CA041092CF240E9456
:1012D000A1078091CA0485FF16C080E28093CA04EA
:1012E0008091CB24882321F084E08093CF2409C00F
:1012F0008091C304811102C081E001C083E080932A
:10130000CF240E9494078091CA0484FF18C0E0ECA7
:10131000F4E080E1828782E08093CF241092CB2496
:1013200013820E941E0948E068E480E80E94D80801
:1013300048E068E480E00E94D8080E949708FF9186
:10134000EF91BF91AF919F918F917F916F915F913D
:101350004F913F912F910F900BBE0F900FBE0F90AA
:101360001F901895E2EAF0E08081876080838BE02F
:1013700080934300E2E0F4E080818160808380E23A
:1013800090E080930A0490930B0481E08093000422
:10139000789408951F920F920FB60F9211240BB6F6
:1013A0000F922F933F934F935F936F937F938F93FE
:1013B0009F93AF93BF93EF93FF938091BE2490913F
:1013C000BF24A091C024B091C1240196A11DB11DDC
:1013D0008093BE249093BF24A093C024B093C124D3
:1013E0000E940F0AFF91EF91BF91AF919F918F9152
:1013F0007F916F915F914F913F912F910F900BBE15
:101400000F900FBE0F901F9018951F920F920FB65E
:101410000F9211240F900FBE0F901F90189580917E
:10142000C7249091C824A091C924B091CA240196E0
:10143000A11DB11D8093C7249093C824A093C924F3
:10144000B093CA240895A1E21A2EAA1BBB1BFD016A
:101450000DC0AA1FBB1FEE1FFF1FA217B307E40793
:10146000F50720F0A21BB30BE40BF50B661F771FEB
:10147000881F991F1A9469F76095709580959095CB
:101480009B01AC01BD01CF01089597FB10F81694A4
:1014900000080F93083098F00850232F342F452F61
:1014A000562F672F782F892F902DF4CF059497957D
:1014B00087957795679557954795379527950A9519
:0A14C000AAF70F910895F894FFCFEA
:1014CA0040060140060405100810201003826C1023
:1014DA0001FE03106C8203C8A8980418A0A078051E
:1014EA0088502050880538C030C0380518608060A0
:1014FA001804788080F803087C880490A8A8480318
:10150A00F8100804102828F804F82828100470880D
:10151A00887004F81008F005F808F008F001FE04D5
:10152A00FE20508802807A01FA04FE1008F00410A6
:10153A00A8A87803FC12020470A8A830047088884E
:10154A00FE047088888804FE88887004708888F889
:10155A000202040380808003040204038282FE03E1
:10156A000638C003FE828205C2A2928A8605060850
:10157A00F0080605C6281028C6053EC038C03E0534
:10158A000E30C0300E047E80807E050202FE02020A
:10159A00044C92926404FE1232CC057C82A242BCB4
:1015AA0004FE12120C047C82827C05FE041860FE82
:1015BA0005FE040804FE04FE80808005FE1028440F
:1015CA0082044080807E0382FE8204FE1010FE05A3
:1015DA007C829292F404FE12120204FE9292820417
:1015EA00FE82827C047C82824404FE92926C05F81C
:1015FA00141214F808384492AAAABA241805040244
:10160A00A2120C048244281004282828280410282E
:10161A00448201C40144054C9292927C056C9292D8
:10162A00926C050202F20A06057C92929264055EA9
:10163A008A8A8A7205302824FE2005448292926C96
:10164A000584C2A2928C050084FE8000057CA292C9
:10165A008A7C03C0380601800310101001C00310F1
:10166A0038100328102803824438033844820106BC
:10167A00056C92AC40A005462610C8C4054854FE25
:10168A0054240528FE28FE280306000601BE02008F
:10169A0000CE21CC21C821C221BC21B621B021AE65
:1016AA0021AA21A621A2219E219C2198219621923C
:1016BA00218C21862180217A2174216E2168216260
:1016CA00215C215621542152214D21482143213D9B
:1016DA002134212E21292124211F211A2115210FEC
:1016EA00210A2106210121FB20F620F020EA20E52B
:1016FA0020E020DA20D520D020CA20C520BF20B97A
:10170A0020B320AD20A720A3209F209B20972093C1
:10171A002090208B20862081207C20772073206EC9
:10172A00206920672064205F205D20572052204DC9
:10173A0020482043203F203A20362031202B2025E4
:10174A00201F201A201620122010200C200620000C
:10175A008108000001B422080000000000000045D2
:10176A004D4F4E002564203A2025632563256325C5
:04177A006325630080
:00000001FF
