S00F000070656E6775696E2E737265631F
S11300000C94FE000C941F010C941F010C941F010E
S11300100C941F010C941F010C941F010C941F01DC
S11300200C941F010C941F010C940E0B0C94490B9F
S11300300C941F010C941F010C941F010C941F01BC
S11300400C941F010C941F010C941F010C941F01AC
S11300500C941F010C941F010C941F010C941F019C
S11300600C941F010C942F090C9443090C94390926
S11300700C944D090C9461090C9457090C941F01BC
S11300800C941F010C941F010C941F010C941F016C
S11300900C941F010C941F010C941F010C941F015C
S11300A00C941F010C941F010C941F010C941F014C
S11300B00C941F010C941F010C941F010C941F013C
S11300C00C941F010C941F010C941F010C941F012C
S11300D00C941F010C941F010C941F010C941F011C
S11300E00C941F010C941F010C9489090C949D0914
S11300F00C9493090C941F010C941F010C941F0180
S11301000C941F010C941F010C941F010C941F01EB
S11301100C941F010C941F010C941F010C941F01DB
S11301200C941F010C941F010C941F010C941F01CB
S11301300C941F010C941F010C941F010C941F01BB
S11301400C941F010C941F010C941F010C941F01AB
S11301500C941F010C941F010C941F010C941F019B
S11301600C946B090C947F090C9475090C941F0171
S11301700C941F010C941F010C941F010C941F017B
S11301800C941F010C941F010C941F010C941F016B
S11301900C941F010C941F010C941F010C941F015B
S11301A00C941F010C941F010C941F010C941F014B
S11301B00C941F010C941F010C941F010C941F013B
S11301C00C941F010C941F010C941F010C941F012B
S11301D00C941F010C941F010C941F010C941F011B
S11301E00C941F010C941F010C941F010C941F010B
S11301F00C941F010C94820A0C941F0111241FBE3D
S1130200CFEFCDBFDFE9DEBF00E00CBF12E2A0E01C
S1130210B0E2E8EEFCE100E00BBF02C007900D92F3
S1130220AC3CB107D9F727E2ACECB2E201C01D92B5
S1130230A938B207E1F70E949C070C94720E0C9443
S113024000008093C308E0ECF8E082818823ECF797
S11302508091C3080895FC0180818093C308E0EC79
S1130260F8E082818823ECF78091C3080895CF9346
S1130270C82F882329F080E090E20E940F0904C06F
S113028080E090E20E941F09C093DB24CF9108957F
S1130290CF93C82F882329F083E090E20E940F09AE
S11302A004C083E090E20E941F09C093DA24CF9136
S11302B00895EF92FF920F931F93CF93DF93C82F6C
S11302C07B018A0180E00E9448018C2F8F710E947B
S11302D021011016110694F4E7010E0D1F1D0F2EB7
S11302E0F0ECEF2EF8E0FF2EF02D8FEF0E942101AD
S11302F0F70183818993C017D107B9F781E00E9480
S11303004801DF91CF911F910F91FF90EF900895D5
S1130310EF92FF920F931F93CF93DF93C82F7B012C
S11303208A0180E00E9448018C2F8F7180620E94B4
S113033021011016110654F4E7010E0D1F1DCE0104
S11303400E942B012196C017D107C9F781E00E94B2
S11303504801DF91CF911F910F91FF90EF90089585
S1130360EF92FF920F931F93CF93DF937C018B0146
S113037080E00E94480181E60E94210110161106C6
S113038094F4E7010E0D1F1D0F2EF0ECEF2EF8E094
S1130390FF2EF02D8FEF0E942101F7019381999395
S11303A0C017D107B9F781E00E944801DF91CF91CE
S11303B01F910F91FF90EF900895EF92FF920F938A
S11303C01F93CF93DF937C018B0180E00E9448014F
S11303D080EA0E9421011016110654F4E7010E0D63
S11303E01F1DCE010E942B012196C017D107C9F70A
S11303F081E00E944801DF91CF911F910F91FF90FE
S1130400EF90089580E00E94480181EE0E9421014E
S113041081E00E944801089580E00E94480182EE34
S11304200E94210181E00E9448010895CF9380E059
S11304300E94480180E60E9421018FEF0E94210161
S1130440C82F81E00E9448018C2F90E0CF9108953D
S1130450CF9380E00E9448018FEF0E942101C82FB2
S113046081E00E9448018C2F90E0CF910895CF93B2
S1130470DF931F92CDB7DEB741E050E0BE016F5F5E
S11304807F4F80E00E94590189818260898341E025
S113049050E0BE016F5F7F4F80E00E9488018FE9CA
S11304A09CE80197F1F700C0000082E08093DC240F
S11304B00F90DF91CF910895CF93DF931F92CDB723
S11304C0DEB741E050E0BE016F5F7F4F80E00E94E5
S11304D0590189818D7F898341E050E0BE016F5FBE
S11304E07F4F80E00E94880181E08093DC240F909C
S11304F0DF91CF910895CF93DF931F92CDB7DEB7ED
S113050041E050E0BE016F5F7F4F80E00E945901DF
S113051089818160898341E050E0BE016F5F7F4F34
S113052080E00E94880183E08093DC240F90DF91B7
S1130530CF910895CF93DF931F92CDB7DEB741E0FB
S113054050E0BE016F5F7F4F80E00E9459018981B6
S11305508E7F898341E050E0BE016F5F7F4F80E072
S11305600E94880184E08093DC240F90DF91CF9176
S113057008951F93CF93DF931F92CDB7DEB7182F43
S113058041E050E0BE016F5F7F4F81E00E9459015E
S113059021E030E0C90102C0880F991F1A95E2F7E3
S11305A09981892B898341E050E0BE016F5F7F4FC1
S11305B081E00E9488010F90DF91CF911F910895EF
S11305C0CF93DF931F92CDB7DEB7198241E050E09D
S11305D0BE016F5F7F4F81E00E9488010F90DF9121
S11305E0CF9108951F93CF93DF931F92CDB7DEB7BA
S11305F0182F41E050E0BE016F5F7F4F82E00E9400
S1130600590121E030E0C90102C0880F991F1A95F1
S1130610E2F79981892B898341E050E0BE016F5F45
S11306207F4F82E00E9488010F90DF91CF911F914C
S113063008951F93CF93DF931F92CDB7DEB7182F82
S113064041E050E0BE016F5F7F4F84E00E9459019A
S113065020E1129FC001112499819F70892B898305
S113066041E050E0BE016F5F7F4F84E00E9488014B
S11306700F90DF91CF911F9108950E9428029295C7
S113068082958F7089279F70892781700895CF93F1
S1130690DF931F92CDB7DEB70E9428028061898361
S11306A041E050E0BE016F5F7F4F87E00E94880108
S11306B00F90DF91CF9108950E9428029695879517
S11306C0929582958F7089279F70892781700895EC
S11306D0CF93DF931F92CDB7DEB70E9428028062CA
S11306E0898341E050E0BE016F5F7F4F87E00E9445
S11306F088010F90DF91CF910895CF93DF931F92DC
S1130700CDB7DEB70E9428028064898341E050E0BF
S1130710BE016F5F7F4F87E00E9488010F90DF91D9
S1130720CF9108952F923F924F925F926F927F9252
S11307308F929F92AF92BF92CF92DF92EF92FF92ED
S11307400F931F93CF93DF93CDB7DEB72597CDBF1C
S1130750DEBF482EB02EA22E932E842E752E662E2A
S1130760572E81E0841568F421E090E08EEF840D2B
S1130770843008F020E0C22ED92E1C141D0434F05D
S113078021C00F2EF5E0CF2ED12CF02DDE011196D5
S11307907D01212C312CE0E0F0E02B2D312F4A2D6E
S11307A0592D682D772D862D952D022D0E948B0BAA
S11307B0D7012D937D013196B8E02B0E311CEC1539
S11307C0FD055CF3A601BE016F5F7F4F8AE0840DD7
S11307D00E9488012596CDBFDEBFDF91CF911F9186
S11307E00F91FF90EF90DF90CF90BF90AF909F90CC
S11307F08F907F906F905F904F903F902F900895CF
S11308009F92AF92BF92CF92DF92EF92FF920F939B
S11308101F93CF93DF93CDB7DEB72597CDBFDEBF50
S1130820922EA32EB42EC52ED62EE72EF82E192FD7
S1130830DE011196E0E0F0E0292D3A2D4B2D5C2DE0
S11308406D2D7E2D8F2D912F0E2F0E948B0B2D93AE
S11308503896E832F10581F745E050E0BE016F5F5C
S11308607F4F80E10E9488012596CDBFDEBFDF91D6
S1130870CF911F910F91FF90EF90DF90CF90BF9099
S1130880AF909F900895CF93DF931F92CDB7DEB7BB
S113089041E050E0BE016F5F7F4F87E10E94590144
S11308A0898181700F90DF91CF9108951F93CF9329
S11308B0DF931F92CDB7DEB7182F41E050E0BE01A1
S11308C06F5F7F4F8CE10E94590121E030E0C90144
S11308D002C0880F991F1A95E2F79981892B8983A1
S11308E041E050E0BE016F5F7F4F8CE10E948801C0
S11308F00F90DF91CF911F910895CF93DF931F92B3
S1130900CDB7DEB7198241E050E0BE016F5F7F4F83
S11309108CE10E9488010F90DF91CF910895CF93CD
S1130920DF931F92CDB7DEB741E050E0BE016F5FA9
S11309307F4F8DE10E94590189818460898341E060
S113094050E0BE016F5F7F4F8DE10E9488010F90E0
S1130950DF91CF910895CF93DF931F92CDB7DEB788
S113096041E050E0BE016F5F7F4F8DE10E9459016D
S113097089818260898341E050E0BE016F5F7F4FCF
S11309808DE10E9488010F90DF91CF910895CF935C
S1130990DF931F92CDB7DEB787E0898341E050E053
S11309A0BE016F5F7F4F86E00E948801198241E09B
S11309B050E0BE016F5F7F4F81E00E94880181E0BB
S11309C0898341E050E0BE016F5F7F4F86E00E9463
S11309D088010E9437028FE99CE80197F1F700C073
S11309E000000E947B0281E00E9437010F90DF919A
S11309F0CF910895CF93DF931F921F92CDB7DEB7A7
S1130A00E0E4F6E080EB818380E58093C00880E138
S1130A10818382E0818380E00E94370181E00E942B
S1130A2048010E940C020E945C028EE0898341E02E
S1130A3050E0BE016F5F7F4F87E00E9488018BE02A
S1130A408A8341E050E0BE016E5F7F4F80E00E94E8
S1130A5088010E94E0020E947D040E94C7040F9056
S1130A600F90DF91CF910895CF93863090F4C82FE3
S1130A700E94280286FF0FC08E709927AC015595FD
S1130A8047952C2F30E081E04217530729F080E08E
S1130A9003C080E001C080E0CF910895EF92FF92FF
S1130AA00F931F93CF93DF937C01EB011091DB2411
S1130AB080E00E9437011C161D06ECF50E946803B5
S1130AC0BE01A19714F060E270E0C7010E94DD014D
S1130AD00091DC240E949A0281E00E9437018AE698
S1130AE08A95F1F700C080E00E9437010AC00E9495
S1130AF03D03882331F082E08093E707DFEFCFEFF7
S1130B0006C00E945C03882391F3D0E0C0E00E94F9
S1130B1002020E9468030E944703033011F40E94FA
S1130B207B02812F0E9437018AE28A95F1F700C087
S1130B308D2F9C2F02C080E090E0DF91CF911F9118
S1130B400F91FF90EF9008956F927F928F929F92F2
S1130B50AF92BF92CF92DF92EF92FF920F931F93C7
S1130B60CF93DF93622E732EA42EB52EC62ED72ECE
S1130B70D82FC92F48010E940004062D172D2A2DB5
S1130B803B2D4C2D5D2D6D2F7C2F80E00E94920318
S1130B90B701C4010E944E05DF91CF911F910F91BF
S1130BA0FF90EF90DF90CF90BF90AF909F908F9089
S1130BB07F906F9008950F931F93CF93DF938630A8
S1130BC0F0F4EB010E9434058823E1F000000E9458
S1130BD016028C018132910528F00E940C02802FAC
S1130BE0912F15C0BC01CE010E94B0010E944304A4
S1130BF0882359F00E947D03802F912F08C08FEF26
S1130C009FEF05C080E090E002C0802F912FDF911C
S1130C10CF911F910F910895FC01818185FFFDCF34
S1130C206083818186FFFDCF80E481838081089584
S1130C301F93CF93DF93C0EAD6E018E01E83E0E66B
S1130C40F6E091E096839683682F80EA99E00E940B
S1130C500C061D83DF91CF911F910895EF92FF92AF
S1130C600F931F93CF93DF93C0EAD6E018E01E835F
S1130C700F2EF0E6EF2EF6E0FF2EF02D01E0F70147
S1130C800583682F80EA99E00E940C06F701068329
S1130C901D83DF91CF911F910F91FF90EF900895E5
S1130CA08770806B0E9418060895CF93C82F982FE1
S1130CB09F77892F82958F7080610E9418068C2FF0
S1130CC08F700E941806CF910895CF93DF93EC01A3
S1130CD0FB018C818F7E8C83A0E6B6E082E01196C6
S1130CE08C93119715968C938D81806C8D83848160
S1130CF08D7F813021F48D8182608D8303C08D814D
S1130D008D7F8D838581882321F08D8184608D83FF
S1130D1003C08D818B7F8D8380819181A281B3817A
S1130D209C01AD01220F331F441F551F60E078E47E
S1130D3088EE91E00E94670B21503109832F8F7058
S1130D408F832E838C8188608C83DF91CF9108956B
S1130D50CF93DF9300D000D0CDB7DEB720EA36E0E2
S1130D6088E0D90111968C93A0E6B6E091E0119643
S1130D709C931197E0E0F6E0818392E011969C93B6
S1130D80119711968C93D90115968C938683BAE6A4
S1130D90BA95F1F700C08583EAE6EA95F1F700C059
S1130DA0E0E7F0E084818F7E848380E09BE1A7EB21
S1130DB0B0E089839A83AB83BC831D821E82BE010B
S1130DC06F5F7F4F80EA99E00E94650688EA0E947F
S1130DD018068FE10E94180683ED0E94180680E031
S1130DE00E94180680E40E94180681EA0E941806F0
S1130DF088EC0E9418068AED0E94180682E00E9480
S1130E00180681E80E9418068FE80E94180684EAF2
S1130E100E94180686EA0E94180685ED0E941806AC
S1130E2080E80E9418068DE80E94180684E10E945A
S1130E3018068BED0E94180680E40E94180689EDBE
S1130E400E94180681EF0E9418068FEA0E94180675
S1130E502696CDBFDEBFDF91CF910895EF92FF922A
S1130E600F931F93CF93DC01EC91EE2329F17C01C6
S1130E70BFEFEB1AFB0AEF37D0F4F0E0EE0FFF1FE1
S1130E80EF56FE4D00811181F8018081882361F0C5
S1130E90C1E0F801EC0FF11D80810E942E06CF5FA6
S1130EA0D8019C919C17A8F780E00E942E06D701D8
S1130EB0ED917D01E111DFCFCF911F910F91FF9053
S1130EC0EF90089520E8829FC0011124860F911DA0
S1130ED0E091D422F091D522E80FF91F40830895C0
S1130EE020E8829FC0011124860F911DE091D42235
S1130EF0F091D522E80FF91F808108951F93CF93B5
S1130F00DF93182FD62FC42F211104C00E9470071D
S1130F108C1771F04C2F6D2F812F0E946207812F47
S1130F200E9450068D2F0E9455068C2F0E942E067B
S1130F30DF91CF911F910895CF93DF93CDB7DEB7A3
S1130F40C954D109CDBFDEBF0E94F60A80EE97E0F6
S1130F5089839A831B828C839D8381E08E830E9484
S1130F60FA040E948F040E94AB0480E00E94B9023C
S1130F7081E00E94B90282E00E94B90283E00E94EB
S1130F80B90284E00E94B90285E00E94B90280E0BF
S1130F900E94560481E00E94560482E00E94560496
S1130FA083E00E94560484E00E94560485E00E9477
S1130FB0560480E00E94F20281E00E94F20282E084
S1130FC00E94F20283E00E94F20284E00E94F20294
S1130FD085E00E94F2028FE00E94190386ED92E2FE
S1130FE08093D4229093D5220E94A806000010E09A
S1130FF00FC0812F0E945006802F0E94550680E06A
S11310000E942E060F5F0038A1F71F5F143011F005
S113101000E0EFCF80E40E94180610E00CC021E04D
S113102040E0602F812F0E947E070F5F0038B9F7E0
S11310301F5F143011F000E0F2CF000080E00E9446
S113104050068BEA92E20E942E0783E08093E60723
S113105080E38093660681E08093E507109265063D
S1131060789461E0CE0101960E94FD0861E0CE0112
S113107004960E94FD08E0E5F0E0808182608083B0
S1131080818181FFFDCF81E00E94C60981E00E9439
S1131090BC090E940C0205E512EC22EC32EC42EC95
S11310A050E060E070E081E00E9492030F2EF0EEC9
S11310B06F2EF7E07F2EF02D0F2EFFE98F2EF2E238
S11310C09F2EF02D5E0188E2A80EB11C0F2EFCE0CD
S11310D05F2EF02DFE01FC966F0181E00E94340525
S11310E08823D9F381E0F3018783BE01695F7F4FD1
S11310F00E94DB052A968EAF9FAF2A972A96EEAD03
S1131100FFAD2A9787E090E08C0F9D1FE80FF91F31
S113111010820E940C020E947D032A968EAD9FAD20
S11311202A979F938F939F928F92BF92AF920E9420
S1131130A70B0F900F900F900F900F900F9000E05F
S11311400FC0802F0E945006812F0E94550680E018
S11311500E942E061F5F1038A1F70F5F043011F0B4
S113116010E0EFCF80E00E94500680E00E94550618
S1131170CE0107960E942E07E0EBF2E2D601852D00
S113118001900D928A95E1F7F60101900020E9F7AC
S113119031977F01EC18FD08860125E534E443E32B
S11311A052E261E170E080E090E00E94A40595CFF6
S11311B083E08093E60780E38093660682E0809371
S11311C0E50780E180936506089583E08093E60750
S11311D080E38093660681E08093E50710926506BC
S11311E0089580919D2290919E22009729F0019765
S11311F080939D2290939E220895662379F0DC01CA
S1131200ED91FC91119721E030E0A90112960C9028
S113121002C0440F551F0A94E2F741830895DC018C
S1131220ED91FC91119721E030E0A90112960C9008
S113123002C0440F551F0A94E2F745830895DC0168
S1131240ED91FC91119721E030E0A90112960C90E8
S113125002C0440F551F0A94E2F7468308951F9273
S11312600F920FB60F9211240F900FBE0F901F9084
S113127018951F920F920FB60F9211240F900FBE64
S11312800F901F9018951F920F920FB60F92112472
S11312900F900FBE0F901F9018951F920F920FB6CC
S11312A00F9211240F900FBE0F901F9018951F924C
S11312B00F920FB60F9211240F900FBE0F901F9034
S11312C018951F920F920FB60F9211240F900FBE14
S11312D00F901F9018951F920F920FB60F92112422
S11312E00F900FBE0F901F9018951F920F920FB67C
S11312F00F9211240F900FBE0F901F9018951F92FC
S11313000F920FB60F9211240F900FBE0F901F90E3
S113131018951F920F920FB60F9211240F900FBEC3
S11313200F901F9018951F920F920FB60F921124D1
S11313300F900FBE0F901F9018951F920F920FB62B
S11313400F9211240F900FBE0F901F9018950F93BA
S1131350CF93DF931F92CDB7DEB72FB72983F894CD
S11313601BBEFC0108ED04BF608389818FBF0F9011
S1131370DF91CF910F910895E0E5F0E09081282F5F
S11313802095922390839081892308950F931F932E
S1131390CF93C82F00E410E0F8016081687F682BC8
S11313A080E490E00E94A709F80180818C23CF910A
S11313B01F910F91089508958093F424282F2F707E
S11313C030E04091C6045091C7048823E4F464E8F3
S11313D0629FC001639F900D1124895C9A4D809394
S11313E0F0249093F124C90182959295907F9827D7
S11313F0807F982708969A01280F391F2093F2249A
S11314003093F324089564E8629FC001639F900DB4
S113141011248B509B4D8093F0249093F1242295BA
S11314203295307F3227207F3227240F351F2093B7
S1131430F2243093F32408951F93CF93DF93D82F8E
S1131440162FC42F0E94DC09E091F224F091F324BA
S11314501182E091F224F091F324DD23A4F01082B0
S1131460E091F224F091F3241183E091F224F091BD
S1131470F324128213828091F0249091F1248483C6
S1131480958340E014C082E08083E091F224F091DF
S1131490F3241183E091F224F091F3241282138255
S11314A08091F0249091F124848395834C2FFC0146
S11314B0E05CFF4F40833196108281E0DF91CF9151
S11314C01F91089520E030E0A0ECB4E01696ED9171
S11314D0FC911797C90182959295907F9827807FF8
S11314E09827E80FF91F118616964D915C9117976E
S11314F0FA01E80FF91F11822F5F3F4F25303105A4
S113150029F708951F920F920FB60F9211240BB66C
S11315100F922F933F934F935F936F937F938F9388
S11315209F93AF93BF93EF93FF938091CA04882353
S11315304CF48091C80488232CF480E88093CA0476
S11315400E94F1088091CA0486FF07C080E480935A
S1131550CA041092E7240E94E5088091CA0485FF1A
S113156016C080E28093CA048091E324882321F08A
S113157084E08093E72409C08091C304811102C0F0
S113158081E001C083E08093E7240E94D808809121
S1131590CA0484FF18C0E0ECF4E080E1828782E0B2
S11315A08093E7241092E32413820E94620A48E0A5
S11315B068E480E80E941C0A48E068E480E00E9435
S11315C01C0A0E94DB09FF91EF91BF91AF919F919B
S11315D08F917F916F915F914F913F912F910F90D8
S11315E00BBE0F900FBE0F901F901895E2EAF0E02B
S11315F08081876080838BE080934300E2E0F4E0A5
S113160080818160808380E290E080930A049093DB
S11316100B0481E080930004789408951F920F9244
S11316200FB60F9211240BB60F922F933F934F9343
S11316305F936F937F938F939F93AF93BF93EF9336
S1131640FF938091D6249091D724A091D824B0916F
S1131650D9240196A11DB11D8093D6249093D7243B
S1131660A093D824B093D9240E94530BFF91EF91F7
S1131670BF91AF919F918F917F916F915F914F91A6
S11316803F912F910F900BBE0F900FBE0F901F90A4
S113169018951F920F920FB60F9211240F900FBE40
S11316A00F901F9018958091DF249091E024A091D1
S11316B0E124B091E2240196A11DB11D8093DF24A1
S11316C09093E024A093E124B093E2240895A1E24E
S11316D01A2EAA1BBB1BFD010DC0AA1FBB1FEE1FA8
S11316E0FF1FA217B307E407F50720F0A21BB30BF3
S11316F0E40BF50B661F771F881F991F1A9469F76F
S113170060957095809590959B01AC01BD01CF01CA
S1131710089597FB10F8169400080F93083098F07A
S11317200850232F342F452F562F672F782F892FBA
S1131730902DF4CF05949795879577956795579550
S11317404795379527950A95AAF70F9108950F9312
S11317501F93CF93DF93CDB7DEB72E97CDBFDEBFF8
S11317600E891F8986E08C8309831A838FEF9FE794
S11317708D839E83AE01465E5F4F688D798DCE0169
S113178001960E94D10B2F813885F801E20FF31FD7
S113179010822E96CDBFDEBFDF91CF911F910F91A6
S11317A008952F923F924F925F926F927F928F9201
S11317B09F92AF92BF92CF92DF92EF92FF920F93DC
S11317C01F93CF93DF93CDB7DEB72C97CDBFDEBF8A
S11317D07C016B018A01FC0116821782838181FFDF
S11317E0BDC1CE0101964C01F7019381F60193FD31
S11317F0859193FF81916F01882309F4ABC18532F0
S113180039F493FD859193FF81916F01853229F419
S1131810B70190E00E94DC0DE7CF512C312C20E081
S11318202032A0F48B3269F030F4803259F08332E4
S113183069F420612CC08D3239F0803339F4216091
S113184026C02260246023C0286021C027FD27C051
S113185030ED380F3A3078F426FF06C0FAE05F9E88
S1131860300D1124532E13C08AE0389E300D1124FC
S1131870332E20620CC08E3221F426FD6BC120640D
S113188006C08C3611F4206802C0883641F4F60193
S113189093FD859193FF81916F018111C1CF982FA1
S11318A09F7D9554933028F40C5F1F4FFFE3F98319
S11318B00DC0833631F0833771F0833509F05BC096
S11318C022C0F801808189830E5F1F4F4424439412
S11318D0512C540115C03801F2E06F0E711CF8014F
S11318E0A080B18026FF03C0652D70E002C06FEFB9
S11318F07FEFC5012C870E94D10D2C0183012C851B
S11319002F77222E17C03801F2E06F0E711CF801F8
S1131910A080B18026FF03C0652D70E002C06FEF88
S11319207FEFC5012C870E94C60D2C012C852068F1
S1131930222E830123FC1BC0832D90E048165906F8
S1131940B0F4B70180E290E00E94DC0D3A94F4CF49
S1131950F50127FC859127FE81915F01B70190E095
S11319600E94DC0D31103A94F1E04F1A51084114F1
S1131970510471F7E5C0843611F0893639F5F80160
S113198027FF07C060817181828193810C5F1F4FA3
S113199008C060817181072E000C880B990B0E5FC3
S11319A01F4F2F76722E97FF09C0909580957095E2
S11319B061957F4F8F4F9F4F2068722E2AE030E051
S11319C0A4010E94140EA82EA81844C0853729F437
S11319D02F7EB22E2AE030E025C0F22FF97FBF2EF1
S11319E08F36C1F018F4883579F0B4C0803719F017
S11319F0883721F0AFC02F2F2061B22EB4FE0DC066
S1131A008B2D8460B82E09C024FF0AC09F2F9660D6
S1131A10B92E06C028E030E005C020E130E002C065
S1131A2020E132E0F801B7FE07C060817181828154
S1131A3093810C5F1F4F06C06081718180E090E04C
S1131A400E5F1F4FA4010E94140EA82EA818FB2D90
S1131A50FF777F2E76FE0BC0372D3E7FA51450F402
S1131A6074FE0AC072FC08C0372D3E7E05C0BA2C35
S1131A70372D03C0BA2C01C0B52C34FF0DC0FE01B4
S1131A80EA0DF11D8081803311F4397E09C032FFE3
S1131A9006C0B394B39404C0832F867809F0B3943A
S1131AA033FD13C030FF06C05A2CB31418F4530C82
S1131AB05B18B32CB31468F4B70180E290E03C8760
S1131AC00E94DC0DB3943C85F5CFB31410F43B189D
S1131AD001C0312C34FF12C0B70180E390E03C8791
S1131AE00E94DC0D3C8532FF17C031FD03C088E73E
S1131AF090E002C088E590E0B7010CC0832F86789F
S1131B0059F031FF02C08BE201C080E237FD8DE263
S1131B10B70190E00E94DC0DA51438F4B70180E30E
S1131B2090E00E94DC0D5A94F7CFAA94F401EA0DD8
S1131B30F11D8081B70190E00E94DC0DA110F5CF6A
S1131B40332009F451CEB70180E290E00E94DC0D0D
S1131B503A94F6CFF7018681978102C08FEF9FEF09
S1131B602C96CDBFDEBFDF91CF911F910F91FF90D7
S1131B70EF90DF90CF90BF90AF909F908F907F9029
S1131B806F905F904F903F902F900895FC010590C7
S1131B90615070400110D8F7809590958E0F9F1F6B
S1131BA00895FC016150704001900110D8F78095B0
S1131BB090958E0F9F1F08950F931F93CF93DF93DC
S1131BC0FB01238121FD03C08FEF9FEF28C022FF7B
S1131BD016C046815781248135814217530744F446
S1131BE0A081B1819D012F5F3F4F208331838C936E
S1131BF0268137812F5F3F4F2683378310C0EB0147
S1131C00092F182F0084F185E02D1995892BE1F611
S1131C108E819F8101968E839F83812F902FDF91E8
S1131C20CF911F910F910895FA01AA27283051F1FD
S1131C30203181F1E8946F936E7F6E5F7F4F8F4FF9
S1131C409F4FAF4FB1E03ED0B4E03CD0670F781F58
S1131C50891F9A1FA11D680F791F8A1F911DA11D3D
S1131C606A0F711D811D911DA11D20D009F4689476
S1131C703F912AE0269F11243019305D3193DEF61E
S1131C80CF010895462F4770405D4193B3E00FD0D4
S1131C90C9F7F6CF462F4F70405D4A3318F0495DBF
S1131CA031FD4052419302D0A9F7EACFB4E0A695A2
S1131CB09795879577956795BA95C9F700976105C4
S1131CC0710508959B01AC010A2E0694579547951A
S1131CD037952795BA95C9F7620F731F841F951F0F
S10B1CE0A01D0895F894FFCF44
S1131CE840060140060405100810201003826C10F9
S1131CF801FE03106C8203C8A8980418A0A07805F4
S1131D0888502050880538C030C038051860806075
S1131D181804788080F803087C880490A8A84803ED
S1131D28F8100804102828F804F8282810047088E3
S1131D38887004F81008F005F808F008F001FE04AB
S1131D48FE20508802807A01FA04FE1008F004107C
S1131D58A8A87803FC12020470A8A8300470888824
S1131D68FE047088888804FE88887004708888F85F
S1131D780202040380808003040204038282FE03B7
S1131D880638C003FE828205C2A2928A8605060826
S1131D98F0080605C6281028C6053EC038C03E050A
S1131DA80E30C0300E047E80807E050202FE0202E0
S1131DB8044C92926404FE1232CC057C82A242BC8A
S1131DC804FE12120C047C82827C05FE041860FE58
S1131DD805FE040804FE04FE80808005FE102844E5
S1131DE882044080807E0382FE8204FE1010FE0579
S1131DF87C829292F404FE12120204FE92928204ED
S1131E08FE82827C047C82824404FE92926C05F8F1
S1131E18141214F808384492AAAABA241805040219
S1131E28A2120C0482442810042828282804102804
S1131E38448201C40144054C9292927C056C9292AE
S1131E48926C050202F20A06057C92929264055E7F
S1131E588A8A8A7205302824FE2005448292926C6C
S1131E680584C2A2928C050084FE8000057CA2929F
S1131E788A7C03C0380601800310101001C00310C7
S1131E883810032810280382443803384482010692
S1131E98056C92AC40A005462610C8C4054854FEFB
S1131EA854240528FE28FE280306000601BE020065
S1131EB800CE21CC21C821C221BC21B621B021AE3B
S1131EC821AA21A621A2219E219C21982196219212
S1131ED8218C21862180217A2174216E2168216236
S1131EE8215C215621542152214D21482143213D71
S1131EF82134212E21292124211F211A2115210FC2
S1131F08210A2106210121FB20F620F020EA20E500
S1131F1820E020DA20D520D020CA20C520BF20B94F
S1131F2820B320AD20A720A3209F209B2097209397
S1131F382090208B20862081207C20772073206E9F
S1131F48206920672064205F205D20572052204D9F
S1131F5820482043203F203A20362031202B2025BA
S1131F68201F201A201620122010200C20062000E2
S1131F788108000001CC220800000000000000775E
S1131F8869647468203A2025640000454D4F4E006A
S1131F9873616D706C652074657874002564203AEB
S10F1FA820256325632563256325630061
S9030000FC
