:100000000C9468010C9489010C9489010C94890169
:100010000C9489010C9489010C9489010C94890138
:100020000C9489010C9489010C9489010C94890128
:100030000C9489010C9489010C9468030C94890137
:100040000C9489010C9489010C9489010C94890108
:100050000C9489010C9489010C9489010C948901F8
:100060000C9489010C94AF120C94C3120C94B91225
:100070000C94CD120C94E1120C94D7120C948901BB
:100080000C9489010C9489010C9489010C948901C8
:100090000C9489010C9489010C9489010C948901B8
:1000A0000C9489010C9489010C9489010C948901A8
:1000B0000C9489010C9489010C9489010C94890198
:1000C0000C9489010C9489010C9489010C94890188
:1000D0000C9489010C9489010C9489010C94890178
:1000E0000C9489010C9489010C9409130C941D1330
:1000F0000C9413130C9489010C9489010C948901BC
:100100000C9489010C9489010C9489010C94890147
:100110000C9489010C9489010C9489010C94890137
:100120000C9489010C9489010C9489010C94890127
:100130000C9489010C9489010C9489010C94890117
:100140000C9489010C9489010C9489010C94890107
:100150000C9489010C9489010C9489010C948901F7
:100160000C94EB120C94FF120C94F5120C94890170
:100170000C9489010C9489010C9489010C948901D7
:100180000C9489010C9489010C9489010C948901C7
:100190000C9489010C9489010C9489010C948901B7
:1001A0000C9489010C9489010C9489010C948901A7
:1001B0000C9489010C9489010C9489010C94890197
:1001C0000C9489010C9489010C9489010C94890187
:1001D0000C9489010C9489010C9489010C94890177
:1001E0000C9489010C9489010C9489010C94890167
:1001F0000C9489010C94200F0C948901F809230AAE
:10020000FA0A230AFA0A5E0A750AFA0ACC0AD90A15
:100210000C94A30F0C945E0A0C94FA0A0C94210718
:100220000C94230A0C94F8090C94940F0C94D90A9A
:100230000C94AC0F0C94750A0C94CC0A0C94FB082B
:100240000C9412081C034C0055004600410020008D
:100250004300440043002000440065006D006F002F
:10026000000018034400650061006E002000430098
:1002700061006D0065007200610000000403090464
:1002800009023E00020100C032090400000102021E
:1002900001000524001001042402060524060001C3
:1002A000070582030800FF09040100020A0000009C
:1002B000070504021000050705830210000512015E
:1002C000100102000008EB03442001000102DC01E0
:1002D00011241FBECFEFCDBFDFE9DEBF00E00CBFB2
:1002E00012E2A0E0B0E2E2EDF8E200E00BBF02C0F3
:1002F00007900D92AC3CB107D9F728E9ACECB2E21B
:1003000001C01D92AD34B207E1F70E94B9110C94FF
:1003100067140C9400000F931F93CF93DF931F92E9
:100320001F92CDB7DEB719828A8322E0AE014F5FFC
:100330005F4F89E395E90E94BC13000080915195BD
:10034000813071F000EA14E0F801848186FFFCCF6F
:1003500089E395E90E94C213809151958130A1F7FC
:1003600000000F900F90DF91CF911F910F91089592
:1003700064E60E948B010895882321F083E10E94A6
:10038000B801089584E10E94B8010895292F332708
:100390002230310559F02330310569F02130310523
:1003A00029F582E190E02EEB32E029C08EE390E067
:1003B00020E832E024C099278130910559F082303D
:1003C000910571F0892BB9F4ECE7F2E0849190E0AB
:1003D0009F0115C0E2E6F2E0849190E09F010FC01A
:1003E000E4E4F2E0849190E09F0109C080E090E0B5
:1003F00020E030E004C080E090E020E030E0FA014E
:1004000020833183089531E1FC013083319722E26A
:1004100020833197A3E3A083319760833197708362
:100420003197108231971082319760E8608331975D
:100430001082319762E06083319763E06083319787
:1004400064E06083319765E06083319766E06083A4
:10045000319767E06083319768E06083319769E0A6
:100460006083319760E1608331973083319732E167
:100470003083319733E13083319734E130833197E2
:1004800035E13083319736E13083319737E130837E
:10049000319738E13083319739E13083319730E259
:1004A0003083319731E2308331972083319723E2D3
:1004B00020833197408331975083319726E2208300
:1004C000319727E22083319728E22083319729E270
:1004D0002083319720E32083319721E3208387977E
:1004E000089565E080E098E00E945B1383EF91E05F
:1004F000809326089093270861E080E098E00E94AE
:100500006113E0EAF0E0828181608283A091279309
:10051000B0912893CD91CDBFDD91DEBFFF91EF91DA
:10052000DF91CF91BF91AF919F918F917F916F910B
:100530005F914F913F912F911F910F91FF90EF90FD
:10054000DF90CF90BF90AF909F908F907F906F90F3
:100550005F904F903F902F901F900F900FBE0F9085
:10056000089581E008950F920FB6F8940F921F92AC
:1005700011242F923F924F925F926F927F928F92AF
:100580009F92AF92BF92CF92DF92EF92FF920F9322
:100590001F932F933F934F935F936F937F938F930B
:1005A0009F93AF93BF93CF93DF93EF93FF93A0916C
:1005B0002793B09128930DB60D920EB60D920E941E
:1005C0005207A0912793B0912893CD91CDBFDD9193
:1005D000DEBFFF91EF91DF91CF91BF91AF919F91DE
:1005E0008F917F916F915F914F913F912F911F91CB
:1005F0000F91FF90EF90DF90CF90BF90AF909F90C2
:100600008F907F906F905F904F903F902F901F90B2
:100610000F900FBE0F9008950F920FB6F8940F929F
:100620001F9211242F923F924F925F926F927F926E
:100630008F929F92AF92BF92CF92DF92EF92FF92F2
:100640000F931F932F933F934F935F936F937F93DA
:100650008F939F93AF93BF93CF93DF93EF93FF93CA
:10066000A0912793B09128930DB60D920EB60D92DE
:100670000E94C50581110E945207A0912793B09155
:100680002893CD91CDBFDD91DEBFFF91EF91DF913A
:10069000CF91BF91AF919F918F917F916F915F911A
:1006A0004F913F912F911F910F91FF90EF90DF900D
:1006B000CF90BF90AF909F908F907F906F905F9002
:1006C0004F903F902F901F900F900FBE0F90089566
:1006D0000E940C031895CF93DF93EC010E94BF0595
:1006E0008091CC229091CD22892B31F481ED92E240
:1006F0008093CC229093CD222091CE223091CF2294
:10070000CE01820F931F8F3F4FE6940770F4281796
:10071000390770F4C091CC22D091CD22C20FD31FE3
:100720008093CE229093CF2205C0C0E0D0E002C0DB
:10073000C0E0D0E00E947F06CE01DF91CF91089506
:100740000895FC010396818392832FEF3FEF23836B
:100750003483858396838783908710820895FC0174
:10076000108611860895CF93DF939C01FB01DC0175
:100770001196CD91DC911297C283D3838C819D8198
:10078000848395838C819D81DC0112966D937C938B
:1007900013976C837D8320873187F90180818F5F78
:1007A0008083DF91CF910895CF93DF93EB01488150
:1007B00059814F3F2FEF520721F4FC01A781B085EB
:1007C0000DC0DC01139601C0DF011296ED91FC9182
:1007D00013972081318142175307B0F71296ED919C
:1007E000FC911397EA83FB83C483D583AC83BD83D9
:1007F0001296CD93DC93139788879987FC0120810B
:100800002F5F2083DF91CF910895CF93DF93FC0179
:10081000A085B185C281D381848195818C839D839C
:10082000C481D581828193818A839B831196CD91E6
:10083000DC911297CE17DF0731F48C819D811196E0
:100840008D939C931297108611868C9181508C9376
:10085000DF91CF910895E091EF92F091F092808135
:10086000811107C08FEF9FEF8093892290938A2296
:100870000895E091EF92F091F0920580F681E02DDD
:100880000680F781E02D8281938180938922909365
:100890008A220895CF93DF93EC01E0912793F091A2
:1008A0002893828393838091D7929091D892C8178E
:1008B000D90768F460912793709128938091ED9205
:1008C0009091EE926E5F7F4F0E94D40317C06091AB
:1008D0002793709128938091EF929091F0926E5FA0
:1008E0007F4F0E94D4038091892290918A22C81759
:1008F000D90720F4C0938922D0938A22DF91CF9127
:1009000008954F925F926F927F928F929F92AF92D3
:10091000BF92CF92DF92EF92FF920F931F93CF93EC
:10092000DF934C01EB015A01290183E290E00E9420
:100930006B033C01009709F4E5C0C114D10409F030
:10094000DCC0C5010E946B03F301878B908F009779
:1009500021F4C3010E94A003D5C0A50165EA70E09F
:100960000E941E14F1E0AF1AB108F3018789908D3F
:10097000A80EB91E8881818F8881882381F0D301D8
:100980005A96FE0131969E01285F3F4FEF018191FB
:100990008D938881882319F0E217F307B9F7F301E3
:1009A00010A2102F043008F013E0F301168BE301BE
:1009B0002296CE010E94AF03C3010C960E94AF03A2
:1009C000F3016086718684E090E0811B9109848741
:1009D0009587628A738AA201B401C5010E9403024D
:1009E000F30180839183E114F10419F0F70160822F
:1009F00071820FB6F8940F928091D9928F5F809395
:100A0000D9928091279390912893892BA9F5609290
:100A10002793709228938091D9928130E1F583E0F9
:100A200093E90E94A1038CE093E90E94A10385E170
:100A300093E90E94A1038EE193E90E94A1038AEF4A
:100A400092E90E94A10381EF92E90E94A10384EE42
:100A500092E90E94A1038BED92E90E94A1038AEF23
:100A600092E98093EF929093F09281EF92E98093D4
:100A7000ED929093EE920FC08091D59281110BC0B0
:100A8000E0912793F09128938689081720F06092CF
:100A90002793709228938091D1928F5F8093D19207
:100AA000F30181A386899091D692981710F48093D0
:100AB000D69290E09C01220F331F220F331F220F8A
:100AC000331F820F931FBE018D5F9C460E94B303AC
:100AD0000F900FBE8091D592882359F0E091279313
:100AE000F09128938689801730F40E94B30281E048
:100AF0000AC081E008C081E006C0FC01C78AD08E30
:100B0000C6012BCF8FEFDF91CF911F910F91FF90F7
:100B1000EF90DF90CF90BF90AF909F908F907F909D
:100B20006F905F904F900895AF92BF92CF92DF92F7
:100B3000EF92FF920F93A12CB12CC12CD12CE12C60
:100B4000F12C00E020E030E045E550E06CEA72E294
:100B500081E297E00E948104813049F4F894809307
:100B6000D5921092D7921092D8920E9471020F9152
:100B7000FF90EF90DF90CF90BF90AF90089580915D
:100B8000D0928F5F8093D0920895DF92EF92FF9280
:100B90000F931F93CF93DF938091D09281119AC0CE
:100BA0008091D7929091D89201968093D79290930A
:100BB000D892E090D792F090D892E114F104B9F471
:100BC0008091EF929091F0922091ED923091EE927F
:100BD0002093EF923093F0928093ED929093EE9267
:100BE0008091D2928F5F8093D2920E942B04809149
:100BF000892290918A22E816F90610F4D12C52C06D
:100C0000D12CE091EF92F091F0929081911107C078
:100C10008FEF9FEF8093892290938A2243C0E091C7
:100C2000EF92F091F0920580F681E02DC681D78198
:100C30002A813B81E216F30628F42093892230931F
:100C40008A2230C08E010E5F1F4FC8010E9405042A
:100C50008C899D89892B21F0CE010C960E94050478
:100C60002E898091D692821710F42093D69230E08C
:100C7000C901880F991F880F991F880F991F820F2C
:100C8000931FB8018D5F9C460E94B303E0912793A8
:100C9000F09128939E898689981708F4B2CFDD24B5
:100CA000D394AFCFE0912793F0912893868990E079
:100CB000FC01EE0FFF1FEE0FFF1FEE0FFF1F8E0F49
:100CC0009F1FFC01ED5FFC468081823048F0DD24EF
:100CD000D39406C08091D4928F5F8093D492D12C0C
:100CE0008091D392882311F0DD24D3948D2DDF9150
:100CF000CF911F910F91FF90EF90DF900895DF92B9
:100D0000EF92FF920F931F93CF93DF930FB6F89458
:100D10000F928091D09281508093D0928091D09206
:100D2000811162C08091D992811133C060C0D70116
:100D30001596ED91FC911697C681D781CE010C9640
:100D40000E9405048E010E5F1F4FC8010E9405041A
:100D50002E898091D692821710F42093D69230E09B
:100D6000C901880F991F880F991F880F991F820F3B
:100D7000931FB8018D5F9C460E94B303E0912793B7
:100D8000F09128939E898689981758F0D092D39233
:100D900008C00F2EF4EEEF2EF2E9FF2EF02DDD2429
:100DA000D394F70180818111C2CF8091D49288239E
:100DB00099F08091D492882379F0C1E00E94C50512
:100DC0008111C093D3928091D49281508093D49218
:100DD0008091D4928111F2CF8091D392813031F4FD
:100DE0000E94B30281E003C080E001C080E00F9068
:100DF0000FBEDF91CF911F910F91FF90EF90DF9089
:100E00000895CF93DF93EC01892BB1F00E94BF05C9
:100E10008091D7929091D892C80FD91F8091279333
:100E20009091289302960E940504CE010E944A04E4
:100E30000E947F06811102C00E94B302DF91CF9110
:100E400008950BED12E929C00E94BF05D801CC918D
:100E50000E947F06CC2309F10FB6F8940F92D801B7
:100E60001596ED91FC911697C681D781CE01029619
:100E70000E9405048091D99281508093D9928091EB
:100E8000DA9281508093DA920F900FBE8F89988DFD
:100E90000E94A003CE010E94A0038091DA928111EA
:100EA000D3CFFBCF8091D092882321F081E0809333
:100EB000D39208951092D3928091D69290E0FC0143
:100EC000EE0FFF1FEE0FFF1FEE0FFF1F8E0F9F1F76
:100ED000FC01ED5FFC468081811117C08091D692A4
:100EE00081508093D6928091D69290E0FC01EE0FD3
:100EF000FF1FEE0FFF1FEE0FFF1F8E0F9F1FFC0146
:100F0000ED5FFC468081882349F38091D69290E082
:100F10009C01220F331F220F331F220F331F280F74
:100F2000391FD901AD5FBC461196ED91FC91129726
:100F30000280F381E02D1196ED93FC9312972A5FC6
:100F40003C46E217F30729F422813381FD01218316
:100F50003283FC01EE0FFF1FEE0FFF1FEE0FFF1F8E
:100F60008E0F9F1FFC01ED5FFC460180F281E02D9A
:100F70008681978180932793909328930895CF93A8
:100F8000DF93EC01FC0170968BE0DF011D928A95E6
:100F9000E9F782E08C83898783E08E8761E0CE0168
:100FA00001960E94B50D882361F061E0CE0106969E
:100FB0000E94B50D882329F061E0CE010B960E94B6
:100FC000B50DDF91CF910895CF93FC019091589585
:100FD000943019F584899589A689B789892B8A2B3C
:100FE0008B2BE9F0C62F81810E94A40C8091619522
:100FF00090916295FC01EF5BFF4F208131978081DA
:10100000281730F00E945C0C0E94640E811108C009
:101010008C2F0E94940C80E003C082E001C082E02B
:10102000CF910895FB01682F848595850E94E40780
:1010300021E030E0811102C020E030E088279927CC
:10104000821B930B0895CF93DF93FC0190915895E9
:101050009430F1F584899589A689B789892B8A2BE3
:101060008B2BC1F181810E94A40C8091659588230E
:101070004CF4E0916195F0916295EF5BFF4F8081B8
:1010800090E00DC02091619530916295F901E05C8E
:10109000FF4F80813196208190E0821B9109892B3E
:1010A000D9F08091619590916295FC01EF5BFF4FC3
:1010B000D0813197C0810E945C0CDC1778F00E94CF
:1010C000640EC82F81110CC00E945C0C8C2F08C0CC
:1010D00082E006C082E004C080E002C080E000C080
:1010E000DF91CF910895CF93DF93FC0190915895B4
:1010F000943099F484899589A689B789892B8A2B9C
:101100008B2B59F0EF0181810E94A40C0E94E40C0A
:10111000882319F0CE010E942308DF91CF91089512
:10112000CF93DF9320915895243009F056C0FC01ED
:101130004489558966897789452B462B472B09F4C5
:101140004FC086810E94A40C0E94F10C882309F4F0
:101150004AC08091659588234CF4E0916195F091A7
:101160006295EF5BFF4F808190E00DC0209161950B
:1011700030916295F901E05CFF4F808131962081CA
:1011800090E0821B9109892B29F00E94840CC82FC2
:10119000D0E002C0CFEFDFEF8091659588234CF45B
:1011A000E0916195F0916295EF5BFF4F208130E017
:1011B0000DC04091619550916295FA01E05CFF4F3E
:1011C00020813196808130E0281B3109232B71F476
:1011D0000E94750C8C2F9D2F0BC08FEF9FEF08C0C6
:1011E0008FEF9FEF05C08FEF9FEF02C08C2F9D2FD9
:1011F000DF91CF910895FC01848595850E94900828
:10120000992314F48EEF9FEF0895FB012EE0DB018C
:101210001D922A95E9F723E0238322E138E0208715
:1012200031872BEF38E022873387848795870895AD
:101230000895FF920F931F93CF93DF93EC010E94C9
:101240000B0D882309F49BC0288130E080915D95C7
:1012500090915E958217930709F091C080915A95FD
:10126000813259F018F4803281F189C0823209F458
:1012700067C0833209F476C082C080915995813A63
:1012800009F07DC00E94250D0E94E40C8823E1F343
:101290008C89FD880E891F890E94940C8F2D0E94D5
:1012A000940C802F0E94940C812F0E94940C888DA6
:1012B0000E94940C898D0E94940C8A8D0E94940C3B
:1012C0000E945C0C0E94490E5AC08091599581324F
:1012D00009F055C00E94250D05C0809158958823BE
:1012E00009F44DC00E94F10C8823B9F30E94840CCC
:1012F000F82E0E94840C182F0E94840C082F0E9444
:10130000840C402F50E060E070E0BA01552744277C
:10131000782B4F29512B4C8B5D8B6E8B7F8B0E94D2
:10132000840C888F0E94840C898F0E94840C8A8F81
:101330000E94750C0E94490ECE010E9418091FC020
:10134000809159958132D9F40E94250D0E94490E51
:1013500080915B9590915C95888B998BCE010E94D2
:101360008C120DC080915995813249F40E94250D4F
:101370000E94490E60915B95CE010E941809DF9191
:10138000CF911F910F91FF900895EF92FF920F93CD
:101390001F93CF93DF93CDB7DEB7EA97CDBFDEBF04
:1013A00009E515E90F2EF1E6EF2EF5E9FF2EF02DF8
:1013B0000E94840CF80181938F01EE15FF05C1F79F
:1013C0000E9487120E940B0D882309F413C1E9E5DE
:1013D000F5E920813181832F90E08A30910508F072
:1013E00009C1FC018827E250FF4F8F4F0C9416145F
:1013F000203821F0223809F0FDC008C01091559521
:1014000080915695882391F0126010C080915D956F
:101410008F700E94A40CE0916395F0916495118106
:1014200012FB112710F980E00E94A40C0E94250DE8
:10143000812F0E94940C80E00E94940C0E945C0C0E
:101440000E94490ED7C0222309F4DDC0223009F0E2
:10145000D1C0DEC081E0333009F080E08093569542
:1014600025C0E0915D951E2F1F7009F4C3C0812F28
:101470000E94A40C80915A95833019F40E94530D58
:1014800015C0E0916395F091649581818B7F818394
:1014900024E8129FF0011124E955FA461082E091E8
:1014A0006395F091649580818E7F808380E00E94B7
:1014B000A40C0E94250D0E94490E9CC021119AC0C7
:1014C00010915B951F770E94250D0E94490E0E9486
:1014D000E40C8823E1F31093C304111102C082E0ED
:1014E00001C083E08093589585C02058223008F0D1
:1014F00081C080915B9590915C958C3DE3E09E0767
:10150000B9F583E08A838AE389837FB7F894AE01D3
:101510004D5F5F4F20E038E0A0ECB1E062E01A964A
:101520006C931A97E32FF0E084911A961C921A9705
:1015300020FF03C082958F703F5F8F708A3018F054
:1015400090E0C79602C090E0C096FA018193919313
:10155000AF012F5F2C3119F77FBF0E94250D6AE381
:1015600070E0CE0101960E942D0B0E94750C42C0C6
:10157000AE014F5F5F4F60915D950E94C6018C0187
:10158000892BC1F10E94250DB80189819A810E94A1
:10159000C30B0E94750C2EC0203861F50E94250DEA
:1015A000809154950E94940C0E945C0C0E94490EFC
:1015B00021C021111FC080915B958230D8F40E9418
:1015C000250D80915B95809354950E94490E8091E2
:1015D0005495882321F084E08093589509C0809128
:1015E000C304811102C081E001C084E0809358955A
:1015F0000E9470120E940B0D882381F00E94250D1D
:101600000E94530D0BC080915B95813099F722CFDA
:1016100080915B95882309F424CF48CFEA96CDBF0B
:10162000DEBFDF91CF911F910F91FF90EF90089552
:101630000895CF9380915895882369F0C09165955E
:1016400080E00E94A40C0E940B0D81110E94C5092C
:101650008C2F0E94A40CCF910895CF92DF92EF922D
:10166000FF920F931F93CF93DF93C82ED92E8B0138
:101670008091659580680E94A40CC0915F95D0917F
:101680006095C017D10740F00115110521F40E94A3
:101690005C0CE80101C0E801EC2CFD2CD12C49C008
:1016A00080915895882309F45AC0853009F459C0AF
:1016B0000E940B0D811157C00E94F10C811149C08D
:1016C0000E94E40C8823A9F180916595882374F425
:1016D000E0916195F0916295EF5BFF4F008110E022
:1016E0002097F9F00830110578F01BC080916195C2
:1016F00090916295FC01E05CFF4F00813196808102
:1017000010E0081B1109ECCFF70181917F010E94C5
:10171000940C21970F5F1F4F209719F00830110587
:1017200099F7DD24D3940830110509F0D12C0E94DB
:101730005C0C209709F0B4CFD110B2CF0AC08091D1
:101740005895882391F0853091F00E940B0D8111FE
:1017500010C00E94F10C882391F380E00BC082E05E
:1017600009C083E007C081E005C082E003C083E0D8
:1017700001C081E0DF91CF911F910F91FF90EF9019
:10178000DF90CF900895DF92EF92FF920F931F9317
:10179000CF93DF93E82EF92E8B01809165958068B9
:1017A0000E94A40CC0915F95D0916095C017D1079D
:1017B00040F00115110521F40E945C0CE80101C004
:1017C000E8010E2D1F2DD12C4EC0809158958823F5
:1017D00009F45FC0853009F45EC00E940B0D8111D1
:1017E0005CC00E94F10C81114EC00E94E40C882361
:1017F000D1F18091659588237CF4E0916195F09119
:101800006295EF5BFF4FE080F12C209719F188E0A3
:10181000E816F10478F01EC0809161959091629570
:10182000FC01E05CFF4FE08031968081F12CE81AEA
:10183000F108EBCFF80184910E94940C0F5F1F4FC9
:101840002197FFEFEF1AFF0A209721F088E0E816B2
:10185000F10481F7DD24D394E8E0EE16F10409F0F9
:10186000D12C0E945C0C209709F0AFCFD110ADCFE6
:101870000AC080915895882391F0853091F00E949C
:101880000B0D811110C00E94F10C882391F380E0B0
:101890000BC082E009C083E007C081E005C082E0A0
:1018A00003C083E001C081E0DF91CF911F910F91D0
:1018B000FF90EF90DF900895E0916395F09164952B
:1018C000A0916195B0916295AF5BBF4F8C9190E014
:1018D0008283938380818D798083E0916195F091FB
:1018E0006295EF5BFF4F10820895E0916395F09150
:1018F000649580818D798083E0916195F091629506
:10190000EF5BFF4F108208958091619590916295F1
:10191000FC01EF5BFF4F208131E0320F3083FC018F
:10192000E20FF11D808108952091619530916295BB
:10193000F901EF5BFF4F908141E0490F4083F901CE
:10194000E90FF11D8083089580936595282F2F70EE
:1019500030E04091C6045091C7048823E4F464E861
:10196000629FC001639F900D112488559A46809311
:10197000619590936295C90182959295907F982781
:10198000807F982708969A01280F391F2093639526
:1019900030936495089564E8629FC001639F900D41
:1019A00011248A599A468093619590936295229565
:1019B0003295307F3227207F3227240F351F209326
:1019C00063953093649508958091659580680E9431
:1019D000A40CE0916395F091649580818695817067
:1019E0000895809165958F770E94A40CE09163958E
:1019F000F0916495808185FF0CC0809161959091F4
:101A0000629522813381FC01E05CFF4F208381E0FD
:101A1000089580E00895809165958F770E94A40CC9
:101A2000E0916395F0916495808184FF0CC0809172
:101A300061959091629522813381FC01E05CFF4FBA
:101A4000208381E0089580E00895809165958F77E7
:101A50000E94A40CE0916395F091649580818D784B
:101A60008083E0916395F0916495808181608083AB
:101A7000E0916195F0916295EF5BFF4F108280914C
:101A8000659580680E94A40CE0916395F09164953F
:101A9000808181608083E0916195F0916295EF5B38
:101AA000FF4F10820895E0916395F09164958181D4
:101AB00084608183E0916395F09164958181807C5D
:101AC000803461F48091659580580E94A40CE09167
:101AD0006395F091649581818460818308951F935B
:101AE000CF93DF93D82F162FC42F0E94A40CE09120
:101AF0006395F09164951182E0916395F0916495FE
:101B0000DD23A4F01082E0916395F0916495118338
:101B1000E0916395F09164951282138280916195B2
:101B2000909162958483958340E014C082E0808325
:101B3000E0916395F09164951183E0916395F09144
:101B4000649512821382809161959091629584834D
:101B500095834C2FFC01E05CFF4F4083319610824F
:101B600081E0DF91CF911F910895AF92BF92CF9204
:101B7000DF92EF92FF920F931F93CF93DF93662331
:101B800009F457C0A62E7C018C0184E0E80EF11CFC
:101B9000B12CF801C080CC2009F441C0C181D281B0
:101BA000F70131978081F7019081923010F448E07D
:101BB00001C048E1C930D10550F028E030E090E0A4
:101BC0009F5F220F331F2C173D07D0F301C090E019
:101BD000942B2C2D2F7030E02530310564F59F7E3D
:101BE000C134D10550F5882319F0813021F006C0A9
:101BF0009064D92E07C0906CD92E0AC09068D92E57
:101C0000811106C04C2F6D2D80E88C0D0E946F0D48
:101C10004C2F6D2D8C2D0E946F0D882379F0B3947D
:101C20000B5F1F4FF5E0EF0EF11CBA10B2CF81E051
:101C300005C081E003C080E001C080E0DF91CF916A
:101C40001F910F91FF90EF90DF90CF90BF90AF90DA
:101C5000089520E030E0A0ECB4E01696ED91FC9100
:101C60001797C90182959295907F9827807F982732
:101C7000E80FF91F118616964D915C911797FA019E
:101C8000E80FF91F11822F5F3F4F2530310529F7EB
:101C9000089580915995882384F404C080915895C3
:101CA000882389F00E94F10C8823C1F30E94750CEF
:101CB000089580915895882331F00E94E40C882380
:101CC000C1F30E945C0C0895FF920F931F93CF9372
:101CD000DF93E091C604F091C704E05BFF4FC08141
:101CE000D1810F2EF4E6FF2EF02D00EC14E002C09F
:101CF000F22EEC018091659588232CF40E94E40C6F
:101D0000882329F023C00E94F10C811121C0809109
:101D100058958823F9F08530F9F0E0916395F091BA
:101D20006495818182FD1AC0D8011696ED91FC91CF
:101D30001797E05BFF4F80819181C817D907C9F2DF
:101D40002FEF2F0DF110D4CF84E009C080E007C041
:101D500080E005C082E003C083E001C081E0DF9144
:101D6000CF911F910F91FF900895CF93DF93E0E4FF
:101D7000F0E014828481836084830E94130F0E94A8
:101D80001A0FC0ECD4E088818F77888388818068BF
:101D900088831092589510925495109256951092EF
:101DA000559588818064888348E068E480E80E94D3
:101DB0006F0D48E068E480E00E946F0D88858064C4
:101DC0008887898181608983DF91CF910895CF933E
:101DD000DF932FB7F894C0ECD1E082E08A87EAE184
:101DE000F0E0E491A0ECB4E0DA96EC93DA97EBE162
:101DF000F0E0E491DB96EC93DB971A868BEF97E9A2
:101E00008E7F16968D939C93179784E18C9383E035
:101E100018968C932FBF81E0809357950E94B50E42
:101E2000DF91CF910895E0ECF4E0808583708087A6
:101E300011860895E0ECF4E08FEF8287848708959F
:101E40001F920F920FB60F9211240BB60F922F9381
:101E50003F934F935F936F937F938F939F93AF9332
:101E6000BF93EF93FF938091CA0488234CF4809131
:101E7000C80488232CF480E88093CA040E94180BBD
:101E80008091CA0486FF07C080E48093CA04109240
:101E900058950E9464128091CA0485FF16C080E2A2
:101EA0008093CA0480915495882321F084E0809324
:101EB000589509C08091C304811102C081E001C01E
:101EC00083E0809358950E9457128091CA0484FF42
:101ED00018C0E0ECF4E080E1828782E080935895BE
:101EE0001092549513820E94290E48E068E480E81D
:101EF0000E946F0D48E068E480E00E946F0D0E9430
:101F0000180BFF91EF91BF91AF919F918F917F91AE
:101F10006F915F914F913F912F910F900BBE0F905A
:101F20000FBE0F901F9018950E94BF058BE892E29C
:101F30000E9473080E94190B0E947F0681E090E0C6
:101F40000E940107F1CF84E690E00E94010786EA33
:101F500092E20E949F12F7CFC0E0D1E084EF91E0BF
:101F60000E9401078C2F0E94BC01CD2789EA92E2D2
:101F70000E949F120E94BF0529E233E94AE050E027
:101F800061E070E081EB92E20E9425140E947F06DE
:101F9000E5CFFC01818185FFFDCF6083818186FFD4
:101FA000FDCF80E48183808108951F93CF93DF93D9
:101FB000C0EAD6E018E01E83E0E6F6E091E0968302
:101FC0009683682F80EA99E00E94C90F1D83DF91F4
:101FD000CF911F910895EF92FF920F931F93CF938C
:101FE000DF93C0EAD6E018E01E830F2EF0E6EF2E56
:101FF000F6E0FF2EF02D01E0F7010583682F80EA5F
:1020000099E00E94C90FF70106831D83DF91CF91EC
:102010001F910F91FF90EF9008958770806B0E9441
:10202000D50F0895CF93C82F982F9F77892F82952A
:102030008F7080610E94D50F8C2F8F700E94D50FFA
:10204000CF910895CF93DF93EC01FB018C818F7EBC
:102050008C83A0E6B6E082E011968C9311971596DA
:102060008C938D81806C8D8384818D7F813021F470
:102070008D8182608D8303C08D818D7F8D8385816D
:10208000882321F08D8184608D8303C08D818B7FB7
:102090008D8380819181A281B3819C01AD01220F4A
:1020A000331F441F551F60E078E488EE91E00E94E2
:1020B000F41321503109832F8F708F832E838C81ED
:1020C00088608C83DF91CF910895CF93DF9300D008
:1020D00000D0CDB7DEB720EA36E088E0D90111960E
:1020E0008C93A0E6B6E091E011969C931197E0E006
:1020F000F6E0818392E011969C93119711968C9350
:10210000D90115968C938683BAE6BA95F1F700C08B
:102110008583EAE6EA95F1F700C0E0E7F0E0848124
:102120008F7E848380E09BE1A7EBB0E089839A8374
:10213000AB83BC831D821E82BE016F5F7F4F80EA2E
:1021400099E00E94221088EA0E94D50F8FE10E9438
:10215000D50F83ED0E94D50F80E00E94D50F80E45B
:102160000E94D50F81EA0E94D50F88EC0E94D50FFE
:102170008AED0E94D50F82E00E94D50F81E80E946F
:10218000D50F8FE80E94D50F84EA0E94D50F86EA0A
:102190000E94D50F85ED0E94D50F80E80E94D50FD3
:1021A0008DE80E94D50F84E10E94D50F8BED0E942F
:1021B000D50F80E40E94D50F89ED0E94D50F81EFE5
:1021C0000E94D50F8FEA0E94D50F2696CDBFDEBFA5
:1021D000DF91CF910895EF92FF920F931F93CF93CA
:1021E000DC01EC91EE2329F17C01BFEFEB1AFB0A35
:1021F000EF37D0F4F0E0EE0FFF1FE557FE4D008102
:102200001181F8018081882361F0C1E0F801EC0FB1
:10221000F11D80810E94EB0FCF5FD8019C919C172C
:10222000A8F780E00E94EB0FD701ED917D01E1114D
:10223000DFCFCF911F910F91FF90EF90089520E88D
:10224000829FC0011124860F911DE0913793F09178
:102250003893E80FF91F4083089520E8829FC0015A
:102260001124860F911DE0913793F0913893E80F78
:10227000F91F808108951F93CF93DF93182FD62FD6
:10228000C42F211104C00E942D118C1771F04C2F06
:102290006D2F812F0E941F11812F0E940D108D2FF5
:1022A0000E9412108C2F0E94EB0FDF91CF911F9193
:1022B0000895CF93DF93E0E5F0E080E185838081AE
:1022C00080618083818184FFFDCF8FB7F894A0E483
:1022D000B0E094E028ED30E01BBEFD0124BF908308
:1022E0008FBF8FE39FE10197F1F700C000008C9151
:1022F000E0E5F0E0808182608083818181FFFDCF15
:10230000E0E5F0E0868184608683A0E6B0E08BE1C2
:1023100015968C93159787EB16968C931697C0ECB1
:10232000D1E082E08A87EDE1F0E0E4911296EC934F
:102330001297ECE1F0E0E4911396EC9313971A8670
:1023400081E08C9387E08093A200E0EEF7E083E0E9
:10235000818386838093B00080E4808BE0E6F6E0A2
:1023600090E391839683848B0E94E70EDF91CF9157
:10237000089561E089EA92E20E948D1261E086EAA6
:1023800092E20E948D120E94591189E393E9809391
:102390003793909338930E946510D0E00FC08D2F33
:1023A0000E940D108C2F0E94121080E00E94EB0FF3
:1023B000CF5FC038A1F7DF5FD43011F0C0E0EFCFBE
:1023C00080E40E94D50FD0E00CC021E040E06C2FEB
:1023D0008D2F0E943B11CF5FC038B9F7DF5FD4303B
:1023E00011F0C0E0F2CF000080E00E940D108CEBF5
:1023F00092E20E94EB1061E089EA92E20E948D1263
:1024000061E086EA92E20E948D12E0E5F0E08081D0
:1024100082608083818181FFFDCF81E00E9446132D
:1024200081E00E943C13E0EEF7E081E0818382E0EE
:10243000818380E18093610669E273E98BE892E22F
:102440000E940509789400002BE940E060EA74E0FE
:1024500089E395E90E946713000000000000A12CA9
:10246000B12CC12CD12CE12CF12C00E020E030E08B
:1024700044E650E061EC72E28CEA9FE00E94810445
:1024800020E030E044E650E064EC72E283EA9FE052
:102490000E94810420E030E048EC50E067EC72E2FA
:1024A00084E99FE00E9481040E949405FFCF83E0AD
:1024B0008093E60780E38093660682E08093E507D9
:1024C00080E180936506089583E08093E60780E3CA
:1024D0008093660681E08093E50710926506089573
:1024E0008BE892E20E94BF07811102C081E101C026
:1024F00082E293E09093E60790E390936606982F2C
:1025000093709093E50780738093650608958BE838
:1025100092E20E94190908950895662379F0DC017A
:10252000ED91FC91119721E030E0A90112960C90F9
:1025300002C0440F551F0A94E2F741830895DC015D
:10254000ED91FC91119721E030E0A90112960C90D9
:1025500002C0440F551F0A94E2F7478308951F9263
:102560000F920FB60F9211240F900FBE0F901F9075
:1025700018951F920F920FB60F9211240F900FBE55
:102580000F901F9018951F920F920FB60F92112463
:102590000F900FBE0F901F9018951F920F920FB6BD
:1025A0000F9211240F900FBE0F901F9018951F923D
:1025B0000F920FB60F9211240F900FBE0F901F9025
:1025C00018951F920F920FB60F9211240F900FBE05
:1025D0000F901F9018951F920F920FB60F92112413
:1025E0000F900FBE0F901F9018951F920F920FB66D
:1025F0000F9211240F900FBE0F901F9018951F92ED
:102600000F920FB60F9211240F900FBE0F901F90D4
:1026100018951F920F920FB60F9211240F900FBEB4
:102620000F901F9018951F920F920FB60F921124C2
:102630000F900FBE0F901F9018951F920F920FB61C
:102640000F9211240F900FBE0F901F9018950F93AB
:10265000CF93DF931F92CDB7DEB72FB72983F894BE
:102660001BBEFC0108ED04BF608389818FBF0F9002
:10267000DF91CF910F910895E0E5F0E09081282F50
:102680002095922390839081892308950F931F931F
:10269000CF93C82F00E410E0F8016081687F682BB9
:1026A00080E490E00E942713F80180818C23CF9171
:1026B0001F910F910895FC019081907F692B608399
:1026C0000895FC0196819C7F692B66830895FC0127
:1026D000608371834863DB0111964C93A081B181C3
:1026E00015962C930190F081E02D81E0848308956C
:1026F0000F93CF93DF93FC01293098F5093098F5BB
:102700008789811132C081E0878B108E660F6283CA
:10271000222369F0A42FB52F40E050E08D91EF0106
:10272000C40FD51F8B834F5F5F4F4217B8F3238BC6
:10273000048B158A168A8389882341F082818E7FD3
:102740000190F081E02D868381E012C08489882386
:1027500071F0828181600190F081E02D868381E0BB
:1027600007C080E005C080E003C080E001C081E0D8
:10277000DF91CF910F9108950F9300E00E9478139D
:102780000F910895CF93DF93FC0193892489A08151
:10279000B18114968C91149784FF07C083E013963F
:1027A0008C9385E0808F178A1CC08589891758F41F
:1027B0008589EF01C80FD11D8B8117968C93858970
:1027C0008F5F858B0EC08689821728F48281816095
:1027D00016968C9306C083E013968C9381E0808FCD
:1027E000178ADF91CF910895A1E21A2EAA1BBB1B75
:1027F000FD010DC0AA1FBB1FEE1FFF1FA217B307CD
:10280000E407F50720F0A21BB30BE40BF50B661FE2
:10281000771F881F991F1A9469F7609570958095A6
:1028200090959B01AC01BD01CF010895EE0FFF1FF4
:10283000881F8BBF0790F691E02D1994DC0101C031
:102840006D9341505040E0F708958F929F92AF9260
:10285000BF92CF92DF92EF92FF920F931F93CF938D
:10286000DF935B014A017901D90113962C9121FF75
:102870001DC0C0E0D0E0C815D905D9F08C016C01AD
:10288000CA0CDB1CC8010C151D0571F00F5F1F4F32
:10289000D7011896ED91FC911997B701DC018C9145
:1028A0001995892B79F305C02196E5CF80E090E05A
:1028B00001C0CE01DF91CF911F910F91FF90EF905A
:1028C000DF90CF90BF90AF909F908F900895F89435
:0228D000FFCF38
:1028D20005100810201003826C1001FE03106C8298
:1028E20003C8A8980418A0A078058850205088052D
:1028F20038C030C03805186080601804788080F8CD
:1029020003087C880490A8A84803F810080410283B
:1029120028F804F8282810047088887004F8100831
:10292200F005F808F008F001FE04FE20508802804D
:102932007A01FA04FE1008F00410A8A87803FC1229
:10294200020470A8A83004708888FE047088888801
:1029520004FE88887004708888F80202040380806C
:102962008003040204038282FE030638C003FE824F
:102972008205C2A2928A86050608F0080605C628C4
:102982001028C6053EC038C03E050E30C0300E04C9
:102992007E80807E050202FE0202044C9292640452
:1029A200FE1232CC057C82A242BC04FE12120C043E
:1029B2007C82827C05FE041860FE05FE040804FE8B
:1029C20004FE80808005FE10284482044080807EC0
:1029D2000382FE8204FE1010FE057C829292F404B1
:1029E200FE12120204FE92928204FE82827C047C17
:1029F20082824404FE92926C05F8141214F808388C
:102A02004492AAAABA2418050402A2120C0482440F
:102A120028100428282828041028448201C40144CC
:102A2200054C9292927C056C9292926C050202F293
:102A32000A06057C92929264055E8A8A8A72053041
:102A42002824FE2005448292926C0584C2A2928CB4
:102A5200050084FE8000057CA2928A7C03C03806B1
:102A620001800310101001C0031038100328102831
:102A720003824438033844820106056C92AC40A0BC
:102A820005462610C8C4054854FE54240528FE28CD
:102A9200FE280306000601BE020000C821C621C2AC
:102AA20021BC21B621B021AA21A821A421A0219CC8
:102AB2002198219621922190218C21862180217AB0
:102AC2002174216E21682162215C21562150214E00
:102AD200214C21472142213D2137212E212821232A
:102AE200211E21192114210F21092104210021FB7A
:102AF20020F520F020EA20E420DF20DA20D420CFC5
:102B020020CA20C420BF20B920B320AD20A720A115
:102B1200209D209920952091208D208A208520803B
:102B2200207B20762071206D206820632061205E4A
:102B3200205920572051204C20472042203D203947
:102B420020342030202B2025201F20192014201073
:102B5200200C200A2006200020FFFF008310000026
:102B620001041000000182080000010000000000C2
:102B7200000000000000E00701E0070049444C4566
:102B8200006675636B20796F750D0A00454D4F4ED7
:0C2B9200007431007432007573620000A2
:00000001FF
