:100000000C9409020C942A020C942A020C942A02E1
:100010000C942A020C942A020C942A020C942A02B0
:100020000C942A020C942A020C942A020C942A02A0
:100030000C942A020C942A020C941A0B0C942A0297
:100040000C942A020C942A020C942A020C942A0280
:100050000C942A020C942A020C942A020C942A0270
:100060000C942A020C94421F0C94561F0C944C1FA3
:100070000C94601F0C94741F0C946A1F0C942A0239
:100080000C942A020C942A020C942A020C942A0240
:100090000C942A020C942A020C942A020C942A0230
:1000A0000C942A020C942A020C942A020C942A0220
:1000B0000C942A020C942A020C942A020C942A0210
:1000C0000C942A020C942A020C942A020C942A0200
:1000D0000C942A020C942A020C942A020C942A02F0
:1000E0000C942A020C942A020C949C1F0C94B01FAE
:1000F0000C94A61F0C942A020C942A020C942A0237
:100100000C942A020C942A020C942A020C942A02BF
:100110000C942A020C942A020C942A020C942A02AF
:100120000C942A020C942A020C942A020C942A029F
:100130000C942A020C942A020C942A020C942A028F
:100140000C942A020C942A020C942A020C942A027F
:100150000C942A020C942A020C942A020C942A026F
:100160000C947E1F0C94921F0C94881F0C942A02EE
:100170000C942A020C942A020C942A020C942A024F
:100180000C942A020C942A020C942A020C942A023F
:100190000C942A020C942A020C942A020C942A022F
:1001A0000C942A020C942A020C942A020C942A021F
:1001B0000C942A020C942A020C942A020C942A020F
:1001C0000C942A020C942A020C942A020C942A02FF
:1001D0000C942A020C942A020C942A020C942A02EF
:1001E0000C942A020C942A020C942A020C942A02DF
:1001F0000C942A020C9494160C942A026C119711F8
:100200006E1297116E12D211E9116E1240124D1238
:100210000C9497110C9440120C944D120C946C1188
:100220000C94261C0C94BF170C94E9110C94DD0B54
:100230000C946E120C94581D0C9408170C94860F95
:100240000C94D2110C946F106E616E00696E660092
:1002500000407A10F35A00A0724E18090010A5D47D
:10026000E80000E87648170000E40B54020000CADA
:100270009A3B000000E1F505000080969800000020
:1002800040420F000000A08601000000102700007F
:100290000000E803000000006400000000000A0005
:1002A000000000000100000000002C76D888DC6708
:1002B0004F0823DFC1DFAE59E1B1B796E5E3E45360
:1002C000C63AE651997696E8E6C28426EB898C9B7D
:1002D00062ED407C6FFCEFBC9C9F40F2BAA56FA51D
:1002E000F490055A2AF75C936B6CF9676DC11BFC9F
:1002F000E0E40D47FEF520E6B500D0ED902E0300BA
:10030000943577050080841E080000204E0A000006
:1003100000C80C333333330F986E12831141EF8DC5
:100320002114893BE65516CFFEE6DB18D1844B3805
:100330001BF77C1D901DA4BBE424203284725E2236
:100340008100C9F124ECA1E53D271C034C005500B8
:1003500046004100200043004400430020004400C8
:1003600065006D006F000000180344006500610027
:100370006E002000430061006D00650072006100A6
:1003800000000403090409023E00020100C0320912
:1003900004000001020201000524001001042402EF
:1003A000060524060001070582030800FF09040171
:1003B00000020A000000070504021000050705837B
:1003C000021000051201100102000008EB03442096
:1003D00001000102DC0153756E4D6F6E5475655757
:1003E0006564546875467269536174004A616E466B
:1003F00065624D61724170724D61794A756E4A75E0
:100400006C4175675365704F63744E6F76446563D6
:10041000000011241FBECFEFCDBFDFE9DEBF00E03B
:100420000CBF13E2A0E0B0E2EEE8FDE400E00BBF99
:1004300002C007900D92AA36B107D9F729E9AAE6BA
:10044000B3E201C01D92A534B207E1F70E94ED1D91
:100450000C94C5260C940000CF93DF93CDB7DEB784
:100460002C97CDBFDEBFBE016F5F7F4F0E94510250
:100470006091002070910120CE0101960E94080336
:1004800080910020909101202C96CDBFDEBFDF919E
:10049000CF91089569E179E90E94510289E199E9D2
:1004A0000895CF92DF92EF92FF920F931F93CF9315
:1004B000DF9300D01F92CDB7DEB76C017B01E091D6
:1004C0004399F0914499309729F065E279E91995BB
:1004D0008C0102C00FEF1FEFF60140815181628154
:1004E00073818091259990912699A0912799B09137
:1004F0002899480F591F6A1F7B1F101611064CF4CC
:10050000C801012E000CAA0BBB0B480F591F6A1F14
:100510007B1F49835A836B837C83B701CE0101968D
:100520000E948F03F701028713872496CDBFDEBF99
:10053000DF91CF911F910F91FF90EF90DF90CF90BF
:100540000895CF92DF92EF92FF920F931F93CF9374
:10055000DF9300D01F92CDB7DEB78C010E946504F7
:1005600069837A838B839C83F8018285938597FFC7
:100570000EC0E0914399F0914499309741F065E2C3
:1005800079E9CE0101961995F80182879387F801E0
:10059000828593851816190694F4092E000CAA0B6F
:1005A000BB0B49815A816B817C816A017B01C81A2E
:1005B000D90AEA0AFB0AC982DA82EB82FC828981C3
:1005C0009A81AB81BC814091259950912699609187
:1005D000279970912899841B950BA60BB70B8983DB
:1005E0009A83AB83BC83B801CE0101960E9451026D
:1005F00069817A818B819C812496CDBFDEBFDF919A
:10060000CF911F910F91FF90EF90DF90CF900895C1
:10061000CF92DF92EF92FF920F931F93CF93DF93CE
:100620008C01EB01FC018481B82FBB0FB80F8581D1
:10063000782F770F780F7E019E012C5F3F4F40E0AF
:10064000842F8B0F90E0A0E08A529C4FAF4FFC01AB
:100650005A2F0E94BE26F70161937F01842F870FD6
:1006600090E0A0E084519C4FAF4FFC015A2F0E94B4
:10067000BE26F90161939F014F5F433009F780E285
:100680008F838B83BE01685F7F4FF801838140E2D7
:10069000082E000C990B0E942005BE01655F7F4F5C
:1006A000F80182814AE3082E000C990B0E94200574
:1006B000BE01625F7F4FF80181814AE3082E000C82
:1006C000990B0E942005BE016F5E7F4FF80180816B
:1006D00040E2082E000C990B0E942005F80186814B
:1006E000978164E670E08459984F0E9499236B01CA
:1006F0007C01BE016C5E7F4F40E2C6010E94200576
:10070000BE016A5E7F4F40E0C701DF91CF911F912C
:100710000F91FF90EF90DF90CF900C942005CF9237
:10072000DF92EF92FF920F931F93CF93DF93CDB79A
:10073000DEB72897CDBFDEBF8B01FC0160817181E0
:100740008281938120E831E541E050E00E94AD23B1
:1007500069017A012CE330E040E050E00E949826E5
:1007600029833A834B835C8389819A81AB81BC81E5
:10077000F80160836CE370E00E949923DC01CB01F7
:10078000F801A1838283C601069667E070E00E94AB
:10079000F52384832DEA3EE840E050E0C701B6012E
:1007A0000E94982629833A836D837E838F8398875E
:1007B00089819A8124E6289F6001299FD00C112409
:1007C0006D817E818F81988525EB35E040E050E09A
:1007D0000E94982629833A836D837E83E980FA807C
:1007E000EE0CFF1CEE0CFF1CEC0CFD1C8D819E81A1
:1007F000F5E6EF16F10410F0019604C024E6E216C7
:10080000F10419F021E030E002C020E030E0A9015D
:1008100044595E4F4817590768F46DE671E0821B32
:10082000930B0E949923DC01CB01E80EF91ECD0148
:1008300020E030E044E6E40EF11CF801E682F782A5
:1008400080879187255C3F4F8217930748F46FE1BB
:1008500070E00E949923DC01CB01F801858322C05E
:1008600069E970E0821B930B0E949923DC01CB01A4
:10087000F82EFF0CFF0CF80E6DE370E0CD010E9426
:100880009923DC01CB01E82EEE0C6FE170E0CD0185
:100890000E949923DC01CB0122E0280FF20EFE0C0E
:1008A000F801F582A383F8011286138683818F5F96
:1008B00083832896CDBFDEBFDF91CF911F910F912B
:1008C000FF90EF90DF90CF9008958F929F92AF921C
:1008D000BF92CF92DF92EF92FF920F931F93CF932D
:1008E000DF93EC01EE81FF818F0104561109B9F00D
:1008F000CF01855691096C0197FF03C023E0C20E1A
:10090000D11CD594C794D594C7946CE97FEF0E940D
:100910009923C60ED71E8FEFC81AD80A02C0C12C61
:10092000D12C0D2C000CEE08FF082DE631E0D8018B
:100930000E94B726C60ED71EE81EF91E8B81082E10
:10094000000C990B8C01015011092D8122302CF4DF
:10095000222379F1015E1F4F2CC0CF018459984F9B
:100960000E943A05E82FF0E0FB96E00FF11F8D8121
:10097000082E000C990B02978530910514F0E7566C
:10098000FF4F65E070E00E9499239C0197FF02C031
:100990002F5F3F4F359527959DE3929FA001939F31
:1009A000500D11248F01040F151F80FF02C0015E3E
:1009B0001F4FA801110F660B770B9A01AB012C0D8D
:1009C0003D1D4E1D5F1D60E871E581E090E00E94D5
:1009D00088266B017C01AA810A2E000CBB0B20E14A
:1009E0003EE00E94B7264B015C01A9810A2E000C53
:1009F000BB0B2CE330E00E94B726DC01CB01880D55
:100A0000991DAA1DBB1D4881042E000C550B660BB9
:100A1000770B840F951FA61FB71FBC01CD016C0D6E
:100A20007D1D8E1D9F1DDF91CF911F910F91FF9016
:100A3000EF90DF90CF90BF90AF909F908F900895F0
:100A40000F931F93CF93DF931F92CDB7DEB78B0128
:100A50006AE070E049830E949923605DF801608339
:100A6000805D8183498142830F90DF91CF911F91F7
:100A70000F9108959C0123703327232B59F464E6CA
:100A800070E00E949923892B39F46370772781E005
:100A9000672B19F080E0089581E008958093C308E2
:100AA000E0ECF8E082818823ECF78091C308089598
:100AB000FC0180818093C308E0ECF8E08281882308
:100AC000ECF78091C3080895CF93C82F882329F0AD
:100AD00082E090E20E94011F04C082E090E20E9446
:100AE000111FC093D595CF910895CF93C82F882318
:100AF00029F085E090E20E94011F04C085E090E2A9
:100B00000E94111FC093D495CF910895EF92FF9248
:100B10000F931F93CF93DF93C82F7B018A0180E04F
:100B20000E9475058C2F8F710E944E0510161106BC
:100B300094F4E7010E0D1F1D0F2EF0ECEF2EF8E0E0
:100B4000FF2EF02D8FEF0E944E05F70183818993D0
:100B5000C017D107B9F781E00E947505DF91CF91E9
:100B60001F910F91FF90EF900895EF92FF920F93D6
:100B70001F93CF93DF93C82F7B018A0180E00E94EF
:100B800075058C2F8F7180620E944E05101611061C
:100B900054F4E7010E0D1F1DCE010E945805219649
:100BA000C017D107C9F781E00E947505DF91CF9189
:100BB0001F910F91FF90EF900895EF92FF920F9386
:100BC0001F93CF93DF937C018B0180E00E9475051A
:100BD00081E60E944E051016110694F4E7010E0DF1
:100BE0001F1D0F2EF0ECEF2EF8E0FF2EF02D8FEFF3
:100BF0000E944E05F70193819993C017D107B9F769
:100C000081E00E947505DF91CF911F910F91FF90B8
:100C1000EF90089580E00E94750582EE0E944E05D7
:100C200081E00E9475050895CF9380E00E947505CC
:100C300080E60E944E058FEF0E944E05C82F81E08E
:100C40000E9475058C2F90E0CF910895CF93DF938C
:100C50001F92CDB7DEB741E050E0BE016F5F7F4F1E
:100C600080E00E94860589818260898341E050E0AE
:100C7000BE016F5F7F4F80E00E94B5058FE99CE861
:100C80000197F1F700C0000082E08093D6950F90A5
:100C9000DF91CF910895CF93DF931F92CDB7DEB749
:100CA00041E050E0BE016F5F7F4F80E00E9486050B
:100CB00089818D7F898341E050E0BE016F5F7F4F66
:100CC00080E00E94B50581E08093D6950F90DF917A
:100CD000CF910895CF93DF931F92CDB7DEB741E058
:100CE00050E0BE016F5F7F4F80E00E9486058981E2
:100CF0008160898341E050E0BE016F5F7F4F80E0FB
:100D00000E94B50583E08093D6950F90DF91CF9137
:100D100008951F93CF93DF931F92CDB7DEB7182F9F
:100D200041E050E0BE016F5F7F4F81E00E94860589
:100D300021E030E0C90102C0880F991F1A95E2F73F
:100D40009981892B898341E050E0BE016F5F7F4F1D
:100D500081E00E94B5050F90DF91CF911F9108951A
:100D6000CF93DF931F92CDB7DEB7198241E050E0F9
:100D7000BE016F5F7F4F81E00E94B5050F90DF914C
:100D8000CF9108951F93CF93DF931F92CDB7DEB716
:100D9000182F41E050E0BE016F5F7F4F82E00E945C
:100DA000860521E030E0C90102C0880F991F1A951D
:100DB000E2F79981892B898341E050E0BE016F5FA2
:100DC0007F4F82E00E94B5050F90DF91CF911F9178
:100DD00008951F93CF93DF931F92CDB7DEB7182FDF
:100DE00041E050E0BE016F5F7F4F84E00E948605C6
:100DF0009981907F812F892B898341E050E0BE014A
:100E00006F5F7F4F84E00E94B5050F90DF91CF9117
:100E10001F9108951F93CF93DF931F92CDB7DEB735
:100E2000182F41E050E0BE016F5F7F4F84E00E94C9
:100E3000860520E1129FC001112499819F70892BA2
:100E4000898341E050E0BE016F5F7F4F84E00E94E4
:100E5000B5050F90DF91CF911F9108951F93CF9308
:100E6000DF931F92CDB7DEB7182F41E050E0BE01EF
:100E70006F5F7F4F86E00E9486059981977D812F65
:100E8000892B898341E050E0BE016F5F7F4F86E090
:100E90000E94B5050F90DF91CF911F9108952F9279
:100EA0003F924F925F926F927F928F929F92AF92FA
:100EB000BF92CF92DF92EF92FF920F931F93CF9347
:100EC000DF93CDB7DEB72597CDBFDEBF482EB02E5E
:100ED000A22E932E842E752E662E572E81E0841519
:100EE00068F421E090E08EEF840D843008F020E07B
:100EF000C22ED92E1C141D0434F021C00F2EF5E093
:100F0000CF2ED12CF02DDE0111967D01212C312C1C
:100F1000E0E0F0E02B2D312F4A2D592D682D772D53
:100F2000862D952D022D0E94D923D7012D937D0169
:100F30003196B8E02B0E311CEC15FD055CF3A601D3
:100F4000BE016F5F7F4F8AE0840D0E94B505259634
:100F5000CDBFDEBFDF91CF911F910F91FF90EF903A
:100F6000DF90CF90BF90AF909F908F907F906F90C9
:100F70005F904F903F902F900895CF93DF931F92F3
:100F8000CDB7DEB741E050E0BE016F5F7F4F87E134
:100F90000E948605898181700F90DF91CF9108951D
:100FA0001F93CF93DF931F92CDB7DEB7182F41E089
:100FB00050E0BE016F5F7F4F8CE10E94860521E00B
:100FC00030E0C90102C0880F991F1A95E2F7998194
:100FD000892B898341E050E0BE016F5F7F4F8CE138
:100FE0000E94B5050F90DF91CF911F910895CF9387
:100FF000DF931F92CDB7DEB7198241E050E0BE010A
:101000006F5F7F4F8CE10E94B5050F90DF91CF910C
:101010000895CF93DF931F92CDB7DEB741E050E044
:10102000BE016F5F7F4F8DE10E94860589818460DC
:10103000898341E050E0BE016F5F7F4F8DE10E94E8
:10104000B5050F90DF91CF910895CF93DF931F9255
:10105000CDB7DEB741E050E0BE016F5F7F4F8DE15D
:101060000E94860589818260898341E050E0BE014B
:101070006F5F7F4F8DE10E94B5050F90DF91CF919B
:1010800008950895CF93DF931F92CDB7DEB787E021
:10109000898341E050E0BE016F5F7F4F86E00E9490
:1010A000B505198241E050E0BE016F5F7F4F81E0DE
:1010B0000E94B50581E0898341E050E0BE016F5F89
:1010C0007F4F86E00E94B5050E9426068FE99CE8C6
:1010D0000197F1F700C000000E946A0681E00E94BB
:1010E00064050F90DF91CF910895CF93DF931F9206
:1010F0001F92CDB7DEB7E0E4F6E080EB818380E4B9
:10110000828380E58093C00880E1818380E88093BA
:10111000210680E00E94640581E00E9475050E941E
:101120000A060E944B068EE0898341E050E0BE0132
:101130006F5F7F4F87E00E94B5058BE08A8341E0B7
:1011400050E0BE016E5F7F4F80E00E94B5050E94B7
:10115000B0060E94F7070E9442080E9409080E94F8
:10116000250880E00E94890681E00E94890682E0CD
:101170000E94890683E00E94890684E00E94890615
:1011800085E00E94890680E00E94D00781E00E94ED
:10119000D00782E00E94D00783E00E94D00784E05D
:1011A0000E94D00785E00E94D00780E00E94C2061E
:1011B00081E00E94C20682E00E94C20683E00E9493
:1011C000C20684E00E94C20685E00E94C2068FE04B
:1011D0000E94E9068FE00E940A0780E20E942E0723
:1011E0000E940A060F900F90DF91CF91089501C0E1
:1011F00000008FEF0E944E058823D1F30E947508EE
:1012000000000895CF93DF9380E00E9475058FEF73
:101210000E944E05C82FD0E081E00E9475052097FE
:1012200019F400000E94F708CE01DF91CF910895D4
:10123000CF93DF931F92CDB7DEB70E94020980647F
:10124000898341E050E0BE016F5F7F4F87E00E94DD
:10125000B5050F90DF91CF910895CF93863090F42C
:10126000C82F0E94020986FF0FC08E709927AC011B
:10127000559547952C2F30E081E04217530729F010
:1012800080E003C080E001C080E0CF9108950F931B
:101290001F93CF93DF938630F0F4EB010E942D096A
:1012A0008823E1F000000E9414068C018132910530
:1012B00028F00E940A06802F912F15C0BC01CE0194
:1012C0000E94DD050E94BD07882359F00E9418097D
:1012D000802F912F08C08FEF9FEF05C080E090E036
:1012E00002C0802F912FDF91CF911F910F91089510
:1012F000292F33272230310559F02330310569F089
:101300002130310529F582E190E024EC33E029C059
:101310008EE390E026E833E024C0992781309105E0
:1013200059F08230910571F0892BB9F4E2E8F3E0CD
:10133000849190E09F0115C0E8E6F3E0849190E08D
:101340009F010FC0EAE4F3E0849190E09F0109C09F
:1013500080E090E020E030E004C080E090E020E019
:1013600030E0FA0120833183089531E1FC013083BC
:10137000319722E220833197A3E3A08331976083E2
:10138000319770833197108231971082319760E8DE
:10139000608331971082319762E06083319763E018
:1013A0006083319764E06083319765E060833197B3
:1013B00066E06083319767E06083319768E060831F
:1013C000319769E06083319760E1608331973083C2
:1013D000319732E13083319733E13083319734E113
:1013E0003083319735E13083319736E1308331975F
:1013F00037E13083319738E13083319739E13083F9
:10140000319730E23083319731E230833197208356
:10141000319723E22083319740833197508331976E
:1014200026E22083319727E22083319728E2208328
:10143000319729E22083319720E32083319721E3FC
:1014400020838797089565E080E098E00E94EE1F72
:1014500083EF91E0809326089093270861E080E075
:1014600098E00E94F41FE0EAF0E0828181608283CC
:10147000A091BD93B091BE93CD91CDBFDD91DEBF64
:10148000FF91EF91DF91CF91BF91AF919F918F919C
:101490007F916F915F914F913F912F911F910F918C
:1014A000FF90EF90DF90CF90BF90AF909F908F9084
:1014B0007F906F905F904F903F902F901F900F9074
:1014C0000FBE0F90089581E008950F920FB6F89423
:1014D0000F921F9211242F923F924F925F926F9220
:1014E0007F928F929F92AF92BF92CF92DF92EF92B4
:1014F000FF920F931F932F933F934F935F936F939D
:101500007F938F939F93AF93BF93CF93DF93EF938B
:10151000FF93A091BD93B091BE930DB60D920EB600
:101520000D920E94C60EA091BD93B091BE93CD9135
:10153000CDBFDD91DEBFFF91EF91DF91CF91BF91E4
:10154000AF919F918F917F916F915F914F913F915B
:101550002F911F910F91FF90EF90DF90CF90BF9050
:10156000AF909F908F907F906F905F904F903F9043
:101570002F901F900F900FBE0F9008950F920FB6EF
:10158000F8940F921F9211242F923F924F925F92E4
:101590006F927F928F929F92AF92BF92CF92DF9283
:1015A000EF92FF920F931F932F933F934F935F936D
:1015B0006F937F938F939F93AF93BF93CF93DF935B
:1015C000EF93FF93A091BD93B091BE930DB60D9292
:1015D0000EB60D920E944E0D81110E94C60EA09172
:1015E000BD93B091BE93CD91CDBFDD91DEBFFF9194
:1015F000EF91DF91CF91BF91AF919F918F917F91AB
:101600006F915F914F913F912F911F910F91FF909B
:10161000EF90DF90CF90BF90AF909F908F907F9092
:101620006F905F904F903F902F901F900F900FBE44
:101630000F9008950E94BE0A1895CF93DF93EC0196
:101640000E94480D80916C2390916D23892B31F479
:1016500081E793E280936C2390936D2320916E2316
:1016600030916F23CE01820F931F8F3F4FE6940777
:1016700070F42817390770F4C0916C23D0916D2352
:10168000C20FD31F80936E2390936F2305C0C0E0D9
:10169000D0E002C0C0E0D0E00E94240ECE01DF9175
:1016A000CF9108950895FC010396818392832FEFD3
:1016B0003FEF2383348385839683878390871082CB
:1016C0000895FC01108611860895CF93DF939C0145
:1016D000FB01DC011196CD91DC911297C283D3837B
:1016E0008C819D81848395838C819D81DC01129600
:1016F0006D937C9313976C837D8320873187F901E9
:1017000080818F5F8083DF91CF910895CF93DF93A6
:10171000EB01488159814F3F2FEF520721F4FC0123
:10172000A781B0850DC0DC01139601C0DF011296C0
:10173000ED91FC9113972081318142175307B0F747
:101740001296ED91FC911397EA83FB83C483D583B2
:10175000AC83BD831296CD93DC93139788879987CA
:10176000FC0120812F5F2083DF91CF910895CF93DB
:10177000DF93FC01A085B185C281D38184819581ED
:101780008C839D83C481D581828193818A839B834D
:101790001196CD91DC911297CE17DF0731F48C8131
:1017A0009D8111968D939C931297108611868C9132
:1017B00081508C93DF91CF910895FFCFCF93DF932A
:1017C000EC01E091BD93F091BE938283938380916D
:1017D000779390917893C817D90768F46091BD9377
:1017E0007091BE9380918393909184936E5F7F4FAD
:1017F0000E94860B17C06091BD937091BE9380913B
:101800008593909186936E5F7F4F0E94860B8091A7
:10181000912290919222C817D90720F4C093912267
:10182000D0939222DF91CF9108954F925F926F9261
:101830007F928F929F92AF92BF92CF92DF92EF9260
:10184000FF920F931F93CF93DF934C01EB015A014B
:10185000290181E290E00E941D0B3C01009709F4F0
:10186000DAC0C114D10409F0D2C0C5010E941D0B19
:10187000F301878B908F892B21F4C3010E94520BB7
:10188000CAC0F1E0AF1AB108F3018789908DA80EA4
:10189000B91E8881818F8881882381F0D3015A966F
:1018A000FE0131969E01285F3F4FEF0181918D939C
:1018B0008881882319F0E217F307B9F7F30110A222
:1018C000102F043008F013E0F301168BE301229689
:1018D000CE010E94610BC3010C960E94610BF301C3
:1018E0006086718684E090E0811B910984879587EA
:1018F000628A738AA201B401C5010E94B509F3018D
:1019000080839183E114F10419F0F7016082718200
:101910000FB6F8940F92809179938F5F80937993AB
:101920008091BD939091BE93892B89F56092BD9370
:101930007092BE93809179938130C1F589E993E9E2
:101940000E94530B82EA93E90E94530B8BEA93E9BE
:101950000E94530B84EB93E90E94530B80E993E9B7
:101960000E94530B87E893E90E94530B8AE793E99F
:101970000E94530B80E993E980938593909386931B
:1019800087E893E980938393909384930FC0809129
:10199000759381110BC0E091BD93F091BE93868940
:1019A000081720F06092BD937092BE93809171935E
:1019B0008F5F80937193F301868990917693981746
:1019C00010F48093769390E09C01220F331F220F36
:1019D000331F220F331F820F931FBE0187569C4671
:1019E0000E94650B0F900FBE80917593882359F06C
:1019F000E091BD93F091BE938689801730F40E94E8
:101A0000650A81E009C081E007C081E005C0FC01F2
:101A1000C78AD08E36CF8FEFDF91CF911F910F9174
:101A2000FF90EF90DF90CF90BF90AF909F908F90FE
:101A30007F906F905F904F900895AF92BF92CF923A
:101A4000DF92EF92FF920F93A12CB12CC12CD12CDD
:101A5000E12CF12C00E020E030E044E650E069EDBC
:101A600072E28DED9BE00E94150C813049F4F894F0
:101A70008093759310927793109278930E94230A23
:101A80000F91FF90EF90DF90CF90BF90AF900895AF
:101A9000809170938F5F809370930895DF92EF929F
:101AA000FF920F931F93CF93DF93809170938111D7
:101AB000B6C08091779390917893019680937793B5
:101AC00090937893E0907793F0907893E114F104F9
:101AD00099F580918593909186932091839330918D
:101AE00084932093859330938693809383939093EC
:101AF0008493809172938F5F80937293E09185932A
:101B0000F09186938081811107C08FEF9FEF8093C2
:101B100091229093922210C0E0918593F091869348
:101B20000580F681E02D0680F781E02D828193818A
:101B3000809391229093922280919122909192226F
:101B4000E816F90610F4D12C52C0D12CE0918593FF
:101B5000F09186939081911107C08FEF9FEF809352
:101B600091229093922243C0E0918593F0918693C5
:101B70000580F681E02DC681D7812A813B81E2165E
:101B8000F30628F4209391223093922230C08E01E4
:101B90000E5F1F4FC8010E94B70B8C899D89892B4E
:101BA00021F0CE010C960E94B70B2E89809176937E
:101BB000821710F42093769330E0C901880F991FA3
:101BC000880F991F880F991F820F931FB80187569E
:101BD0009C460E94650BE091BD93F091BE939E8957
:101BE0008689981708F4B2CFDD24D394AFCFE09163
:101BF000BD93F091BE93868990E0FC01EE0FFF1F2C
:101C0000EE0FFF1FEE0FFF1F8E0F9F1FFC01E75609
:101C1000FC468081823048F0DD24D39406C0809158
:101C200074938F5F80937493D12C809173938823E6
:101C300011F0DD24D3948D2DDF91CF911F910F9161
:101C4000FF90EF90DF900895DF92EF92FF920F9355
:101C50001F93CF93DF930FB6F8940F9280917093F8
:101C600081508093709380917093811162C08091B4
:101C70007993811133C060C0D7011596ED91FC9125
:101C80001697C681D781CE010C960E94B70B8E01A4
:101C90000E5F1F4FC8010E94B70B2E89809176936B
:101CA000821710F42093769330E0C901880F991FB2
:101CB000880F991F880F991F820F931FB8018756AD
:101CC0009C460E94650BE091BD93F091BE939E8966
:101CD0008689981758F0D092739308C00F2EFAE7B0
:101CE000EF2EF3E9FF2EF02DDD24D394F701808150
:101CF0008111C2CF80917493882399F0809174935D
:101D0000882379F0C1E00E944E0D8111C093739336
:101D10008091749381508093749380917493811116
:101D2000F2CF80917393813031F40E94650A81E093
:101D300003C080E001C080E00F900FBEDF91CF9123
:101D40001F910F91FF90EF90DF900895CF93DF9355
:101D5000EC01892BB1F00E94480D8091779390910E
:101D60007893C80FD91F8091BD939091BE9302962E
:101D70000E94B70BCE010E94DE0B0E94240E81113F
:101D800002C00E94650ADF91CF91089580917093FF
:101D9000882321F081E080937393089510927393C8
:101DA0008091769390E0FC01EE0FFF1FEE0FFF1F76
:101DB000EE0FFF1F8E0F9F1FFC01E756FC46808130
:101DC000811117C080917693815080937693809192
:101DD000769390E0FC01EE0FFF1FEE0FFF1FEE0F5A
:101DE000FF1F8E0F9F1FFC01E756FC468081882352
:101DF00049F38091769390E09C01220F331F220FCC
:101E0000331F220F331F280F391FD901A756BC4695
:101E10001196ED91FC9112970280F381E02D1196BD
:101E2000ED93FC93129724563C46E217F30729F4EE
:101E300022813381FD0121833283FC01EE0FFF1FDC
:101E4000EE0FFF1FEE0FFF1F8E0F9F1FFC01E756C7
:101E5000FC460180F281E02D868197818093BD93BD
:101E60009093BE930895CF93DF93EC01FC0170969D
:101E70008BE0DF011D928A95E9F782E08C838987E8
:101E800083E08E8761E0CE0101960E9429158823A8
:101E900061F061E0CE0106960E942915882329F0A1
:101EA00061E0CE010B960E942915DF91CF91089534
:101EB000CF93FC019091DD95943019F58489958933
:101EC000A689B789892B8A2B8B2BE9F0C62F8181B4
:101ED0000E9418148091E6959091E795FC01EF5BC4
:101EE000FF4F208131978081281730F00E94D01356
:101EF0000E94D815811108C08C2F0E94081480E020
:101F000003C082E001C082E0CF910895FB01682FF9
:101F1000848595850E94580F21E030E0811102C030
:101F200020E030E088279927821B930B0895CF93F8
:101F3000DF93FC019091DD959430F1F584899589CA
:101F4000A689B789892B8A2B8B2BC1F181810E94AD
:101F500018148091EA9588234CF4E091E695F0916D
:101F6000E795EF5BFF4F808190E00DC02091E695F3
:101F70003091E795F901E05CFF4F80813196208137
:101F800090E0821B9109892BD9F08091E695909180
:101F9000E795FC01EF5BFF4FD0813197C0810E9434
:101FA000D013DC1778F00E94D815C82F81110CC00F
:101FB0000E94D0138C2F08C082E006C082E004C0CB
:101FC00080E002C080E000C0DF91CF910895CF9300
:101FD000DF93FC019091DD95943099F48489958983
:101FE000A689B789892B8A2B8B2B59F0EF01818128
:101FF0000E9418140E945814882319F0CE010E94E0
:10200000970FDF91CF910895CF93DF932091DD95C6
:10201000243009F056C0FC014489558966897789C6
:10202000452B462B472B09F44FC086810E9418147C
:102030000E946514882309F44AC08091EA95882398
:102040004CF4E091E695F091E795EF5BFF4F8081CE
:1020500090E00DC02091E6953091E795F901E05CA4
:10206000FF4F80813196208190E0821B9109892B5E
:1020700029F00E94F813C82FD0E002C0CFEFDFEFA5
:102080008091EA9588234CF4E091E695F091E795EC
:10209000EF5BFF4F208130E00DC04091E6955091FD
:1020A000E795FA01E05CFF4F20813196808130E0B6
:1020B000281B3109232B71F40E94E9138C2F9D2FCB
:1020C0000BC08FEF9FEF08C08FEF9FEF05C08FEF22
:1020D0009FEF02C08C2F9D2FDF91CF910895FC01BF
:1020E000848595850E940410992314F48EEF9FEF48
:1020F0000895FB012EE0DB011D922A95E9F723E00C
:10210000238326E83FE0208731872FE630E12287CE
:1021100033878487958708950895FF920F931F93BF
:10212000CF93DF93EC010E947F14882309F49BC0B6
:10213000288130E08091E2959091E3958217930792
:1021400009F091C08091DF95813259F018F4803206
:1021500081F189C0823209F467C0833209F476C004
:1021600082C08091DE95813A09F07DC00E94991469
:102170000E9458148823E1F38C89FD880E891F89F9
:102180000E9408148F2D0E940814802F0E940814AA
:10219000812F0E940814888D0E940814898D0E9446
:1021A00008148A8D0E9408140E94D0130E94BD1545
:1021B0005AC08091DE95813209F055C00E94991471
:1021C00005C08091DD95882309F44DC00E946514F7
:1021D0008823B9F30E94F813F82E0E94F813182FE1
:1021E0000E94F813082F0E94F813402F50E060E07F
:1021F00070E0BA0155274427782B4F29512B4C8B7F
:102200005D8B6E8B7F8B0E94F813888F0E94F81372
:10221000898F0E94F8138A8F0E94E9130E94BD15CE
:10222000CE010E948C101FC08091DE958132D9F4BE
:102230000E9499140E94BD158091E0959091E195BE
:10224000888B998BCE010E94C21E0DC08091DE95B5
:10225000813249F40E9499140E94BD156091E09565
:10226000CE010E948C10DF91CF911F910F91FF90B2
:102270000895EF92FF920F931F93CF93DF93CDB703
:10228000DEB7EA97CDBFDEBF0EED15E90F2EF6EEF5
:10229000EF2EF5E9FF2EF02D0E94F813F80181933F
:1022A0008F01EE15FF05C1F70E94BD1E0E947F142D
:1022B000882309F413C1EEEDF5E920813181832FE4
:1022C00090E08A30910508F009C1FC018827E250AE
:1022D000FF4F8F4F0C94CF23203821F0223809F084
:1022E000FDC008C01091DA958091DB95882391F0AC
:1022F000126010C08091E2958F700E941814E091D6
:10230000E895F091E995118112FB112710F980E011
:102310000E9418140E949914812F0E94081480E0D2
:102320000E9408140E94D0130E94BD15D7C022231A
:1023300009F4DDC0223009F0D1C0DEC081E03330C5
:1023400009F080E08093DB9525C0E091E2951E2F97
:102350001F7009F4C3C0812F0E9418148091DF956B
:10236000833019F40E94C71415C0E091E895F091EC
:10237000E99581818B7F818324E8129FF0011124EC
:10238000E45DF9461082E091E895F091E99580814D
:102390008E7F808380E00E9418140E9499140E940E
:1023A000BD159CC021119AC01091E0951F770E9425
:1023B00099140E94BD150E9458148823E1F31093CC
:1023C000C304111102C082E001C083E08093DD9557
:1023D00085C02058223008F081C08091E09590910E
:1023E000E1958C3DE3E09E07B9F583E08A838AE3BB
:1023F00089837FB7F894AE014D5F5F4F20E038E0EE
:10240000A0ECB1E062E01A966C931A97E32FF0E02B
:1024100084911A961C921A9720FF03C082958F70A0
:102420003F5F8F708A3018F090E0C79602C090E04E
:10243000C096FA0181939193AF012F5F2C3119F768
:102440007FBF0E9499146AE370E0CE0101960E945A
:10245000A1120E94E91342C0AE014F5F5F4F60912D
:10246000E2950E9478098C01892BC1F10E94991490
:10247000B80189819A810E9437130E94E9132EC006
:10248000203861F50E9499148091D9950E94081412
:102490000E94D0130E94BD1521C021111FC0809140
:1024A000E0958230D8F40E9499148091E095809351
:1024B000D9950E94BD158091D995882321F084E09B
:1024C0008093DD9509C08091C304811102C081E031
:1024D00001C084E08093DD950E94A61E0E947F14B7
:1024E000882381F00E9499140E94C7140BC0809128
:1024F000E095813099F722CF8091E095882309F407
:1025000024CF48CFEA96CDBFDEBFDF91CF911F9198
:102510000F91FF90EF9008950895CF938091DD95EE
:10252000882369F0C091EA9580E00E9418140E9407
:102530007F1481110E9439118C2F0E941814CF91A1
:102540000895CF92DF92EF92FF920F931F93CF9354
:10255000DF93C82ED92E8B018091EA9580680E9466
:102560001814C091E495D091E595C017D10740F0BB
:102570000115110521F40E94D013E80101C0E80102
:10258000EC2CFD2CD12C49C08091DD95882309F4D9
:102590005AC0853009F459C00E947F14811157C078
:1025A0000E946514811149C00E9458148823A9F122
:1025B0008091EA95882374F4E091E695F091E7958F
:1025C000EF5BFF4F008110E02097F9F00830110514
:1025D00078F01BC08091E6959091E795FC01E05C56
:1025E000FF4F00813196808110E0081B1109ECCF6C
:1025F000F70181917F010E94081421970F5F1F4FFF
:10260000209719F00830110599F7DD24D39408308C
:10261000110509F0D12C0E94D013209709F0B4CFF6
:10262000D110B2CF0AC08091DD95882391F085301A
:1026300091F00E947F14811110C00E9465148823BC
:1026400091F380E00BC082E009C083E007C081E025
:1026500005C082E003C083E001C081E0DF91CF913B
:102660001F910F91FF90EF90DF90CF900895DF9230
:10267000EF92FF920F931F93CF93DF93E82EF92EE3
:102680008B018091EA9580680E941814C091E495AE
:10269000D091E595C017D10740F00115110521F43F
:1026A0000E94D013E80101C0E8010E2D1F2DD12C8E
:1026B0004EC08091DD95882309F45FC0853009F410
:1026C0005EC00E947F1481115CC00E94651481115C
:1026D0004EC00E9458148823D1F18091EA95882336
:1026E0007CF4E091E695F091E795EF5BFF4FE08099
:1026F000F12C209719F188E0E816F10478F01EC05B
:102700008091E6959091E795FC01E05CFF4FE080B9
:1027100031968081F12CE81AF108EBCFF801849111
:102720000E9408140F5F1F4F2197FFEFEF1AFF0A57
:10273000209721F088E0E816F10481F7DD24D39496
:10274000E8E0EE16F10409F0D12C0E94D013209796
:1027500009F0AFCFD110ADCF0AC08091DD958823AD
:1027600091F0853091F00E947F14811110C00E9479
:102770006514882391F380E00BC082E009C083E0F8
:1027800007C081E005C082E003C083E001C081E0B2
:10279000DF91CF911F910F91FF90EF90DF900895FF
:1027A000E091E895F091E995A091E695B091E795D3
:1027B000AF5BBF4F8C9190E08283938380818D7952
:1027C0008083E091E695F091E795EF5BFF4F1082F3
:1027D0000895E091E895F091E99580818D79808365
:1027E000E091E695F091E795EF5BFF4F1082089539
:1027F0008091E6959091E795FC01EF5BFF4F20817A
:1028000031E0320F3083FC01E20FF11D8081089529
:102810002091E6953091E795F901EF5BFF4F9081AC
:1028200041E0490F4083F901E90FF11D80830895CC
:102830008093EA95282F2F7030E04091C604509184
:10284000C7048823E4F464E8629FC001639F900D8D
:102850001124835D99468093E6959093E795C9018D
:1028600082959295907F9827807F982708969A0165
:10287000280F391F2093E8953093E995089564E86F
:10288000629FC001639F900D112485519A468093E9
:10289000E6959093E79522953295307F3227207FF9
:1028A0003227240F351F2093E8953093E99508953A
:1028B0008091EA9580680E941814E091E895F09163
:1028C000E99580818695817008958091EA958F774A
:1028D0000E941814E091E895F091E995808185FFB8
:1028E0000CC08091E6959091E79522813381FC019F
:1028F000E05CFF4F208381E0089580E0089580919F
:10290000EA958F770E941814E091E895F091E99587
:10291000808184FF0CC08091E6959091E79522819B
:102920003381FC01E05CFF4F208381E0089580E06B
:1029300008958091EA958F770E941814E091E895A8
:10294000F091E99580818D788083E091E895F09110
:10295000E995808181608083E091E695F091E7952B
:10296000EF5BFF4F10828091EA9580680E941814F7
:10297000E091E895F091E995808181608083E09114
:10298000E695F091E795EF5BFF4F10820895E09197
:10299000E895F091E995818184608183E091E895E3
:1029A000F091E9958181807C803461F48091EA9591
:1029B00080580E941814E091E895F091E995818182
:1029C0008460818308951F93CF93DF93D82F162FB0
:1029D000C42F0E941814E091E895F091E9951182B6
:1029E000E091E895F091E995DD23A4F01082E09163
:1029F000E895F091E9951183E091E895F091E995DA
:102A0000128213828091E6959091E7958483958355
:102A100040E014C082E08083E091E895F091E99570
:102A20001183E091E895F091E995128213828091EB
:102A3000E6959091E795848395834C2FFC01E05CAB
:102A4000FF4F40833196108281E0DF91CF911F913B
:102A50000895AF92BF92CF92DF92EF92FF920F93C1
:102A60001F93CF93DF93662309F457C0A62E7C01F2
:102A70008C0184E0E80EF11CB12CF801C080CC2060
:102A800009F441C0C181D281F70131978081F701FA
:102A90009081923010F448E001C048E1C930D1057E
:102AA00050F028E030E090E09F5F220F331F2C179A
:102AB0003D07D0F301C090E0942B2C2D2F7030E017
:102AC0002530310564F59F7EC134D10550F588234A
:102AD00019F0813021F006C09064D92E07C0906CA7
:102AE000D92E0AC09068D92E811106C04C2F6D2DA9
:102AF00080E88C0D0E94E3144C2F6D2D8C2D0E94CC
:102B0000E314882379F0B3940B5F1F4FF5E0EF0EC9
:102B1000F11CBA10B2CF81E005C081E003C080E0B3
:102B200001C080E0DF91CF911F910F91FF90EF9056
:102B3000DF90CF90BF90AF90089520E030E0A0EC00
:102B4000B4E01696ED91FC911797C9018295929584
:102B5000907F9827807F9827E80FF91F1186169697
:102B60004D915C911797FA01E80FF91F11822F5FC1
:102B70003F4F2530310529F708958091DE95882350
:102B800084F404C08091DD95882389F00E94651447
:102B90008823C1F30E94E91308958091DD9588236D
:102BA00031F00E9458148823C1F30E94D013089575
:102BB000FF920F931F93CF93DF93E091C604F091A0
:102BC000C704E05BFF4FC081D1810F2EF4E6FF2EDA
:102BD000F02D00EC14E002C0F22EEC018091EA9599
:102BE00088232CF40E945814882329F023C00E94C3
:102BF0006514811121C08091DD958823F9F085301D
:102C0000F9F0E091E895F091E995818182FD1AC093
:102C1000D8011696ED91FC911797E05BFF4F8081EC
:102C20009181C817D907C9F22FEF2F0DF110D4CF1A
:102C300084E009C080E007C080E005C082E003C0F6
:102C400083E001C081E0DF91CF911F910F91FF9050
:102C50000895CF93DF93E0E4F0E0148284818360F1
:102C600084830E9487160E948E16C0ECD4E088816F
:102C70008F7788838881806888831092DD95109291
:102C8000D9951092DB951092DA95888180648883BB
:102C900048E068E480E80E94E31448E068E480E0EB
:102CA0000E94E31488858064888789818160898394
:102CB000DF91CF910895CF93DF932FB7F894C0ECB5
:102CC000D1E082E08A87EAE1F0E0E491A0ECB4E0B0
:102CD000DA96EC93DA97EBE1F0E0E491DB96EC9393
:102CE000DB971A8680E898E98E7F16968D939C93E1
:102CF000179784E18C9383E018968C932FBF81E023
:102D00008093DC950E942916DF91CF910895E0EC25
:102D1000F4E080858370808711860895E0ECF4E00C
:102D20008FEF8287848708951F920F920FB60F92BC
:102D300011240BB60F922F933F934F935F936F9392
:102D40007F938F939F93AF93BF93EF93FF93809164
:102D5000CA0488234CF48091C80488232CF480E8AA
:102D60008093CA040E948C128091CA0486FF07C017
:102D700080E48093CA041092DD950E949A1E80918F
:102D8000CA0485FF16C080E28093CA048091D99559
:102D9000882321F084E08093DD9509C08091C304ED
:102DA000811102C081E001C083E08093DD950E9423
:102DB0008D1E8091CA0484FF18C0E0ECF4E080E12D
:102DC000828782E08093DD951092D99513820E94CC
:102DD0009D1548E068E480E80E94E31448E068E458
:102DE00080E00E94E3140E948C12FF91EF91BF914A
:102DF000AF919F918F917F916F915F914F913F9193
:102E00002F910F900BBE0F900FBE0F901F90189533
:102E100007E028E140E060E087EC92E20E94C31EF8
:102E200028E140E060E084EC92E20E94C31E00E0F2
:102E300028E140E060E081EC92E20E94C31E28E1BC
:102E400040E060E08EEB92E20E94C31E61E08BEBFB
:102E500092E20E94DF1E61E088EB92E20E94DF1E98
:102E600061E085EB92E20E94DF1E61E082EB92E27C
:102E70000E94DF1E28E140E060E082EB92E20E94C7
:102E8000C31EC1E084E690E00E94A60E87EC92E2A9
:102E90000E94311F81110BC087EC92E20E94311F0A
:102EA0008823D1F38091B1228C278093B12284ECC6
:102EB00092E20E94311F81110BC084EC92E20E94C9
:102EC000311F8823D1F38091B0228C278093B022C8
:102ED00081EC92E20E94311F81110BC081EC92E2E1
:102EE0000E94311F8823D1F38091AF228C278093D9
:102EF000AF228EEB92E20E94311F81110BC08EEB4C
:102F000092E20E94311F8823D1F38091AE228C2758
:102F10008093AE228091B122882329F08BEB92E23C
:102F20000E94011F04C08BEB92E20E94111F80914E
:102F3000B022882329F088EB92E20E94011F04C08E
:102F400088EB92E20E94111F8091AF22882329F022
:102F500085EB92E20E94011F04C085EB92E20E9481
:102F6000111F8091AE22882329F082EB92E20E9409
:102F7000011F88CF82EB92E20E94111F83CF0E9433
:102F8000480D83E992E20E94E70F0E948D120E9491
:102F9000240E81E090E00E94A60EF1CFFC01818119
:102FA00085FFFDCF6083818186FFFDCF80E4818333
:102FB000808108951F93CF93DF93C0EAD6E018E095
:102FC0001E83E0E6F6E091E096839683682F80EA20
:102FD00099E00E94CE171D83DF91CF911F91089534
:102FE000EF92FF920F931F93CF93DF93C0EAD6E047
:102FF00018E01E830F2EF0E6EF2EF6E0FF2EF02DE8
:1030000001E0F7010583682F80EA99E00E94CE175E
:10301000F70106831D83DF91CF911F910F91FF90E0
:10302000EF9008958770806B0E94DA170895CF9310
:10303000C82F982F9F77892F82958F7080610E946B
:10304000DA178C2F8F700E94DA17CF910895CF93E3
:10305000DF93D0E00FC08D2F0E9412188C2F0E949A
:10306000171880E00E94F017CF5FC038A1F7DF5F2C
:10307000D43011F0C0E0EFCFDF91CF910895CF931E
:10308000DF93EC01FB018C818F7E8C83A0E6B6E0A0
:1030900082E011968C93119715968C938D81806C9C
:1030A0008D8384818D7F813021F48D8182608D8339
:1030B00003C08D818D7F8D838581882321F08D8153
:1030C00084608D8303C08D818B7F8D83808191810E
:1030D000A281B3819C01AD01220F331F441F551FF4
:1030E00060E078E488EE91E00E94AD232150310940
:1030F000832F8F708F832E838C8188608C83DF91E8
:10310000CF910895CF93DF9300D000D0CDB7DEB735
:1031100020EA36E088E0D90111968C93A0E6B6E06B
:1031200091E011969C931197E0E0F6E0818392E0A4
:1031300011969C93119711968C93D90115968C93A7
:103140008683BAE6BA95F1F700C08583EAE6EA9588
:10315000F1F700C0E0E7F0E084818F7E848380E0B7
:103160009BE1A7EBB0E089839A83AB83BC831D828C
:103170001E82BE016F5F7F4F80EA99E00E943F1878
:1031800088EA0E94DA178FE10E94DA1783ED0E9425
:10319000DA1780E00E94DA1780E40E94DA1781EAE9
:1031A0000E94DA1788EC0E94DA178AED0E94DA177B
:1031B00082E00E94DA1781E80E94DA178FE80E9405
:1031C000DA1784EA0E94DA1786EA0E94DA1785ED98
:1031D0000E94DA1780E80E94DA178DE80E94DA1759
:1031E00084E10E94DA178BED0E94DA1780E40E94D6
:1031F000DA1789ED0E94DA1781EF0E94DA178FEA59
:103200000E94DA172696CDBFDEBFDF91CF910895D9
:10321000EF92FF920F931F93CF93DC01EC91EE237B
:1032200029F17C01BFEFEB1AFB0AEF37D0F4F0E095
:10323000EE0FFF1FED56FE4D00811181F8018081D8
:10324000882361F0C1E0F801EC0FF11D80810E943C
:10325000F017CF5FD8019C919C17A8F780E00E94DF
:10326000F017D701ED917D01E111DFCFCF911F91D3
:103270000F91FF90EF90089520E8829FC0011124E4
:10328000860F911DE091D293F091D393E80FF91F2F
:103290004083089520E8829FC0011124860F911D6C
:1032A000E091D293F091D393E80FF91F80810895B4
:1032B0001F93CF93DF93182FD62FC42F211104C053
:1032C0000E944A198C1771F04C2F6D2F812F0E948C
:1032D0003C19812F0E9412188D2F0E9417188C2FD5
:1032E0000E94F017DF91CF911F9108950F9307E08F
:1032F00020E140E060E083ED92E20E94C31E0F9166
:10330000089561E083ED92E20E94DF1E60E083EDAC
:1033100092E20E94DF1E61E086ED92E20E94DF1ED3
:1033200061E080ED92E20E94DF1E0E94761908950E
:103330001F93CF93DF93182F61E083ED92E20E94F9
:10334000DF1EC8E0D0E010FF05C083ED92E20E94CE
:10335000011F04C083ED92E20E94111F81E090E002
:103360000E94A60E86ED92E20E94011F81E090E08D
:103370000E94A60E86ED92E20E94111F16952197DB
:1033800011F760E083ED92E20E94DF1EDF91CF91A2
:103390001F9108951F93CF93DF9360E083ED92E236
:1033A0000E94DF1EC0E0D0E010E083ED92E20E94B8
:1033B000311F282F30E00C2E02C0220F331F0A9439
:1033C000E2F7122B81E090E00E94A60E86ED92E2D9
:1033D0000E94011F81E090E00E94A60E86ED92E21D
:1033E0000E94111F2196C830D105F9F6812FDF9177
:1033F000CF911F910895CF93DF93D82FC62F80913F
:103400001299882331F01092129960E08EE80E94A0
:10341000FB1980ED92E20E94011F84E090E00E947F
:10342000A60E8D2F0E9498198C2F0E94981984E067
:1034300090E00E94A60E80ED92E20E94111FDF91A3
:10344000CF910895EF92FF920F931F93CF93DF9345
:1034500000D01F92CDB7DEB769837A838B839C83BC
:10346000CE0101960E944A027C010000FC016081AD
:1034700017E66102812D11248595859567FD839559
:10348000282F220F922F990F990F920F691BF0E1AD
:103490008F9F600D112480E80E94FB19F701618164
:1034A0006102812D11248595859567FD8395282FCF
:1034B000220F922F990F990F920F691BF0E18F9FA6
:1034C000600D112482E80E94FB19F70162816102FC
:1034D000812D11248595859567FD8395282F220FD1
:1034E000922F990F990F920F691BF0E18F9F600D3A
:1034F000112484E80E94FB19F70163816102112DF8
:1035000011241595159567FD1395912F990F892F06
:10351000880F880F890F681BF0E11F9F600D112431
:1035200086E80E94FB19F7018581082E000C990B93
:1035300001960AE010E0B8010E949923F0E16F9F24
:10354000800D1124682F88E80E94FB19F70164811F
:103550006F5F8AE80E94FB19F70186819781845684
:103560009109B8010E949923F0E16F9F800D112409
:10357000682F8CE80E94FB192496CDBFDEBFDF9137
:10358000CF911F910F91FF90EF900895EF92FF92CE
:103590000F931F93CF93DF93CDB7DEB76397CDBF64
:1035A000DEBF80ED92E20E94011F84E090E00E9465
:1035B000A60E8FEB0E9498198E010F5F1F4F7E01A0
:1035C00088E0E80EF11C0E94CA19F80181938F016E
:1035D000EE15FF05C1F780ED92E20E94111F000079
:1035E0008981982F92959F70990F292F220F220F72
:1035F000920F8F70890F88878A81982F92959F707C
:10360000990F292F220F220F920F8F70890F898710
:103610008B81982F92959F70990F292F220F220F3F
:10362000920F8F70890F8A878C81982F92959F7047
:10363000990F292F220F220F920F8F70890F8B87DE
:103640008D81282F2F70215082958F70880F982F91
:10365000990F990F890F820F8D878F81282F2F70D7
:1036600082958F7090E0AC01440F551F880F991F11
:10367000880F991F880F991F840F951F820F911D26
:103680008C599F4F8E879F870000CE0108960E941D
:10369000A1026396CDBFDEBFDF91CF911F910F9145
:1036A000FF90EF9008950F931F93CF93DF93EC015A
:1036B000088119816FEE72E2C8010E943125892BC1
:1036C00009F043C00A811B8166E573E2C8010E94CC
:1036D0003125892BC9F40C80DD81C02D66E573E2AC
:1036E000CE010E943125892B21F481E08093B12203
:1036F00069C065EF72E2CE010E943125892B09F085
:1037000061C01092B1225EC065EF72E2C8010E94F2
:103710003125892B09F056C00C80DD81C02D66E56E
:1037200073E2CE010E943125892B21F481E0809340
:10373000B02248C065EF72E2CE010E943125892B8C
:1037400009F040C01092B0223DC067EF72E2C8019C
:103750000E943125892BC1F40A80DB81C02D66E5EA
:1037600073E2CE010E943125892B21F481E0809300
:10377000AE2228C065EF72E2CE010E943125892B6E
:1037800009F51092AE221EC06BEF72E2C8010E94D2
:103790003125892BB9F460E073E28A819B810E9414
:1037A0003125892B79F48C819D810E94232460939B
:1037B000BF937093C0938093C1939093C29381E021
:1037C0008093C39380E090E0DF91CF911F910F91A0
:1037D0000895EF92FF920F931F93CF93DF93CDB78E
:1037E000DEB76497CDBFDEBF64E073E20E942D2593
:1037F0000097D9F089839A837E0183E0E80EF11C5B
:1038000001E010E009C0F701819391937F010F5F00
:103810001F4F0A30110559F064E073E280E090E038
:103820000E942D25009779F702C000E010E0B80152
:10383000CE0101960E94531B6496CDBFDEBFDF917F
:10384000CF911F910F91FF90EF900895CF93DF9349
:10385000CDB7DEB7A597CDBFDEBF0E94750801E3E7
:103860001CE42CE43CE44CE450E060E070E081E0D7
:103870000E944F0702E32CE43CE44CE450E060E09B
:1038800070E082E00E944F0703E32CE43CE44CE448
:1038900050E060E070E083E00E944F0704E32CE416
:1038A0003CE44CE450E060E070E084E00E944F07AC
:1038B00005E32CE43CE44CE450E060E070E085E09B
:1038C0000E944F070F2EF7E0AF2EF3E2BF2EF02D30
:1038D00004EC13E90F2EF5E1CF2EF3E2DF2EF02DED
:1038E0000F2EF3E2EF2EF3E2FF2EF02D41E050E039
:1038F000BE016B5D7F4F80E00E94860541E050E095
:10390000BE016C5D7F4F87E10E9486050E9402091F
:103910009F938F93BF92AF921F930F930E9488251E
:103920008DA11F928F93DF92CF921F930F930E94CE
:1039300088258CA11F928F93FF92EF921F930F9374
:103940000E94882584EF91E00E94A60E81E00E94EB
:103950002D09CDBFDEBF882349F200008AEC92E238
:103960000E94211FBE016F5F7F4F81E00E944709C7
:10397000E1E0F0E0EC0FFD1F8E0F9F1FFC011082B5
:10398000CE0101960E94E91BB1CFEF92FF920F93F7
:103990001F93CF93DF93CDB7DEB7C055D109CDBF0D
:1039A000DEBF8C018FE293E20E94D02562E473E2D5
:1039B000C8010E942D250097C9F089839A838E0142
:1039C0000D5F1F4F7E0185E1E80EF11C07C0F80175
:1039D000819391938F01EE15FF0541F062E473E24C
:1039E00080E090E00E942D25009789F769817A8117
:1039F000CE018E5B9F4F0E943A256F817885CE0164
:103A000045960E943A258A858F9389858F938C816C
:103A10008F938B818F938E818F938D818F9384E48D
:103A200093E29F938F93CE0184969F938F930E94EE
:103A30000026CDBFDEBF00E00FC0802F0E9412180D
:103A4000812F0E94171880E00E94F0171F5F103826
:103A5000A1F70F5F043011F010E0EFCF80E00E947B
:103A6000121880E00E941718CE0145960E9408198E
:103A700081E00E94121880E00E941718CE018496FF
:103A80000E94081982E00E94121880E00E94171814
:103A9000CE018E5B9F4F0E940819C05BDF4FCDBFE8
:103AA000DEBFDF91CF911F910F91FF90EF900895AE
:103AB0000E9481198091C393882391F08091BF93D4
:103AC0009091C093A091C193B091C293BC01CD01DC
:103AD000605873448D4698430E94221A1092C393F3
:103AE0000E94C61ADC01CB01885C954BAF4FBF4FDB
:103AF0008093D2989093D398A093D498B093D5986C
:103B00000E94410882ED98E90E942C020E94C51C87
:103B100088EC90E00E94A60ECDCFCF93DF93E0E536
:103B2000F0E080E18583808180618083818184FFF2
:103B3000FDCF8FB7F894A0E4B0E094E028ED30E03A
:103B40001BBEFD0124BF90838FBF8FE39FE10197D0
:103B5000F1F700C000008C91E0E5F0E08081826028
:103B60008083818181FFFDCFE0E5F0E08681846084
:103B70008683A0E6B0E08BE115968C93159787EBD2
:103B800016968C931697C0ECD1E082E08A87EDE11F
:103B9000F0E0E4911296EC931297ECE1F0E0E491FE
:103BA0001396EC9313971A8681E08C9387E08093A9
:103BB000A200E0EEF7E083E0818386838093B0008B
:103BC00080E4808BE0E6F6E090E391839683848B3B
:103BD0000E945B16DF91CF910895CF93DF9300D0C1
:103BE0001F92CDB7DEB78DE493E20E942324698350
:103BF0007A838B839C83000061E08DEC92E20E94CB
:103C0000DF1E61E08AEC92E20E94DF1E0E948D1DA1
:103C100084ED93E98093D2939093D3930E9482187A
:103C20000E94271880E40E94DA1700E00CC021E00F
:103C300040E0612F802F0E9458191F5F1038B9F79C
:103C40000F5F043011F010E0F2CF00000E9427183F
:103C500080E00E94121888E593E20E94081961E052
:103C60008DEC92E20E94DF1E61E08AEC92E20E94FB
:103C7000DF1EE0E5F0E0808182608083818181FF4A
:103C8000FDCF81E00E94D91F81E00E94CF1FE0EEAE
:103C9000F7E081E0818382E0818380E180936106A7
:103CA00064EC73E983E992E20E9479107894000051
:103CB000000000000000A12CB12CC12CD12CE12C63
:103CC000F12C00E020E030E044EF51E06DE573E2DC
:103CD00086E29CE10E94150C20E030E044EF51E0C8
:103CE00060E673E288E59DE10E94150C20E030E07B
:103CF00044EF51E063E673E288E097E10E94150C1F
:103D000020E030E048EC50E066E673E28FEB97E1AC
:103D10000E94150C0E941D0DFFCF83E08093E607E3
:103D200080E38093660682E08093E50780E18093DC
:103D30006506089583E08093E60780E38093660636
:103D400081E08093E50710926506089583E992E289
:103D50000E94330F811102C081E101C082E293E031
:103D60009093E60790E390936606982F9370909354
:103D7000E507807380936506089583E992E20E94C7
:103D80008D10089508950F93202B611102C000E05B
:103D900001C000E8202B411102C000E001C000E496
:103DA000202B3FB7F894DC0112964C911297409368
:103DB000B000ED91FC91208B3FBF0F9108956623D9
:103DC00081F0DC01ED91FC91119721E030E0A90137
:103DD00012960C9002C0440F551F0A94E2F74183DB
:103DE0000895DC01ED91FC91119721E030E0A901EB
:103DF00012960C9002C0440F551F0A94E2F74283BA
:103E00000895DC01ED91FC91119721E030E0A901CA
:103E100012960C9002C0440F551F0A94E2F7458396
:103E20000895DC01ED91FC91119721E030E0A901AA
:103E300012960C9002C0440F551F0A94E2F7468375
:103E40000895DC01ED91FC91119721E030E0A9018A
:103E500012960C9002C0440F551F0A94E2F7478354
:103E60000895DC01ED91FC911197208530E0F90176
:103E700012960C9002C0F595E7950A94E2F7CF01EF
:103E8000817008951F920F920FB60F9211240F9018
:103E90000FBE0F901F9018951F920F920FB60F92A2
:103EA00011240F900FBE0F901F9018951F920F9224
:103EB0000FB60F9211240F900FBE0F901F90189500
:103EC0001F920F920FB60F9211240F900FBE0F90FA
:103ED0001F9018951F920F920FB60F9211240F90FA
:103EE0000FBE0F901F9018951F920F920FB60F9252
:103EF00011240F900FBE0F901F9018951F920F92D4
:103F00000FB60F9211240F900FBE0F901F901895AF
:103F10001F920F920FB60F9211240F900FBE0F90A9
:103F20001F9018951F920F920FB60F9211240F90A9
:103F30000FBE0F901F9018951F920F920FB60F9201
:103F400011240F900FBE0F901F9018951F920F9283
:103F50000FB60F9211240F900FBE0F901F9018955F
:103F60001F920F920FB60F9211240F900FBE0F9059
:103F70001F9018950F93CF93DF931F92CDB7DEB7A5
:103F80002FB72983F8941BBEFC0108ED04BF6083A2
:103F900089818FBF0F90DF91CF910F910895E0E558
:103FA000F0E09081282F209592239083908189239F
:103FB00008950F931F93CF93C82F00E410E0F801EA
:103FC0006081687F682B80E490E00E94BA1FF8014E
:103FD00080818C23CF911F910F910895FC019081D6
:103FE000907F692B60830895FC0196819C7F692BEB
:103FF000668308952F923F924F925F926F927F92C5
:104000008F929F92AF92BF92CF92DF92EF92FF92E8
:104010000F931F93CF93DF93CDB7DEB76397CDBFD9
:10402000DEBF6C014B012A01FC01168217828381DD
:1040300081FF43C3AE014F5F5F4F3A01F6019381A9
:10404000F40193FD859193FF81914F01882309F439
:1040500030C3853239F493FD859193FF81914F01EF
:10406000853239F4B60190E00E949825520125016D
:10407000E5CF10E0F12C20E02032A0F48B3269F083
:1040800030F4803259F0833269F420612CC08D32D3
:1040900039F0803339F4216026C02260246023C0C7
:1040A000286021C027FD27C030ED380F3A3078F462
:1040B00026FF06C0FAE01F9F300D1124132F13C0F6
:1040C0004AE0F49E300D1124F32E20620CC08E3293
:1040D00021F426FDEEC2206406C08C3611F420685F
:1040E00002C0883641F4F40193FD859193FF8191DC
:1040F0004F018111C1CF9BEB980F933018F42061D1
:10410000805E06C09BE9980F933008F071C12F7E46
:1041100026FF16E02F73322E853619F42064322ED6
:1041200008C0863621F4F22FF0683F2E02C011112C
:10413000115037FE07C01C3350F4EE24E394E10E17
:1041400027E00BC0183038F027E017E005C027E063
:104150004CE3E42E02C0212FE12C520144E0A40ED6
:10416000B11CF20160817181828193810E2DA301C6
:104170000E944A242C01098100FF02C003FF07C0EE
:1041800031FC08C032FE09C030E2232E07C02DE208
:10419000222E04C09BE2292E01C0212C802F8C707E
:1041A00019F0211068C2A8C237FE0FC0E40C04FF4A
:1041B00004C08A81813309F4EA941E1474F5F8E08E
:1041C000FE1578F588E0E82E2CC036FC2AC0812F39
:1041D00090E0841595059CF02CEF42162FEF5206C7
:1041E00074F0432D4068342E0AC0E2E0F0E0EC0F9A
:1041F000FD1FE10FF11D8081803319F41150111161
:10420000F4CF37FE0EC0EE24E394E10E812F90E050
:10421000481659062CF4141904C0EE24E39401C086
:1042200010E037FE06C01414150434F4C2010196E0
:1042300005C085E090E002C081E090E02110019689
:10424000112331F0212F30E02F5F3F4F820F931F5A
:104250002F2D30E08217930714F4F81A01C0F12CC7
:10426000832D897049F4FF2039F0B60180E290E097
:104270000E949825FA94F7CF222029F0B601822DCA
:1042800090E00E94982533FC09C0FF2039F0B60168
:1042900080E390E00E949825FA94F7CF37FE5AC049
:1042A000942D852D57FE02C090E080E0292E382EF7
:1042B00020E030E0A2014E1951094C875D87A20130
:1042C000421953094E875F87612F70E044275527B5
:1042D000461B570B488B598B5FEF2516350649F463
:1042E000B6018EE290E02A8B3B8B0E9498253B8999
:1042F0002A89421453046CF04C855D8542155305A0
:1043000044F4EE85FF85E20FF31FE60DF71D818172
:1043100001C080E351E0251A31082F5F3F4F4889E3
:104320005989241635064CF0B60190E02A8B3B8B58
:104330000E9498252A893B89CFCF2414350439F46B
:104340009A81963318F4953311F404FF81E3B60192
:1043500090E04BC08A81813309F00F7EB60190E076
:104360000E949825111105C034FC18C085E690E024
:1043700017C0B6018EE290E00E94982582E0EE24FC
:10438000E394E80EF301E80FF11D8081B60190E09F
:104390000E94982511508E2D91F7E6CF85E490E08C
:1043A000B6010E94982557FC05C04114510439F408
:1043B00004FF05C05194419451088DE201C08BE285
:1043C000B60190E00E94982580E39AE049165104D6
:1043D0002CF08F5F5AE0451A5108F7CFB60190E0F4
:1043E0000E949825B601C201C0960E94982557C127
:1043F000833631F0833779F0833509F058C021C016
:104400005201E2E0AE0EB11CF2018081898301E02D
:1044100010E0230114C05201F2E0AF0EB11CF20112
:104420004080518026FF03C0612F70E002C06FEF13
:104430007FEFC2012A8B0E9441258C012A892F77A8
:1044400015C05201F2E0AF0EB11CF2014080518064
:1044500026FF03C0612F70E002C06FEF7FEFC20143
:104460002A8B0E9422258C012A892068322E23FD66
:104470001AC08F2D90E008171907A8F4B60180E242
:1044800090E00E949825FA94F4CFF20137FC8591D0
:1044900037FE81912F01B60190E00E949825F1101E
:1044A000FA94015011090115110579F7F8C0843605
:1044B00011F0893659F5520127FF09C0F4E0AF0E1B
:1044C000B11CF20160817181828193810AC0F2E0A6
:1044D000AF0EB11CF20160817181072E000C880BB8
:1044E000990B2F76322E97FF09C090958095709585
:1044F00061957F4F8F4F9F4F2068322E2AE030E02A
:10450000A3010E942A26E82EE6183FC0022F853715
:1045100021F40F7E2AE030E01DC0097F8F3691F034
:1045200018F4883559F0C5C0803719F0883711F074
:10453000C0C0006104FF09C0046007C024FF08C0B8
:10454000066006C028E030E005C020E130E002C08F
:1045500020E132E0520107FF09C0F4E0AF0EB11CC8
:10456000F201608171818281938108C0F2E0AF0E17
:10457000B11CF2016081718180E090E0A3010E9492
:104580002A26E82EE6180F77302E36FE0BC0332D84
:104590003E7FE11650F434FE0AC032FC08C0332DD1
:1045A0003E7E05C00E2D332D03C00E2D01C0012F00
:1045B00034FF0CC0FE01EE0DF11D8081803311F43B
:1045C000397E08C032FF05C00E5F04C0832F867895
:1045D00009F00F5F33FD13C030FF06C01E2D0F150D
:1045E00018F41F0D101B0F2D0F1568F4B60180E293
:1045F00090E03B8B0E9498250F5F3B89F5CF0F150C
:1046000010F4F01A01C0F12C34FF12C0B60180E39F
:1046100090E03B8B0E9498253B8932FF17C031FD0B
:1046200003C088E790E002C088E590E0B6010CC0C6
:10463000832F867859F031FF02C08BE201C080E2FF
:1046400037FD8DE2B60190E00E949825E11638F41E
:10465000B60180E390E00E9498251150F7CFEA94CC
:10466000F301EE0DF11D8081B60190E00E949825C6
:10467000E110F5CF14C0F4E0FF1558F584E0F81A06
:1046800033FE1EC0211026C003FF2AC008E412E03A
:10469000F32DF0713F2EF8018491811124C0FF2089
:1046A00009F4E5CCB60180E290E00E949825FA94E6
:1046B000F6CFF6018681978126C08FEF9FEF23C04A
:1046C000B60180E290E00E949825FA94F110F8CFAC
:1046D000D9CFF12CB601822D90E00E949825D4CF3D
:1046E0000CE412E0D5CF31108052B60190E00E9468
:1046F00098250F5F1F4FCFCF23E02F1510F483E0D5
:10470000BECFF12CC1CF6396CDBFDEBFDF91CF917D
:104710001F910F91FF90EF90DF90CF90BF90AF90DF
:104720009F908F907F906F905F904F903F902F90D1
:10473000089597FB072E16F4009407D077FD09D053
:104740000E94F52307FC05D03EF4909581959F4F7C
:104750000895709561957F4F0895A1E21A2EAA1BC6
:10476000BB1BFD010DC0AA1FBB1FEE1FFF1FA21721
:10477000B307E407F50720F0A21BB30BE40BF50B1E
:10478000661F771F881F991F1A9469F760957095A7
:10479000809590959B01AC01BD01CF010895EE0F6E
:1047A000FF1F881F8BBF0790F691E02D199497FB90
:1047B00010F8169400080F93083098F00850232F33
:1047C000342F452F562F672F782F892F902DF4CF18
:1047D000059497958795779567955795479537955C
:1047E00027950A95AAF70F910895AA1BBB1B51E1C3
:1047F00007C0AA1FBB1FA617B70710F0A61BB70B51
:10480000881F991F5A95A9F780959095BC01CD01F5
:1048100008950E941424A59F900DB49F900DA49F0D
:10482000800D911D11240895A29FB001B39FC00176
:10483000A39F700D811D1124911DB29F700D811DCC
:104840001124911D08951F93FC0199278827BC010D
:10485000E89411911032E9F3193010F01E30C8F3CA
:104860001B3251F01D3249F4689406C00E94732532
:10487000610F711D811D911D119110531A30B0F3FC
:104880003EF490958095709561957F4F8F4F9F4F27
:104890001F910895283008F027E03327DA01990F97
:1048A000311D87FD916000966105710539F4326014
:1048B0002E5F3D9330E32A95E1F708959F3F30F056
:1048C00080387105610509F03C5F3C5F3D93913094
:1048D00008F08068911DDF93CF931F930F93FF9291
:1048E000EF92192F987F9695E92F96959695E90F57
:1048F000FF27E655FD4F99273327EE24FF24A70114
:10490000E70105900894079428F4360FE71EF81E77
:10491000491F511D660F771F881F991F0694A1F725
:104920000590079428F4E70EF81E491F561FC11D75
:10493000770F881F991F661F0694A1F705900794AB
:1049400028F4F80E491F561FC71FD11D880F991F45
:10495000661F771F0694A1F70590079420F4490F6E
:10496000561FC71FD81F990F661F771F881F0694F1
:10497000A9F784911095177041F0D695C795579572
:104980004795F794E7941A95C1F7E0E5F2E068944B
:104990001590159135916591959105907FE27395EC
:1049A000E118F10A430B560BC90BD009C0F7E10C13
:1049B000F11E431F561FC91FD01D7EF4703311F422
:1049C0008A95E6CFE894015030F0080F0AF40027EA
:1049D000021708F4202F2395022F7A3328F079E369
:1049E0007D932A95E9F710C07D932A9589F6069460
:1049F00097956795379517951794E118F10A430B2A
:104A0000560BC90BD00998F023957E9173957A3394
:104A100008F070E37C932013B8F77E9170617D936A
:104A200030F0839571E37D9370E32A95E1F71124CB
:104A3000EF90FF900F911F91CF91DF91992787FD04
:104A400090950895FC010590615070400110D8F7D1
:104A5000809590958E0F9F1F08954AE653E20C941F
:104A60004C25FB01DC018D91019080190110D9F3D7
:104A7000990B0895FB01DC0101900D920020E1F7F4
:104A80000895FC016150704001900110D8F78095A5
:104A900090958E0F9F1F0895FA01A191B081009704
:104AA00019F41097E1F0CD01DC01CD010D9000204B
:104AB00011F4C00113C0FB012191222319F020152C
:104AC000D9F7F3CFFB012191201519F41E9211960D
:104AD00006C02223C1F70D900020A1F7D001FA01F2
:104AE000A193B0830895592F482F372F262F660F93
:104AF000771F881F991F660F771F881F991F620FE6
:104B0000731F841F951F660F771F881F991F0895B5
:104B1000CF93DF93CDB7DEB7AE01465F5F4F6885B9
:104B200079858E819F810E94FA1FDF91CF91089530
:104B30000F931F93CF93DF93FB01238121FD03C0CC
:104B40008FEF9FEF28C022FF16C046815781248136
:104B500035814217530744F4A081B1819D012F5F35
:104B60003F4F208331838C93268137812F5F3F4FC6
:104B70002683378310C0EB01092F182F0084F1859D
:104B8000E02D1995892BE1F68E819F8101968E8308
:104B90009F83812F902FDF91CF911F910F910895C7
:104BA0000F931F93CF93DF93E0911599F09116998E
:104BB000238121FF1BC08C01D0E0C0E0F80181916E
:104BC0008F016091159970911699DB011896ED91FE
:104BD000FC911997882331F01995892B79F3DFEF30
:104BE000CFEFECCF8AE01995892B19F08FEF9FEF6B
:104BF00002C08D2F9C2FDF91CF911F910F910895AF
:104C00000F931F93CF93DF93CDB7DEB72E97CDBF12
:104C1000DEBF0E891F8986E08C8309831A838FEF9C
:104C20009FE78D839E83AE01465E5F4F688D798DD1
:104C3000CE0101960E94FA1F2F813885F801E20FFC
:104C4000F31F10822E96CDBFDEBFDF91CF911F9153
:104C50000F910895FA01AA27283051F1203181F1EE
:104C6000E8946F936E7F6E5F7F4F8F4F9F4FAF4F74
:104C7000B1E03ED0B4E03CD0670F781F891F9A1F87
:104C8000A11D680F791F8A1F911DA11D6A0F711D3B
:104C9000811D911DA11D20D009F468943F912AE047
:104CA000269F11243019305D3193DEF6CF0108952F
:104CB000462F4770405D4193B3E00FD0C9F7F6CF60
:104CC000462F4F70405D4A3318F0495D31FD405228
:104CD000419302D0A9F7EACFB4E0A69597958795BE
:104CE00077956795BA95C9F700976105710508959D
:104CF0009B01AC010A2E0694579547953795279549
:104D0000BA95C9F7620F731F841F951FA01D0895E0
:104D1000DB018F939F930E940924BF91AF91A29FC3
:104D2000800D911DA39F900DB29F900D11240895A9
:104D3000052E97FB1EF400940E94AF2657FD07D066
:104D40000E94AD2307FC03D04EF40C94AF2650957F
:104D50004095309521953F4F4F4F5F4F0895909567
:104D60008095709561957F4F8F4F9F4F08950E945A
:104D70001424B7FF0895821B930B089557FD03C0B9
:0E4D80005BBF6791089560810895F894FFCF9E
:104D8E0029992006074006040510081020100382FA
:104D9E006C1001FE03106C8203C8A8980418A0A022
:104DAE00780588502050880538C030C03805186006
:104DBE0080601804788080F803087C880490A8A886
:104DCE004803F8100804102828F804F828281004BE
:104DDE007088887004F81008F005F808F008F001E3
:104DEE00FE04FE20508802807A01FA04FE1008F0BC
:104DFE000410A8A87803FC12020470A8A83004704E
:104E0E008888FE047088888804FE888870047088FC
:104E1E0088F8020204038080800304020403828265
:104E2E00FE030638C003FE828205C2A2928A860560
:104E3E000608F0080605C6281028C6053EC038C06C
:104E4E003E050E30C0300E047E80807E050202FECE
:104E5E000202044C92926404FE1232CC057C82A2B1
:104E6E0042BC04FE12120C047C82827C05FE0418E5
:104E7E0060FE05FE040804FE04FE80808005FE1020
:104E8E00284482044080807E0382FE8204FE10103D
:104E9E00FE057C829292F404FE12120204FE92929D
:104EAE008204FE82827C047C82824404FE92926C96
:104EBE0005F8141214F808384492AAAABA24180550
:104ECE000402A2120C048244281004282828280464
:104EDE001028448201C40144054C9292927C056CC8
:104EEE009292926C050202F20A06057C92929264EC
:104EFE00055E8A8A8A7205302824FE200544829235
:104F0E00926C0584C2A2928C050084FE8000057C02
:104F1E00A2928A7C03C0380601800310101001C0D3
:104F2E0003103810032810280382443803384482B3
:104F3E000106056C92AC40A005462610C8C4054873
:104F4E0054FE54240528FE28FE280306000601BE42
:104F5E00020000D021CE21CA21C421BE21B821B227
:104F6E0021B021AC21A821A421A0219E219A219813
:104F7E002194218E21882182217C21762170216A23
:104F8E002164215E215821562154214F214A214569
:104F9E00213F21362130212B21262121211C2117B1
:104FAE002111210C2108210321FD20F820F220ECF3
:104FBE0020E720E220DC20D720D220CC20C720C141
:104FCE0020BB20B520AF20A920A520A1209D20998F
:104FDE0020952092208D20882083207E2079207598
:104FEE002070206B206920662061205F205920549C
:104FFE00204F204A20452041203C20382033202DB0
:10500E0020272021201C201820142012200E2008DA
:10501E0020FFFF0083100000010410000001820831
:10502E00000001000000000000000000000001016F
:10503E000101800600000602000604000606400676
:10504E0001400600000605000607E00701E0070024
:10505E0020060220060420060649444C45007468CA
:10506E00652074656D702069732025660A0D006CCD
:10507E006967687400310066616E0074696D650061
:10508E0073657400202C00737461747573203A205C
:10509E0025780D0A00636F6E666967203A202578C1
:1050AE000D0A006669666F203A2025780D0A006E9B
:1050BE006F772070617273696E6720737472696E98
:1050CE0067002000257320257320257300313437A7
:1050DE003130303636333000454D4F4E007433008C
:0A50EE00743400743600757362001C
:00000001FF
