:100000000C9487010C94A8010C94A8010C94A801ED
:100010000C94A8010C94A8010C94A8010C94A801BC
:100020000C94A8010C94A8010C94A8010C94A801AC
:100030000C94A8010C94A8010C948D070C94A801B1
:100040000C94A8010C94A8010C94A8010C94A8018C
:100050000C94A8010C94A8010C94A8010C94A8017C
:100060000C94A8010C94A5110C94B9110C94AF1127
:100070000C94C3110C94D7110C94CD110C94A801BD
:100080000C94A8010C94A8010C94A8010C94A8014C
:100090000C94A8010C94A8010C94A8010C94A8013C
:1000A0000C94A8010C94A8010C94A8010C94A8012C
:1000B0000C94A8010C94A8010C94A8010C94A8011C
:1000C0000C94A8010C94A8010C94A8010C94A8010C
:1000D0000C94A8010C94A8010C94A8010C94A801FC
:1000E0000C94A8010C94A8010C94FF110C94131209
:1000F0000C9409120C94A8010C94A8010C94A8016A
:100100000C94A8010C94A8010C94A8010C94A801CB
:100110000C94A8010C94A8010C94A8010C94A801BB
:100120000C94A8010C94A8010C94A8010C94A801AB
:100130000C94A8010C94A8010C94A8010C94A8019B
:100140000C94A8010C94A8010C94A8010C94A8018B
:100150000C94A8010C94A8010C94A8010C94A8017B
:100160000C94E1110C94F5110C94EB110C94A80172
:100170000C94A8010C94A8010C94A8010C94A8015B
:100180000C94A8010C94A8010C94A8010C94A8014B
:100190000C94A8010C94A8010C94A8010C94A8013B
:1001A0000C94A8010C94A8010C94A8010C94A8012B
:1001B0000C94A8010C94A8010C94A8010C94A8011B
:1001C0000C94A8010C94A8010C94A8010C94A8010B
:1001D0000C94A8010C94A8010C94A8010C94A801FB
:1001E0000C94A8010C94A8010C94A8010C94A801EB
:1001F0000C94A8010C944D0C0C94A8010C948F0E37
:100200000C94C10C0C94E2100C9450086E616E00BA
:10021000696E660000407A10F35A00A0724E180909
:100220000010A5D4E80000E87648170000E40B545D
:10023000020000CA9A3B000000E1F505000080962C
:100240009800000040420F000000A086010000005E
:10025000102700000000E803000000006400000018
:1002600000000A00000000000100000000002C76E1
:10027000D888DC674F0823DFC1DFAE59E1B1B796FC
:10028000E5E3E453C63AE651997696E8E6C2842659
:10029000EB898C9B62ED407C6FFCEFBC9C9F40F235
:1002A000BAA56FA5F490055A2AF75C936B6CF967B1
:1002B0006DC11BFCE0E40D47FEF520E6B500D0ED76
:1002C000902E0300943577050080841E08000020DE
:1002D0004E0A000000C80C333333330F986E12837C
:1002E0001141EF8D2114893BE65516CFFEE6DB1850
:1002F000D1844B381BF77C1D901DA4BBE424203215
:1003000084725E228100C9F124ECA1E53D2711240D
:100310001FBECFEFCDBFDFE9DEBF00E00CBF13E2B1
:10032000A0E0B0E2E0E4F0E300E00BBF02C0079021
:100330000D92A632B107D9F726E9A6E2B3E201C0D1
:100340001D92A138B207E1F70E940C110C941E18FF
:100350000C940000823099F018F4813031F0089547
:10036000833011F18430C1F108950E948D0480E042
:1003700090E20E94841181E080937C9308958091A3
:100380007C93813049F40E9484048FE99CE80197B2
:10039000F1F700C0000004C080E090E20E948411E8
:1003A00082E080937C93089580917C93833059F10F
:1003B00080E090E20E9484110E94960480E090E226
:1003C0000E9474118FE094E00197F1F700C00000E3
:1003D00083E080937C93089580917C93843099F09E
:1003E00080E090E20E9484110E949F0480E090E2ED
:1003F0000E9474118FE094E00197F1F700C00000B3
:1004000084E080937C930895AF92BF92DF92EF9245
:10041000FF920F931F93CF93DF931F921F92CDB73D
:10042000DEB77C018B01E0E4F6E080EB818380E4C1
:10043000828380E58093C00880E1818380E8809397
:10044000210680E090E20E94841183E090E20E9405
:1004500084112FEF83EC99E0215080409040E1F728
:1004600000C0000081E00E94AA0183E00E94AA016E
:100470000E9428050E942F040E94160480E78983A9
:1004800041E050E0BE016F5F7F4F87E00E94C403F0
:100490008BE08A8341E050E0BE016E5F7F4F80E0D9
:1004A0000E94C403D7018C91EDE7F3E98083119694
:1004B0008C911197818312968C9112978283139657
:1004C0008C911397838314968C911497848315963B
:1004D0008C911597858316968C911697868317961F
:1004E0008C911797878318968C9118978087199607
:1004F0008C91199781871A968C911A9782871B96EF
:100500008C911B9783871C969C911C9794871D96B2
:100510009C91958720E030E09CE0D901AD56BC4627
:10052000F801E20FF31F492F01900D924A95E1F770
:10053000245F3F4F2834310581F70E94EC050DE719
:1005400013E9F80184850E940006D8011D968C915C
:100550000E941406F80184810E94F004D8011596C7
:100560008C910E94FD04F80187810E940E050F2ED8
:10057000F3E9EF2EF3E9FF2EF02D0F2EFEE9AF2E5B
:10058000F3E9BF2EF02DD12CD7016C918D2D0E9457
:10059000CC04F5013A9760818D2D0E94A804F501E5
:1005A00060818D2D0E94C805D70112960C9112977B
:1005B00013961C91139714962C91149715963C91B1
:1005C000159716964C91169717965C911797189653
:1005D0006C91189719967C918D2D0E944205BCE074
:1005E000EB0EF11CD394ECE0AE0EB11CF6E0DF1282
:1005F000CBCF0F900F90DF91CF911F910F91FF9074
:10060000EF90DF90BF90AF9008950E941B0581117D
:1006100004C00E94C305811108C00E943B0591E0FF
:10062000873009F490E0892F01C080E0817008953F
:10063000CF93DF93EC010E943B0588878630A0F4BE
:1006400090918893992329F00E9448048C879D8774
:1006500005C00E94B00590E08C879D876C857D85E4
:100660008A859B850E94EF0380E0DF91CF910895FA
:10067000CF93DF936115710589F0DC01680F791F55
:10068000E0ECF8E0ED019C91938392819923ECF7E3
:10069000938198831196A617B707A1F7DF91CF91A1
:1006A00008951F93CF93DF931F92CDB7DEB7182F16
:1006B00086E090E20E9484111F71198361E070E06E
:1006C000CE0101960E94380361E070E0CE010196F0
:1006D0000E94380386E090E20E94741189810F9095
:1006E000DF91CF911F910895CF92DF92EF92FF9209
:1006F0001F93CF93DF931F92CDB7DEB7182F7B01E7
:100700006A0186E090E20E9484111F71198361E002
:1007100070E0CE0101960E943803B601C7010E9425
:10072000380386E090E20E9474110F90DF91CF9120
:100730001F91FF90EF90DF90CF9008951F93CF937C
:10074000DF931F921F92CDB7DEB7182F6A8386E022
:1007500090E20E9484111F711062198361E070E0C1
:10076000CE0101960E94380361E070E0CE0102964E
:100770000E94380386E090E20E9474110F900F905F
:10078000DF91CF911F910895CF92DF92EF92FF9268
:100790001F93CF93DF931F92CDB7DEB7182F7B0146
:1007A0006A0186E090E20E9484111F711062198331
:1007B00061E070E0CE0101960E943803B601C701E6
:1007C0000E94380386E090E20E9474110F90DF913E
:1007D000CF911F91FF90EF90DF90CF900895EF920F
:1007E000FF920F931F93CF93DF931F92CDB7DEB786
:1007F0008C017B0186E090E20E94841181E689836E
:1008000061E070E0CE0101960E943803B701C80193
:100810000E94380386E090E20E9474110F90DF91ED
:10082000CF911F910F91FF90EF900895CF93DF9399
:100830001F92CDB7DEB786E090E20E94841181EE70
:10084000898361E070E0CE0101960E94380386E062
:1008500090E20E9474110F90DF91CF910895CF9391
:10086000DF931F92CDB7DEB786E090E20E9484113D
:1008700082EE898361E070E0CE0101960E94380328
:1008800086E090E20E9474110F90DF91CF9108955D
:10089000CF93DF931F92CDB7DEB786E090E20E9440
:1008A000841180E6898361E070E0CE0101960E94A8
:1008B000380361E070E0CE0101960E94380386E0C3
:1008C00090E20E947411898190E00F90DF91CF91A6
:1008D0000895CF93DF931F92CDB7DEB786E090E205
:1008E0000E9484118FEF898361E070E0CE01019650
:1008F0000E94380386E090E20E947411898190E0A2
:100900000F90DF91CF91089580E00E945103682FEE
:10091000626080E00E949E03089580E00E9451037F
:10092000682F6D7F80E00E949E03089580E00E9402
:100930005103682F616080E00E949E03089580E06B
:100940000E945103682F6E7F80E00E949E030895ED
:10095000CF93C82F662379F081E00E94510361E0B4
:1009600070E002C0660F771FCA95E2F7682B81E03E
:100970000E949E030FC081E00E94510361E070E07D
:1009800002C0660F771FCA95E2F76095682381E081
:100990000E949E03CF910895CF93C82F662379F0CC
:1009A00082E00E94510361E070E002C0660F771F91
:1009B000CA95E2F7682B82E00E949E030FC082E096
:1009C0000E94510361E070E002C0660F771FCA9574
:1009D000E2F76095682382E00E949E03CF9108951C
:1009E000CF93C82F84E00E945103807F682F6C2B27
:1009F00084E00E949E03CF910895CF93C82F84E096
:100A00000E9451038F7090E1C99F90011124682FBB
:100A1000622B84E00E949E03CF910895CF93C82F4C
:100A200086E00E945103877D682F6C2B86E00E9430
:100A30009E03CF9108950E9469040024880F991F96
:100A4000001C880F991F001C892F902D817008951C
:100A5000CF93DF931F92CDB7DEB780E4898341E067
:100A600050E0BE016F5F7F4F87E00E94C4030F908C
:100A7000DF91CF9108950E9469048E709927959512
:100A8000879508952F923F924F925F926F927F9237
:100A90008F929F92AF92BF92CF92DF92EF92FF928E
:100AA0000F931F93CF93DF93CDB7DEB72597CDBFBD
:100AB000DEBF482EB02EA22E932E842E752E662ECB
:100AC000572E81E0841568F421E090E08EEF840DCC
:100AD000843008F020E0C22ED92E1C141D0434F0FE
:100AE00021C00F2EF5E0CF2ED12CF02DDE01119676
:100AF0007D01212C312CE0E0F0E02B2D312F4A2D0F
:100B0000592D682D772D862D952D022D0E942016AA
:100B1000D7012D937D013196B8E02B0E311CEC15D9
:100B2000FD055CF3A601BE016F5F7F4F8AE0840D77
:100B30000E94C4032596CDBFDEBFDF91CF911F91E8
:100B40000F91FF90EF90DF90CF90BF90AF909F906C
:100B50008F907F906F905F904F903F902F9008956F
:100B6000CF93DF931F92CDB7DEB741E050E0BE01D7
:100B70006F5F7F4F8F5E0E94740389818F730F9028
:100B8000DF91CF91089587E10E945103817008950C
:100B9000CF93C82F662379F08CE10E94510361E066
:100BA00070E002C0660F771FCA95E2F7682B8CE1F0
:100BB0000E949E030FC08CE10E94510361E070E02F
:100BC00002C0660F771FCA95E2F7609568238CE133
:100BD0000E949E03CF910895882349F08DE10E94E1
:100BE0005103682F64608DE10E949E0308958DE19A
:100BF0000E945103682F6B7F8DE10E949E03089530
:100C0000882349F08DE10E945103682F62608DE1D5
:100C10000E949E0308958DE10E945103682F6D7F0D
:100C20008DE10E949E030895882349F08DE10E9482
:100C30005103682F61608DE10E949E0308958DE14C
:100C40000E945103682F6E7F8DE10E949E030895DC
:100C500031E1FC013083319722E220833197A3E315
:100C6000A0833197608331977083319710823197D9
:100C70001082319760E8608331971082319762E08B
:100C80006083319763E06083319764E060833197DC
:100C900065E06083319766E06083319767E0608349
:100CA000319768E06083319769E06083319760E154
:100CB000608331973083319732E13083319733E16C
:100CC0003083319734E13083319735E13083319788
:100CD00036E13083319737E13083319738E1308323
:100CE000319739E13083319730E23083319731E207
:100CF000308331972083319723E2208331974083DB
:100D000031975083319726E22083319727E2208361
:100D1000319728E22083319729E22083319720E31D
:100D20002083319721E320838797089565E080E051
:100D300098E00E94511283EF91E0809326089093EF
:100D4000270861E080E098E00E945712E0EAF0E0B6
:100D5000828181608283A0917993B0917A93CD91C1
:100D6000CDBFDD91DEBFFF91EF91DF91CF91BF91BC
:100D7000AF919F918F917F916F915F914F913F9133
:100D80002F911F910F91FF90EF90DF90CF90BF9028
:100D9000AF909F908F907F906F905F904F903F901B
:100DA0002F901F900F900FBE0F90089581E008952F
:100DB0000F920FB6F8940F921F9211242F923F9228
:100DC0004F925F926F927F928F929F92AF92BF925B
:100DD000CF92DF92EF92FF920F931F932F933F9347
:100DE0004F935F936F937F938F939F93AF93BF9333
:100DF000CF93DF93EF93FF93A0917993B0917A9380
:100E00000DB60D920EB60D920E94390BA0917993FA
:100E1000B0917A93CD91CDBFDD91DEBFFF91EF917F
:100E2000DF91CF91BF91AF919F918F917F916F9102
:100E30005F914F913F912F911F910F91FF90EF90F4
:100E4000DF90CF90BF90AF909F908F907F906F90EA
:100E50005F904F903F902F901F900F900FBE0F907C
:100E600008950F920FB6F8940F921F9211242F92AB
:100E70003F924F925F926F927F928F929F92AF922A
:100E8000BF92CF92DF92EF92FF920F931F932F9317
:100E90003F934F935F936F937F938F939F93AF9302
:100EA000BF93CF93DF93EF93FF93A0917993B0918A
:100EB0007A930DB60D920EB60D920E94C109811162
:100EC0000E94390BA0917993B0917A93CD91CDBFC7
:100ED000DD91DEBFFF91EF91DF91CF91BF91AF9197
:100EE0009F918F917F916F915F914F913F912F9142
:100EF0001F910F91FF90EF90DF90CF90BF90AF9038
:100F00009F908F907F906F905F904F903F902F9029
:100F10001F900F900FBE0F9008950E9431071895F3
:100F2000CF93DF93EC010E94BB098091282390911D
:100F30002923892B31F48DE293E280932823909327
:100F4000292320912A2330912B23CE01820F931F36
:100F50008F3F4FE6940770F42817390770F4C0915B
:100F60002823D0912923C20FD31F80932A23909343
:100F70002B2305C0C0E0D0E002C0C0E0D0E00E945A
:100F8000970ACE01DF91CF9108950895FC01039651
:100F9000818392832FEF3FEF23833483858396836E
:100FA0008783908710820895FC011086118608952A
:100FB000CF93DF939C01FB01DC011196CD91DC9175
:100FC0001297C283D3838C819D81848395838C8186
:100FD0009D81DC0112966D937C9313976C837D83C6
:100FE00020873187F90180818F5F8083DF91CF91E6
:100FF0000895CF93DF93EB01488159814F3F2FEF45
:10100000520721F4FC01A781B0850DC0DC011396C5
:1010100001C0DF011296ED91FC911397208131817F
:1010200042175307B0F71296ED91FC911397EA839C
:10103000FB83C483D583AC83BD831296CD93DC93AD
:10104000139788879987FC0120812F5F2083DF9188
:10105000CF910895CF93DF93FC01A085B185C28124
:10106000D381848195818C839D83C481D581828144
:1010700093818A839B831196CD91DC911297CE1731
:10108000DF0731F48C819D8111968D939C9312978B
:10109000108611868C9181508C93DF91CF910895A9
:1010A000FFCFCF93DF93EC01E0917993F0917A93A6
:1010B000828393838091339390913493C817D90797
:1010C00068F46091799370917A9380913F939091B5
:1010D00040936E5F7F4F0E94F90717C0609179932C
:1010E00070917A9380914193909142936E5F7F4F7C
:1010F0000E94F9078091922290919322C817D907F4
:1011000020F4C0939222D0939322DF91CF9108953F
:101110004F925F926F927F928F929F92AF92BF9207
:10112000CF92DF92EF92FF920F931F93CF93DF93B3
:101130004C01EB015A01290181E290E00E949007E5
:101140003C01009709F4DAC0C114D10409F0D2C0FF
:10115000C5010E949007F301878B908F892B21F4A2
:10116000C3010E94C507CAC0F1E0AF1AB108F3017C
:101170008789908DA80EB91E8881818F88818823E8
:1011800081F0D3015A96FE0131969E01285F3F4FB0
:10119000EF0181918D938881882319F0E217F3077D
:1011A000B9F7F30110A2102F043008F013E0F30197
:1011B000168BE3012296CE010E94D407C3010C9640
:1011C0000E94D407F3016086718684E090E0811B61
:1011D000910984879587628A738AA201B401C50147
:1011E0000E942806F30180839183E114F10419F031
:1011F000F701608271820FB6F8940F928091359357
:101200008F5F809335938091799390917A93892B16
:1012100089F56092799370927A93809135938130B9
:10122000C1F585E593E90E94C6078EE593E90E9422
:10123000C60787E693E90E94C60780E793E90E9404
:10124000C6078CE493E90E94C60783E493E90E94F1
:10125000C60786E393E90E94C6078CE493E980936E
:1012600041939093429383E493E980933F939093C7
:1012700040930FC08091319381110BC0E09179931D
:10128000F0917A938689081720F060927993709292
:101290007A9380912D938F5F80932D93F3018689AC
:1012A00090913293981710F48093329390E09C01C0
:1012B000220F331F220F331F220F331F820F931F62
:1012C000BE018B5A9C460E94D8070F900FBE80919A
:1012D0003193882359F0E0917993F0917A9386893C
:1012E000801730F40E94D80681E009C081E007C071
:1012F00081E005C0FC01C78AD08E36CF8FEFDF9129
:10130000CF911F910F91FF90EF90DF90CF90BF9002
:10131000AF909F908F907F906F905F904F900895C7
:10132000AF92BF92CF92DF92EF92FF920F93A12CD8
:10133000B12CC12CD12CE12CF12C00E020E030E0CC
:1013400044E650E06CEB72E280E598E00E94880889
:10135000813049F4F8948093319310923393109232
:1013600034930E9496060F91FF90EF90DF90CF90FC
:10137000BF90AF90089580912C938F5F80932C93B2
:101380000895DF92EF92FF920F931F93CF93DF9315
:1013900080912C938111B6C08091339390913493B6
:1013A00001968093339390933493E0903393F0902D
:1013B0003493E114F10499F5809141939091429313
:1013C00020913F93309140932093419330934293E7
:1013D00080933F939093409380912E938F5F80935F
:1013E0002E93E0914193F09142938081811107C047
:1013F0008FEF9FEF809392229093932210C0E09101
:101400004193F09142930580F681E02D0680F781AB
:10141000E02D8281938180939222909393228091F8
:10142000922290919322E816F90610F4D12C52C022
:10143000D12CE0914193F09142939081911107C09A
:101440008FEF9FEF809392229093932243C0E0917D
:101450004193F09142930580F681E02DC681D781BA
:101460002A813B81E216F30628F4209392223093DE
:10147000932230C08E010E5F1F4FC8010E942A08C0
:101480008C899D89892B21F0CE010C960E942A0817
:101490002E8980913293821710F42093329330E09A
:1014A000C901880F991F880F991F880F991F820FF4
:1014B000931FB8018B5A9C460E94D807E0917993FC
:1014C000F0917A939E898689981708F4B2CFDD242B
:1014D000D394AFCFE0917993F0917A93868990E09D
:1014E000FC01EE0FFF1FEE0FFF1FEE0FFF1F8E0F11
:1014F0009F1FFC01EB5AFC468081823048F0DD24BE
:10150000D39406C0809130938F5F80933093D12C19
:1015100080912F93882311F0DD24D3948D2DDF91BA
:10152000CF911F910F91FF90EF90DF900895DF9280
:10153000EF92FF920F931F93CF93DF930FB6F89420
:101540000F9280912C93815080932C9380912C93B7
:10155000811162C080913593811133C060C0D70181
:101560001596ED91FC911697C681D781CE010C9608
:101570000E942A088E010E5F1F4FC8010E942A0890
:101580002E8980913293821710F42093329330E0A9
:10159000C901880F991F880F991F880F991F820F03
:1015A000931FB8018B5A9C460E94D807E09179930B
:1015B000F0917A939E898689981758F0D0922F934C
:1015C00008C00F2EF6E3EF2EF3E9FF2EF02DDD24F9
:1015D000D394F70180818111C2CF80913093882309
:1015E00099F080913093882379F0C1E00E94C1097D
:1015F0008111C0932F9380913093815080933093C9
:10160000809130938111F2CF80912F93813031F40A
:101610000E94D80681E003C080E001C080E00F9006
:101620000FBEDF91CF911F910F91FF90EF90DF9050
:101630000895CF93DF93EC01892BB1F00E94BB0991
:101640008091339390913493C80FD91F80917993EF
:1016500090917A9302960E942A08CE010E94510826
:101660000E94970A811102C00E94D806DF91CF9193
:10167000089580912C93882321F081E080932F930B
:10168000089510922F938091329390E0FC01EE0F19
:10169000FF1FEE0FFF1FEE0FFF1F8E0F9F1FFC019E
:1016A000EB5AFC468081811117C0809132938150A2
:1016B000809332938091329390E0FC01EE0FFF1FF4
:1016C000EE0FFF1FEE0FFF1F8E0F9F1FFC01EB5A47
:1016D000FC468081882349F38091329390E09C01FD
:1016E000220F331F220F331F220F331F280F391FE2
:1016F000D901AB5ABC461196ED91FC91129702802C
:10170000F381E02D1196ED93FC931297285A3C46F5
:10171000E217F30729F422813381FD01218332830B
:10172000FC01EE0FFF1FEE0FFF1FEE0FFF1F8E0FCE
:101730009F1FFC01EB5AFC460180F281E02D86815F
:1017400097818093799390937A93089508958093E5
:10175000EC93282F2F7030E04091C6045091C704BD
:101760008823E4F464E8629FC001639F900D112414
:10177000815D9B468093E8939093E993C90182959C
:101780009295907F9827807F982708969A01280F36
:10179000391F2093EA933093EB93089564E8629F96
:1017A000C001639F900D112483519C468093E89360
:1017B0009093E99322953295307F3227207F32270C
:1017C000240F351F2093EA933093EB9308951F93D2
:1017D000CF93DF93D82F162FC42F0E94A70BE09131
:1017E000EA93F091EB931182E091EA93F091EB93FD
:1017F000DD23A4F01082E091EA93F091EB93118342
:10180000E091EA93F091EB93128213828091E89336
:101810009091E9938483958340E014C082E08083B3
:10182000E091EA93F091EB931183E091EA93F091C8
:10183000EB93128213828091E8939091E9938483D1
:1018400095834C2FFC01E05CFF4F40833196108262
:1018500081E0DF91CF911F91089520E030E0A0EC6E
:10186000B4E01696ED91FC911797C9018295929577
:10187000907F9827807F9827E80FF91F118616968A
:101880004D915C911797FA01E80FF91F11822F5FB4
:101890003F4F2530310529F708951F920F920FB65B
:1018A0000F9211240BB60F922F933F934F935F9398
:1018B0006F937F938F939F93AF93BF93EF93FF9318
:1018C0008091CA0488234CF48091C80488232CF4A6
:1018D00080E88093CA040E94A60B8091CA0486FF08
:1018E00007C080E48093CA041092DF930E94A60B85
:1018F0008091CA0485FF16C080E28093CA0480915B
:10190000DB93882321F084E08093DF9309C08091EA
:10191000C304811102C081E001C083E08093DF93A2
:101920000E94A60B8091CA0484FF18C0E0ECF4E08A
:1019300080E1828782E08093DF931092DB931382B1
:101940000E942D0C48E068E480E80E94E70B48E024
:1019500068E480E00E94E70B0E94A60BFF91EF91E4
:10196000BF91AF919F918F917F916F915F914F91B7
:101970003F912F910F900BBE0F900FBE0F901F90B5
:10198000189507E028E140E060E084EA92E20E94D6
:10199000361128E140E060E087EA92E20E943611C9
:1019A00000E028E140E060E08AEA92E20E9436111D
:1019B00028E140E060E08DEA92E20E943611C8E939
:1019C000D2E20F2EF4EAEF2EF2E2FF2EF02D8E017E
:1019D000C8010E94741161E0C8010E9452110D5F9C
:1019E0001F4F0E151F05A1F70F2EF4EACF2EF2E2BE
:1019F000DF2EF02DBB24B3949C2EAD2E84E690E018
:101A00000E94190B8601E12CF12CD02FC12FC801A7
:101A10000E94941181110CC08D2F9C2F0E94941153
:101A20008823D1F3F701EC56FD4D80818B2580830F
:101A30008FEFE81AF80A0D5F1F4F84E0E816F104F3
:101A400021F7092D1A2DC0E0D0E0FE01EC56FD4D26
:101A50008081882321F0C8010E94741103C0C8014D
:101A60000E94841121960D5F1F4FC430D10569F784
:101A7000C5CFFC01818185FFFDCF6083818186FF19
:101A8000FDCF80E48183808108951F93CF93DF93FE
:101A9000C0EAD6E018E01E83E0E6F6E091E0968327
:101AA0009683682F80EA99E00E94390D1D83DF91AB
:101AB000CF911F910895EF92FF920F931F93CF93B1
:101AC000DF93C0EAD6E018E01E830F2EF0E6EF2E7B
:101AD000F6E0FF2EF02D01E0F7010583682F80EA84
:101AE00099E00E94390DF70106831D83DF91CF91A4
:101AF0001F910F91FF90EF9008958770806B0E9467
:101B0000450D0895CF93C82F982F9F77892F8295E1
:101B10008F7080610E94450D8C2F8F700E94450D43
:101B2000CF910895CF93DF93EC01FB018C818F7EE1
:101B30008C83A0E6B6E082E011968C9311971596FF
:101B40008C938D81806C8D8384818D7F813021F495
:101B50008D8182608D8303C08D818D7F8D83858192
:101B6000882321F08D8184608D8303C08D818B7FDC
:101B70008D8380819181A281B3819C01AD01220F6F
:101B8000331F441F551F60E078E488EE91E00E9407
:101B9000FC1521503109832F8F708F832E838C8108
:101BA00088608C83DF91CF910895CF93DF9300D02D
:101BB00000D0CDB7DEB720EA36E088E0D901119633
:101BC0008C93A0E6B6E091E011969C931197E0E02B
:101BD000F6E0818392E011969C93119711968C9375
:101BE000D90115968C938683BAE6BA95F1F700C0B1
:101BF0008583EAE6EA95F1F700C0E0E7F0E084814A
:101C00008F7E848380E09BE1A7EBB0E089839A8399
:101C1000AB83BC831D821E82BE016F5F7F4F80EA53
:101C200099E00E94920D88EA0E94450D8FE10E9482
:101C3000450D83ED0E94450D80E00E94450D80E436
:101C40000E94450D81EA0E94450D88EC0E94450DD9
:101C50008AED0E94450D82E00E94450D81E80E94B8
:101C6000450D8FE80E94450D84EA0E94450D86EAE5
:101C70000E94450D85ED0E94450D80E80E94450DAE
:101C80008DE80E94450D84E10E94450D8BED0E9478
:101C9000450D80E40E94450D89ED0E94450D81EFC0
:101CA0000E94450D8FEA0E94450D2696CDBFDEBFEE
:101CB000DF91CF910895EF92FF920F931F93CF93EF
:101CC000DC01EC91EE2329F17C01BFEFEB1AFB0A5A
:101CD000EF37D0F4F0E0EE0FFF1FEC56FE4D008121
:101CE0001181F8018081882361F0C1E0F801EC0FD7
:101CF000F11D80810E945B0DCF5FD8019C919C17E4
:101D0000A8F780E00E945B0DD701ED917D01E11104
:101D1000DFCFCF911F910F91FF90EF900895CF9358
:101D2000DF93CDB7DEB7C857D109CDBFDEBF0E9464
:101D3000D50D10E00FC0812F0E947D0D802F0E94D5
:101D4000820D80E00E945B0D0F5F0038A1F71F5FDE
:101D5000143011F000E0EFCF0F2EF4E9EF2EF2E295
:101D6000FF2EF02D33243394CE0101964C013E0119
:101D70009FE1690E711C0F2EFFED4F2EF2E25F2ED8
:101D8000F02D5E01ADE3AA0EB11C6E01BBE5CB0EDA
:101D9000D11CF701808183251F928F93A1ECB2E2C1
:101DA000BF93AF939F928F920E949617D70111967F
:101DB0008C9183251F928F93A0EDB2E2BF93AF93D6
:101DC0007F926F920E949617D70112968C9183256D
:101DD0001F928F935F924F92BF92AF920E9496177D
:101DE000F701838183251F928F93AEEEB2E2BF93FA
:101DF000AF93DF92CF920E949617CDBFDEBF00E077
:101E00000FC0802F0E947D0D812F0E94820D80E0E7
:101E10000E945B0D1F5F1038A1F70F5F043011F0B7
:101E200010E0EFCF8401212C822D0E947D0D80E0F7
:101E30000E94820DC8010E945B0E2394025E1F4F18
:101E400094E02912F1CF80917B93882379F089EB7C
:101E500092E20E94841188EC90E00E94190B89EBB9
:101E600092E20E94741110927B9393CF88EC90E0E1
:101E70000E94190B8ECFE0E5F0E0808182608083C4
:101E8000818181FFFDCF81E00E943C1281E00E94B0
:101E9000321261E089EB92E20E94521161E086EB1E
:101EA00092E20E94521161E083EB92E20E94521191
:101EB00061E080EB92E20E94521189EB92E20E9473
:101EC000741186EB92E20E94741183EB92E20E94FD
:101ED000741180EB92E20E94741108950F931F9386
:101EE000CF93DF93EC01088119816EEF72E2C80194
:101EF0000E942317892B09F063C00A811B8164E0CB
:101F000073E2C8010E942317892BC9F40C80DD817C
:101F1000C02D64E073E2CE010E942317892B21F4C7
:101F200081E0809394229EC06DE173E2CE010E9415
:101F30002317892B09F096C01092942293C06DE16B
:101F400073E2C8010E942317892BC9F40C80DD813C
:101F5000C02D64E073E2CE010E942317892B21F487
:101F600081E0809395227EC06DE173E2CE010E94F4
:101F70002317892B09F076C01092952273C060E276
:101F800073E2C8010E942317892B09F06BC00C80F3
:101F9000DD81C02D64E073E2CE010E942317892BFE
:101FA00021F481E0809396225DC06DE173E2CE0161
:101FB0000E942317892B09F055C01092962252C017
:101FC00066E073E2C8010E942317892BC1F40A80DE
:101FD000DB81C02D64E073E2CE010E942317892BC0
:101FE00021F481E0809397223DC06DE173E2CE0140
:101FF0000E942317892BB1F51092972233C06AE013
:1020000073E2C8010E942317892B01F50A80DB8146
:10201000C02D64E073E2CE010E942317892B41F4A6
:10202000E4E9F2E281E080838183828383831AC0C2
:102030006DE173E2CE010E942317892B99F4E4E944
:10204000F2E210821182128213820CC06EE073E2FF
:10205000C8010E942317892B29F4F0E0E0E083E017
:102060008CBF199480E090E0DF91CF911F910F9188
:102070000895EF92FF920F931F93CF93DF93CDB705
:10208000DEB76497CDBFDEBF69E173E20E941F1720
:102090000097D9F089839A837E0183E0E80EF11CD2
:1020A00001E010E009C0F701819391937F010F5F78
:1020B0001F4F0A30110559F069E173E280E090E0AA
:1020C0000E941F17009779F702C000E010E0B801E6
:1020D000CE0101960E946E0F6496CDBFDEBFDF91E8
:1020E000CF911F910F91FF90EF900895EDE7F3E9E5
:1020F0001082118212828CE083838FE08483858337
:1021000042E0468388E0878386E0808711861286D6
:1021100081E0838784878587E3E9F3E99EEE9283F4
:1021200094E4938393E3948392E2958391E196837D
:1021300017821086118686873EEC378724E2208B33
:1021400095E4918B8AE9828B138A148A158A428FCF
:10215000338F248F958F868F178E10A211A243E0A4
:1021600046A337A320A791A782A713A614A615A656
:1021700044E042AB33AB24AB95AB86AB17AA10AEB1
:1021800011AEE1EDF3E945E040833183228393838F
:102190008483158216821782EEE9F3E926EE33E98D
:1021A00081E0DF011B978C9311968C9380833C9682
:1021B000E217F307B1F763E973E98DE793E90E944A
:1021C00004020895CF93DF93CDB7DEB7AF97CDBFAD
:1021D000DEBF0E9476108E010F5F1F4F0E94050325
:1021E0008823A9F00BA71CA70E942805CE01819681
:1021F0000E941803EBA5FCA58DA59EA5E80FF91F6D
:1022000010828BA59CA50E9439100E942F0488EC97
:1022100090E00E94190BE2CF0E943B0FA12CB12C41
:10222000C12CD12CE12CF12C00E020E030E044EF77
:1022300051E06CE173E282EE90E10E94880820E0B8
:1022400030E044EF51E06FE173E281EC9CE00E94EA
:10225000880820E030E044EF51E062E273E28FE86A
:102260009EE00E9488080E949009FFCF0F93202BC8
:10227000611102C000E001C000E8202B411102C042
:1022800000E001C000E4202B3FB7F894DC01129677
:102290004C9112974093B000ED91FC91208B3FBF81
:1022A0000F910895662381F0DC01ED91FC91119767
:1022B00021E030E0A90112960C9002C0440F551F96
:1022C0000A94E2F741830895DC01ED91FC911197A6
:1022D00021E030E0A90112960C9002C0440F551F76
:1022E0000A94E2F742830895DC01ED91FC91119785
:1022F00021E030E0A90112960C9002C0440F551F56
:102300000A94E2F745830895DC01ED91FC91119761
:1023100021E030E0A90112960C9002C0440F551F35
:102320000A94E2F746830895DC01ED91FC91119740
:10233000208530E0F90112960C9002C0F595E795E2
:102340000A94E2F7CF01817008951F920F920FB6A1
:102350000F9211240F900FBE0F901F9018951F928F
:102360000F920FB60F9211240F900FBE0F901F9077
:1023700018951F920F920FB60F9211240F900FBE57
:102380000F901F9018951F920F920FB60F92112465
:102390000F900FBE0F901F9018951F920F920FB6BF
:1023A0000F9211240F900FBE0F901F9018951F923F
:1023B0000F920FB60F9211240F900FBE0F901F9027
:1023C00018951F920F920FB60F9211240F900FBE07
:1023D0000F901F9018951F920F920FB60F92112415
:1023E0000F900FBE0F901F9018951F920F920FB66F
:1023F0000F9211240F900FBE0F901F9018951F92EF
:102400000F920FB60F9211240F900FBE0F901F90D6
:1024100018951F920F920FB60F9211240F900FBEB6
:102420000F901F9018951F920F920FB60F921124C4
:102430000F900FBE0F901F9018950F93CF93DF93BF
:102440001F92CDB7DEB72FB72983F8941BBEFC01CE
:1024500008ED04BF608389818FBF0F90DF91CF911A
:102460000F910895E0E5F0E09081282F20959223C8
:1024700090839081892308950F931F93CF93C82F42
:1024800000E410E0F8016081687F682B80E490E050
:102490000E941D12F80180818C23CF911F910F9112
:1024A0000895FC019081907F692B60830895FC0161
:1024B00096819C7F692B668308952F923F924F925D
:1024C0005F926F927F928F929F92AF92BF92CF92C4
:1024D000DF92EF92FF920F931F93CF93DF93CDB7CD
:1024E000DEB76397CDBFDEBF6C014B012A01FC0153
:1024F00016821782838181FF43C3AE014F5F5F4F16
:102500003A01F6019381F40193FD859193FF819146
:102510004F01882309F430C3853239F493FD859146
:1025200093FF81914F01853239F4B60190E00E940A
:102530005E1752012501E5CF10E0F12C20E020329A
:10254000A0F48B3269F030F4803259F0833269F4B0
:1025500020612CC08D3239F0803339F4216026C0DF
:102560002260246023C0286021C027FD27C030EDF1
:10257000380F3A3078F426FF06C0FAE01F9F300D7E
:102580001124132F13C04AE0F49E300D1124F32EB2
:1025900020620CC08E3221F426FDEEC2206406C0FB
:1025A0008C3611F4206802C0883641F4F40193FDA2
:1025B000859193FF81914F018111C1CF9BEB980FC2
:1025C000933018F42061805E06C09BE9980F933029
:1025D00008F071C12F7E26FF16E02F73322E85364C
:1025E00019F42064322E08C0863621F4F22FF068E8
:1025F0003F2E02C01111115037FE07C01C3350F49A
:10260000EE24E394E10E27E00BC0183038F027E009
:1026100017E005C027E04CE3E42E02C0212FE12C97
:10262000520144E0A40EB11CF201608171818281EB
:1026300093810E2DA3010E943C162C01098100FFFD
:1026400002C003FF07C031FC08C032FE09C030E2FF
:10265000232E07C02DE2222E04C09BE2292E01C0AA
:10266000212C802F8C7019F0211068C2A8C237FE6F
:102670000FC0E40C04FF04C08A81813309F4EA949A
:102680001E1474F5F8E0FE1578F588E0E82E2CC0ED
:1026900036FC2AC0812F90E0841595059CF02CEF24
:1026A00042162FEF520674F0432D4068342E0AC0B4
:1026B000E2E0F0E0EC0FFD1FE10FF11D80818033BF
:1026C00019F411501111F4CF37FE0EC0EE24E3942B
:1026D000E10E812F90E0481659062CF4141904C01D
:1026E000EE24E39401C010E037FE06C01414150474
:1026F00034F4C201019605C085E090E002C081E09B
:1027000090E021100196112331F0212F30E02F5F4E
:102710003F4F820F931F2F2D30E08217930714F441
:10272000F81A01C0F12C832D897049F4FF2039F08B
:10273000B60180E290E00E945E17FA94F7CF222063
:1027400029F0B601822D90E00E945E1733FC09C08B
:10275000FF2039F0B60180E390E00E945E17FA9402
:10276000F7CF37FE5AC0942D852D57FE02C090E05A
:1027700080E0292E382E20E030E0A2014E195109C8
:102780004C875D87A201421953094E875F87612FED
:1027900070E044275527461B570B488B598B5FEF3A
:1027A0002516350649F4B6018EE290E02A8B3B8B64
:1027B0000E945E173B892A89421453046CF04C85B1
:1027C0005D854215530544F4EE85FF85E20FF31F46
:1027D000E60DF71D818101C080E351E0251A310823
:1027E0002F5F3F4F48895989241635064CF0B601B2
:1027F00090E02A8B3B8B0E945E172A893B89CFCFC2
:102800002414350439F49A81963318F4953311F46D
:1028100004FF81E3B60190E04BC08A81813309F067
:102820000F7EB60190E00E945E17111105C034FCC6
:1028300018C085E690E017C0B6018EE290E00E94D5
:102840005E1782E0EE24E394E80EF301E80FF11D39
:102850008081B60190E00E945E1711508E2D91F795
:10286000E6CF85E490E0B6010E945E1757FC05C0F4
:102870004114510439F404FF05C0519441945108A6
:102880008DE201C08BE2B60190E00E945E1780E30A
:102890009AE0491651042CF08F5F5AE0451A51080E
:1028A000F7CFB60190E00E945E17B601C201C09654
:1028B0000E945E1757C1833631F0833779F0833534
:1028C00009F058C021C05201E2E0AE0EB11CF20185
:1028D0008081898301E010E0230114C05201F2E0FD
:1028E000AF0EB11CF2014080518026FF03C0612F62
:1028F00070E002C06FEF7FEFC2012A8B0E942C179D
:102900008C012A892F7715C05201F2E0AF0EB11C5D
:10291000F2014080518026FF03C0612F70E002C0A9
:102920006FEF7FEFC2012A8B0E9414178C012A8956
:102930002068322E23FD1AC08F2D90E0081719074A
:10294000A8F4B60180E290E00E945E17FA94F4CFFA
:10295000F20137FC859137FE81912F01B60190E09D
:102960000E945E17F110FA9401501109011511052A
:1029700079F7F8C0843611F0893659F5520127FFEE
:1029800009C0F4E0AF0EB11CF20160817181828157
:1029900093810AC0F2E0AF0EB11CF2016081718137
:1029A000072E000C880B990B2F76322E97FF09C04B
:1029B00090958095709561957F4F8F4F9F4F2068C0
:1029C000322E2AE030E0A3010E94C017E82EE6185C
:1029D0003FC0022F853721F40F7E2AE030E01DC072
:1029E000097F8F3691F018F4883559F0C5C08037CB
:1029F00019F0883711F0C0C0006104FF09C00460FD
:102A000007C024FF08C0066006C028E030E005C00B
:102A100020E130E002C020E132E0520107FF09C0AE
:102A2000F4E0AF0EB11CF20160817181828193816B
:102A300008C0F2E0AF0EB11CF2016081718180E04C
:102A400090E0A3010E94C017E82EE6180F77302E01
:102A500036FE0BC0332D3E7FE11650F434FE0AC023
:102A600032FC08C0332D3E7E05C00E2D332D03C031
:102A70000E2D01C0012F34FF0CC0FE01EE0DF11D23
:102A80008081803311F4397E08C032FF05C00E5FAB
:102A900004C0832F867809F00F5F33FD13C030FF29
:102AA00006C01E2D0F1518F41F0D101B0F2D0F152E
:102AB00068F4B60180E290E03B8B0E945E170F5FE6
:102AC0003B89F5CF0F1510F4F01A01C0F12C34FF3B
:102AD00012C0B60180E390E03B8B0E945E173B89F9
:102AE00032FF17C031FD03C088E790E002C088E5DF
:102AF00090E0B6010CC0832F867859F031FF02C0F8
:102B00008BE201C080E237FD8DE2B60190E00E94C9
:102B10005E17E11638F4B60180E390E00E945E177C
:102B20001150F7CFEA94F301EE0DF11D8081B6014B
:102B300090E00E945E17E110F5CF14C0F4E0FF159D
:102B400058F584E0F81A33FE1EC0211026C003FF9A
:102B50002AC00CE012E0F32DF0713F2EF8018491B1
:102B6000811124C0FF2009F4E5CCB60180E290E099
:102B70000E945E17FA94F6CFF6018681978126C0EF
:102B80008FEF9FEF23C0B60180E290E00E945E17B6
:102B9000FA94F110F8CFD9CFF12CB601822D90E044
:102BA0000E945E17D4CF00E112E0D5CF31108052E1
:102BB000B60190E00E945E170F5F1F4FCFCF23E05A
:102BC0002F1510F483E0BECFF12CC1CF6396CDBF9B
:102BD000DEBFDF91CF911F910F91FF90EF90DF90BB
:102BE000CF90BF90AF909F908F907F906F905F90AD
:102BF0004F903F902F900895A1E21A2EAA1BBB1B65
:102C0000FD010DC0AA1FBB1FEE1FFF1FA217B307B8
:102C1000E407F50720F0A21BB30BE40BF50B661FCE
:102C2000771F881F991F1A9469F760957095809592
:102C300090959B01AC01BD01CF01089597FB10F861
:102C4000169400080F93083098F00850232F342F63
:102C5000452F562F672F782F892F902DF4CF05946D
:102C600097958795779567955795479537952795C4
:102C70000A95AAF70F910895283008F027E0332726
:102C8000DA01990F311D87FD91600096610571058C
:102C900039F432602E5F3D9330E32A95E1F70895D1
:102CA0009F3F30F080387105610509F03C5F3C5F63
:102CB0003D93913008F08068911DDF93CF931F936F
:102CC0000F93FF92EF92192F987F9695E92F969583
:102CD0009695E90FFF27E259FD4F99273327EE24F8
:102CE000FF24A701E70105900894079428F4360F04
:102CF000E71EF81E491F511D660F771F881F991F79
:102D00000694A1F70590079428F4E70EF81E491FD2
:102D1000561FC11D770F881F991F661F0694A1F7C4
:102D20000590079428F4F80E491F561FC71FD11DA0
:102D3000880F991F661F771F0694A1F705900794C7
:102D400020F4490F561FC71FD81F990F661F771F02
:102D5000881F0694A9F784911095177041F0D695B5
:102D6000C79557954795F794E7941A95C1F7E4E10D
:102D7000F2E06894159015913591659195910590C3
:102D80007FE27395E118F10A430B560BC90BD0098A
:102D9000C0F7E10CF11E431F561FC91FD01D7EF462
:102DA000703311F48A95E6CFE894015030F0080FA3
:102DB0000AF40027021708F4202F2395022F7A33F4
:102DC00028F079E37D932A95E9F710C07D932A9541
:102DD00089F6069497956795379517951794E11896
:102DE000F10A430B560BC90BD00998F023957E913D
:102DF00073957A3308F070E37C932013B8F77E91D3
:102E000070617D9330F0839571E37D9370E32A9533
:102E1000E1F71124EF90FF900F911F91CF91DF9177
:102E2000992787FD90950895FC01059061507040A9
:102E30000110D8F7809590958E0F9F1F089546E258
:102E400053E20C943717FB01DC018D91019080193E
:102E50000110D9F3990B0895FC0161507040019065
:102E60000110D8F7809590958E0F9F1F0895FA0155
:102E7000A191B081009719F41097E1F0CD01DC0128
:102E8000CD010D90002011F4C00113C0FB01219170
:102E9000222319F02015D9F7F3CFFB01219120153A
:102EA00019F41E92119606C02223C1F70D9000203E
:102EB000A1F7D001FA01A193B08308950F931F9356
:102EC000CF93DF93FB01238121FD03C08FEF9FEFA1
:102ED00028C022FF16C046815781248135814217C0
:102EE000530744F4A081B1819D012F5F3F4F2083A0
:102EF00031838C93268137812F5F3F4F2683378321
:102F000010C0EB01092F182F0084F185E02D1995D1
:102F1000892BE1F68E819F8101968E839F83812F7D
:102F2000902FDF91CF911F910F9108950F931F93D1
:102F3000CF93DF93CDB7DEB72E97CDBFDEBF0E891F
:102F40001F8986E08C8309831A838FEF9FE78D8327
:102F50009E83AE01465E5F4F688D798DCE010196EE
:102F60000E945D122F813885F801E20FF31F108255
:102F70002E96CDBFDEBFDF91CF911F910F910895A7
:102F8000FA01AA27283051F1203181F1E8946F939A
:102F90006E7F6E5F7F4F8F4F9F4FAF4FB1E03ED040
:102FA000B4E03CD0670F781F891F9A1FA11D680FDE
:102FB000791F8A1F911DA11D6A0F711D811D911D11
:102FC000A11D20D009F468943F912AE0269F112486
:102FD0003019305D3193DEF6CF010895462F4770EA
:102FE000405D4193B3E00FD0C9F7F6CF462F4F7045
:102FF000405D4A3318F0495D31FD4052419302D0A3
:10300000A9F7EACFB4E0A695979587957795679548
:10301000BA95C9F700976105710508959B01AC0148
:103020000A2E06945795479537952795BA95C9F76F
:10303000620F731F841F951FA01D0895F894FFCF82
:10304000200607400604400604051008102010035F
:10305000826C1001FE03106C8203C8A8980418A0AB
:10306000A0780588502050880538C030C038051831
:103070006080601804788080F803087C880490A839
:10308000A84803F8100804102828F804F828281085
:10309000047088887004F81008F005F808F008F04B
:1030A00001FE04FE20508802807A01FA04FE100816
:1030B000F00410A8A87803FC12020470A8A8300439
:1030C000708888FE047088888804FE888870047080
:1030D0008888F802020403808080030402040382CB
:1030E00082FE030638C003FE828205C2A2928A864F
:1030F000050608F0080605C6281028C6053EC03893
:10310000C03E050E30C0300E047E80807E05020277
:10311000FE0202044C92926404FE1232CC057C82C0
:10312000A242BC04FE12120C047C82827C05FE04C6
:103130001860FE05FE040804FE04FE80808005FE83
:1031400010284482044080807E0382FE8204FE10A8
:1031500010FE057C829292F404FE12120204FE928A
:10316000928204FE82827C047C82824404FE9292DB
:103170006C05F8141214F808384492AAAABA241854
:10318000050402A2120C04824428100428282828CE
:10319000041028448201C40144054C9292927C059B
:1031A0006C9292926C050202F20A06057C9292924F
:1031B00064055E8A8A8A7205302824FE20054482CE
:1031C00092926C0584C2A2928C050084FE80000558
:1031D0007CA2928A7C03C038060180031010100183
:1031E000C0031038100328102803824438033844E1
:1031F000820106056C92AC40A005462610C8C405A5
:103200004854FE54240528FE28FE28030600060123
:10321000BE020000D121CF21CB21C521BF21B92180
:10322000B321B121AD21A921A521A1219F219B215C
:10323000992195218F21892183217D217721712158
:103240006B2165215F2159215721552150214B21A7
:1032500046214021372131212C21272122211D21E6
:10326000182112210D2109210421FE20F920F3202B
:10327000ED20E820E320DD20D820D320CD20C82079
:10328000C220BC20B620B020AA20A620A2209E20CA
:103290009A20962093208E20892084207F207A20D7
:1032A000762071206C206A206720622060205A20DE
:1032B000552050204B20462042203D2039203420EC
:1032C0002E20282022201D201920152013200F2019
:1032D0000920FFFF010101010006060006040006A7
:1032E00002800600000607000605400600400601B1
:1032F000600605600604E00701E0070049444C450C
:10330000004C696768742030203A20202025640032
:103310004C696768742031203A2020202564004CD5
:10332000696768742032203A2020202564004661B5
:103330006E2020202020203A2020202564006C6967
:1033400067687400300066616E00616C6C00626FCB
:103350006F746C6F6164657200202C0074310074AE
:063360003200743300008E
:00000001FF
