:100000000C9487010C94A8010C94A8010C94A801ED
:100010000C94A8010C94A8010C94A8010C94A801BC
:100020000C94A8010C94A8010C94A8010C94A801AC
:100030000C94A8010C94A8010C943D0B0C94A801FD
:100040000C94A8010C94A8010C94A8010C94A8018C
:100050000C94A8010C94A8010C94A8010C94A8017C
:100060000C94A8010C9468180C947C180C947218C9
:100070000C9486180C949A180C9490180C94A8015F
:100080000C94A8010C94A8010C94A8010C94A8014C
:100090000C94A8010C94A8010C94A8010C94A8013C
:1000A0000C94A8010C94A8010C94A8010C94A8012C
:1000B0000C94A8010C94A8010C94A8010C94A8011C
:1000C0000C94A8010C94A8010C94A8010C94A8010C
:1000D0000C94A8010C94A8010C94A8010C94A801FC
:1000E0000C94A8010C94A8010C94C2180C94D61876
:1000F0000C94CC180C94A8010C94A8010C94A801A1
:100100000C94A8010C94A8010C94A8010C94A801CB
:100110000C94A8010C94A8010C94A8010C94A801BB
:100120000C94A8010C94A8010C94A8010C94A801AB
:100130000C94A8010C94A8010C94A8010C94A8019B
:100140000C94A8010C94A8010C94A8010C94A8018B
:100150000C94A8010C94A8010C94A8010C94A8017B
:100160000C94A4180C94B8180C94AE180C94A80114
:100170000C94A8010C94A8010C94A8010C94A8015B
:100180000C94A8010C94A8010C94A8010C94A8014B
:100190000C94A8010C94A8010C94A8010C94A8013B
:1001A0000C94A8010C94A8010C94A8010C94A8012B
:1001B0000C94A8010C94A8010C94A8010C94A8011B
:1001C0000C94A8010C94A8010C94A8010C94A8010B
:1001D0000C94A8010C94A8010C94A8010C94A801FB
:1001E0000C94A8010C94A8010C94A8010C94A801EB
:1001F0000C94A8010C94FD0F0C94A8010C94B0165B
:100200000C9471100C94B6140C94000C6E616E007A
:10021000696E660000407A10F35A00A0724E180909
:100220000010A5D4E80000E87648170000E40B545D
:10023000020000CA9A3B000000E1F505000080962C
:100240009800000040420F000000A086010000005E
:10025000102700000000E803000000006400000018
:1002600000000A00000000000100000000002C76E1
:10027000D888DC674F0823DFC1DFAE59E1B1B796FC
:10028000E5E3E453C63AE651997696E8E6C2842659
:10029000EB898C9B62ED407C6FFCEFBC9C9F40F235
:1002A000BAA56FA5F490055A2AF75C936B6CF967B1
:1002B0006DC11BFCE0E40D47FEF520E6B500D0ED76
:1002C000902E0300943577050080841E08000020DE
:1002D0004E0A000000C80C333333330F986E12837C
:1002E0001141EF8D2114893BE65516CFFEE6DB1850
:1002F000D1844B381BF77C1D901DA4BBE424203215
:1003000084725E228100C9F124ECA1E53D2711240D
:100310001FBECFEFCDBFDFE9DEBF00E00CBF13E2B1
:10032000A0E0B0E2EEE2FFE300E00BBF02C0079006
:100330000D92A237B107D9F728E9A2E7B3E201C0CD
:100340001D92A23DB207E1F70E9439170C94951F48
:100350000C94000060EC78E90E94B10180EC98E90F
:100360000895CF92DF92EF92FF920F931F93CF9356
:10037000DF9300D01F92CDB7DEB76C017B01E09117
:10038000D098F091D198309729F06CEC78E91995D4
:100390008C0102C00FEF1FEFF60140815181628195
:1003A00073818091CC989091CD98A091CE98B09186
:1003B000CF98480F591F6A1F7B1F101611064CF467
:1003C000C801012E000CAA0BBB0B480F591F6A1F56
:1003D0007B1F49835A836B837C83B701CE010196CF
:1003E0000E946802F701028713872496CDBFDEBF03
:1003F000DF91CF911F910F91FF90EF90DF90CF9001
:100400000895CF92DF92EF92FF920F931F93CF93B5
:10041000DF9300D01F92CDB7DEB78C010E943E0360
:1004200069837A838B839C83F8018285938597FF08
:100430000EC0E091D098F091D198309741F06CECDB
:1004400078E9CE0101961995F80182879387F80122
:10045000828593851816190694F4092E000CAA0BB0
:10046000BB0B49815A816B817C816A017B01C81A6F
:10047000D90AEA0AFB0AC982DA82EB82FC82898104
:100480009A81AB81BC814091CC985091CD9860917C
:10049000CE987091CF98841B950BA60BB70B8983D0
:1004A0009A83AB83BC83B801CE0101960E94B1014F
:1004B00069817A818B819C812496CDBFDEBFDF91DB
:1004C000CF911F910F91FF90EF90DF90CF90089503
:1004D000CF92DF92EF92FF920F931F93CF93DF9310
:1004E000CDB7DEB72897CDBFDEBF8B01FC016081A1
:1004F00071818281938120E831E541E050E00E94E2
:10050000D31C69017A012CE330E040E050E00E9406
:100510006F1F29833A834B835C8389819A81AB81E6
:10052000BC81F80160836CE370E00E94BF1CDC01B9
:10053000CB01F801A1838283C601069667E070E0D3
:100540000E94131D84832DEA3EE840E050E0C7017D
:10055000B6010E946F1F29833A836D837E838F8348
:10056000988789819A8124E6289F6001299FD00C71
:1005700011246D817E818F81988525EB35E040E0E7
:1005800050E00E946F1F29833A836D837E83E98048
:10059000FA80EE0CFF1CEE0CFF1CEC0CFD1C8D8198
:1005A0009E81F5E6EF16F10410F0019604C024E6F2
:1005B000E216F10419F021E030E002C020E030E062
:1005C000A90144595E4F4817590768F46DE671E078
:1005D000821B930B0E94BF1CDC01CB01E80EF91EAD
:1005E000CD0120E030E044E6E40EF11CF801E682A3
:1005F000F78280879187255C3F4F8217930748F4E5
:100600006FE170E00E94BF1CDC01CB01F801858323
:1006100022C069E970E0821B930B0E94BF1CDC01C1
:10062000CB01F82EFF0CFF0CF80E6DE370E0CD014E
:100630000E94BF1CDC01CB01E82EEE0C6FE170E0E4
:10064000CD010E94BF1CDC01CB0122E0280FF20E7D
:10065000FE0CF801F582A383F801128613868381CC
:100660008F5F83832896CDBFDEBFDF91CF911F912F
:100670000F91FF90EF90DF90CF9008958F929F920F
:10068000AF92BF92CF92DF92EF92FF920F931F93A0
:10069000CF93DF93EC01EE81FF818F0104561109A6
:1006A000B9F0CF01855691096C0197FF03C023E093
:1006B000C20ED11CD594C794D594C7946CE97FEF32
:1006C0000E94BF1CC60ED71E8FEFC81AD80A02C0E0
:1006D000C12CD12C0D2C000CEE08FF082DE631E0CA
:1006E000D8010E948E1FC60ED71EE81EF91E8B81F0
:1006F000082E000C990B8C01015011092D8122301C
:100700002CF4222379F1015E1F4F2CC0CF018459B4
:10071000984F0E94F903E82FF0E0FB96E00FF11FDD
:100720008D81082E000C990B02978530910514F0ED
:10073000E756FF4F65E070E00E94BF1C9C0197FFE9
:1007400002C02F5F3F4F359527959DE3929FA001F3
:10075000939F500D11248F01040F151F80FF02C0BD
:10076000015E1F4FA801110F660B770B9A01AB01B9
:100770002C0D3D1D4E1D5F1D60E871E581E090E090
:100780000E945F1F6B017C01AA810A2E000CBB0B2B
:1007900020E13EE00E948E1F4B015C01A9810A2EE0
:1007A000000CBB0B2CE330E00E948E1FDC01CB0160
:1007B000880D991DAA1DBB1D4881042E000C550BE8
:1007C000660B770B840F951FA61FB71FBC01CD01C9
:1007D0006C0D7D1D8E1D9F1DDF91CF911F910F917F
:1007E000FF90EF90DF90CF90BF90AF909F908F9051
:1007F00008959C0123703327232B59F464E670E09D
:100800000E94BF1C892B39F46370772781E0672B26
:1008100019F080E0089581E008958093C308E0EC2A
:10082000F8E082818823ECF78091C3080895FC01E9
:1008300080818093C308E0ECF8E082818823ECF7A4
:100840008091C3080895CF93C82F882329F080E0B2
:1008500090E20E94371804C080E090E20E9447189E
:10086000C093D895CF910895CF93C82F882329F0AE
:1008700083E090E20E94371804C083E090E20E9477
:100880004718C093D395CF910895EF92FF920F939D
:100890001F93CF93DF93C82F7B018A0180E00E94D2
:1008A00034048C2F8F710E940D041016110694F4DD
:1008B000E7010E0D1F1D0F2EF0ECEF2EF8E0FF2EBE
:1008C000F02D8FEF0E940D04F70183818993C017EB
:1008D000D107B9F781E00E943404DF91CF911F91D5
:1008E0000F91FF90EF900895EF92FF920F931F9357
:1008F000CF93DF93C82F7B018A0180E00E943404EC
:100900008C2F8F7180620E940D041016110654F412
:10091000E7010E0D1F1DCE010E9417042196C0177E
:10092000D107C9F781E00E943404DF91CF911F9174
:100930000F91FF90EF900895EF92FF920F931F9306
:10094000CF93DF937C018B0180E00E94340481E629
:100950000E940D041016110694F4E7010E0D1F1DE0
:100960000F2EF0ECEF2EF8E0FF2EF02D8FEF0E940F
:100970000D04F70193819993C017D107B9F781E06E
:100980000E943404DF91CF911F910F91FF90EF905F
:100990000895EF92FF920F931F93CF93DF937C0103
:1009A0008B0180E00E94340480EA0E940D0410163E
:1009B000110654F4E7010E0D1F1DCE010E9417040D
:1009C0002196C017D107C9F781E00E943404DF9156
:1009D000CF911F910F91FF90EF90089580E00E94BA
:1009E000340481EE0E940D0481E00E9434040895D5
:1009F00080E00E94340482EE0E940D0481E00E9497
:100A000034040895CF9380E00E94340480E60E946D
:100A10000D048FEF0E940D04C82F81E00E94340462
:100A20008C2F90E0CF910895CF93DF931F92CDB795
:100A3000DEB741E050E0BE016F5F7F4F80E00E9473
:100A4000450489818260898341E050E0BE016F5F87
:100A50007F4F80E00E9474040F90DF91CF91089542
:100A6000CF93DF931F92CDB7DEB741E050E0BE01D8
:100A70006F5F7F4F80E00E94450489818D7F89836D
:100A800041E050E0BE016F5F7F4F80E00E94740440
:100A90000F90DF91CF910895CF93DF931F92CDB741
:100AA000DEB741E050E0BE016F5F7F4F80E00E9403
:100AB000450489818160898341E050E0BE016F5F18
:100AC0007F4F80E00E94740483E08093D4950F9060
:100AD000DF91CF910895CF93DF931F92CDB7DEB70B
:100AE00041E050E0BE016F5F7F4F80E00E9445040F
:100AF00089818E7F898341E050E0BE016F5F7F4F27
:100B000080E00E94740484E08093D4950F90DF917C
:100B1000CF9108951F93CF93DF931F92CDB7DEB788
:100B2000182F41E050E0BE016F5F7F4F81E00E94CF
:100B3000450421E030E0C90102C0880F991F1A95D1
:100B4000E2F79981892B898341E050E0BE016F5F14
:100B50007F4F81E00E9474040F90DF91CF911F912D
:100B60000895CF93DF931F92CDB7DEB7198241E08E
:100B700050E0BE016F5F7F4F81E00E9474040F90D0
:100B8000DF91CF9108951F93CF93DF931F92CDB73D
:100B9000DEB7182F41E050E0BE016F5F7F4F82E06B
:100BA0000E94450421E030E0C90102C0880F991F6E
:100BB0001A95E2F79981892B898341E050E0BE01C3
:100BC0006F5F7F4F82E00E9474040F90DF91CF919E
:100BD0001F9108951F93CF93DF931F92CDB7DEB778
:100BE000182F41E050E0BE016F5F7F4F84E00E940C
:100BF00045049981907F812F892B898341E050E0C2
:100C0000BE016F5F7F4F84E00E9474040F90DF91FC
:100C1000CF911F9108951F93CF93DF931F92CDB76C
:100C2000DEB7182F41E050E0BE016F5F7F4F84E0D8
:100C30000E94450420E1129FC001112499819F70F8
:100C4000892B898341E050E0BE016F5F7F4F84E0D4
:100C50000E9474040F90DF91CF911F9108951F930C
:100C6000CF93DF931F92CDB7DEB7182F41E050E04E
:100C7000BE016F5F7F4F86E00E9445049981977D9A
:100C8000812F892B898341E050E0BE016F5F7F4F48
:100C900086E00E9474040F90DF91CF911F91089518
:100CA0002F923F924F925F926F927F928F929F927C
:100CB000AF92BF92CF92DF92EF92FF920F931F936A
:100CC000CF93DF93CDB7DEB72597CDBFDEBF482EDC
:100CD000B02EA22E932E842E752E662E572E81E0D6
:100CE000841568F421E090E08EEF840D843008F0E4
:100CF00020E0C22ED92E1C141D0434F021C00F2E6A
:100D0000F5E0CF2ED12CF02DDE0111967D01212CA6
:100D1000312CE0E0F0E02B2D312F4A2D592D682D9C
:100D2000772D862D952D022D0E94F71CD7012D932E
:100D30007D013196B8E02B0E311CEC15FD055CF3FE
:100D4000A601BE016F5F7F4F8AE0840D0E9474048C
:100D50002596CDBFDEBFDF91CF911F910F91FF9000
:100D6000EF90DF90CF90BF90AF909F908F907F904B
:100D70006F905F904F903F902F9008959F92AF9209
:100D8000BF92CF92DF92EF92FF920F931F93CF9378
:100D9000DF93CDB7DEB72597CDBFDEBF922EA32E52
:100DA000B42EC52ED62EE72EF82E192FDE01119661
:100DB000E0E0F0E0292D3A2D4B2D5C2D6D2D7E2DA0
:100DC0008F2D912F0E2F0E94F71C2D933896E8320D
:100DD000F10581F745E050E0BE016F5F7F4F80E194
:100DE0000E9474042596CDBFDEBFDF91CF911F9185
:100DF0000F91FF90EF90DF90CF90BF90AF909F90BA
:100E00000895CF93DF931F92CDB7DEB741E050E056
:100E1000BE016F5F7F4F87E10E9445048981817029
:100E20000F90DF91CF910895CF93DF931F92CDB7AD
:100E3000DEB741E050E0BE016F5F7F4F87E10E9467
:100E400045048981829581700F90DF91CF9108953B
:100E50001F93CF93DF931F92CDB7DEB7182F41E0DA
:100E600050E0BE016F5F7F4F8CE10E94450421E09E
:100E700030E0C90102C0880F991F1A95E2F79981E5
:100E8000892B898341E050E0BE016F5F7F4F8CE189
:100E90000E9474040F90DF91CF911F910895CF931A
:100EA000DF931F92CDB7DEB7198241E050E0BE015B
:100EB0006F5F7F4F8CE10E9474040F90DF91CF91A0
:100EC0000895CF93DF931F92CDB7DEB741E050E096
:100ED000BE016F5F7F4F8DE10E9445048981846070
:100EE000898341E050E0BE016F5F7F4F8DE10E943A
:100EF00074040F90DF91CF910895CF93DF931F92E9
:100F0000CDB7DEB741E050E0BE016F5F7F4F8DE1AE
:100F10000E94450489818260898341E050E0BE01DE
:100F20006F5F7F4F8DE10E9474040F90DF91CF912E
:100F300008950E94B1050E944F070E9461070E9418
:100F40007D0780E00E948A0581E00E948A0582E098
:100F50000E948A0583E00E948A0584E00E948A0537
:100F600085E00E948A0580E00E94280781E00E94B7
:100F7000280782E00E94280783E00E94280784E077
:100F80000E94280785E00E94280780E00E94C30590
:100F900081E00E94C30582E00E94C30583E00E94B5
:100FA000C30584E00E94C30585E00E94C3058FE06D
:100FB0000E94EA058FE00E940B0680E20E942F0645
:100FC0000895823091F018F4813031F00895833023
:100FD00001F1843069F108950E94300580E00E949B
:100FE000230481E08093D59508958091D595813033
:100FF00049F40E9414058FE99CE80197F1F700C0BD
:10100000000003C080E00E94230482E08093D59515
:1010100008950E944C0581E00E9423048FE094E033
:101020000197F1F700C0000083E08093D595089503
:101030000E946B0581E00E9423048FE094E00197F9
:10104000F1F700C0000084E08093D5950895CF9318
:10105000DF931F921F92CDB7DEB780E00E9423047A
:1010600080E00E9434042FEF83EC99E0215080400F
:101070009040E1F700C0000081E00E94E10783E0BA
:101080000E94E1070E94F8040E94EE048EE089832A
:1010900041E050E0BE016F5F7F4F87E00E94740423
:1010A0008BE08A8341E050E0BE016E5F7F4F80E0BD
:1010B0000E9474040F900F90DF91CF910895E0E4A7
:1010C000F6E080EB818380E4828380E58093C00832
:1010D00080E1818380E8809321060E9427080E9496
:1010E0009907089501C000008FEF0E940D04882326
:1010F000D1F30E945F0800000895CF93DF9380E052
:101100000E9434048FEF0E940D04C82FD0E081E0CC
:101110000E943404209719F400000E947208CE0146
:10112000DF91CF9108950E947D08817008950E94FB
:101130007D08929582958F7089279F70892781708D
:101140000895CF93DF931F92CDB7DEB70E947D083D
:101150008061898341E050E0BE016F5F7F4F87E08F
:101160000E9474040F90DF91CF9108950E947D0832
:1011700096958795929582958F7089279F7089277C
:1011800081700895CF93DF931F92CDB7DEB70E9491
:101190007D088062898341E050E0BE016F5F7F4F30
:1011A00087E00E9474040F90DF91CF910895CF9350
:1011B000DF931F92CDB7DEB70E947D0880648983DC
:1011C00041E050E0BE016F5F7F4F87E00E947404F2
:1011D0000F90DF91CF9108950E94140791E0892725
:1011E0000895CF93DF930E94EC08882309F43DC053
:1011F000C091D595D0E082E00E94E1070E94A1084D
:1012000021C00E94C2080BC084E00E94E10782E076
:101210000E94E1070E94970881110E94A1080E9484
:10122000B608882389F341E050E065E773E287E17F
:101230000E94450441E050E064E773E287E00E94C9
:10124000450400000E9414078823D9F2C330D10559
:1012500021F483E00E94E10705C0229719F482E09F
:101260000E94E10780E090E000C0DF91CF910895F7
:10127000CF93863090F4C82F0E947D0886FF0FC060
:101280008E709927AC01559547952C2F30E081E061
:101290004217530729F080E003C080E001C080E0DE
:1012A000CF9108950F931F93CF93DF9316161706D0
:1012B0001CF080E090E00FC08C01EB016132710501
:1012C00014F0C0E2D0E00E9493088111FCCFBE016F
:1012D000C8010E94C904DF91CF911F910F91089519
:1012E0006F927F928F929F92AF92BF92CF92DF9236
:1012F000EF92FF920F931F93CF93DF93622E732E83
:10130000A42EB52EC62ED72ED82FC92F48010E9445
:10131000BE06062D172D2A2D3B2D4C2D5D2D6D2F34
:101320007C2F80E00E945006B701C4010E94520940
:10133000DF91CF911F910F91FF90EF90DF90CF90B1
:10134000BF90AF909F908F907F906F9008950F9374
:101350001F93CF93DF938630F0F4EB010E9438099E
:101360008823E1F000000E9402058C018132910582
:1013700028F00E94F804802F912F15C0BC01CE01E7
:101380000E949C040E940107882359F00E94D708FC
:10139000802F912F08C08FEF9FEF05C080E090E075
:1013A00002C0802F912FDF91CF911F910F9108954F
:1013B00031E1FC013083319722E220833197A3E3AE
:1013C000A083319760833197708331971082319772
:1013D0001082319760E8608331971082319762E024
:1013E0006083319763E06083319764E06083319775
:1013F00065E06083319766E06083319767E06083E2
:10140000319768E06083319769E06083319760E1EC
:10141000608331973083319732E13083319733E104
:101420003083319734E13083319735E13083319720
:1014300036E13083319737E13083319738E13083BB
:10144000319739E13083319730E23083319731E29F
:10145000308331972083319723E220833197408373
:1014600031975083319726E22083319727E22083FA
:10147000319728E22083319729E22083319720E3B6
:101480002083319721E320838797089565E080E0EA
:1014900098E00E94141983EF91E0809326089093BE
:1014A000270861E080E098E00E941A19E0EAF0E085
:1014B000828181608283A091C793B091C893CD91BE
:1014C000CDBFDD91DEBFFF91EF91DF91CF91BF9155
:1014D000AF919F918F917F916F915F914F913F91CC
:1014E0002F911F910F91FF90EF90DF90CF90BF90C1
:1014F000AF909F908F907F906F905F904F903F90B4
:101500002F901F900F900FBE0F90089581E00895C7
:101510000F920FB6F8940F921F9211242F923F92C0
:101520004F925F926F927F928F929F92AF92BF92F3
:10153000CF92DF92EF92FF920F931F932F933F93DF
:101540004F935F936F937F938F939F93AF93BF93CB
:10155000CF93DF93EF93FF93A091C793B091C8937C
:101560000DB60D920EB60D920E94E90EA091C79392
:10157000B091C893CD91CDBFDD91DEBFFF91EF91CA
:10158000DF91CF91BF91AF919F918F917F916F919B
:101590005F914F913F912F911F910F91FF90EF908D
:1015A000DF90CF90BF90AF909F908F907F906F9083
:1015B0005F904F903F902F901F900F900FBE0F9015
:1015C00008950F920FB6F8940F921F9211242F9244
:1015D0003F924F925F926F927F928F929F92AF92C3
:1015E000BF92CF92DF92EF92FF920F931F932F93B0
:1015F0003F934F935F936F937F938F939F93AF939B
:10160000BF93CF93DF93EF93FF93A091C793B091D4
:10161000C8930DB60D920EB60D920E94710D8111F8
:101620000E94E90EA091C793B091C893CD91CDBF10
:10163000DD91DEBFFF91EF91DF91CF91BF91AF912F
:101640009F918F917F916F915F914F913F912F91DA
:101650001F910F91FF90EF90DF90CF90BF90AF90D0
:101660009F908F907F906F905F904F903F902F90C2
:101670001F900F900FBE0F9008950E94E10A1895D9
:10168000CF93DF93EC010E946B0D809176239091B4
:101690007723892B31F48BE793E280937623909321
:1016A00077232091782330917923CE01820F931FE5
:1016B0008F3F4FE6940770F42817390770F4C091F4
:1016C0007623D0917723C20FD31F809378239093F2
:1016D000792305C0C0E0D0E002C0C0E0D0E00E94A5
:1016E000470ECE01DF91CF9108950895FC01039636
:1016F000818392832FEF3FEF238334838583968307
:101700008783908710820895FC01108611860895C2
:10171000CF93DF939C01FB01DC011196CD91DC910D
:101720001297C283D3838C819D81848395838C811E
:101730009D81DC0112966D937C9313976C837D835E
:1017400020873187F90180818F5F8083DF91CF917E
:101750000895CF93DF93EB01488159814F3F2FEFDD
:10176000520721F4FC01A781B0850DC0DC0113965E
:1017700001C0DF011296ED91FC9113972081318118
:1017800042175307B0F71296ED91FC911397EA8335
:10179000FB83C483D583AC83BD831296CD93DC9346
:1017A000139788879987FC0120812F5F2083DF9121
:1017B000CF910895CF93DF93FC01A085B185C281BD
:1017C000D381848195818C839D83C481D5818281DD
:1017D00093818A839B831196CD91DC911297CE17CA
:1017E000DF0731F48C819D8111968D939C93129724
:1017F000108611868C9181508C93DF91CF91089542
:10180000FFCFCF93DF93EC01E091C793F091C893A2
:10181000828393838091819390918293C817D90793
:1018200068F46091C7937091C89380918D93909163
:101830008E936E5F7F4F0E94A90B17C06091C79374
:101840007091C89380918F93909190936E5F7F4F2A
:101850000E94A90B80918F2290919022C817D907DE
:1018600020F4C0938F22D0939022DF91CF910895DE
:101870004F925F926F927F928F929F92AF92BF92A0
:10188000CF92DF92EF92FF920F931F93CF93DF934C
:101890004C01EB015A01290181E290E00E94400BCA
:1018A0003C01009709F4DAC0C114D10409F0D2C098
:1018B000C5010E94400BF301878B908F892B21F487
:1018C000C3010E94750BCAC0F1E0AF1AB108F30161
:1018D0008789908DA80EB91E8881818F8881882381
:1018E00081F0D3015A96FE0131969E01285F3F4F49
:1018F000EF0181918D938881882319F0E217F30716
:10190000B9F7F30110A2102F043008F013E0F3012F
:10191000168BE3012296CE010E94840BC3010C9624
:101920000E94840BF3016086718684E090E0811B45
:10193000910984879587628A738AA201B401C501DF
:101940000E94D809F30180839183E114F10419F016
:10195000F701608271820FB6F8940F9280918393A1
:101960008F5F809383938091C7939091C893892BC5
:1019700089F56092C7937092C89380918393813068
:10198000C1F583EA93E90E94760B8CEA93E90E9401
:10199000760B85EB93E90E94760B8EEB93E90E9420
:1019A000760B8AE993E90E94760B81E993E90E941C
:1019B000760B84E893E90E94760B8AE993E9809399
:1019C0008F939093909381E993E980938D93909373
:1019D0008E930FC080917F9381110BC0E091C793CC
:1019E000F091C8938689081720F06092C79370928F
:1019F000C89380917B938F5F80937B93F30186895B
:101A000090918093981710F48093809390E09C01BC
:101A1000220F331F220F331F220F331F820F931FFA
:101A2000BE018D559C460E94880B0F900FBE809181
:101A30007F93882359F0E091C793F091C8938689EA
:101A4000801730F40E94880A81E009C081E007C055
:101A500081E005C0FC01C78AD08E36CF8FEFDF91C1
:101A6000CF911F910F91FF90EF90DF90CF90BF909B
:101A7000AF909F908F907F906F905F904F90089560
:101A8000AF92BF92CF92DF92EF92FF920F93A12C71
:101A9000B12CC12CD12CE12CF12C00E020E030E065
:101AA00044E650E062EC72E280E09CE00E94380C78
:101AB000813049F4F89480937F931092819310922F
:101AC00082930E94460A0F91FF90EF90DF90CF9093
:101AD000BF90AF90089580917A938F5F80937A93AF
:101AE0000895DF92EF92FF920F931F93CF93DF93AE
:101AF00080917A938111B6C0809181939091829365
:101B000001968093819390938293E0908193F090DB
:101B10008293E114F10499F580918F9390919093C1
:101B200020918D9330918E9320938F933093909347
:101B300080938D9390938E9380917C938F5F80930D
:101B40007C93E0918F93F09190938081811107C0F5
:101B50008FEF9FEF80938F229093902210C0E0919F
:101B60008F93F09190930580F681E02D0680F781A8
:101B7000E02D8281938180938F2290939022809197
:101B80008F2290919022E816F90610F4D12C52C0C1
:101B9000D12CE0918F93F09190939081911107C097
:101BA0008FEF9FEF80938F229093902243C0E0911C
:101BB0008F93F09190930580F681E02DC681D781B7
:101BC0002A813B81E216F30628F420938F2230937A
:101BD000902230C08E010E5F1F4FC8010E94DA0BA9
:101BE0008C899D89892B21F0CE010C960E94DA0BFD
:101BF0002E8980918093821710F42093809330E097
:101C0000C901880F991F880F991F880F991F820F8C
:101C1000931FB8018D559C460E94880BE091C79395
:101C2000F091C8939E898689981708F4B2CFDD2475
:101C3000D394AFCFE091C793F091C893868990E099
:101C4000FC01EE0FFF1FEE0FFF1FEE0FFF1F8E0FA9
:101C50009F1FFC01ED55FC468081823048F0DD2459
:101C6000D39406C080917E938F5F80937E93D12C16
:101C700080917D93882311F0DD24D3948D2DDF9105
:101C8000CF911F910F91FF90EF90DF900895DF9219
:101C9000EF92FF920F931F93CF93DF930FB6F894B9
:101CA0000F9280917A93815080937A9380917A9366
:101CB000811162C080918393811133C060C0D701CC
:101CC0001596ED91FC911697C681D781CE010C96A1
:101CD0000E94DA0B8E010E5F1F4FC8010E94DA0BC3
:101CE0002E8980918093821710F42093809330E0A6
:101CF000C901880F991F880F991F880F991F820F9C
:101D0000931FB8018D559C460E94880BE091C793A4
:101D1000F091C8939E898689981758F0D0927D9348
:101D200008C00F2EF4E8EF2EF3E9FF2EF02DDD248E
:101D3000D394F70180818111C2CF80917E93882353
:101D400099F080917E93882379F0C1E00E94710D13
:101D50008111C0937D9380917E93815080937E9377
:101D600080917E938111F2CF80917D93813031F407
:101D70000E94880A81E003C080E001C080E00F90EB
:101D80000FBEDF91CF911F910F91FF90EF90DF90E9
:101D90000895CF93DF93EC01892BB1F00E946B0D76
:101DA0008091819390918293C80FD91F8091C7939E
:101DB0009091C89302960E94DA0BCE010E94010C0A
:101DC0000E94470E811102C00E94880ADF91CF91C4
:101DD000089580917A93882321F081E080937D9308
:101DE000089510927D938091809390E0FC01EE0F16
:101DF000FF1FEE0FFF1FEE0FFF1F8E0F9F1FFC0137
:101E0000ED55FC468081811117C0809180938150EF
:101E1000809380938091809390E0FC01EE0FFF1FF0
:101E2000EE0FFF1FEE0FFF1F8E0F9F1FFC01ED55E2
:101E3000FC468081882349F38091809390E09C0147
:101E4000220F331F220F331F220F331F280F391F7A
:101E5000D901AD55BC461196ED91FC9112970280C7
:101E6000F381E02D1196ED93FC9312972A553C4691
:101E7000E217F30729F422813381FD0121833283A4
:101E8000FC01EE0FFF1FEE0FFF1FEE0FFF1F8E0F67
:101E90009F1FFC01ED55FC460180F281E02D8681FB
:101EA00097818093C7939093C893089508958093E2
:101EB000EA95282F2F7030E04091C6045091C70456
:101EC0008823E4F464E8629FC001639F900D1124AD
:101ED000835D99468093E6959093E795C901829535
:101EE0009295907F9827807F982708969A01280FCF
:101EF000391F2093E8953093E995089564E8629F2F
:101F0000C001639F900D112485519A468093E695F8
:101F10009093E79522953295307F3227207F3227A4
:101F2000240F351F2093E8953093E99508951F936A
:101F3000CF93DF93D82F162FC42F0E94570FE09115
:101F4000E895F091E9951182E091E895F091E99595
:101F5000DD23A4F01082E091E895F091E9951183DA
:101F6000E091E895F091E995128213828091E695CF
:101F70009091E7958483958340E014C082E080834C
:101F8000E091E895F091E9951183E091E895F09161
:101F9000E995128213828091E6959091E79584836A
:101FA00095834C2FFC01E05CFF4F408331961082FB
:101FB00081E0DF91CF911F91089520E030E0A0EC07
:101FC000B4E01696ED91FC911797C9018295929510
:101FD000907F9827807F9827E80FF91F1186169623
:101FE0004D915C911797FA01E80FF91F11822F5F4D
:101FF0003F4F2530310529F708951F920F920FB6F4
:102000000F9211240BB60F922F933F934F935F9330
:102010006F937F938F939F93AF93BF93EF93FF93B0
:102020008091CA0488234CF48091C80488232CF43E
:1020300080E88093CA040E94560F8091CA0486FFEC
:1020400007C080E48093CA041092DD950E94ED17CA
:102050008091CA0485FF16C080E28093CA048091F3
:10206000D995882321F084E08093DD9509C0809183
:10207000C304811102C081E001C083E08093DD953B
:102080000E94E0178091CA0484FF18C0E0ECF4E0DD
:1020900080E1828782E08093DD951092D99513824A
:1020A0000E94DD0F48E068E480E80E94970F48E056
:1020B00068E480E00E94970F0E94560FFF91EF9115
:1020C000BF91AF919F918F917F916F915F914F9150
:1020D0003F912F910F900BBE0F900FBE0F901F904E
:1020E000189507E028E140E060E08AEA92E20E9469
:1020F000F91728E140E060E087EA92E20E94F917D0
:1021000000E028E140E060E084EA92E20E94F917F2
:1021100028E140E060E081EA92E20E94F9178EE94E
:1021200092E20E9437188BE992E20E94371888E900
:1021300092E20E94371885E992E20E94371861E026
:102140008EE992E20E94151861E08BE992E20E940A
:10215000151861E088E992E20E94151861E085E9AE
:1021600092E20E941518C1E084E690E00E94C90E38
:102170008AEA92E20E94571881110BC08AEA92E221
:102180000E9457188823D1F3809194228C27809342
:10219000942287EA92E20E94571881110BC087EAC5
:1021A00092E20E9457188823D1F3809193228C27C2
:1021B0008093932284EA92E20E94571881110BC007
:1021C00084EA92E20E9457188823D1F380919222E8
:1021D0008C278093922281EA92E20E945718811103
:1021E0000BC081EA92E20E9457188823D1F38091B4
:1021F00091228C278093912280919422882329F028
:102200008EE992E20E94371804C08EE992E20E94A1
:10221000471880919322882329F08BE992E20E944B
:10222000371804C08BE992E20E94471880919222ED
:10223000882329F085E992E20E94371804C085E9D5
:1022400092E20E94471880919122882329F088E920
:1022500092E20E94371888CF88E992E20E944718DC
:1022600083CFFC01818185FFFDCF6083818186FF63
:10227000FDCF80E48183808108951F93CF93DF9306
:10228000C0EAD6E018E01E83E0E6F6E091E096832F
:102290009683682F80EA99E00E9431111D83DF91B7
:1022A000CF911F910895EF92FF920F931F93CF93B9
:1022B000DF93C0EAD6E018E01E830F2EF0E6EF2E83
:1022C000F6E0FF2EF02D01E0F7010583682F80EA8C
:1022D00099E00E943111F70106831D83DF91CF91B0
:1022E0001F910F91FF90EF9008958770806B0E946F
:1022F0003D110895CF93C82F982F9F77892F8295EE
:102300008F7080610E943D118C2F8F700E943D1153
:10231000CF910895CF93DF93D0E00FC08D2F0E940F
:1023200075118C2F0E947A1180E00E945311CF5FAB
:10233000C038A1F7DF5FD43011F0C0E0EFCFDF91FC
:10234000CF910895CF93DF93EC01FB018C818F7EB9
:102350008C83A0E6B6E082E011968C9311971596D7
:102360008C938D81806C8D8384818D7F813021F46D
:102370008D8182608D8303C08D818D7F8D8385816A
:10238000882321F08D8184608D8303C08D818B7FB4
:102390008D8380819181A281B3819C01AD01220F47
:1023A000331F441F551F60E078E488EE91E00E94DF
:1023B000D31C21503109832F8F708F832E838C8102
:1023C00088608C83DF91CF910895CF93DF9300D005
:1023D00000D0CDB7DEB720EA36E088E0D90111960B
:1023E0008C93A0E6B6E091E011969C931197E0E003
:1023F000F6E0818392E011969C93119711968C934D
:10240000D90115968C938683BAE6BA95F1F700C088
:102410008583EAE6EA95F1F700C0E0E7F0E0848121
:102420008F7E848380E09BE1A7EBB0E089839A8371
:10243000AB83BC831D821E82BE016F5F7F4F80EA2B
:1024400099E00E94A21188EA0E943D118FE10E944A
:102450003D1183ED0E943D1180E00E943D1180E41A
:102460000E943D1181EA0E943D1188EC0E943D11BD
:102470008AED0E943D1182E00E943D1181E80E9498
:102480003D118FE80E943D1184EA0E943D1186EAC9
:102490000E943D1185ED0E943D1180E80E943D1192
:1024A0008DE80E943D1184E10E943D118BED0E9458
:1024B0003D1180E40E943D1189ED0E943D1181EFA4
:1024C0000E943D118FEA0E943D112696CDBFDEBFCE
:1024D000DF91CF910895EF92FF920F931F93CF93C7
:1024E000DC01EC91EE2329F17C01BFEFEB1AFB0A32
:1024F000EF37D0F4F0E0EE0FFF1FEF56FE4D0081F6
:102500001181F8018081882361F0C1E0F801EC0FAE
:10251000F11D80810E945311CF5FD8019C919C17BF
:10252000A8F780E00E945311D701ED917D01E111E0
:10253000DFCFCF911F910F91FF90EF90089520E88A
:10254000829FC0011124860F911DE091D193F091DB
:10255000D293E80FF91F4083089520E8829FC001BD
:102560001124860F911DE091D193F091D293E80F41
:10257000F91F808108951F93CF93DF93182FD62FD3
:10258000C42F211104C00E94AD128C1771F04C2F82
:102590006D2F812F0E949F12812F0E9475118D2F08
:1025A0000E947A118C2F0E945311DF91CF911F91BD
:1025B00008950F9307E020E140E060E08CEB92E2A9
:1025C0000E94F9170F91089561E08CEB92E20E944E
:1025D000151860E08CEB92E20E94151861E08FEB19
:1025E00092E20E94151861E089EB92E20E941518B0
:1025F0000E94D91208951F93CF93DF93182F61E0A3
:102600008CEB92E20E941518C8E0D0E010FF05C0E4
:102610008CEB92E20E94371804C08CEB92E20E948D
:10262000471881E090E00E94C90E8FEB92E20E9471
:10263000371881E090E00E94C90E8FEB92E20E9471
:1026400047181695219711F760E08CEB92E20E94F3
:102650001518DF91CF911F9108951F93CF93DF93AA
:1026600060E08CEB92E20E941518C0E0D0E010E030
:102670008CEB92E20E945718282F30E00C2E02C0FB
:10268000220F331F0A94E2F7122B81E090E00E94A0
:10269000C90E8FEB92E20E94371881E090E00E9411
:1026A000C90E8FEB92E20E9447182196C830D105DF
:1026B000F9F6812FDF91CF911F910895CF93DF938A
:1026C000D82FC62F8091BF98882331F01092BF98E1
:1026D00060E08EE80E945E1389EB92E20E94371858
:1026E00084E090E00E94C90E8D2F0E94FB128C2F77
:1026F0000E94FB1284E090E00E94C90E89EB92E2F6
:102700000E944718DF91CF910895EF92FF920F93A7
:102710001F93CF93DF9300D01F92CDB7DEB76983AD
:102720007A838B839C83CE0101960E94AA017C014F
:102730000000FC01608117E66102812D112485955E
:10274000859567FD8395282F220F922F990F990F5A
:10275000920F691BF0E18F9F600D112480E80E94A9
:102760005E13F70161816102812D112485958595A4
:1027700067FD8395282F220F922F990F990F920FA3
:10278000691BF0E18F9F600D112482E80E945E13A7
:10279000F70162816102812D11248595859567FD80
:1027A0008395282F220F922F990F990F920F691B53
:1027B000F0E18F9F600D112484E80E945E13F70101
:1027C00063816102112D11241595159567FD1395EF
:1027D000912F990F892F880F880F890F681BF0E1BF
:1027E0001F9F600D112486E80E945E13F70185810A
:1027F000082E000C990B01960AE010E0B8010E9427
:10280000BF1CF0E16F9F800D1124682F88E80E94A3
:102810005E13F70164816F5F8AE80E945E13F7011F
:102820008681978184569109B8010E94BF1CF0E10E
:102830006F9F800D1124682F8CE80E945E132496F0
:10284000CDBFDEBFDF91CF911F910F91FF90EF9031
:102850000895EF92FF920F931F93CF93DF93CDB71D
:10286000DEB76397CDBFDEBF89EB92E20E943718D7
:1028700084E090E00E94C90E8FEB0E94FB128E0153
:102880000F5F1F4F7E0188E0E80EF11C0E942D13A0
:10289000F80181938F01EE15FF05C1F789EB92E2F4
:1028A0000E94471800008981982F92959F70990F78
:1028B000292F220F220F920F8F70890F88878A810C
:1028C000982F92959F70990F292F220F220F920F08
:1028D0008F70890F89878B81982F92959F70990FA0
:1028E000292F220F220F920F8F70890F8A878C81D8
:1028F000982F92959F70990F292F220F220F920FD8
:102900008F70890F8B878D81282F2F702150829592
:102910008F70880F982F990F990F890F820F8D87CD
:102920008F81282F2F7082958F7090E0AC01440F1B
:10293000551F880F991F880F991F880F991F840FA3
:10294000951F820F911D8C599F4F8E879F87000086
:10295000CE0108960E9401026396CDBFDEBFDF91D3
:10296000CF911F910F91FF90EF900895CF93DF9338
:10297000CDB7DEB7C857D109CDBFDEBF0E94E41284
:10298000332433940F2EF7EC8F2EF2E29F2EF02D8E
:102990009E012F5F3F4F59010F2EF6ED6F2EF2E291
:1029A0007F2EF02D6E013FE1C30ED11C7E018DE321
:1029B000E80EF11C2E019BE5490E511C80919422DA
:1029C00083251F928F939F928F92BF92AF920E9406
:1029D000D71E8091932283251F928F937F926F92AF
:1029E000DF92CF920E94D71E8091912283251F9261
:1029F0008F93A5EEB2E2BF93AF93FF92EF920E9446
:102A0000D71E8091922283251F928F93A4EFB2E26A
:102A1000BF93AF935F924F920E94D71E8091CF9346
:102A2000CDBFDEBF882391F08091CB939091CC9362
:102A3000A091CD93B091CE93BC01CD016058734469
:102A40008D4698430E9485131092CF930E942914BB
:102A5000DC01CB01805C974CAF4FBF4F80937F98D8
:102A600090938098A0938198B093829810E00FC0C3
:102A7000812F0E947511802F0E947A1180E00E94A0
:102A800053110F5F0038A1F71F5F143011F000E001
:102A9000EFCF80E00E94751180E00E947A11C5019D
:102AA0000E946B12832D0E94751180E00E947A11A2
:102AB000C6010E946B1282E00E94751180E00E94A4
:102AC0007A11C7010E946B1283E00E94751180E0A9
:102AD0000E947A11C2010E946B128091D0938823C8
:102AE00071F083EB92E20E94471888EC90E00E941C
:102AF000C90E83EB92E20E9437181092D09388ECB3
:102B000090E00E94C90E5ACF0F931F93CF93DF938B
:102B1000EC010881198164E073E2C8010E944F1E34
:102B2000892B09F063C00A811B8162E673E2C80148
:102B30000E944F1E892BC9F40C80DD81C02D62E6F6
:102B400073E2CE010E944F1E892B21F481E0809315
:102B50009422C2C06AE073E2CE010E944F1E892B0C
:102B600009F0BAC010929422B7C06AE073E2C801BB
:102B70000E944F1E892BC9F40C80DD81C02D62E6B6
:102B800073E2CE010E944F1E892B21F481E08093D5
:102B90009322A2C06AE073E2CE010E944F1E892BED
:102BA00009F09AC01092932297C06CE073E2C801BA
:102BB0000E944F1E892B09F08FC00C80DD81C02D33
:102BC00062E673E2CE010E944F1E892B21F481E060
:102BD0008093912281C06AE073E2CE010E944F1E71
:102BE000892B09F079C01092912276C06EE073E2D1
:102BF000C8010E944F1E892BC9F40A80DB81C02DB9
:102C000062E673E2CE010E944F1E892B21F481E01F
:102C10008093922261C06AE073E2CE010E944F1E4F
:102C2000892B09F059C01092922256C062E173E2DA
:102C3000C8010E944F1E892B21F50A80DB81C02D1F
:102C400062E673E2CE010E944F1E892B51F481E0AF
:102C50008093942280939322809392228093912256
:102C60003BC06AE073E2CE010E944F1E892BA1F5A2
:102C700010929422109293221092922210929122FA
:102C80002BC066E173E2C8010E944F1E892BC1F47C
:102C90006BE173E28A819B810E944F1E892BE1F4D4
:102CA0008C819D810E94411D6093CB937093CC9346
:102CB0008093CD939093CE9381E08093CF930CC07B
:102CC0006FE173E2C8010E944F1E892B29F4F0E0E6
:102CD000E0E083E08CBF199480E090E0DF91CF9139
:102CE0001F910F910895EF92FF920F931F93CF932F
:102CF000DF93CDB7DEB76497CDBFDEBF6AE273E284
:102D00000E944B1E0097D9F089839A837E0183E04D
:102D1000E80EF11C01E010E009C0F70181939193E6
:102D20007F010F5F1F4F0A30110559F06AE273E20D
:102D300080E090E00E944B1E009779F702C000E00F
:102D400010E0B801CE0101960E9484156496CDBFB3
:102D5000DEBFDF91CF911F910F91FF90EF9008950B
:102D6000CF93DF93CDB7DEB7C354D109CDBFDEBF5C
:102D70000E945F0801E31CE42CE43CE44CE450E0D6
:102D800060E070E081E00E94500602E32CE43CE445
:102D90004CE450E060E070E082E00E94500603E303
:102DA0002CE43CE44CE450E060E070E083E00E94FE
:102DB000500604E32CE43CE44CE450E060E070E0B6
:102DC00084E00E94500605E32CE43CE44CE450E02F
:102DD00060E070E085E00E9450060F2EFDE2AF2E0D
:102DE000F3E2BF2EF02D6E0124E2C20ED11C81E071
:102DF0000E9438098823A9F0000081E08093D093D5
:102E0000BE016F5F7F4F0E94A709E1E0F0E0EC0F89
:102E1000FD1F8E0F9F1FFC011082CE0101960E94A4
:102E200073168091C9939091CA939C012F5F3F4F75
:102E30002093C9933093CA939F938F93BF92AF927D
:102E4000DF92CF920E94D71E7601860121E33EE6F3
:102E50004FE65DE665E670E080E090E00E94700974
:102E60000E94F1080F900F900F900F900F900F900D
:102E7000BECFCF93DF9300D01F92CDB7DEB7E0E592
:102E8000F0E0808182608083818181FFFDCF81E0DD
:102E90000E94FF1881E00E94F51889E593E20E94E4
:102EA000411D69837A838B839C83000086EB92E2C9
:102EB0000E94371883EB92E20E94371861E086EB9C
:102EC00092E20E94151861E083EB92E20E941518CD
:102ED00061E080EB92E20E94151861E08DEA92E2D7
:102EE0000E94151880EB92E20E9437188DEA92E258
:102EF0000E9437188DEA92E20E94471883ED93E909
:102F00008093D1939093D2930E94E5110E948A11ED
:102F100080E40E943D1100E00CC021E040E0612F00
:102F2000802F0E94BB121F5F1038B9F70F5F04306B
:102F300011F010E0F2CF00000E948A1180E00E94A0
:102F4000751184E693E20E946B1261E086EB92E2D7
:102F50000E94151861E083EB92E20E941518E0EEE2
:102F6000F7E081E0818382E0818380E180936106E4
:102F7000A12CB12CC12CD12CE12CF12C00E020E0B3
:102F800030E044EF51E069E673E280EB96E10E94A5
:102F9000380C20E030E048EE53E06CE673E286EB5C
:102FA00094E10E94380C20E030E044EF51E06FE6FD
:102FB00073E281E790E10E94380C0E94400DFFCF40
:102FC00083E08093E60780E38093660682E0809347
:102FD000E50780E180936506089583E08093E60726
:102FE00080E38093660681E08093E5071092650692
:102FF00008950F93202B611102C000E001C000E88A
:10300000202B411102C000E001C000E4202B3FB79B
:10301000F894DC0112964C9112974093B000ED9118
:10302000FC91208B3FBF0F910895662381F0DC0156
:10303000ED91FC91119721E030E0A90112960C90DE
:1030400002C0440F551F0A94E2F741830895DC0142
:10305000ED91FC91119721E030E0A90112960C90BE
:1030600002C0440F551F0A94E2F742830895DC0121
:10307000ED91FC91119721E030E0A90112960C909E
:1030800002C0440F551F0A94E2F745830895DC01FE
:10309000ED91FC91119721E030E0A90112960C907E
:1030A00002C0440F551F0A94E2F746830895DC01DD
:1030B000ED91FC911197208530E0F90112960C906A
:1030C00002C0F595E7950A94E2F7CF018170089563
:1030D0001F920F920FB60F9211240F900FBE0F90F8
:1030E0001F9018951F920F920FB60F9211240F90F8
:1030F0000FBE0F901F9018951F920F920FB60F9250
:1031000011240F900FBE0F901F9018951F920F92D1
:103110000FB60F9211240F900FBE0F901F901895AD
:103120001F920F920FB60F9211240F900FBE0F90A7
:103130001F9018951F920F920FB60F9211240F90A7
:103140000FBE0F901F9018951F920F920FB60F92FF
:1031500011240F900FBE0F901F9018951F920F9281
:103160000FB60F9211240F900FBE0F901F9018955D
:103170001F920F920FB60F9211240F900FBE0F9057
:103180001F9018951F920F920FB60F9211240F9057
:103190000FBE0F901F9018951F920F920FB60F92AF
:1031A00011240F900FBE0F901F9018951F920F9231
:1031B0000FB60F9211240F900FBE0F901F9018950D
:1031C0000F93CF93DF931F92CDB7DEB72FB729832D
:1031D000F8941BBEFC0108ED04BF608389818FBF9A
:1031E0000F90DF91CF910F910895E0E5F0E090818D
:1031F000282F2095922390839081892308950F93FF
:103200001F93CF93C82F00E410E0F8016081687F1E
:10321000682B80E490E00E94E018F80180818C2304
:10322000CF911F910F910895FC019081907F692BA0
:1032300060830895FC0196819C7F692B66830895C5
:103240002F923F924F925F926F927F928F929F92B6
:10325000AF92BF92CF92DF92EF92FF920F931F93A4
:10326000CF93DF93CDB7DEB76397CDBFDEBF6C01E1
:103270004B012A01FC0116821782838181FF43C31F
:10328000AE014F5F5F4F3A01F6019381F40193FD68
:10329000859193FF81914F01882309F430C38532D2
:1032A00039F493FD859193FF81914F01853239F473
:1032B000B60190E00E949F1E52012501E5CF10E06B
:1032C000F12C20E02032A0F48B3269F030F480320F
:1032D00059F0833269F420612CC08D3239F080338B
:1032E00039F4216026C02260246023C0286021C0F8
:1032F00027FD27C030ED380F3A3078F426FF06C09E
:10330000FAE01F9F300D1124132F13C04AE0F49EE2
:10331000300D1124F32E20620CC08E3221F426FDD4
:10332000EEC2206406C08C3611F4206802C08836D4
:1033300041F4F40193FD859193FF81914F01811137
:10334000C1CF9BEB980F933018F42061805E06C0CC
:103350009BE9980F933008F071C12F7E26FF16E08D
:103360002F73322E853619F42064322E08C086362B
:1033700021F4F22FF0683F2E02C01111115037FED8
:1033800007C01C3350F4EE24E394E10E27E00BC099
:10339000183038F027E017E005C027E04CE3E42EB2
:1033A00002C0212FE12C520144E0A40EB11CF20115
:1033B00060817181828193810E2DA3010E94681D1D
:1033C0002C01098100FF02C003FF07C031FC08C0C7
:1033D00032FE09C030E2232E07C02DE2222E04C0A7
:1033E0009BE2292E01C0212C802F8C7019F0211016
:1033F00068C2A8C237FE0FC0E40C04FF04C08A8173
:10340000813309F4EA941E1474F5F8E0FE1578F59A
:1034100088E0E82E2CC036FC2AC0812F90E084156D
:1034200095059CF02CEF42162FEF520674F0432DB9
:103430004068342E0AC0E2E0F0E0EC0FFD1FE10F1F
:10344000F11D8081803319F411501111F4CF37FE32
:103450000EC0EE24E394E10E812F90E04816590649
:103460002CF4141904C0EE24E39401C010E037FEDC
:1034700006C01414150434F4C201019605C085E099
:1034800090E002C081E090E021100196112331F01C
:10349000212F30E02F5F3F4F820F931F2F2D30E001
:1034A0008217930714F4F81A01C0F12C832D897048
:1034B00049F4FF2039F0B60180E290E00E949F1E9F
:1034C000FA94F7CF222029F0B601822D90E00E94D5
:1034D0009F1E33FC09C0FF2039F0B60180E390E065
:1034E0000E949F1EFA94F7CF37FE5AC0942D852D67
:1034F00057FE02C090E080E0292E382E20E030E018
:10350000A2014E1951094C875D87A2014219530946
:103510004E875F87612F70E044275527461B570B66
:10352000488B598B5FEF2516350649F4B6018EE2BC
:1035300090E02A8B3B8B0E949F1E3B892A89421474
:1035400053046CF04C855D854215530544F4EE85BB
:10355000FF85E20FF31FE60DF71D818101C080E3B7
:1035600051E0251A31082F5F3F4F488959892416A9
:1035700035064CF0B60190E02A8B3B8B0E949F1ED3
:103580002A893B89CFCF2414350439F49A819633A4
:1035900018F4953311F404FF81E3B60190E04BC0B9
:1035A0008A81813309F00F7EB60190E00E949F1E50
:1035B000111105C034FC18C085E690E017C0B601B3
:1035C0008EE290E00E949F1E82E0EE24E394E80EDB
:1035D000F301E80FF11D8081B60190E00E949F1E6B
:1035E00011508E2D91F7E6CF85E490E0B6010E9450
:1035F0009F1E57FC05C04114510439F404FF05C057
:103600005194419451088DE201C08BE2B60190E0E3
:103610000E949F1E80E39AE0491651042CF08F5FB0
:103620005AE0451A5108F7CFB60190E00E949F1E5C
:10363000B601C201C0960E949F1E57C1833631F069
:10364000833779F0833509F058C021C05201E2E098
:10365000AE0EB11CF2018081898301E010E02301EC
:1036600014C05201F2E0AF0EB11CF2014080518053
:1036700026FF03C0612F70E002C06FEF7FEFC20131
:103680002A8B0E94581E8C012A892F7715C052015F
:10369000F2E0AF0EB11CF2014080518026FF03C062
:1036A000612F70E002C06FEF7FEFC2012A8B0E9492
:1036B000401E8C012A892068322E23FD1AC08F2DCE
:1036C00090E008171907A8F4B60180E290E00E9484
:1036D0009F1EFA94F4CFF20137FC859137FE819159
:1036E0002F01B60190E00E949F1EF110FA94015044
:1036F00011090115110579F7F8C0843611F08936E2
:1037000059F5520127FF09C0F4E0AF0EB11CF201D8
:1037100060817181828193810AC0F2E0AF0EB11C99
:10372000F20160817181072E000C880B990B2F76B6
:10373000322E97FF09C090958095709561957F4FC7
:103740008F4F9F4F2068322E2AE030E0A3010E9465
:10375000011FE82EE6183FC0022F853721F40F7EA7
:103760002AE030E01DC0097F8F3691F018F48835CB
:1037700059F0C5C0803719F0883711F0C0C000611A
:1037800004FF09C0046007C024FF08C0066006C02B
:1037900028E030E005C020E130E002C020E132E066
:1037A000520107FF09C0F4E0AF0EB11CF2016081C5
:1037B00071818281938108C0F2E0AF0EB11CF201E9
:1037C0006081718180E090E0A3010E94011FE82EDA
:1037D000E6180F77302E36FE0BC0332D3E7FE116F4
:1037E00050F434FE0AC032FC08C0332D3E7E05C0C2
:1037F0000E2D332D03C00E2D01C0012F34FF0CC040
:10380000FE01EE0DF11D8081803311F4397E08C078
:1038100032FF05C00E5F04C0832F867809F00F5F6A
:1038200033FD13C030FF06C01E2D0F1518F41F0DF9
:10383000101B0F2D0F1568F4B60180E290E03B8B52
:103840000E949F1E0F5F3B89F5CF0F1510F4F01AF1
:1038500001C0F12C34FF12C0B60180E390E03B8B35
:103860000E949F1E3B8932FF17C031FD03C088E7CD
:1038700090E002C088E590E0B6010CC0832F867806
:1038800059F031FF02C08BE201C080E237FD8DE2CA
:10389000B60190E00E949F1EE11638F4B60180E365
:1038A00090E00E949F1E1150F7CFEA94F301EE0DB5
:1038B000F11D8081B60190E00E949F1EE110F5CFBE
:1038C00014C0F4E0FF1558F584E0F81A33FE1EC06A
:1038D000211026C003FF2AC00CE012E0F32DF07186
:1038E0003F2EF8018491811124C0FF2009F4E5CC1A
:1038F000B60180E290E00E949F1EFA94F6CFF60196
:103900008681978126C08FEF9FEF23C0B60180E2AA
:1039100090E00E949F1EFA94F110F8CFD9CFF12CBD
:10392000B601822D90E00E949F1ED4CF00E112E0EC
:10393000D5CF31108052B60190E00E949F1E0F5FDC
:103940001F4FCFCF23E02F1510F483E0BECFF12C13
:10395000C1CF6396CDBFDEBFDF91CF911F910F9195
:10396000FF90EF90DF90CF90BF90AF909F908F909F
:103970007F906F905F904F903F902F90089597FBAE
:10398000072E16F4009407D077FD09D00E94131D6E
:1039900007FC05D03EF4909581959F4F0895709552
:1039A00061957F4F0895A1E21A2EAA1BBB1BFD0152
:1039B0000DC0AA1FBB1FEE1FFF1FA217B307E4070E
:1039C000F50720F0A21BB30BE40BF50B661F771F66
:1039D000881F991F1A9469F7609570958095909546
:1039E0009B01AC01BD01CF01089597FB10F816941F
:1039F00000080F93083098F00850232F342F452FDC
:103A0000562F672F782F892F902DF4CF05949795F7
:103A100087957795679557954795379527950A9593
:103A2000AAF70F910895AA1BBB1B51E107C0AA1F5B
:103A3000BB1FA617B70710F0A61BB70B881F991F4F
:103A40005A95A9F780959095BC01CD0108950E94E3
:103A5000321DA59F900DB49F900DA49F800D911DC8
:103A600011240895A29FB001B39FC001A39F700DC0
:103A7000811D1124911DB29F700D811D1124911D76
:103A800008951F93FC0199278827BC01E8941191A0
:103A90001032E9F3193010F01E30C8F31B3251F028
:103AA0001D3249F4689406C00E948A1E610F711D80
:103AB000811D911D119110531A30B0F33EF4909571
:103AC0008095709561957F4F8F4F9F4F1F910895FF
:103AD000283008F027E03327DA01990F311D87FDE0
:103AE000916000966105710539F432602E5F3D9357
:103AF00030E32A95E1F708959F3F30F08038710553
:103B0000610509F03C5F3C5F3D93913008F08068AF
:103B1000911DDF93CF931F930F93FF92EF92192F75
:103B2000987F9695E92F96959695E90FFF27E2598C
:103B3000FD4F99273327EE24FF24A701E7010590C5
:103B40000894079428F4360FE71EF81E491F511DEC
:103B5000660F771F881F991F0694A1F70590079499
:103B600028F4E70EF81E491F561FC11D770F881F46
:103B7000991F661F0694A1F70590079428F4F80E84
:103B8000491F561FC71FD11D880F991F661F771F1A
:103B90000694A1F70590079420F4490F561FC71FFC
:103BA000D81F990F661F771F881F0694A9F7849165
:103BB0001095177041F0D695C79557954795F7948E
:103BC000E7941A95C1F7E4E1F2E068941590159135
:103BD00035916591959105907FE27395E118F10A11
:103BE000430B560BC90BD009C0F7E10CF11E431F64
:103BF000561FC91FD01D7EF4703311F48A95E6CF8D
:103C0000E894015030F0080F0AF40027021708F476
:103C1000202F2395022F7A3328F079E37D932A957C
:103C2000E9F710C07D932A9589F6069497956795D4
:103C3000379517951794E118F10A430B560BC90BEA
:103C4000D00998F023957E9173957A3308F070E34C
:103C50007C932013B8F77E9170617D9330F083954B
:103C600071E37D9370E32A95E1F71124EF90FF90C3
:103C70000F911F91CF91DF91992787FD909508951E
:103C8000FC010590615070400110D8F78095909527
:103C90008E0F9F1F089542E753E20C94631EFB01B1
:103CA000DC018D91019080190110D9F3990B0895D1
:103CB000FC016150704001900110D8F780959095FB
:103CC0008E0F9F1F0895FA01A191B081009719F4FA
:103CD0001097E1F0CD01DC01CD010D90002011F431
:103CE000C00113C0FB012191222319F02015D9F73F
:103CF000F3CFFB012191201519F41E92119606C0F5
:103D00002223C1F70D900020A1F7D001FA01A19361
:103D1000B0830895592F482F372F262F660F771F0E
:103D2000881F991F660F771F881F991F620F731FC7
:103D3000841F951F660F771F881F991F08950F9383
:103D40001F93CF93DF93FB01238121FD03C08FEFEE
:103D50009FEF28C022FF16C04681578124813581FC
:103D60004217530744F4A081B1819D012F5F3F4F5B
:103D7000208331838C93268137812F5F3F4F2683A9
:103D8000378310C0EB01092F182F0084F185E02D37
:103D90001995892BE1F68E819F8101968E839F83F1
:103DA000812F902FDF91CF911F910F9108950F9345
:103DB0001F93CF93DF93CDB7DEB72E97CDBFDEBF76
:103DC0000E891F8986E08C8309831A838FEF9FE712
:103DD0008D839E83AE01465E5F4F688D798DCE01E7
:103DE00001960E9420192F813885F801E20FF31FF8
:103DF00010822E96CDBFDEBFDF91CF911F910F9124
:103E00000895FA01AA27283051F1203181F1E89470
:103E10006F936E7F6E5F7F4F8F4F9F4FAF4FB1E0BD
:103E20003ED0B4E03CD0670F781F891F9A1FA11DB8
:103E3000680F791F8A1F911DA11D6A0F711D811DB9
:103E4000911DA11D20D009F468943F912AE0269F7E
:103E500011243019305D3193DEF6CF010895462FDD
:103E60004770405D4193B3E00FD0C9F7F6CF462FBE
:103E70004F70405D4A3318F0495D31FD4052419327
:103E800002D0A9F7EACFB4E0A695979587957795E4
:103E90006795BA95C9F700976105710508959B016B
:103EA000AC010A2E06945795479537952795BA95F4
:103EB000C9F7620F731F841F951FA01D0895DB01B2
:103EC0008F939F930E94271DBF91AF91A29F800D5A
:103ED000911DA39F900DB29F900D11240895052E62
:103EE00097FB1EF400940E94861F57FD07D00E9486
:103EF000D31C07FC03D04EF40C94861F50954095BC
:103F0000309521953F4F4F4F5F4F08959095809585
:103F1000709561957F4F8F4F9F4F08950E94321D7E
:0E3F2000B7FF0895821B930B0895F894FFCF0E
:103F2E0020060740060405100810201003826C10AE
:103F3E0001FE03106C8203C8A8980418A0A078058F
:103F4E0088502050880538C030C038051860806011
:103F5E001804788080F803087C880490A8A8480389
:103F6E00F8100804102828F804F82828100470887F
:103F7E00887004F81008F005F808F008F001FE0447
:103F8E00FE20508802807A01FA04FE1008F0041018
:103F9E00A8A87803FC12020470A8A83004708888C0
:103FAE00FE047088888804FE88887004708888F8FB
:103FBE000202040380808003040204038282FE0353
:103FCE000638C003FE828205C2A2928A86050608C2
:103FDE00F0080605C6281028C6053EC038C03E05A6
:103FEE000E30C0300E047E80807E050202FE02027C
:103FFE00044C92926404FE1232CC057C82A242BC26
:10400E0004FE12120C047C82827C05FE041860FEF3
:10401E0005FE040804FE04FE80808005FE10284480
:10402E0082044080807E0382FE8204FE1010FE0514
:10403E007C829292F404FE12120204FE9292820488
:10404E00FE82827C047C82824404FE92926C05F88D
:10405E00141214F808384492AAAABA2418050402B5
:10406E00A2120C04824428100428282828041028A0
:10407E00448201C40144054C9292927C056C92924A
:10408E00926C050202F20A06057C92929264055E1B
:10409E008A8A8A7205302824FE2005448292926C08
:1040AE000584C2A2928C050084FE8000057CA2923B
:1040BE008A7C03C0380601800310101001C0031063
:1040CE00381003281028038244380338448201062E
:1040DE00056C92AC40A005462610C8C4054854FE97
:1040EE0054240528FE28FE280306000601BE020001
:1040FE0000CE21CC21C821C221BC21B621B021AED7
:10410E0021AA21A621A2219E219C219821962192AD
:10411E00218C21862180217A2174216E21682162D1
:10412E00215C215621542152214D21482143213D0C
:10413E002134212E21292124211F211A2115210F5D
:10414E00210A2106210121FB20F620F020EA20E59C
:10415E0020E020DA20D520D020CA20C520BF20B9EB
:10416E0020B320AD20A720A3209F209B2097209333
:10417E002090208B20862081207C20772073206E3B
:10418E00206920672064205F205D20572052204D3B
:10419E0020482043203F203A20362031202B202556
:1041AE00201F201A201620122010200C200620FF7F
:1041BE00FF01010101800600000602000604000650
:1041CE0006400601400600000605000607600605CB
:1041DE00600604E00701E007002006022006042026
:1041EE00060649444C45004C696768742030203AF5
:1041FE002020202564004C696768742031203A2005
:10420E0020202564004C696768742032203A2020F3
:10421E002025640046616E2020202020203A202098
:10422E00202564006C696768740031003200666195
:10423E006E00616C6C0074696D650073657400626C
:10424E006F6F746C6F6164657200202C00636E7406
:10425E00203A202578006E6F772070617273696E38
:10426E006720737472696E670020002573202C20FE
:10427E0025732025732025730031343731303036C5
:10428E0036333000454D4F4E007433007434007495
:02429E003600E8
:00000001FF
