S01000006F737472697463682E73726563A4
S11300000C94FE000C941F010C941F010C941F010E
S11300100C941F010C941F010C941F010C941F01DC
S11300200C941F010C941F010C941F010C941F01CC
S11300300C941F010C941F010C941F010C941F01BC
S11300400C941F010C941F010C941F010C941F01AC
S11300500C941F010C941F010C941F010C941F019C
S11300600C941F010C941F010C941F010C941F018C
S11300700C941F010C941F010C941F010C941F017C
S11300800C941F010C941F010C941F010C941F016C
S11300900C941F010C941F010C941F010C941F015C
S11300A00C941F010C941F010C941F010C941F014C
S11300B00C941F010C941F010C941F010C941F013C
S11300C00C941F010C941F010C941F010C941F012C
S11300D00C941F010C941F010C941F010C941F011C
S11300E00C941F010C941F010C941F010C941F010C
S11300F00C941F010C941F010C941F010C941F01FC
S11301000C941F010C941F010C941F010C941F01EB
S11301100C941F010C941F010C941F010C941F01DB
S11301200C941F010C941F010C941F010C941F01CB
S11301300C941F010C941F010C941F010C941F01BB
S11301400C941F010C941F010C941F010C941F01AB
S11301500C941F010C941F010C941F010C941F019B
S11301600C941F010C941F010C941F010C941F018B
S11301700C941F010C941F010C941F010C941F017B
S11301800C941F010C941F010C941F010C941F016B
S11301900C941F010C941F010C941F010C941F015B
S11301A00C941F010C941F010C941F010C941F014B
S11301B00C941F010C941F010C941F010C941F013B
S11301C00C941F010C941F010C941F010C941F012B
S11301D00C941F010C941F010C941F010C941F011B
S11301E00C941F010C941F010C941F010C941F010B
S11301F00C941F010C9434070C941F0111241FBE8E
S1130200CFEFCDBFDFE9DEBF00E00CBF12E2A0E01C
S1130210B0E2E8E9FFE000E00BBF02C007900D92F6
S1130220AA3AB107D9F725E2AAEAB2E201C01D92BF
S1130230A33DB207E1F70E9465050C94CA070C942C
S113024000008093C308E0ECF8E082818823ECF797
S11302508091C3080895FC0180818093C308E0EC79
S1130260F8E082818823ECF78091C3080895CF9346
S1130270C82F882329F080E090E20E94460604C03B
S113028080E090E20E945606C093B524CF91089571
S1130290CF93C82F882329F083E090E20E9446067A
S11302A004C083E090E20E945606C093B424CF9128
S11302B00895EF92FF920F931F93CF93DF93C82F6C
S11302C07B018A0180E00E9448018C2F8F710E947B
S11302D021011016110694F4E7010E0D1F1D0F2EB7
S11302E0F0ECEF2EF8E0FF2EF02D8FEF0E942101AD
S11302F0F70183818993C017D107B9F781E00E9480
S11303004801DF91CF911F910F91FF90EF900895D5
S1130310EF92FF920F931F93CF93DF93C82F7B012C
S11303208A0180E00E9448018C2F8F7180620E94B4
S113033021011016110654F4E7010E0D1F1DCE0104
S11303400E942B012196C017D107C9F781E00E94B2
S11303504801DF91CF911F910F91FF90EF90089585
S1130360EF92FF920F931F93CF93DF937C018B0146
S113037080E00E94480180EA0E94210110161106C3
S113038054F4E7010E0D1F1DCE010E942B0121968E
S1130390C017D107C9F781E00E944801DF91CF91CE
S11303A01F910F91FF90EF90089580E00E94480103
S11303B082EE0E94210181E00E9448010895CF93BA
S11303C080E00E9448018FEF0E942101C82F81E044
S11303D00E9448018C2F90E0CF910895CF93DF9332
S11303E01F92CDB7DEB741E050E0BE016F5F7F4F93
S11303F080E00E94590189818260898341E050E054
S1130400BE016F5F7F4F80E00E9488018FE99CE806
S11304100197F1F700C0000082E08093B6240F90AA
S1130420DF91CF910895CF93DF931F92CDB7DEB7BD
S113043041E050E0BE016F5F7F4F80E00E945901B0
S113044089818D7F898341E050E0BE016F5F7F4FDA
S113045080E00E94880181E08093B6240F90DF91B0
S1130460CF910895CF93DF931F92CDB7DEB741E0CC
S113047050E0BE016F5F7F4F80E00E945901898187
S11304808160898341E050E0BE016F5F7F4F80E06F
S11304900E94880183E08093B6240F90DF91CF916E
S11304A00895CF93DF931F92CDB7DEB741E050E0BC
S11304B0BE016F5F7F4F80E00E94590189818E7F6A
S11304C0898341E050E0BE016F5F7F4F80E00E946E
S11304D0880184E08093B6240F90DF91CF91089532
S11304E0CF93DF931F92CDB7DEB7198241E050E07E
S11304F0BE016F5F7F4F81E00E9488010F90DF9102
S1130500CF9108951F93CF93DF931F92CDB7DEB79A
S1130510182F41E050E0BE016F5F7F4F82E00E94E0
S1130520590121E030E0C90102C0880F991F1A95D2
S1130530E2F79981892B898341E050E0BE016F5F26
S11305407F4F82E00E9488010F90DF91CF911F912D
S113055008950E94DF0196958795929582958F70F4
S113056089279F70892781700895CF93DF931F9205
S1130570CDB7DEB70E94DF018062898341E050E09D
S1130580BE016F5F7F4F87E00E9488010F90DF916B
S1130590CF9108951F93CF93DF931F92CDB7DEB70A
S11305A0182F41E050E0BE016F5F7F4F8CE10E9445
S11305B0590121E030E0C90102C0880F991F1A9542
S11305C0E2F79981892B898341E050E0BE016F5F96
S11305D07F4F8CE10E9488010F90DF91CF911F9192
S11305E00895CF93DF931F92CDB7DEB7198241E010
S11305F050E0BE016F5F7F4F8CE10E9488010F9035
S1130600DF91CF910895CF93DF931F92CDB7DEB7DB
S113061041E050E0BE016F5F7F4F8DE10E945901C0
S113062089818460898341E050E0BE016F5F7F4F20
S11306308DE10E9488010F90DF91CF910895CF93AF
S1130640DF931F92CDB7DEB787E0898341E050E0A6
S1130650BE016F5F7F4F86E00E948801198241E0EE
S113066050E0BE016F5F7F4F81E00E94880181E00E
S1130670898341E050E0BE016F5F7F4F86E00E94B6
S113068088010E94EE018FE99CE80197F1F700C010
S113069000000E94320281E00E9437010F90DF9136
S11306A0CF910895CF93DF931F921F92CDB7DEB7FA
S11306B0E0E4F6E080EB818380E58093C00880E18C
S11306C0818382E0818380E00E94370181E00E947F
S11306D048010E94D5010E9413028EE0898341E003
S11306E050E0BE016F5F7F4F87E00E9488018BE07E
S11306F08A8341E050E0BE016E5F7F4F80E00E943C
S113070088010E9470020E94F1020E941F030F9050
S11307100F90DF91CF910895EF92FF921F93CF93A3
S1130720DF937C01EB011091B52480E00E94370136
S11307301C161D0694F50E94B502BE01A19714F083
S113074060E270E0C7010E94B001C091B6240E942B
S1130750510281E00E9437018AE68A95F1F700C0D0
S113076080E00E94370107C00E94DF018093B72414
S11307709093B82400000E94A9028823A9F30000E2
S11307800E94B502C33011F40E943202812F0E94EC
S113079037018AE28A95F1F700C080E090E0DF91AA
S11307A0CF911F91FF90EF900895FC01818185FF07
S11307B0FDCF6083818186FFFDCF80E481838081CA
S11307C008951F93CF93DF93C0EAD6E018E01E8309
S11307D0E0E6F6E091E096839683682F80EA99E05C
S11307E00E94D5031D83DF91CF911F910895EF924D
S11307F0FF920F931F93CF93DF93C0EAD6E018E0E4
S11308001E830F2EF0E6EF2EF6E0FF2EF02D01E012
S1130810F7010583682F80EA99E00E94D503F70168
S113082006831D83DF91CF911F910F91FF90EF906D
S113083008958770806B0E94E1030895CF93C82FB9
S1130840982F9F77892F82958F7080610E94E10392
S11308508C2F8F700E94E103CF910895CF93DF9383
S1130860EC01FB018C818F7E8C83A0E6B6E082E0F4
S113087011968C93119715968C938D81806C8D8332
S113088084818D7F813021F48D8182608D8303C0CA
S11308908D818D7F8D838581882321F08D81846076
S11308A08D8303C08D818B7F8D8380819181A28113
S11308B0B3819C01AD01220F331F441F551F60E01B
S11308C078E488EE91E00E94A80721503109832F33
S11308D08F708F832E838C8188608C83DF91CF917E
S11308E00895CF93DF9300D000D0CDB7DEB720EAD0
S11308F036E088E0D90111968C93A0E6B6E091E049
S113090011969C931197E0E0F6E0818392E01196B2
S11309109C93119711968C93D90115968C93868389
S1130920BAE6BA95F1F700C08583EAE6EA95F1F7ED
S113093000C0E0E7F0E084818F7E848380E09BE167
S1130940A7EBB0E089839A83AB83BC831D821E82AC
S1130950BE016F5F7F4F80EA99E00E942E0488EA0F
S11309600E94E1038FE10E94E10383ED0E94E10311
S113097080E00E94E10380E40E94E10381EA0E9496
S1130980E10388EC0E94E1038AED0E94E10382E026
S11309900E94E10381E80E94E1038FE80E94E103E1
S11309A084EA0E94E10386EA0E94E10385ED0E9445
S11309B0E10380E80E94E1038DE80E94E10384E101
S11309C00E94E1038BED0E94E10380E40E94E103B5
S11309D089ED0E94E10381EF0E94E1038FEA0E9406
S11309E0E1032696CDBFDEBFDF91CF910895EF924C
S11309F0FF920F931F93CF93DC01EC91EE2329F127
S1130A007C01BFEFEB1AFB0AEF37D0F4F0E0EE0FF6
S1130A10FF1FEF56FE4D00811181F801808188236C
S1130A2061F0C1E0F801EC0FF11D80810E94F70331
S1130A30CF5FD8019C919C17A8F780E00E94F70330
S1130A40D701ED917D01E111DFCFCF911F910F917E
S1130A50FF90EF90089520E8829FC0011124860F33
S1130A60911DE091B222F091B322E80FF91F408367
S1130A70089520E8829FC0011124860F911DE09102
S1130A80B222F091B322E80FF91F808108951F93D9
S1130A90CF93DF93182FD62FC42F211104C00E94A7
S1130AA039058C1771F04C2F6D2F812F0E942B0567
S1130AB0812F0E9419048D2F0E941E048C2F0E94E6
S1130AC0F703DF91CF911F910895CF93DF93CDB7B3
S1130AD0DEB72897CDBFDEBF80EE97E089839A8387
S1130AE01B820E9452030E94030380E00E94820240
S1130AF081E00E94820282E00E94820283E00E94DE
S1130B00820284E00E94820285E00E94820280E0E8
S1130B100E94CA0281E00E94CA0282E00E94CA02C4
S1130B2083E00E94CA0284E00E94CA0285E00E9417
S1130B30CA0284EB92E28093B2229093B3220E9481
S1130B407104000000E0802F0E94190480E00E94DC
S1130B501E0410E080E00E94F7031F5F1038D1F7F5
S1130B600F5F043081F780E40E94E10300E00CC0D1
S1130B7021E040E0612F802F0E9447051F5F10385D
S1130B80B9F70F5F043011F010E0F2CF000080E0FD
S1130B900E9419048FE992E20E94F70461E0CE01F9
S1130BA001960E943406E0E5F0E080818260808353
S1130BB0818181FFFDCF81E00E94850681E00E9452
S1130BC07B060F2EF0EECF2EF7E0DF2EF02DEE2475
S1130BD0E3940F2EF5E0FF2EF02D8E010C5F1F4FD6
S1130BE0F601E782FFEF27EA81E6F15020408040DA
S1130BF0E1F700C00000E4EAF2E2D8018F2D019091
S1130C000D928A95E1F7F80101900020E9F73197F8
S1130C10BF01601B710BC8010E948C03E1CF83E00C
S1130C208093E60780E38093660682E08093E5077D
S1130C3080E180936506089583E08093E60780E36E
S1130C408093660681E08093E50710926506089517
S1130C5080919D2290919E22009729F00197809384
S1130C609D2290939E220895662379F0DC01ED91F4
S1130C70FC91119721E030E0A90112960C9002C07A
S1130C80440F551F0A94E2F741830895DC01ED9166
S1130C90FC91119721E030E0A90112960C9002C05A
S1130CA0440F551F0A94E2F745830895DC01ED9142
S1130CB0FC91119721E030E0A90112960C9002C03A
S1130CC0440F551F0A94E2F7468308950F93CF9378
S1130CD0DF931F92CDB7DEB72FB72983F8941BBEDD
S1130CE0FC0108ED04BF608389818FBF0F90DF9101
S1130CF0CF910F910895E0E5F0E09081282F2095A1
S1130D00922390839081892308950F931F93CF9307
S1130D10C82F00E410E0F8016081687F682B80E44C
S1130D2090E00E946606F80180818C23CF911F9188
S1130D300F91089508958093CA24282F2F7030E0CE
S1130D404091C6045091C7048823E4F464E8629F88
S1130D50C001639F900D1124835F9A4D8093C62434
S1130D609093C724C90182959295907F9827807F9C
S1130D70982708969A01280F391F2093C824309386
S1130D80C924089564E8629FC001639F900D1124F3
S1130D9085539B4D8093C6249093C7242295329506
S1130DA0307F3227207F3227240F351F2093C82419
S1130DB03093C92408951F93CF93DF93D82F162F10
S1130DC0C42F0E949B06E091C824F091C92411828B
S1130DD0E091C824F091C924DD23A4F01082E091AD
S1130DE0C824F091C9241183E091C824F091C92446
S1130DF0128213828091C6249091C72484839583A0
S1130E0040E014C082E08083E091C824F091C924BA
S1130E101183E091C824F091C92412821382809135
S1130E20C6249091C724848395834C2FFC01E05CF5
S1130E30FF4F40833196108281E0DF91CF911F9163
S1130E400895E0ECF4E0A681B78119961C92A6817E
S1130E50B78111961C92A681B78159961C9206807F
S1130E60F781E02D118A08951F920F920FB60F9209
S1130E7011240BB60F922F933F934F935F936F936D
S1130E807F938F939F93AF93BF93EF93FF9380913F
S1130E90CA0488234CF48091C80488232CF480E885
S1130EA08093CA040E9428068091CA0486FF07C062
S1130EB080E48093CA041092BD240E941C06809191
S1130EC0CA0485FF16C080E28093CA048091B924C5
S1130ED0882321F084E08093BD2409C08091C30459
S1130EE0811102C081E001C083E08093BD240E948F
S1130EF00F068091CA0484FF18C0E0ECF4E080E19E
S1130F00828782E08093BD241092B92413820E94C8
S1130F10210748E068E480E80E94DB0648E068E4D2
S1130F2080E00E94DB060E949A06FF91EF91BF9138
S1130F30AF919F918F917F916F915F914F913F916D
S1130F402F910F900BBE0F900FBE0F901F9018950E
S1130F50A1E21A2EAA1BBB1BFD010DC0AA1FBB1FB9
S1130F60EE1FFF1FA217B307E407F50720F0A21B2B
S1130F70B30BE40BF50B661F771F881F991F1A9498
S1130F8069F760957095809590959B01AC01BD01C2
S10B0F90CF010895F894FFCF8E
S1130F9840060140060405100810201003826C1056
S1130FA801FE03106C8203C8A8980418A0A0780551
S1130FB888502050880538C030C0380518608060D3
S1130FC81804788080F803087C880490A8A848034B
S1130FD8F8100804102828F804F828281004708841
S1130FE8887004F81008F005F808F008F001FE0409
S1130FF8FE20508802807A01FA04FE1008F00410DA
S1131008A8A87803FC12020470A8A8300470888881
S1131018FE047088888804FE88887004708888F8BC
S11310280202040380808003040204038282FE0314
S11310380638C003FE828205C2A2928A8605060883
S1131048F0080605C6281028C6053EC038C03E0567
S11310580E30C0300E047E80807E050202FE02023D
S1131068044C92926404FE1232CC057C82A242BCE7
S113107804FE12120C047C82827C05FE041860FEB5
S113108805FE040804FE04FE80808005FE10284442
S113109882044080807E0382FE8204FE1010FE05D6
S11310A87C829292F404FE12120204FE929282044A
S11310B8FE82827C047C82824404FE92926C05F84F
S11310C8141214F808384492AAAABA241805040277
S11310D8A2120C0482442810042828282804102862
S11310E8448201C40144054C9292927C056C92920C
S11310F8926C050202F20A06057C92929264055EDD
S11311088A8A8A7205302824FE2005448292926CC9
S11311180584C2A2928C050084FE8000057CA292FC
S11311288A7C03C0380601800310101001C0031024
S113113838100328102803824438033844820106EF
S1131148056C92AC40A005462610C8C4054854FE58
S113115854240528FE28FE280306000601BE0200C2
S113116800CE21CC21C821C221BC21B621B021AE98
S113117821AA21A621A2219E219C2198219621926F
S1131188218C21862180217A2174216E2168216293
S1131198215C215621542152214D21482143213DCE
S11311A82134212E21292124211F211A2115210F1F
S11311B8210A2106210121FB20F620F020EA20E55E
S11311C820E020DA20D520D020CA20C520BF20B9AD
S11311D820B320AD20A720A3209F209B20972093F5
S11311E82090208B20862081207C20772073206EFD
S11311F8206920672064205F205D20572052204DFD
S113120820482043203F203A20362031202B202517
S1131218201F201A201620122010200C200620003F
S11312288108000001AA220800000000000000450F
S10D12384D4F4E00746573740000FE
S9030000FC
